{
  "contractName": "Auction",
  "abi": [
    {
      "inputs": [
        {
          "internalType": "address payable",
          "name": "creator",
          "type": "address"
        },
        {
          "internalType": "uint256",
          "name": "toknId",
          "type": "uint256"
        }
      ],
      "stateMutability": "nonpayable",
      "type": "constructor"
    },
    {
      "inputs": [],
      "name": "auctionState",
      "outputs": [
        {
          "internalType": "enum Auction.State",
          "name": "",
          "type": "uint8"
        }
      ],
      "stateMutability": "view",
      "type": "function"
    },
    {
      "inputs": [
        {
          "internalType": "uint256",
          "name": "",
          "type": "uint256"
        }
      ],
      "name": "bidders",
      "outputs": [
        {
          "internalType": "address payable",
          "name": "",
          "type": "address"
        }
      ],
      "stateMutability": "view",
      "type": "function"
    },
    {
      "inputs": [
        {
          "internalType": "address",
          "name": "",
          "type": "address"
        }
      ],
      "name": "bids",
      "outputs": [
        {
          "internalType": "uint256",
          "name": "",
          "type": "uint256"
        }
      ],
      "stateMutability": "view",
      "type": "function"
    },
    {
      "inputs": [],
      "name": "collectibleId",
      "outputs": [
        {
          "internalType": "uint256",
          "name": "",
          "type": "uint256"
        }
      ],
      "stateMutability": "view",
      "type": "function"
    },
    {
      "inputs": [],
      "name": "endBlock",
      "outputs": [
        {
          "internalType": "uint256",
          "name": "",
          "type": "uint256"
        }
      ],
      "stateMutability": "view",
      "type": "function"
    },
    {
      "inputs": [],
      "name": "highestBidder",
      "outputs": [
        {
          "internalType": "address payable",
          "name": "",
          "type": "address"
        }
      ],
      "stateMutability": "view",
      "type": "function"
    },
    {
      "inputs": [],
      "name": "highestBindingBid",
      "outputs": [
        {
          "internalType": "uint256",
          "name": "",
          "type": "uint256"
        }
      ],
      "stateMutability": "view",
      "type": "function"
    },
    {
      "inputs": [],
      "name": "owner",
      "outputs": [
        {
          "internalType": "address payable",
          "name": "",
          "type": "address"
        }
      ],
      "stateMutability": "view",
      "type": "function"
    },
    {
      "inputs": [],
      "name": "startBlock",
      "outputs": [
        {
          "internalType": "uint256",
          "name": "",
          "type": "uint256"
        }
      ],
      "stateMutability": "view",
      "type": "function"
    },
    {
      "inputs": [],
      "name": "cancelAuction",
      "outputs": [],
      "stateMutability": "nonpayable",
      "type": "function"
    },
    {
      "inputs": [],
      "name": "placeBid",
      "outputs": [
        {
          "internalType": "bool",
          "name": "",
          "type": "bool"
        }
      ],
      "stateMutability": "payable",
      "type": "function"
    },
    {
      "inputs": [],
      "name": "finalizeAuction",
      "outputs": [],
      "stateMutability": "nonpayable",
      "type": "function"
    }
  ],
  "bytecode": "0x60806040523480156200001157600080fd5b506040516200128438038062001284833981810160405281019062000037919062000115565b816000806101000a81548173ffffffffffffffffffffffffffffffffffffffff021916908373ffffffffffffffffffffffffffffffffffffffff1602179055506001600560006101000a81548160ff02191690836003811115620000c4577f4e487b7100000000000000000000000000000000000000000000000000000000600052602160045260246000fd5b02179055504360018190555080600381905550600a6009819055505050620001c8565b600081519050620000f88162000194565b92915050565b6000815190506200010f81620001ae565b92915050565b600080604083850312156200012957600080fd5b60006200013985828601620000e7565b92505060206200014c85828601620000fe565b9150509250929050565b600062000163826200016a565b9050919050565b600073ffffffffffffffffffffffffffffffffffffffff82169050919050565b6000819050919050565b6200019f8162000156565b8114620001ab57600080fd5b50565b620001b9816200018a565b8114620001c557600080fd5b50565b6110ac80620001d86000396000f3fe6080604052600436106100a75760003560e01c80638fa8b790116100645780638fa8b790146101c057806391f90157146101d7578063cff29dfd14610202578063ecfc7ecc1461023f578063f5b56c561461025d578063f77282ab14610288576100a7565b8063083c6323146100ac5780631b2b1f7d146100d757806348cd4cb11461010257806362ea82db1461012d5780637fb450991461016a5780638da5cb5b14610195575b600080fd5b3480156100b857600080fd5b506100c161029f565b6040516100ce9190610e69565b60405180910390f35b3480156100e357600080fd5b506100ec6102a5565b6040516100f99190610e69565b60405180910390f35b34801561010e57600080fd5b506101176102ab565b6040516101249190610e69565b60405180910390f35b34801561013957600080fd5b50610154600480360381019061014f9190610d8a565b6102b1565b6040516101619190610e69565b60405180910390f35b34801561017657600080fd5b5061017f6102c9565b60405161018c9190610e4e565b60405180910390f35b3480156101a157600080fd5b506101aa6102dc565b6040516101b79190610e18565b60405180910390f35b3480156101cc57600080fd5b506101d5610300565b005b3480156101e357600080fd5b506101ec61051a565b6040516101f99190610e18565b60405180910390f35b34801561020e57600080fd5b5061022960048036038101906102249190610db3565b610540565b6040516102369190610e18565b60405180910390f35b61024761057f565b6040516102549190610e33565b60405180910390f35b34801561026957600080fd5b50610272610989565b60405161027f9190610e69565b60405180910390f35b34801561029457600080fd5b5061029d61098f565b005b60025481565b60035481565b60015481565b60086020528060005260406000206000915090505481565b600560009054906101000a900460ff1681565b60008054906101000a900473ffffffffffffffffffffffffffffffffffffffff1681565b60008054906101000a900473ffffffffffffffffffffffffffffffffffffffff1673ffffffffffffffffffffffffffffffffffffffff163373ffffffffffffffffffffffffffffffffffffffff161461035857600080fd5b6003600560006101000a81548160ff021916908360038111156103a4577f4e487b7100000000000000000000000000000000000000000000000000000000600052602160045260246000fd5b021790555060005b600480549050811161051757600481815481106103f2577f4e487b7100000000000000000000000000000000000000000000000000000000600052603260045260246000fd5b9060005260206000200160009054906101000a900473ffffffffffffffffffffffffffffffffffffffff1673ffffffffffffffffffffffffffffffffffffffff166108fc6008600060048581548110610474577f4e487b7100000000000000000000000000000000000000000000000000000000600052603260045260246000fd5b9060005260206000200160009054906101000a900473ffffffffffffffffffffffffffffffffffffffff1673ffffffffffffffffffffffffffffffffffffffff1673ffffffffffffffffffffffffffffffffffffffff168152602001908152602001600020549081150290604051600060405180830381858888f19350505050158015610505573d6000803e3d6000fd5b508061051090610f8d565b90506103ac565b50565b600760009054906101000a900473ffffffffffffffffffffffffffffffffffffffff1681565b6004818154811061055057600080fd5b906000526020600020016000915054906101000a900473ffffffffffffffffffffffffffffffffffffffff1681565b60008060009054906101000a900473ffffffffffffffffffffffffffffffffffffffff1673ffffffffffffffffffffffffffffffffffffffff163373ffffffffffffffffffffffffffffffffffffffff1614156105db57600080fd5b6001544310156105ea57600080fd5b60016003811115610624577f4e487b7100000000000000000000000000000000000000000000000000000000600052602160045260246000fd5b600560009054906101000a900460ff16600381111561066c577f4e487b7100000000000000000000000000000000000000000000000000000000600052602160045260246000fd5b1461067657600080fd5b66038d7ea4c68000341161068957600080fd5b6000600860003373ffffffffffffffffffffffffffffffffffffffff1673ffffffffffffffffffffffffffffffffffffffff168152602001908152602001600020541415610735576004339080600181540180825580915050600190039060005260206000200160009091909190916101000a81548173ffffffffffffffffffffffffffffffffffffffff021916908373ffffffffffffffffffffffffffffffffffffffff1602179055505b600034600860003373ffffffffffffffffffffffffffffffffffffffff1673ffffffffffffffffffffffffffffffffffffffff168152602001908152602001600020546107829190610e84565b9050600654811161079257600080fd5b80600860003373ffffffffffffffffffffffffffffffffffffffff1673ffffffffffffffffffffffffffffffffffffffff1681526020019081526020016000208190555060086000600760009054906101000a900473ffffffffffffffffffffffffffffffffffffffff1673ffffffffffffffffffffffffffffffffffffffff1673ffffffffffffffffffffffffffffffffffffffff1681526020019081526020016000205481116108c1576108b66009548261084f9190610e84565b60086000600760009054906101000a900473ffffffffffffffffffffffffffffffffffffffff1673ffffffffffffffffffffffffffffffffffffffff1673ffffffffffffffffffffffffffffffffffffffff16815260200190815260200160002054610d44565b600681905550610981565b6109398160095460086000600760009054906101000a900473ffffffffffffffffffffffffffffffffffffffff1673ffffffffffffffffffffffffffffffffffffffff1673ffffffffffffffffffffffffffffffffffffffff168152602001908152602001600020546109349190610e84565b610d44565b60068190555033600760006101000a81548173ffffffffffffffffffffffffffffffffffffffff021916908373ffffffffffffffffffffffffffffffffffffffff1602179055505b600191505090565b60065481565b60008054906101000a900473ffffffffffffffffffffffffffffffffffffffff1673ffffffffffffffffffffffffffffffffffffffff163373ffffffffffffffffffffffffffffffffffffffff16146109e757600080fd5b600380811115610a20577f4e487b7100000000000000000000000000000000000000000000000000000000600052602160045260246000fd5b600560009054906101000a900460ff166003811115610a68577f4e487b7100000000000000000000000000000000000000000000000000000000600052602160045260246000fd5b1415610a7357600080fd5b60008060008054906101000a900473ffffffffffffffffffffffffffffffffffffffff16915060065490508173ffffffffffffffffffffffffffffffffffffffff166108fc829081150290604051600060405180830381858888f19350505050158015610ae4573d6000803e3d6000fd5b5060005b6004805490508111610ce757600760009054906101000a900473ffffffffffffffffffffffffffffffffffffffff1673ffffffffffffffffffffffffffffffffffffffff1660048281548110610b67577f4e487b7100000000000000000000000000000000000000000000000000000000600052603260045260246000fd5b9060005260206000200160009054906101000a900473ffffffffffffffffffffffffffffffffffffffff1673ffffffffffffffffffffffffffffffffffffffff161415610c4957600760009054906101000a900473ffffffffffffffffffffffffffffffffffffffff16925060065460086000600760009054906101000a900473ffffffffffffffffffffffffffffffffffffffff1673ffffffffffffffffffffffffffffffffffffffff1673ffffffffffffffffffffffffffffffffffffffff16815260200190815260200160002054610c429190610eda565b9150610c8f565b339250600860003373ffffffffffffffffffffffffffffffffffffffff1673ffffffffffffffffffffffffffffffffffffffff1681526020019081526020016000205491505b8273ffffffffffffffffffffffffffffffffffffffff166108fc839081150290604051600060405180830381858888f19350505050158015610cd5573d6000803e3d6000fd5b5080610ce090610f8d565b9050610ae8565b506002600560006101000a81548160ff02191690836003811115610d34577f4e487b7100000000000000000000000000000000000000000000000000000000600052602160045260246000fd5b0217905550436002819055505050565b600081831015610d5657829050610d5a565b8190505b92915050565b600081359050610d6f81611048565b92915050565b600081359050610d848161105f565b92915050565b600060208284031215610d9c57600080fd5b6000610daa84828501610d60565b91505092915050565b600060208284031215610dc557600080fd5b6000610dd384828501610d75565b91505092915050565b610de581610f20565b82525050565b610df481610f32565b82525050565b610e0381610f7b565b82525050565b610e1281610f71565b82525050565b6000602082019050610e2d6000830184610ddc565b92915050565b6000602082019050610e486000830184610deb565b92915050565b6000602082019050610e636000830184610dfa565b92915050565b6000602082019050610e7e6000830184610e09565b92915050565b6000610e8f82610f71565b9150610e9a83610f71565b9250827fffffffffffffffffffffffffffffffffffffffffffffffffffffffffffffffff03821115610ecf57610ece610fd6565b5b828201905092915050565b6000610ee582610f71565b9150610ef083610f71565b925082821015610f0357610f02610fd6565b5b828203905092915050565b6000610f1982610f51565b9050919050565b6000610f2b82610f51565b9050919050565b60008115159050919050565b6000819050610f4c82611034565b919050565b600073ffffffffffffffffffffffffffffffffffffffff82169050919050565b6000819050919050565b6000610f8682610f3e565b9050919050565b6000610f9882610f71565b91507fffffffffffffffffffffffffffffffffffffffffffffffffffffffffffffffff821415610fcb57610fca610fd6565b5b600182019050919050565b7f4e487b7100000000000000000000000000000000000000000000000000000000600052601160045260246000fd5b7f4e487b7100000000000000000000000000000000000000000000000000000000600052602160045260246000fd5b6004811061104557611044611005565b5b50565b61105181610f0e565b811461105c57600080fd5b50565b61106881610f71565b811461107357600080fd5b5056fea264697066735822122068e1c1542aec8058744874a9899bdbb27bf32b44c2808b0991956a715d59f9bf64736f6c63430008000033",
  "immutableReferences": {},
  "source": "pragma solidity ^0.8.0;\r\n\r\n\r\n\r\ncontract Auction{\r\n    address payable public owner;\r\n    uint public startBlock;\r\n    uint public endBlock;\r\n    uint256 public collectibleId;\r\n   \r\n\r\n    address payable[] public bidders;\r\n    enum State {Started, Running, Ended, Cancelled}\r\n    State public auctionState;\r\n    \r\n    uint public highestBindingBid;\r\n    address payable public highestBidder;\r\n    \r\n    mapping(address => uint) public bids;\r\n    \r\n    uint bidIncrement;\r\n    \r\n    \r\n    constructor(address payable creator, uint256 toknId){\r\n        owner = creator;\r\n        auctionState = State.Running;\r\n        \r\n        startBlock = block.number;\r\n        collectibleId = toknId;\r\n        bidIncrement = 10;\r\n    }\r\n    \r\n    modifier notOwner(){\r\n        require(msg.sender != owner);\r\n        _;\r\n    }\r\n    \r\n    modifier onlyOwner(){\r\n        require(msg.sender == owner);\r\n        _;\r\n    }\r\n    \r\n    modifier afterStart(){\r\n        require(block.number >= startBlock);\r\n        _;\r\n    }\r\n    \r\n    // modifier beforeEnd(){\r\n    //     require(block.number <= endBlock);\r\n    //     _;\r\n    // }\r\n    \r\n    \r\n    function min(uint a, uint b) pure internal returns (uint){\r\n        if(a<b){\r\n            return a;\r\n        } else {\r\n            return b;\r\n        }\r\n    }\r\n    \r\n    function cancelAuction() public onlyOwner{\r\n        auctionState = State.Cancelled;\r\n        for(uint i = 0; i <= bidders.length; ++i){\r\n          \r\n          bidders[i].transfer(bids[bidders[i]]);\r\n        }\r\n\r\n    }\r\n    \r\n    function placeBid() public payable notOwner afterStart returns(bool){\r\n        require(auctionState == State.Running);\r\n        require(msg.value > 0.001 ether);  \r\n        if(bids[msg.sender] == 0){\r\n          bidders.push(payable(msg.sender));\r\n        }\r\n        uint currentBid = bids[msg.sender] + msg.value;\r\n        \r\n        \r\n        require(currentBid > highestBindingBid);\r\n        \r\n        bids[msg.sender] = currentBid;\r\n        \r\n        if(currentBid <= bids[highestBidder]) {\r\n            highestBindingBid = min(currentBid + bidIncrement, bids[highestBidder]);\r\n        } else {\r\n            highestBindingBid = min(currentBid, bids[highestBidder] + bidIncrement);\r\n            highestBidder = payable(msg.sender);\r\n        }\r\n        \r\n        return true;\r\n    }\r\n    \r\n    function finalizeAuction() public onlyOwner{\r\n        require(auctionState != State.Cancelled);\r\n        address payable recipient;\r\n        uint value;\r\n        \r\n        \r\n            \r\n        recipient = owner;\r\n        value = highestBindingBid;\r\n        recipient.transfer(value);\r\n        for(uint i = 0; i <= bidders.length; ++i){\r\n          if(bidders[i] == highestBidder){\r\n            recipient = highestBidder;\r\n            value = bids[highestBidder] - highestBindingBid;\r\n          }else{\r\n            recipient = payable(msg.sender);\r\n            value = bids[msg.sender];\r\n          }\r\n          recipient.transfer(value);\r\n        }\r\n        \r\n        \r\n        auctionState = State.Ended;\r\n        endBlock = block.number;\r\n        \r\n    }\r\n}",
  "sourcePath": "C:\\Users\\lenovo\\OneDrive\\Desktop\\projects\\Tokn\\contracts\\Auction.sol",
  "compiler": {
    "name": "solc",
    "version": "0.8.0+commit.c7dfd78e.Emscripten.clang"
  },
  "schemaVersion": "3.4.1",
  "updatedAt": "2021-07-16T10:19:29.104Z",
  "devdoc": {
    "kind": "dev",
    "methods": {},
    "version": 1
  },
  "userdoc": {
    "kind": "user",
    "methods": {},
    "version": 1
  }
}