{
  "contractName": "Auction",
  "abi": [
    {
      "inputs": [
        {
          "internalType": "address payable",
          "name": "creator",
          "type": "address"
        },
        {
          "internalType": "uint256",
          "name": "toknId",
          "type": "uint256"
        }
      ],
      "stateMutability": "nonpayable",
      "type": "constructor"
    },
    {
      "inputs": [],
      "name": "auctionState",
      "outputs": [
        {
          "internalType": "enum Auction.State",
          "name": "",
          "type": "uint8"
        }
      ],
      "stateMutability": "view",
      "type": "function"
    },
    {
      "inputs": [
        {
          "internalType": "uint256",
          "name": "",
          "type": "uint256"
        }
      ],
      "name": "bidders",
      "outputs": [
        {
          "internalType": "address payable",
          "name": "",
          "type": "address"
        }
      ],
      "stateMutability": "view",
      "type": "function"
    },
    {
      "inputs": [
        {
          "internalType": "address",
          "name": "",
          "type": "address"
        }
      ],
      "name": "bids",
      "outputs": [
        {
          "internalType": "uint256",
          "name": "",
          "type": "uint256"
        }
      ],
      "stateMutability": "view",
      "type": "function"
    },
    {
      "inputs": [],
      "name": "collectibleId",
      "outputs": [
        {
          "internalType": "uint256",
          "name": "",
          "type": "uint256"
        }
      ],
      "stateMutability": "view",
      "type": "function"
    },
    {
      "inputs": [],
      "name": "highestBid",
      "outputs": [
        {
          "internalType": "uint256",
          "name": "",
          "type": "uint256"
        }
      ],
      "stateMutability": "view",
      "type": "function"
    },
    {
      "inputs": [],
      "name": "highestBidder",
      "outputs": [
        {
          "internalType": "address payable",
          "name": "",
          "type": "address"
        }
      ],
      "stateMutability": "view",
      "type": "function"
    },
    {
      "inputs": [],
      "name": "owner",
      "outputs": [
        {
          "internalType": "address payable",
          "name": "",
          "type": "address"
        }
      ],
      "stateMutability": "view",
      "type": "function"
    },
    {
      "inputs": [
        {
          "internalType": "address",
          "name": "sender",
          "type": "address"
        }
      ],
      "name": "cancelAuction",
      "outputs": [],
      "stateMutability": "nonpayable",
      "type": "function"
    },
    {
      "inputs": [
        {
          "internalType": "address",
          "name": "sender",
          "type": "address"
        }
      ],
      "name": "placeBid",
      "outputs": [
        {
          "internalType": "bool",
          "name": "",
          "type": "bool"
        }
      ],
      "stateMutability": "payable",
      "type": "function"
    },
    {
      "inputs": [],
      "name": "finalizeAuction",
      "outputs": [],
      "stateMutability": "nonpayable",
      "type": "function"
    }
  ],
  "bytecode": "0x60806040523480156200001157600080fd5b506040516200103c3803806200103c833981810160405281019062000037919062000106565b816000806101000a81548173ffffffffffffffffffffffffffffffffffffffff021916908373ffffffffffffffffffffffffffffffffffffffff1602179055506001600360006101000a81548160ff02191690836003811115620000c4577f4e487b7100000000000000000000000000000000000000000000000000000000600052602160045260246000fd5b0217905550806001819055505050620001b9565b600081519050620000e98162000185565b92915050565b60008151905062000100816200019f565b92915050565b600080604083850312156200011a57600080fd5b60006200012a85828601620000d8565b92505060206200013d85828601620000ef565b9150509250929050565b600062000154826200015b565b9050919050565b600073ffffffffffffffffffffffffffffffffffffffff82169050919050565b6000819050919050565b620001908162000147565b81146200019c57600080fd5b50565b620001aa816200017b565b8114620001b657600080fd5b50565b610e7380620001c96000396000f3fe6080604052600436106100ae576000357c010000000000000000000000000000000000000000000000000000000090048063cff29dfd11610076578063cff29dfd1461019c578063d22cf3a4146101d9578063d57bde7914610202578063e49401571461022d578063f77282ab1461025d576100ae565b80631b2b1f7d146100b357806362ea82db146100de5780637fb450991461011b5780638da5cb5b1461014657806391f9015714610171575b600080fd5b3480156100bf57600080fd5b506100c8610274565b6040516100d59190610c64565b60405180910390f35b3480156100ea57600080fd5b5061010560048036038101906101009190610b85565b61027a565b6040516101129190610c64565b60405180910390f35b34801561012757600080fd5b50610130610292565b60405161013d9190610c49565b60405180910390f35b34801561015257600080fd5b5061015b6102a5565b6040516101689190610c13565b60405180910390f35b34801561017d57600080fd5b506101866102c9565b6040516101939190610c13565b60405180910390f35b3480156101a857600080fd5b506101c360048036038101906101be9190610bae565b6102ef565b6040516101d09190610c13565b60405180910390f35b3480156101e557600080fd5b5061020060048036038101906101fb9190610b85565b61032e565b005b34801561020e57600080fd5b50610217610549565b6040516102249190610c64565b60405180910390f35b61024760048036038101906102429190610b85565b61054f565b6040516102549190610c2e565b60405180910390f35b34801561026957600080fd5b506102726107e9565b005b60015481565b60066020528060005260406000206000915090505481565b600360009054906101000a900460ff1681565b60008054906101000a900473ffffffffffffffffffffffffffffffffffffffff1681565b600560009054906101000a900473ffffffffffffffffffffffffffffffffffffffff1681565b600281815481106102ff57600080fd5b906000526020600020016000915054906101000a900473ffffffffffffffffffffffffffffffffffffffff1681565b60008054906101000a900473ffffffffffffffffffffffffffffffffffffffff1673ffffffffffffffffffffffffffffffffffffffff168173ffffffffffffffffffffffffffffffffffffffff161461038657600080fd5b60038060006101000a81548160ff021916908360038111156103d1577f4e487b7100000000000000000000000000000000000000000000000000000000600052602160045260246000fd5b021790555060005b6002805490508110156105455760028181548110610420577f4e487b7100000000000000000000000000000000000000000000000000000000600052603260045260246000fd5b9060005260206000200160009054906101000a900473ffffffffffffffffffffffffffffffffffffffff1673ffffffffffffffffffffffffffffffffffffffff166108fc60066000600285815481106104a2577f4e487b7100000000000000000000000000000000000000000000000000000000600052603260045260246000fd5b9060005260206000200160009054906101000a900473ffffffffffffffffffffffffffffffffffffffff1673ffffffffffffffffffffffffffffffffffffffff1673ffffffffffffffffffffffffffffffffffffffff168152602001908152602001600020549081150290604051600060405180830381858888f19350505050158015610533573d6000803e3d6000fd5b508061053e90610d54565b90506103d9565b5050565b60045481565b60008060009054906101000a900473ffffffffffffffffffffffffffffffffffffffff1673ffffffffffffffffffffffffffffffffffffffff168273ffffffffffffffffffffffffffffffffffffffff1614156105ab57600080fd5b600160038111156105e5577f4e487b7100000000000000000000000000000000000000000000000000000000600052602160045260246000fd5b600360009054906101000a900460ff16600381111561062d577f4e487b7100000000000000000000000000000000000000000000000000000000600052602160045260246000fd5b1461063757600080fd5b66038d7ea4c68000341161064a57600080fd5b6000600660008473ffffffffffffffffffffffffffffffffffffffff1673ffffffffffffffffffffffffffffffffffffffff1681526020019081526020016000205414156106f6576002829080600181540180825580915050600190039060005260206000200160009091909190916101000a81548173ffffffffffffffffffffffffffffffffffffffff021916908373ffffffffffffffffffffffffffffffffffffffff1602179055505b600034600660008573ffffffffffffffffffffffffffffffffffffffff1673ffffffffffffffffffffffffffffffffffffffff168152602001908152602001600020546107439190610c7f565b9050600454811161075357600080fd5b80600660008573ffffffffffffffffffffffffffffffffffffffff1673ffffffffffffffffffffffffffffffffffffffff168152602001908152602001600020819055508060048190555082600560006101000a81548173ffffffffffffffffffffffffffffffffffffffff021916908373ffffffffffffffffffffffffffffffffffffffff1602179055506001915050919050565b600380811115610822577f4e487b7100000000000000000000000000000000000000000000000000000000600052602160045260246000fd5b600360009054906101000a900460ff16600381111561086a577f4e487b7100000000000000000000000000000000000000000000000000000000600052602160045260246000fd5b141561087557600080fd5b60008054906101000a900473ffffffffffffffffffffffffffffffffffffffff1673ffffffffffffffffffffffffffffffffffffffff166108fc6004549081150290604051600060405180830381858888f193505050501580156108dd573d6000803e3d6000fd5b5060005b600280549050811015610b0757600560009054906101000a900473ffffffffffffffffffffffffffffffffffffffff1673ffffffffffffffffffffffffffffffffffffffff1660028281548110610961577f4e487b7100000000000000000000000000000000000000000000000000000000600052603260045260246000fd5b9060005260206000200160009054906101000a900473ffffffffffffffffffffffffffffffffffffffff1673ffffffffffffffffffffffffffffffffffffffff1614610af657600281815481106109e1577f4e487b7100000000000000000000000000000000000000000000000000000000600052603260045260246000fd5b9060005260206000200160009054906101000a900473ffffffffffffffffffffffffffffffffffffffff1673ffffffffffffffffffffffffffffffffffffffff166108fc6006600060028581548110610a63577f4e487b7100000000000000000000000000000000000000000000000000000000600052603260045260246000fd5b9060005260206000200160009054906101000a900473ffffffffffffffffffffffffffffffffffffffff1673ffffffffffffffffffffffffffffffffffffffff1673ffffffffffffffffffffffffffffffffffffffff168152602001908152602001600020549081150290604051600060405180830381858888f19350505050158015610af4573d6000803e3d6000fd5b505b80610b0090610d54565b90506108e1565b506002600360006101000a81548160ff02191690836003811115610b54577f4e487b7100000000000000000000000000000000000000000000000000000000600052602160045260246000fd5b0217905550565b600081359050610b6a81610e0f565b92915050565b600081359050610b7f81610e26565b92915050565b600060208284031215610b9757600080fd5b6000610ba584828501610b5b565b91505092915050565b600060208284031215610bc057600080fd5b6000610bce84828501610b70565b91505092915050565b610be081610ce7565b82525050565b610bef81610cf9565b82525050565b610bfe81610d42565b82525050565b610c0d81610d38565b82525050565b6000602082019050610c286000830184610bd7565b92915050565b6000602082019050610c436000830184610be6565b92915050565b6000602082019050610c5e6000830184610bf5565b92915050565b6000602082019050610c796000830184610c04565b92915050565b6000610c8a82610d38565b9150610c9583610d38565b9250827fffffffffffffffffffffffffffffffffffffffffffffffffffffffffffffffff03821115610cca57610cc9610d9d565b5b828201905092915050565b6000610ce082610d18565b9050919050565b6000610cf282610d18565b9050919050565b60008115159050919050565b6000819050610d1382610dfb565b919050565b600073ffffffffffffffffffffffffffffffffffffffff82169050919050565b6000819050919050565b6000610d4d82610d05565b9050919050565b6000610d5f82610d38565b91507fffffffffffffffffffffffffffffffffffffffffffffffffffffffffffffffff821415610d9257610d91610d9d565b5b600182019050919050565b7f4e487b7100000000000000000000000000000000000000000000000000000000600052601160045260246000fd5b7f4e487b7100000000000000000000000000000000000000000000000000000000600052602160045260246000fd5b60048110610e0c57610e0b610dcc565b5b50565b610e1881610cd5565b8114610e2357600080fd5b50565b610e2f81610d38565b8114610e3a57600080fd5b5056fea2646970667358221220d9c630c9abfb0b56e115c08529b53eeda2d957c3e6a88d94b2547ef3547cc49064736f6c63430008000033",
  "immutableReferences": {},
  "source": "pragma solidity ^0.8.0;\r\n\r\n// Contract for bidding on NFT\r\ncontract Auction{\r\n    address payable public owner;\r\n    // uint public startBlock;\r\n    // uint public endBlock;\r\n    uint256 public collectibleId;\r\n\r\n    address payable[] public bidders;\r\n    enum State {Started, Running, Ended, Cancelled}\r\n    State public auctionState;\r\n    \r\n    uint public highestBid;\r\n    address payable public highestBidder;\r\n    \r\n    mapping(address => uint) public bids;\r\n    \r\n    \r\n    // Assigning the msg.sender as the owner of the auction\r\n    constructor(address payable creator, uint256 toknId){\r\n        owner = creator;\r\n        auctionState = State.Running;\r\n        // startBlock = block.number;\r\n        collectibleId = toknId;\r\n    }\r\n    \r\n       \r\n    \r\n    // Cancelling teh auction if creator decides not to sell NFT\r\n    function cancelAuction(address sender) public {\r\n        require(sender == owner);\r\n        auctionState = State.Cancelled;\r\n        for(uint i = 0; i < bidders.length; ++i){\r\n          \r\n          bidders[i].transfer(bids[bidders[i]]);\r\n        }\r\n\r\n    }\r\n    \r\n    // Placing bid on the auction\r\n    function placeBid(address sender) public payable returns(bool){\r\n        require(sender != owner);\r\n        require(auctionState == State.Running);\r\n        require(msg.value > 0.001 ether);  \r\n        if(bids[sender] == 0){\r\n          bidders.push(payable(sender));\r\n        }\r\n        uint currentBid = bids[sender] + msg.value;\r\n        \r\n        \r\n        require(currentBid > highestBid);\r\n        \r\n        bids[sender] = currentBid;\r\n\r\n        // Setting the highest binding bid\r\n        \r\n        \r\n        highestBid = currentBid;\r\n        highestBidder = payable(sender);\r\n        \r\n        \r\n        return true;\r\n    }\r\n    \r\n    // Finalizing the auction and declaring teh winner\r\n    function finalizeAuction() public {\r\n        require(auctionState != State.Cancelled);\r\n      \r\n        \r\n        \r\n        // Transferring the highestBinding Bid to teh owners account\r\n        \r\n        owner.transfer(highestBid);\r\n\r\n        // Transferring rest of the bid amounts back to the bidders\r\n        for(uint i = 0; i < bidders.length; ++i){\r\n          if(bidders[i] != highestBidder){\r\n          \r\n            bidders[i].transfer(bids[bidders[i]]);\r\n          }\r\n          \r\n        }\r\n        \r\n        // Ending the auction\r\n        auctionState = State.Ended;\r\n        // endBlock = block.number;\r\n        \r\n    }\r\n}",
  "sourcePath": "C:/Users/lenovo/OneDrive/Desktop/projects/Tokn/contracts/Auction.sol",
  "compiler": {
    "name": "solc",
    "version": "0.8.0+commit.c7dfd78e.Emscripten.clang"
  },
  "schemaVersion": "3.4.1",
  "updatedAt": "2021-07-20T17:48:19.861Z",
  "devdoc": {
    "kind": "dev",
    "methods": {},
    "version": 1
  },
  "userdoc": {
    "kind": "user",
    "methods": {},
    "version": 1
  }
}