{
  "contractName": "Auction",
  "abi": [
    {
      "inputs": [
        {
          "internalType": "address payable",
          "name": "creator",
          "type": "address"
        }
      ],
      "stateMutability": "nonpayable",
      "type": "constructor"
    },
    {
      "inputs": [],
      "name": "auctionState",
      "outputs": [
        {
          "internalType": "enum Auction.State",
          "name": "",
          "type": "uint8"
        }
      ],
      "stateMutability": "view",
      "type": "function"
    },
    {
      "inputs": [
        {
          "internalType": "uint256",
          "name": "",
          "type": "uint256"
        }
      ],
      "name": "bidders",
      "outputs": [
        {
          "internalType": "address payable",
          "name": "",
          "type": "address"
        }
      ],
      "stateMutability": "view",
      "type": "function"
    },
    {
      "inputs": [
        {
          "internalType": "address",
          "name": "",
          "type": "address"
        }
      ],
      "name": "bids",
      "outputs": [
        {
          "internalType": "uint256",
          "name": "",
          "type": "uint256"
        }
      ],
      "stateMutability": "view",
      "type": "function"
    },
    {
      "inputs": [],
      "name": "highestBid",
      "outputs": [
        {
          "internalType": "uint256",
          "name": "",
          "type": "uint256"
        }
      ],
      "stateMutability": "view",
      "type": "function"
    },
    {
      "inputs": [],
      "name": "highestBidder",
      "outputs": [
        {
          "internalType": "address payable",
          "name": "",
          "type": "address"
        }
      ],
      "stateMutability": "view",
      "type": "function"
    },
    {
      "inputs": [],
      "name": "owner",
      "outputs": [
        {
          "internalType": "address payable",
          "name": "",
          "type": "address"
        }
      ],
      "stateMutability": "view",
      "type": "function"
    },
    {
      "inputs": [
        {
          "internalType": "address",
          "name": "sender",
          "type": "address"
        }
      ],
      "name": "cancelAuction",
      "outputs": [],
      "stateMutability": "nonpayable",
      "type": "function"
    },
    {
      "inputs": [
        {
          "internalType": "address",
          "name": "sender",
          "type": "address"
        }
      ],
      "name": "placeBid",
      "outputs": [],
      "stateMutability": "payable",
      "type": "function"
    },
    {
      "inputs": [],
      "name": "finalizeAuction",
      "outputs": [],
      "stateMutability": "nonpayable",
      "type": "function"
    }
  ],
  "bytecode": "0x608060405234801561001057600080fd5b50604051610f13380380610f13833981810160405281019061003291906100de565b806000806101000a81548173ffffffffffffffffffffffffffffffffffffffff021916908373ffffffffffffffffffffffffffffffffffffffff1602179055506001600260006101000a81548160ff021916908360038111156100be577f4e487b7100000000000000000000000000000000000000000000000000000000600052602160045260246000fd5b021790555050610150565b6000815190506100d881610139565b92915050565b6000602082840312156100f057600080fd5b60006100fe848285016100c9565b91505092915050565b600061011282610119565b9050919050565b600073ffffffffffffffffffffffffffffffffffffffff82169050919050565b61014281610107565b811461014d57600080fd5b50565b610db48061015f6000396000f3fe6080604052600436106100865760003560e01c8063cff29dfd11610059578063cff29dfd14610149578063d22cf3a414610186578063d57bde79146101af578063e4940157146101da578063f77282ab146101f657610086565b806362ea82db1461008b5780637fb45099146100c85780638da5cb5b146100f357806391f901571461011e575b600080fd5b34801561009757600080fd5b506100b260048036038101906100ad9190610afc565b61020d565b6040516100bf9190610bb1565b60405180910390f35b3480156100d457600080fd5b506100dd610225565b6040516100ea9190610b96565b60405180910390f35b3480156100ff57600080fd5b50610108610238565b6040516101159190610b7b565b60405180910390f35b34801561012a57600080fd5b5061013361025c565b6040516101409190610b7b565b60405180910390f35b34801561015557600080fd5b50610170600480360381019061016b9190610b25565b610282565b60405161017d9190610b7b565b60405180910390f35b34801561019257600080fd5b506101ad60048036038101906101a89190610afc565b6102c1565b005b3480156101bb57600080fd5b506101c46104dd565b6040516101d19190610bb1565b60405180910390f35b6101f460048036038101906101ef9190610afc565b6104e3565b005b34801561020257600080fd5b5061020b610761565b005b60056020528060005260406000206000915090505481565b600260009054906101000a900460ff1681565b60008054906101000a900473ffffffffffffffffffffffffffffffffffffffff1681565b600460009054906101000a900473ffffffffffffffffffffffffffffffffffffffff1681565b6001818154811061029257600080fd5b906000526020600020016000915054906101000a900473ffffffffffffffffffffffffffffffffffffffff1681565b60008054906101000a900473ffffffffffffffffffffffffffffffffffffffff1673ffffffffffffffffffffffffffffffffffffffff168173ffffffffffffffffffffffffffffffffffffffff161461031957600080fd5b6003600260006101000a81548160ff02191690836003811115610365577f4e487b7100000000000000000000000000000000000000000000000000000000600052602160045260246000fd5b021790555060005b6001805490508110156104d957600181815481106103b4577f4e487b7100000000000000000000000000000000000000000000000000000000600052603260045260246000fd5b9060005260206000200160009054906101000a900473ffffffffffffffffffffffffffffffffffffffff1673ffffffffffffffffffffffffffffffffffffffff166108fc6005600060018581548110610436577f4e487b7100000000000000000000000000000000000000000000000000000000600052603260045260246000fd5b9060005260206000200160009054906101000a900473ffffffffffffffffffffffffffffffffffffffff1673ffffffffffffffffffffffffffffffffffffffff1673ffffffffffffffffffffffffffffffffffffffff168152602001908152602001600020549081150290604051600060405180830381858888f193505050501580156104c7573d6000803e3d6000fd5b50806104d290610c95565b905061036d565b5050565b60035481565b60008054906101000a900473ffffffffffffffffffffffffffffffffffffffff1673ffffffffffffffffffffffffffffffffffffffff168173ffffffffffffffffffffffffffffffffffffffff16141561053c57600080fd5b60016003811115610576577f4e487b7100000000000000000000000000000000000000000000000000000000600052602160045260246000fd5b600260009054906101000a900460ff1660038111156105be577f4e487b7100000000000000000000000000000000000000000000000000000000600052602160045260246000fd5b146105c857600080fd5b6000600560008373ffffffffffffffffffffffffffffffffffffffff1673ffffffffffffffffffffffffffffffffffffffff168152602001908152602001600020541415610674576001819080600181540180825580915050600190039060005260206000200160009091909190916101000a81548173ffffffffffffffffffffffffffffffffffffffff021916908373ffffffffffffffffffffffffffffffffffffffff1602179055505b600034600560008473ffffffffffffffffffffffffffffffffffffffff1673ffffffffffffffffffffffffffffffffffffffff168152602001908152602001600020546106c19190610bcc565b905060035481116106d157600080fd5b80600560008473ffffffffffffffffffffffffffffffffffffffff1673ffffffffffffffffffffffffffffffffffffffff168152602001908152602001600020819055508060038190555081600460006101000a81548173ffffffffffffffffffffffffffffffffffffffff021916908373ffffffffffffffffffffffffffffffffffffffff1602179055505050565b60038081111561079a577f4e487b7100000000000000000000000000000000000000000000000000000000600052602160045260246000fd5b600260009054906101000a900460ff1660038111156107e2577f4e487b7100000000000000000000000000000000000000000000000000000000600052602160045260246000fd5b14156107ed57600080fd5b60008054906101000a900473ffffffffffffffffffffffffffffffffffffffff1673ffffffffffffffffffffffffffffffffffffffff166108fc6003549081150290604051600060405180830381858888f19350505050158015610855573d6000803e3d6000fd5b5060005b600180549050811015610a7f57600460009054906101000a900473ffffffffffffffffffffffffffffffffffffffff1673ffffffffffffffffffffffffffffffffffffffff16600182815481106108d9577f4e487b7100000000000000000000000000000000000000000000000000000000600052603260045260246000fd5b9060005260206000200160009054906101000a900473ffffffffffffffffffffffffffffffffffffffff1673ffffffffffffffffffffffffffffffffffffffff1614610a6e5760018181548110610959577f4e487b7100000000000000000000000000000000000000000000000000000000600052603260045260246000fd5b9060005260206000200160009054906101000a900473ffffffffffffffffffffffffffffffffffffffff1673ffffffffffffffffffffffffffffffffffffffff166108fc60056000600185815481106109db577f4e487b7100000000000000000000000000000000000000000000000000000000600052603260045260246000fd5b9060005260206000200160009054906101000a900473ffffffffffffffffffffffffffffffffffffffff1673ffffffffffffffffffffffffffffffffffffffff1673ffffffffffffffffffffffffffffffffffffffff168152602001908152602001600020549081150290604051600060405180830381858888f19350505050158015610a6c573d6000803e3d6000fd5b505b80610a7890610c95565b9050610859565b5060028060006101000a81548160ff02191690836003811115610acb577f4e487b7100000000000000000000000000000000000000000000000000000000600052602160045260246000fd5b0217905550565b600081359050610ae181610d50565b92915050565b600081359050610af681610d67565b92915050565b600060208284031215610b0e57600080fd5b6000610b1c84828501610ad2565b91505092915050565b600060208284031215610b3757600080fd5b6000610b4584828501610ae7565b91505092915050565b610b5781610c34565b82525050565b610b6681610c83565b82525050565b610b7581610c79565b82525050565b6000602082019050610b906000830184610b4e565b92915050565b6000602082019050610bab6000830184610b5d565b92915050565b6000602082019050610bc66000830184610b6c565b92915050565b6000610bd782610c79565b9150610be283610c79565b9250827fffffffffffffffffffffffffffffffffffffffffffffffffffffffffffffffff03821115610c1757610c16610cde565b5b828201905092915050565b6000610c2d82610c59565b9050919050565b6000610c3f82610c59565b9050919050565b6000819050610c5482610d3c565b919050565b600073ffffffffffffffffffffffffffffffffffffffff82169050919050565b6000819050919050565b6000610c8e82610c46565b9050919050565b6000610ca082610c79565b91507fffffffffffffffffffffffffffffffffffffffffffffffffffffffffffffffff821415610cd357610cd2610cde565b5b600182019050919050565b7f4e487b7100000000000000000000000000000000000000000000000000000000600052601160045260246000fd5b7f4e487b7100000000000000000000000000000000000000000000000000000000600052602160045260246000fd5b60048110610d4d57610d4c610d0d565b5b50565b610d5981610c22565b8114610d6457600080fd5b50565b610d7081610c79565b8114610d7b57600080fd5b5056fea264697066735822122061703e9eb9daefc24c004e903d86a7c30e0a8cc8404c9137ece482364107cd2e64736f6c63430008000033",
  "immutableReferences": {},
  "source": "pragma solidity ^0.8.0;\r\n\r\n// Contract for bidding on NFT\r\ncontract Auction{\r\n    address payable public owner;\r\n    // uint public startBlock;\r\n    // uint public endBlock;\r\n    // uint256 public collectibleId;\r\n\r\n    address payable[] public bidders;\r\n    enum State {Started, Running, Ended, Cancelled}\r\n    State public auctionState;\r\n    \r\n    uint public highestBid;\r\n    address payable public highestBidder;\r\n    \r\n    mapping(address => uint) public bids;\r\n    \r\n    \r\n    // Assigning the msg.sender as the owner of the auction\r\n    constructor(address payable creator){\r\n        owner = creator;\r\n        auctionState = State.Running;\r\n        // startBlock = block.number;\r\n        // collectibleId = toknId;\r\n    }\r\n    \r\n       \r\n    \r\n    // Cancelling teh auction if creator decides not to sell NFT\r\n    function cancelAuction(address sender) public {\r\n        require(sender == owner);\r\n        auctionState = State.Cancelled;\r\n        for(uint i = 0; i < bidders.length; ++i){\r\n          \r\n          bidders[i].transfer(bids[bidders[i]]);\r\n        }\r\n\r\n    }\r\n    \r\n    // Placing bid on the auction\r\n    function placeBid(address sender) public payable{\r\n        require(sender != owner);\r\n        require(auctionState == State.Running);\r\n        // require(msg.value > 0.001 ether);  \r\n        if(bids[sender] == 0){\r\n          bidders.push(payable(sender));\r\n        }\r\n        uint currentBid = bids[sender] + msg.value;\r\n        \r\n        \r\n        require(currentBid > highestBid);\r\n        \r\n        bids[sender] = currentBid;\r\n\r\n        // Setting the highest binding bid\r\n        \r\n        \r\n        highestBid = currentBid;\r\n        highestBidder = payable(sender);\r\n        \r\n        \r\n      \r\n    }\r\n    \r\n    // Finalizing the auction and declaring teh winner\r\n    function finalizeAuction() public {\r\n        require(auctionState != State.Cancelled);\r\n      \r\n        \r\n        \r\n        // Transferring the highestBinding Bid to teh owners account\r\n        \r\n        owner.transfer(highestBid);\r\n\r\n        // Transferring rest of the bid amounts back to the bidders\r\n        for(uint i = 0; i < bidders.length; ++i){\r\n          if(bidders[i] != highestBidder){\r\n          \r\n            bidders[i].transfer(bids[bidders[i]]);\r\n          }\r\n          \r\n        }\r\n        \r\n        // Ending the auction\r\n        auctionState = State.Ended;\r\n        // endBlock = block.number;\r\n        \r\n    }\r\n}",
  "sourcePath": "C:/Users/lenovo/OneDrive/Desktop/projects/Tokn/contracts/Auction.sol",
  "compiler": {
    "name": "solc",
    "version": "0.8.0+commit.c7dfd78e.Emscripten.clang"
  },
  "schemaVersion": "3.4.1",
  "updatedAt": "2021-07-28T08:02:23.232Z",
  "devdoc": {
    "kind": "dev",
    "methods": {},
    "version": 1
  },
  "userdoc": {
    "kind": "user",
    "methods": {},
    "version": 1
  }
}