{
  "contractName": "Auction",
  "abi": [
    {
      "inputs": [
        {
          "internalType": "address payable",
          "name": "creator",
          "type": "address"
        }
      ],
      "stateMutability": "nonpayable",
      "type": "constructor"
    },
    {
      "inputs": [],
      "name": "auctionState",
      "outputs": [
        {
          "internalType": "enum Auction.State",
          "name": "",
          "type": "uint8"
        }
      ],
      "stateMutability": "view",
      "type": "function"
    },
    {
      "inputs": [
        {
          "internalType": "uint256",
          "name": "",
          "type": "uint256"
        }
      ],
      "name": "bidders",
      "outputs": [
        {
          "internalType": "address payable",
          "name": "",
          "type": "address"
        }
      ],
      "stateMutability": "view",
      "type": "function"
    },
    {
      "inputs": [
        {
          "internalType": "address",
          "name": "",
          "type": "address"
        }
      ],
      "name": "bids",
      "outputs": [
        {
          "internalType": "uint256",
          "name": "",
          "type": "uint256"
        }
      ],
      "stateMutability": "view",
      "type": "function"
    },
    {
      "inputs": [],
      "name": "highestBid",
      "outputs": [
        {
          "internalType": "uint256",
          "name": "",
          "type": "uint256"
        }
      ],
      "stateMutability": "view",
      "type": "function"
    },
    {
      "inputs": [],
      "name": "highestBidder",
      "outputs": [
        {
          "internalType": "address payable",
          "name": "",
          "type": "address"
        }
      ],
      "stateMutability": "view",
      "type": "function"
    },
    {
      "inputs": [],
      "name": "owner",
      "outputs": [
        {
          "internalType": "address payable",
          "name": "",
          "type": "address"
        }
      ],
      "stateMutability": "view",
      "type": "function"
    },
    {
      "inputs": [
        {
          "internalType": "address",
          "name": "sender",
          "type": "address"
        }
      ],
      "name": "cancelAuction",
      "outputs": [],
      "stateMutability": "nonpayable",
      "type": "function"
    },
    {
      "inputs": [
        {
          "internalType": "address",
          "name": "sender",
          "type": "address"
        }
      ],
      "name": "placeBid",
      "outputs": [
        {
          "internalType": "bool",
          "name": "",
          "type": "bool"
        }
      ],
      "stateMutability": "payable",
      "type": "function"
    },
    {
      "inputs": [],
      "name": "finalizeAuction",
      "outputs": [],
      "stateMutability": "nonpayable",
      "type": "function"
    }
  ],
  "bytecode": "0x608060405234801561001057600080fd5b50604051610f79380380610f79833981810160405281019061003291906100de565b806000806101000a81548173ffffffffffffffffffffffffffffffffffffffff021916908373ffffffffffffffffffffffffffffffffffffffff1602179055506001600260006101000a81548160ff021916908360038111156100be577f4e487b7100000000000000000000000000000000000000000000000000000000600052602160045260246000fd5b021790555050610150565b6000815190506100d881610139565b92915050565b6000602082840312156100f057600080fd5b60006100fe848285016100c9565b91505092915050565b600061011282610119565b9050919050565b600073ffffffffffffffffffffffffffffffffffffffff82169050919050565b61014281610107565b811461014d57600080fd5b50565b610e1a8061015f6000396000f3fe6080604052600436106100865760003560e01c8063cff29dfd11610059578063cff29dfd14610149578063d22cf3a414610186578063d57bde79146101af578063e4940157146101da578063f77282ab1461020a57610086565b806362ea82db1461008b5780637fb45099146100c85780638da5cb5b146100f357806391f901571461011e575b600080fd5b34801561009757600080fd5b506100b260048036038101906100ad9190610b2c565b610221565b6040516100bf9190610c0b565b60405180910390f35b3480156100d457600080fd5b506100dd610239565b6040516100ea9190610bf0565b60405180910390f35b3480156100ff57600080fd5b5061010861024c565b6040516101159190610bba565b60405180910390f35b34801561012a57600080fd5b50610133610270565b6040516101409190610bba565b60405180910390f35b34801561015557600080fd5b50610170600480360381019061016b9190610b55565b610296565b60405161017d9190610bba565b60405180910390f35b34801561019257600080fd5b506101ad60048036038101906101a89190610b2c565b6102d5565b005b3480156101bb57600080fd5b506101c46104f1565b6040516101d19190610c0b565b60405180910390f35b6101f460048036038101906101ef9190610b2c565b6104f7565b6040516102019190610bd5565b60405180910390f35b34801561021657600080fd5b5061021f610791565b005b60056020528060005260406000206000915090505481565b600260009054906101000a900460ff1681565b60008054906101000a900473ffffffffffffffffffffffffffffffffffffffff1681565b600460009054906101000a900473ffffffffffffffffffffffffffffffffffffffff1681565b600181815481106102a657600080fd5b906000526020600020016000915054906101000a900473ffffffffffffffffffffffffffffffffffffffff1681565b60008054906101000a900473ffffffffffffffffffffffffffffffffffffffff1673ffffffffffffffffffffffffffffffffffffffff168173ffffffffffffffffffffffffffffffffffffffff161461032d57600080fd5b6003600260006101000a81548160ff02191690836003811115610379577f4e487b7100000000000000000000000000000000000000000000000000000000600052602160045260246000fd5b021790555060005b6001805490508110156104ed57600181815481106103c8577f4e487b7100000000000000000000000000000000000000000000000000000000600052603260045260246000fd5b9060005260206000200160009054906101000a900473ffffffffffffffffffffffffffffffffffffffff1673ffffffffffffffffffffffffffffffffffffffff166108fc600560006001858154811061044a577f4e487b7100000000000000000000000000000000000000000000000000000000600052603260045260246000fd5b9060005260206000200160009054906101000a900473ffffffffffffffffffffffffffffffffffffffff1673ffffffffffffffffffffffffffffffffffffffff1673ffffffffffffffffffffffffffffffffffffffff168152602001908152602001600020549081150290604051600060405180830381858888f193505050501580156104db573d6000803e3d6000fd5b50806104e690610cfb565b9050610381565b5050565b60035481565b60008060009054906101000a900473ffffffffffffffffffffffffffffffffffffffff1673ffffffffffffffffffffffffffffffffffffffff168273ffffffffffffffffffffffffffffffffffffffff16141561055357600080fd5b6001600381111561058d577f4e487b7100000000000000000000000000000000000000000000000000000000600052602160045260246000fd5b600260009054906101000a900460ff1660038111156105d5577f4e487b7100000000000000000000000000000000000000000000000000000000600052602160045260246000fd5b146105df57600080fd5b66038d7ea4c6800034116105f257600080fd5b6000600560008473ffffffffffffffffffffffffffffffffffffffff1673ffffffffffffffffffffffffffffffffffffffff16815260200190815260200160002054141561069e576001829080600181540180825580915050600190039060005260206000200160009091909190916101000a81548173ffffffffffffffffffffffffffffffffffffffff021916908373ffffffffffffffffffffffffffffffffffffffff1602179055505b600034600560008573ffffffffffffffffffffffffffffffffffffffff1673ffffffffffffffffffffffffffffffffffffffff168152602001908152602001600020546106eb9190610c26565b905060035481116106fb57600080fd5b80600560008573ffffffffffffffffffffffffffffffffffffffff1673ffffffffffffffffffffffffffffffffffffffff168152602001908152602001600020819055508060038190555082600460006101000a81548173ffffffffffffffffffffffffffffffffffffffff021916908373ffffffffffffffffffffffffffffffffffffffff1602179055506001915050919050565b6003808111156107ca577f4e487b7100000000000000000000000000000000000000000000000000000000600052602160045260246000fd5b600260009054906101000a900460ff166003811115610812577f4e487b7100000000000000000000000000000000000000000000000000000000600052602160045260246000fd5b141561081d57600080fd5b60008054906101000a900473ffffffffffffffffffffffffffffffffffffffff1673ffffffffffffffffffffffffffffffffffffffff166108fc6003549081150290604051600060405180830381858888f19350505050158015610885573d6000803e3d6000fd5b5060005b600180549050811015610aaf57600460009054906101000a900473ffffffffffffffffffffffffffffffffffffffff1673ffffffffffffffffffffffffffffffffffffffff1660018281548110610909577f4e487b7100000000000000000000000000000000000000000000000000000000600052603260045260246000fd5b9060005260206000200160009054906101000a900473ffffffffffffffffffffffffffffffffffffffff1673ffffffffffffffffffffffffffffffffffffffff1614610a9e5760018181548110610989577f4e487b7100000000000000000000000000000000000000000000000000000000600052603260045260246000fd5b9060005260206000200160009054906101000a900473ffffffffffffffffffffffffffffffffffffffff1673ffffffffffffffffffffffffffffffffffffffff166108fc6005600060018581548110610a0b577f4e487b7100000000000000000000000000000000000000000000000000000000600052603260045260246000fd5b9060005260206000200160009054906101000a900473ffffffffffffffffffffffffffffffffffffffff1673ffffffffffffffffffffffffffffffffffffffff1673ffffffffffffffffffffffffffffffffffffffff168152602001908152602001600020549081150290604051600060405180830381858888f19350505050158015610a9c573d6000803e3d6000fd5b505b80610aa890610cfb565b9050610889565b5060028060006101000a81548160ff02191690836003811115610afb577f4e487b7100000000000000000000000000000000000000000000000000000000600052602160045260246000fd5b0217905550565b600081359050610b1181610db6565b92915050565b600081359050610b2681610dcd565b92915050565b600060208284031215610b3e57600080fd5b6000610b4c84828501610b02565b91505092915050565b600060208284031215610b6757600080fd5b6000610b7584828501610b17565b91505092915050565b610b8781610c8e565b82525050565b610b9681610ca0565b82525050565b610ba581610ce9565b82525050565b610bb481610cdf565b82525050565b6000602082019050610bcf6000830184610b7e565b92915050565b6000602082019050610bea6000830184610b8d565b92915050565b6000602082019050610c056000830184610b9c565b92915050565b6000602082019050610c206000830184610bab565b92915050565b6000610c3182610cdf565b9150610c3c83610cdf565b9250827fffffffffffffffffffffffffffffffffffffffffffffffffffffffffffffffff03821115610c7157610c70610d44565b5b828201905092915050565b6000610c8782610cbf565b9050919050565b6000610c9982610cbf565b9050919050565b60008115159050919050565b6000819050610cba82610da2565b919050565b600073ffffffffffffffffffffffffffffffffffffffff82169050919050565b6000819050919050565b6000610cf482610cac565b9050919050565b6000610d0682610cdf565b91507fffffffffffffffffffffffffffffffffffffffffffffffffffffffffffffffff821415610d3957610d38610d44565b5b600182019050919050565b7f4e487b7100000000000000000000000000000000000000000000000000000000600052601160045260246000fd5b7f4e487b7100000000000000000000000000000000000000000000000000000000600052602160045260246000fd5b60048110610db357610db2610d73565b5b50565b610dbf81610c7c565b8114610dca57600080fd5b50565b610dd681610cdf565b8114610de157600080fd5b5056fea26469706673582212202328129fd86dbe101045ba5295f3029d672ad2bc6e741654801f2def0efc805764736f6c63430008000033",
  "immutableReferences": {},
  "source": "pragma solidity ^0.8.0;\r\n\r\n// Contract for bidding on NFT\r\ncontract Auction{\r\n    address payable public owner;\r\n    // uint public startBlock;\r\n    // uint public endBlock;\r\n    // uint256 public collectibleId;\r\n\r\n    address payable[] public bidders;\r\n    enum State {Started, Running, Ended, Cancelled}\r\n    State public auctionState;\r\n    \r\n    uint public highestBid;\r\n    address payable public highestBidder;\r\n    \r\n    mapping(address => uint) public bids;\r\n    \r\n    \r\n    // Assigning the msg.sender as the owner of the auction\r\n    constructor(address payable creator){\r\n        owner = creator;\r\n        auctionState = State.Running;\r\n        // startBlock = block.number;\r\n        // collectibleId = toknId;\r\n    }\r\n    \r\n       \r\n    \r\n    // Cancelling teh auction if creator decides not to sell NFT\r\n    function cancelAuction(address sender) public {\r\n        require(sender == owner);\r\n        auctionState = State.Cancelled;\r\n        for(uint i = 0; i < bidders.length; ++i){\r\n          \r\n          bidders[i].transfer(bids[bidders[i]]);\r\n        }\r\n\r\n    }\r\n    \r\n    // Placing bid on the auction\r\n    function placeBid(address sender) public payable returns(bool){\r\n        require(sender != owner);\r\n        require(auctionState == State.Running);\r\n        require(msg.value > 0.001 ether);  \r\n        if(bids[sender] == 0){\r\n          bidders.push(payable(sender));\r\n        }\r\n        uint currentBid = bids[sender] + msg.value;\r\n        \r\n        \r\n        require(currentBid > highestBid);\r\n        \r\n        bids[sender] = currentBid;\r\n\r\n        // Setting the highest binding bid\r\n        \r\n        \r\n        highestBid = currentBid;\r\n        highestBidder = payable(sender);\r\n        \r\n        \r\n        return true;\r\n    }\r\n    \r\n    // Finalizing the auction and declaring teh winner\r\n    function finalizeAuction() public {\r\n        require(auctionState != State.Cancelled);\r\n      \r\n        \r\n        \r\n        // Transferring the highestBinding Bid to teh owners account\r\n        \r\n        owner.transfer(highestBid);\r\n\r\n        // Transferring rest of the bid amounts back to the bidders\r\n        for(uint i = 0; i < bidders.length; ++i){\r\n          if(bidders[i] != highestBidder){\r\n          \r\n            bidders[i].transfer(bids[bidders[i]]);\r\n          }\r\n          \r\n        }\r\n        \r\n        // Ending the auction\r\n        auctionState = State.Ended;\r\n        // endBlock = block.number;\r\n        \r\n    }\r\n}",
  "sourcePath": "C:\\Users\\lenovo\\OneDrive\\Desktop\\projects\\Tokn\\contracts\\Auction.sol",
  "compiler": {
    "name": "solc",
    "version": "0.8.0+commit.c7dfd78e.Emscripten.clang"
  },
  "schemaVersion": "3.4.1",
  "updatedAt": "2021-07-22T11:32:15.537Z",
  "devdoc": {
    "kind": "dev",
    "methods": {},
    "version": 1
  },
  "userdoc": {
    "kind": "user",
    "methods": {},
    "version": 1
  }
}