{
  "contractName": "ToknCollectible",
  "abi": [
    {
      "inputs": [
        {
          "internalType": "string",
          "name": "name",
          "type": "string"
        },
        {
          "internalType": "string",
          "name": "symbol",
          "type": "string"
        }
      ],
      "stateMutability": "nonpayable",
      "type": "constructor"
    },
    {
      "anonymous": false,
      "inputs": [
        {
          "indexed": true,
          "internalType": "address",
          "name": "owner",
          "type": "address"
        },
        {
          "indexed": true,
          "internalType": "address",
          "name": "approved",
          "type": "address"
        },
        {
          "indexed": true,
          "internalType": "uint256",
          "name": "tokenId",
          "type": "uint256"
        }
      ],
      "name": "Approval",
      "type": "event"
    },
    {
      "anonymous": false,
      "inputs": [
        {
          "indexed": true,
          "internalType": "address",
          "name": "owner",
          "type": "address"
        },
        {
          "indexed": true,
          "internalType": "address",
          "name": "operator",
          "type": "address"
        },
        {
          "indexed": false,
          "internalType": "bool",
          "name": "approved",
          "type": "bool"
        }
      ],
      "name": "ApprovalForAll",
      "type": "event"
    },
    {
      "anonymous": false,
      "inputs": [
        {
          "indexed": false,
          "internalType": "uint256",
          "name": "_collectibleID",
          "type": "uint256"
        },
        {
          "indexed": false,
          "internalType": "string",
          "name": "_title",
          "type": "string"
        },
        {
          "indexed": false,
          "internalType": "address",
          "name": "_owner",
          "type": "address"
        },
        {
          "indexed": false,
          "internalType": "string",
          "name": "_collectibleURI",
          "type": "string"
        }
      ],
      "name": "CollectibleCreated",
      "type": "event"
    },
    {
      "anonymous": false,
      "inputs": [
        {
          "indexed": true,
          "internalType": "address",
          "name": "from",
          "type": "address"
        },
        {
          "indexed": true,
          "internalType": "address",
          "name": "to",
          "type": "address"
        },
        {
          "indexed": true,
          "internalType": "uint256",
          "name": "tokenId",
          "type": "uint256"
        }
      ],
      "name": "Transfer",
      "type": "event"
    },
    {
      "inputs": [],
      "name": "_collectibleCount",
      "outputs": [
        {
          "internalType": "uint256",
          "name": "",
          "type": "uint256"
        }
      ],
      "stateMutability": "view",
      "type": "function"
    },
    {
      "inputs": [],
      "name": "_collectibleID",
      "outputs": [
        {
          "internalType": "uint256",
          "name": "",
          "type": "uint256"
        }
      ],
      "stateMutability": "view",
      "type": "function"
    },
    {
      "inputs": [
        {
          "internalType": "uint256",
          "name": "",
          "type": "uint256"
        }
      ],
      "name": "_collectibleList",
      "outputs": [
        {
          "internalType": "uint256",
          "name": "_collectibleID",
          "type": "uint256"
        },
        {
          "internalType": "string",
          "name": "_title",
          "type": "string"
        },
        {
          "internalType": "address",
          "name": "_owner",
          "type": "address"
        },
        {
          "internalType": "string",
          "name": "_collectibleURI",
          "type": "string"
        }
      ],
      "stateMutability": "view",
      "type": "function"
    },
    {
      "inputs": [
        {
          "internalType": "address",
          "name": "to",
          "type": "address"
        },
        {
          "internalType": "uint256",
          "name": "tokenId",
          "type": "uint256"
        }
      ],
      "name": "approve",
      "outputs": [],
      "stateMutability": "nonpayable",
      "type": "function"
    },
    {
      "inputs": [
        {
          "internalType": "address",
          "name": "owner",
          "type": "address"
        }
      ],
      "name": "balanceOf",
      "outputs": [
        {
          "internalType": "uint256",
          "name": "",
          "type": "uint256"
        }
      ],
      "stateMutability": "view",
      "type": "function"
    },
    {
      "inputs": [],
      "name": "creator",
      "outputs": [
        {
          "internalType": "address payable",
          "name": "",
          "type": "address"
        }
      ],
      "stateMutability": "view",
      "type": "function"
    },
    {
      "inputs": [
        {
          "internalType": "uint256",
          "name": "tokenId",
          "type": "uint256"
        }
      ],
      "name": "getApproved",
      "outputs": [
        {
          "internalType": "address",
          "name": "",
          "type": "address"
        }
      ],
      "stateMutability": "view",
      "type": "function"
    },
    {
      "inputs": [
        {
          "internalType": "address",
          "name": "owner",
          "type": "address"
        },
        {
          "internalType": "address",
          "name": "operator",
          "type": "address"
        }
      ],
      "name": "isApprovedForAll",
      "outputs": [
        {
          "internalType": "bool",
          "name": "",
          "type": "bool"
        }
      ],
      "stateMutability": "view",
      "type": "function"
    },
    {
      "inputs": [],
      "name": "name",
      "outputs": [
        {
          "internalType": "string",
          "name": "",
          "type": "string"
        }
      ],
      "stateMutability": "view",
      "type": "function"
    },
    {
      "inputs": [
        {
          "internalType": "uint256",
          "name": "tokenId",
          "type": "uint256"
        }
      ],
      "name": "ownerOf",
      "outputs": [
        {
          "internalType": "address",
          "name": "",
          "type": "address"
        }
      ],
      "stateMutability": "view",
      "type": "function"
    },
    {
      "inputs": [
        {
          "internalType": "address",
          "name": "from",
          "type": "address"
        },
        {
          "internalType": "address",
          "name": "to",
          "type": "address"
        },
        {
          "internalType": "uint256",
          "name": "tokenId",
          "type": "uint256"
        }
      ],
      "name": "safeTransferFrom",
      "outputs": [],
      "stateMutability": "nonpayable",
      "type": "function"
    },
    {
      "inputs": [
        {
          "internalType": "address",
          "name": "from",
          "type": "address"
        },
        {
          "internalType": "address",
          "name": "to",
          "type": "address"
        },
        {
          "internalType": "uint256",
          "name": "tokenId",
          "type": "uint256"
        },
        {
          "internalType": "bytes",
          "name": "_data",
          "type": "bytes"
        }
      ],
      "name": "safeTransferFrom",
      "outputs": [],
      "stateMutability": "nonpayable",
      "type": "function"
    },
    {
      "inputs": [
        {
          "internalType": "address",
          "name": "operator",
          "type": "address"
        },
        {
          "internalType": "bool",
          "name": "approved",
          "type": "bool"
        }
      ],
      "name": "setApprovalForAll",
      "outputs": [],
      "stateMutability": "nonpayable",
      "type": "function"
    },
    {
      "inputs": [
        {
          "internalType": "bytes4",
          "name": "interfaceId",
          "type": "bytes4"
        }
      ],
      "name": "supportsInterface",
      "outputs": [
        {
          "internalType": "bool",
          "name": "",
          "type": "bool"
        }
      ],
      "stateMutability": "view",
      "type": "function"
    },
    {
      "inputs": [],
      "name": "symbol",
      "outputs": [
        {
          "internalType": "string",
          "name": "",
          "type": "string"
        }
      ],
      "stateMutability": "view",
      "type": "function"
    },
    {
      "inputs": [
        {
          "internalType": "uint256",
          "name": "tokenId",
          "type": "uint256"
        }
      ],
      "name": "tokenURI",
      "outputs": [
        {
          "internalType": "string",
          "name": "",
          "type": "string"
        }
      ],
      "stateMutability": "view",
      "type": "function"
    },
    {
      "inputs": [
        {
          "internalType": "address",
          "name": "from",
          "type": "address"
        },
        {
          "internalType": "address",
          "name": "to",
          "type": "address"
        },
        {
          "internalType": "uint256",
          "name": "tokenId",
          "type": "uint256"
        }
      ],
      "name": "transferFrom",
      "outputs": [],
      "stateMutability": "nonpayable",
      "type": "function"
    },
    {
      "inputs": [
        {
          "internalType": "string",
          "name": "_title",
          "type": "string"
        },
        {
          "internalType": "string",
          "name": "_tokenURI",
          "type": "string"
        }
      ],
      "name": "create",
      "outputs": [
        {
          "internalType": "uint256",
          "name": "",
          "type": "uint256"
        }
      ],
      "stateMutability": "nonpayable",
      "type": "function"
    },
    {
      "inputs": [
        {
          "internalType": "uint256",
          "name": "toknID",
          "type": "uint256"
        }
      ],
      "name": "destroy",
      "outputs": [
        {
          "internalType": "bool",
          "name": "success",
          "type": "bool"
        }
      ],
      "stateMutability": "nonpayable",
      "type": "function"
    }
  ],
  "bytecode": "0x60806040523480156200001157600080fd5b50604051620031e1380380620031e18339818101604052810190620000379190620001a7565b818181600090805190602001906200005192919062000085565b5080600190805190602001906200006a92919062000085565b5050506000600681905550600060078190555050506200034b565b8280546200009390620002b7565b90600052602060002090601f016020900481019282620000b7576000855562000103565b82601f10620000d257805160ff191683800117855562000103565b8280016001018555821562000103579182015b8281111562000102578251825591602001919060010190620000e5565b5b50905062000112919062000116565b5090565b5b808211156200013157600081600090555060010162000117565b5090565b60006200014c62000146846200024e565b6200021a565b9050828152602081018484840111156200016557600080fd5b6200017284828562000281565b509392505050565b600082601f8301126200018c57600080fd5b81516200019e84826020860162000135565b91505092915050565b60008060408385031215620001bb57600080fd5b600083015167ffffffffffffffff811115620001d657600080fd5b620001e4858286016200017a565b925050602083015167ffffffffffffffff8111156200020257600080fd5b62000210858286016200017a565b9150509250929050565b6000604051905081810181811067ffffffffffffffff821117156200024457620002436200031c565b5b8060405250919050565b600067ffffffffffffffff8211156200026c576200026b6200031c565b5b601f19601f8301169050602081019050919050565b60005b83811015620002a157808201518184015260208101905062000284565b83811115620002b1576000848401525b50505050565b60006002820490506001821680620002d057607f821691505b60208210811415620002e757620002e6620002ed565b5b50919050565b7f4e487b7100000000000000000000000000000000000000000000000000000000600052602260045260246000fd5b7f4e487b7100000000000000000000000000000000000000000000000000000000600052604160045260246000fd5b612e86806200035b6000396000f3fe608060405234801561001057600080fd5b50600436106101215760003560e01c80636352211e116100ad578063b88d4fde11610071578063b88d4fde1461032e578063bab22d8d1461034a578063c87b56dd14610368578063ca225b9714610398578063e985e9c5146103cb57610121565b80636352211e1461026457806370a082311461029457806395d89b41146102c45780639d118770146102e2578063a22cb4651461031257610121565b8063095ea7b3116100f4578063095ea7b3146101c2578063198e2b8a146101de57806323b872dd1461020e57806342842e0e1461022a57806354bbdfab1461024657610121565b806301ffc9a71461012657806302d05d3f1461015657806306fdde0314610174578063081812fc14610192575b600080fd5b610140600480360381019061013b919061202b565b6103fb565b60405161014d91906127b9565b60405180910390f35b61015e6104dd565b60405161016b9190612752565b60405180910390f35b61017c610503565b60405161018991906127d4565b60405180910390f35b6101ac60048036038101906101a791906120e9565b610595565b6040516101b99190612737565b60405180910390f35b6101dc60048036038101906101d79190611fef565b61061a565b005b6101f860048036038101906101f3919061207d565b610732565b60405161020591906129b6565b60405180910390f35b61022860048036038101906102239190611ee9565b6108df565b005b610244600480360381019061023f9190611ee9565b61093f565b005b61024e61095f565b60405161025b91906129b6565b60405180910390f35b61027e600480360381019061027991906120e9565b610965565b60405161028b9190612737565b60405180910390f35b6102ae60048036038101906102a99190611e84565b610a17565b6040516102bb91906129b6565b60405180910390f35b6102cc610acf565b6040516102d991906127d4565b60405180910390f35b6102fc60048036038101906102f791906120e9565b610b61565b60405161030991906127b9565b60405180910390f35b61032c60048036038101906103279190611fb3565b610bec565b005b61034860048036038101906103439190611f38565b610d6d565b005b610352610dcf565b60405161035f91906129b6565b60405180910390f35b610382600480360381019061037d91906120e9565b610dd5565b60405161038f91906127d4565b60405180910390f35b6103b260048036038101906103ad91906120e9565b610e7c565b6040516103c294939291906129d1565b60405180910390f35b6103e560048036038101906103e09190611ead565b610fdc565b6040516103f291906127b9565b60405180910390f35b60007f80ac58cd000000000000000000000000000000000000000000000000000000007bffffffffffffffffffffffffffffffffffffffffffffffffffffffff1916827bffffffffffffffffffffffffffffffffffffffffffffffffffffffff191614806104c657507f5b5e139f000000000000000000000000000000000000000000000000000000007bffffffffffffffffffffffffffffffffffffffffffffffffffffffff1916827bffffffffffffffffffffffffffffffffffffffffffffffffffffffff1916145b806104d657506104d582611070565b5b9050919050565b600860009054906101000a900473ffffffffffffffffffffffffffffffffffffffff1681565b60606000805461051290612c7b565b80601f016020809104026020016040519081016040528092919081815260200182805461053e90612c7b565b801561058b5780601f106105605761010080835404028352916020019161058b565b820191906000526020600020905b81548152906001019060200180831161056e57829003601f168201915b5050505050905090565b60006105a0826110da565b6105df576040517f08c379a00000000000000000000000000000000000000000000000000000000081526004016105d690612916565b60405180910390fd5b6004600083815260200190815260200160002060009054906101000a900473ffffffffffffffffffffffffffffffffffffffff169050919050565b600061062582610965565b90508073ffffffffffffffffffffffffffffffffffffffff168373ffffffffffffffffffffffffffffffffffffffff161415610696576040517f08c379a000000000000000000000000000000000000000000000000000000000815260040161068d90612976565b60405180910390fd5b8073ffffffffffffffffffffffffffffffffffffffff166106b5611146565b73ffffffffffffffffffffffffffffffffffffffff1614806106e457506106e3816106de611146565b610fdc565b5b610723576040517f08c379a000000000000000000000000000000000000000000000000000000000815260040161071a90612896565b60405180910390fd5b61072d838361114e565b505050565b60006006600081548092919061074790612cad565b91905055506007600081548092919061075f90612cad565b91905055506000604051806080016040528060065481526020018581526020013373ffffffffffffffffffffffffffffffffffffffff168152602001848152509050806009600060065481526020019081526020016000206000820151816000015560208201518160010190805190602001906107dd929190611c68565b5060408201518160020160006101000a81548173ffffffffffffffffffffffffffffffffffffffff021916908373ffffffffffffffffffffffffffffffffffffffff1602179055506060820151816003019080519060200190610841929190611c68565b509050507f4265c0fca0618144a5f95ac58797316e876c6d2cc3c31e68bdf2c07ad8a53dd160065485338660405161087c94939291906129d1565b60405180910390a161089033600654611207565b33600860006101000a81548173ffffffffffffffffffffffffffffffffffffffff021916908373ffffffffffffffffffffffffffffffffffffffff160217905550806000015191505092915050565b6108f06108ea611146565b82611225565b61092f576040517f08c379a000000000000000000000000000000000000000000000000000000000815260040161092690612996565b60405180910390fd5b61093a838383611303565b505050565b61095a83838360405180602001604052806000815250610d6d565b505050565b60075481565b6000806002600084815260200190815260200160002060009054906101000a900473ffffffffffffffffffffffffffffffffffffffff169050600073ffffffffffffffffffffffffffffffffffffffff168173ffffffffffffffffffffffffffffffffffffffff161415610a0e576040517f08c379a0000000000000000000000000000000000000000000000000000000008152600401610a05906128d6565b60405180910390fd5b80915050919050565b60008073ffffffffffffffffffffffffffffffffffffffff168273ffffffffffffffffffffffffffffffffffffffff161415610a88576040517f08c379a0000000000000000000000000000000000000000000000000000000008152600401610a7f906128b6565b60405180910390fd5b600360008373ffffffffffffffffffffffffffffffffffffffff1673ffffffffffffffffffffffffffffffffffffffff168152602001908152602001600020549050919050565b606060018054610ade90612c7b565b80601f0160208091040260200160405190810160405280929190818152602001828054610b0a90612c7b565b8015610b575780601f10610b2c57610100808354040283529160200191610b57565b820191906000526020600020905b815481529060010190602001808311610b3a57829003601f168201915b5050505050905090565b6000610b6c826110da565b610b7557600080fd5b610b7e8261155f565b60096000838152602001908152602001600020600080820160009055600182016000610baa9190611cee565b6002820160006101000a81549073ffffffffffffffffffffffffffffffffffffffff0219169055600382016000610be19190611cee565b505060019050919050565b610bf4611146565b73ffffffffffffffffffffffffffffffffffffffff168273ffffffffffffffffffffffffffffffffffffffff161415610c62576040517f08c379a0000000000000000000000000000000000000000000000000000000008152600401610c5990612856565b60405180910390fd5b8060056000610c6f611146565b73ffffffffffffffffffffffffffffffffffffffff1673ffffffffffffffffffffffffffffffffffffffff16815260200190815260200160002060008473ffffffffffffffffffffffffffffffffffffffff1673ffffffffffffffffffffffffffffffffffffffff16815260200190815260200160002060006101000a81548160ff0219169083151502179055508173ffffffffffffffffffffffffffffffffffffffff16610d1c611146565b73ffffffffffffffffffffffffffffffffffffffff167f17307eab39ab6107e8899845ad3d59bd9653f200f220920489ca2b5937696c3183604051610d6191906127b9565b60405180910390a35050565b610d7e610d78611146565b83611225565b610dbd576040517f08c379a0000000000000000000000000000000000000000000000000000000008152600401610db490612996565b60405180910390fd5b610dc984848484611670565b50505050565b60065481565b6060610de0826110da565b610e1f576040517f08c379a0000000000000000000000000000000000000000000000000000000008152600401610e1690612956565b60405180910390fd5b6000610e296116cc565b90506000815111610e495760405180602001604052806000815250610e74565b80610e53846116e3565b604051602001610e64929190612713565b6040516020818303038152906040525b915050919050565b6009602052806000526040600020600091509050806000015490806001018054610ea590612c7b565b80601f0160208091040260200160405190810160405280929190818152602001828054610ed190612c7b565b8015610f1e5780601f10610ef357610100808354040283529160200191610f1e565b820191906000526020600020905b815481529060010190602001808311610f0157829003601f168201915b5050505050908060020160009054906101000a900473ffffffffffffffffffffffffffffffffffffffff1690806003018054610f5990612c7b565b80601f0160208091040260200160405190810160405280929190818152602001828054610f8590612c7b565b8015610fd25780601f10610fa757610100808354040283529160200191610fd2565b820191906000526020600020905b815481529060010190602001808311610fb557829003601f168201915b5050505050905084565b6000600560008473ffffffffffffffffffffffffffffffffffffffff1673ffffffffffffffffffffffffffffffffffffffff16815260200190815260200160002060008373ffffffffffffffffffffffffffffffffffffffff1673ffffffffffffffffffffffffffffffffffffffff16815260200190815260200160002060009054906101000a900460ff16905092915050565b60007f01ffc9a7000000000000000000000000000000000000000000000000000000007bffffffffffffffffffffffffffffffffffffffffffffffffffffffff1916827bffffffffffffffffffffffffffffffffffffffffffffffffffffffff1916149050919050565b60008073ffffffffffffffffffffffffffffffffffffffff166002600084815260200190815260200160002060009054906101000a900473ffffffffffffffffffffffffffffffffffffffff1673ffffffffffffffffffffffffffffffffffffffff1614159050919050565b600033905090565b816004600083815260200190815260200160002060006101000a81548173ffffffffffffffffffffffffffffffffffffffff021916908373ffffffffffffffffffffffffffffffffffffffff160217905550808273ffffffffffffffffffffffffffffffffffffffff166111c183610965565b73ffffffffffffffffffffffffffffffffffffffff167f8c5be1e5ebec7d5bd14f71427d1e84f3dd0314c0f7b2291e5b200ac8c7c3b92560405160405180910390a45050565b611221828260405180602001604052806000815250611890565b5050565b6000611230826110da565b61126f576040517f08c379a000000000000000000000000000000000000000000000000000000000815260040161126690612876565b60405180910390fd5b600061127a83610965565b90508073ffffffffffffffffffffffffffffffffffffffff168473ffffffffffffffffffffffffffffffffffffffff1614806112e957508373ffffffffffffffffffffffffffffffffffffffff166112d184610595565b73ffffffffffffffffffffffffffffffffffffffff16145b806112fa57506112f98185610fdc565b5b91505092915050565b8273ffffffffffffffffffffffffffffffffffffffff1661132382610965565b73ffffffffffffffffffffffffffffffffffffffff1614611379576040517f08c379a000000000000000000000000000000000000000000000000000000000815260040161137090612936565b60405180910390fd5b600073ffffffffffffffffffffffffffffffffffffffff168273ffffffffffffffffffffffffffffffffffffffff1614156113e9576040517f08c379a00000000000000000000000000000000000000000000000000000000081526004016113e090612836565b60405180910390fd5b6113f48383836118eb565b6113ff60008261114e565b6001600360008573ffffffffffffffffffffffffffffffffffffffff1673ffffffffffffffffffffffffffffffffffffffff168152602001908152602001600020600082825461144f9190612b7f565b925050819055506001600360008473ffffffffffffffffffffffffffffffffffffffff1673ffffffffffffffffffffffffffffffffffffffff16815260200190815260200160002060008282546114a69190612af8565b92505081905550816002600083815260200190815260200160002060006101000a81548173ffffffffffffffffffffffffffffffffffffffff021916908373ffffffffffffffffffffffffffffffffffffffff160217905550808273ffffffffffffffffffffffffffffffffffffffff168473ffffffffffffffffffffffffffffffffffffffff167fddf252ad1be2c89b69c2b068fc378daa952ba7f163c4a11628f55a4df523b3ef60405160405180910390a4505050565b600061156a82610965565b9050611578816000846118eb565b61158360008361114e565b6001600360008373ffffffffffffffffffffffffffffffffffffffff1673ffffffffffffffffffffffffffffffffffffffff16815260200190815260200160002060008282546115d39190612b7f565b925050819055506002600083815260200190815260200160002060006101000a81549073ffffffffffffffffffffffffffffffffffffffff021916905581600073ffffffffffffffffffffffffffffffffffffffff168273ffffffffffffffffffffffffffffffffffffffff167fddf252ad1be2c89b69c2b068fc378daa952ba7f163c4a11628f55a4df523b3ef60405160405180910390a45050565b61167b848484611303565b611687848484846118f0565b6116c6576040517f08c379a00000000000000000000000000000000000000000000000000000000081526004016116bd906127f6565b60405180910390fd5b50505050565b606060405180602001604052806000815250905090565b6060600082141561172b576040518060400160405280600181526020017f3000000000000000000000000000000000000000000000000000000000000000815250905061188b565b600082905060005b6000821461175d57808061174690612cad565b915050600a826117569190612b4e565b9150611733565b60008167ffffffffffffffff81111561179f577f4e487b7100000000000000000000000000000000000000000000000000000000600052604160045260246000fd5b6040519080825280601f01601f1916602001820160405280156117d15781602001600182028036833780820191505090505b5090505b60008514611884576001826117ea9190612b7f565b9150600a856117f99190612cf6565b60306118059190612af8565b60f81b818381518110611841577f4e487b7100000000000000000000000000000000000000000000000000000000600052603260045260246000fd5b60200101907effffffffffffffffffffffffffffffffffffffffffffffffffffffffffffff1916908160001a905350600a8561187d9190612b4e565b94506117d5565b8093505050505b919050565b61189a8383611a87565b6118a760008484846118f0565b6118e6576040517f08c379a00000000000000000000000000000000000000000000000000000000081526004016118dd906127f6565b60405180910390fd5b505050565b505050565b60006119118473ffffffffffffffffffffffffffffffffffffffff16611c55565b15611a7a578373ffffffffffffffffffffffffffffffffffffffff1663150b7a0261193a611146565b8786866040518563ffffffff1660e01b815260040161195c949392919061276d565b602060405180830381600087803b15801561197657600080fd5b505af19250505080156119a757506040513d601f19601f820116820180604052508101906119a49190612054565b60015b611a2a573d80600081146119d7576040519150601f19603f3d011682016040523d82523d6000602084013e6119dc565b606091505b50600081511415611a22576040517f08c379a0000000000000000000000000000000000000000000000000000000008152600401611a19906127f6565b60405180910390fd5b805181602001fd5b63150b7a0260e01b7bffffffffffffffffffffffffffffffffffffffffffffffffffffffff1916817bffffffffffffffffffffffffffffffffffffffffffffffffffffffff191614915050611a7f565b600190505b949350505050565b600073ffffffffffffffffffffffffffffffffffffffff168273ffffffffffffffffffffffffffffffffffffffff161415611af7576040517f08c379a0000000000000000000000000000000000000000000000000000000008152600401611aee906128f6565b60405180910390fd5b611b00816110da565b15611b40576040517f08c379a0000000000000000000000000000000000000000000000000000000008152600401611b3790612816565b60405180910390fd5b611b4c600083836118eb565b6001600360008473ffffffffffffffffffffffffffffffffffffffff1673ffffffffffffffffffffffffffffffffffffffff1681526020019081526020016000206000828254611b9c9190612af8565b92505081905550816002600083815260200190815260200160002060006101000a81548173ffffffffffffffffffffffffffffffffffffffff021916908373ffffffffffffffffffffffffffffffffffffffff160217905550808273ffffffffffffffffffffffffffffffffffffffff16600073ffffffffffffffffffffffffffffffffffffffff167fddf252ad1be2c89b69c2b068fc378daa952ba7f163c4a11628f55a4df523b3ef60405160405180910390a45050565b600080823b905060008111915050919050565b828054611c7490612c7b565b90600052602060002090601f016020900481019282611c965760008555611cdd565b82601f10611caf57805160ff1916838001178555611cdd565b82800160010185558215611cdd579182015b82811115611cdc578251825591602001919060010190611cc1565b5b509050611cea9190611d2e565b5090565b508054611cfa90612c7b565b6000825580601f10611d0c5750611d2b565b601f016020900490600052602060002090810190611d2a9190611d2e565b5b50565b5b80821115611d47576000816000905550600101611d2f565b5090565b6000611d5e611d5984612a55565b612a24565b905082815260208101848484011115611d7657600080fd5b611d81848285612c39565b509392505050565b6000611d9c611d9784612a85565b612a24565b905082815260208101848484011115611db457600080fd5b611dbf848285612c39565b509392505050565b600081359050611dd681612df4565b92915050565b600081359050611deb81612e0b565b92915050565b600081359050611e0081612e22565b92915050565b600081519050611e1581612e22565b92915050565b600082601f830112611e2c57600080fd5b8135611e3c848260208601611d4b565b91505092915050565b600082601f830112611e5657600080fd5b8135611e66848260208601611d89565b91505092915050565b600081359050611e7e81612e39565b92915050565b600060208284031215611e9657600080fd5b6000611ea484828501611dc7565b91505092915050565b60008060408385031215611ec057600080fd5b6000611ece85828601611dc7565b9250506020611edf85828601611dc7565b9150509250929050565b600080600060608486031215611efe57600080fd5b6000611f0c86828701611dc7565b9350506020611f1d86828701611dc7565b9250506040611f2e86828701611e6f565b9150509250925092565b60008060008060808587031215611f4e57600080fd5b6000611f5c87828801611dc7565b9450506020611f6d87828801611dc7565b9350506040611f7e87828801611e6f565b925050606085013567ffffffffffffffff811115611f9b57600080fd5b611fa787828801611e1b565b91505092959194509250565b60008060408385031215611fc657600080fd5b6000611fd485828601611dc7565b9250506020611fe585828601611ddc565b9150509250929050565b6000806040838503121561200257600080fd5b600061201085828601611dc7565b925050602061202185828601611e6f565b9150509250929050565b60006020828403121561203d57600080fd5b600061204b84828501611df1565b91505092915050565b60006020828403121561206657600080fd5b600061207484828501611e06565b91505092915050565b6000806040838503121561209057600080fd5b600083013567ffffffffffffffff8111156120aa57600080fd5b6120b685828601611e45565b925050602083013567ffffffffffffffff8111156120d357600080fd5b6120df85828601611e45565b9150509250929050565b6000602082840312156120fb57600080fd5b600061210984828501611e6f565b91505092915050565b61211b81612bc5565b82525050565b61212a81612bb3565b82525050565b61213981612bd7565b82525050565b600061214a82612ab5565b6121548185612acb565b9350612164818560208601612c48565b61216d81612de3565b840191505092915050565b600061218382612ac0565b61218d8185612adc565b935061219d818560208601612c48565b6121a681612de3565b840191505092915050565b60006121bc82612ac0565b6121c68185612aed565b93506121d6818560208601612c48565b80840191505092915050565b60006121ef603283612adc565b91507f4552433732313a207472616e7366657220746f206e6f6e20455243373231526560008301527f63656976657220696d706c656d656e74657200000000000000000000000000006020830152604082019050919050565b6000612255601c83612adc565b91507f4552433732313a20746f6b656e20616c7265616479206d696e746564000000006000830152602082019050919050565b6000612295602483612adc565b91507f4552433732313a207472616e7366657220746f20746865207a65726f2061646460008301527f72657373000000000000000000000000000000000000000000000000000000006020830152604082019050919050565b60006122fb601983612adc565b91507f4552433732313a20617070726f766520746f2063616c6c6572000000000000006000830152602082019050919050565b600061233b602c83612adc565b91507f4552433732313a206f70657261746f7220717565727920666f72206e6f6e657860008301527f697374656e7420746f6b656e00000000000000000000000000000000000000006020830152604082019050919050565b60006123a1603883612adc565b91507f4552433732313a20617070726f76652063616c6c6572206973206e6f74206f7760008301527f6e6572206e6f7220617070726f76656420666f7220616c6c00000000000000006020830152604082019050919050565b6000612407602a83612adc565b91507f4552433732313a2062616c616e636520717565727920666f7220746865207a6560008301527f726f2061646472657373000000000000000000000000000000000000000000006020830152604082019050919050565b600061246d602983612adc565b91507f4552433732313a206f776e657220717565727920666f72206e6f6e657869737460008301527f656e7420746f6b656e00000000000000000000000000000000000000000000006020830152604082019050919050565b60006124d3602083612adc565b91507f4552433732313a206d696e7420746f20746865207a65726f20616464726573736000830152602082019050919050565b6000612513602c83612adc565b91507f4552433732313a20617070726f76656420717565727920666f72206e6f6e657860008301527f697374656e7420746f6b656e00000000000000000000000000000000000000006020830152604082019050919050565b6000612579602983612adc565b91507f4552433732313a207472616e73666572206f6620746f6b656e2074686174206960008301527f73206e6f74206f776e00000000000000000000000000000000000000000000006020830152604082019050919050565b60006125df602f83612adc565b91507f4552433732314d657461646174613a2055524920717565727920666f72206e6f60008301527f6e6578697374656e7420746f6b656e00000000000000000000000000000000006020830152604082019050919050565b6000612645602183612adc565b91507f4552433732313a20617070726f76616c20746f2063757272656e74206f776e6560008301527f72000000000000000000000000000000000000000000000000000000000000006020830152604082019050919050565b60006126ab603183612adc565b91507f4552433732313a207472616e736665722063616c6c6572206973206e6f74206f60008301527f776e6572206e6f7220617070726f7665640000000000000000000000000000006020830152604082019050919050565b61270d81612c2f565b82525050565b600061271f82856121b1565b915061272b82846121b1565b91508190509392505050565b600060208201905061274c6000830184612121565b92915050565b60006020820190506127676000830184612112565b92915050565b60006080820190506127826000830187612121565b61278f6020830186612121565b61279c6040830185612704565b81810360608301526127ae818461213f565b905095945050505050565b60006020820190506127ce6000830184612130565b92915050565b600060208201905081810360008301526127ee8184612178565b905092915050565b6000602082019050818103600083015261280f816121e2565b9050919050565b6000602082019050818103600083015261282f81612248565b9050919050565b6000602082019050818103600083015261284f81612288565b9050919050565b6000602082019050818103600083015261286f816122ee565b9050919050565b6000602082019050818103600083015261288f8161232e565b9050919050565b600060208201905081810360008301526128af81612394565b9050919050565b600060208201905081810360008301526128cf816123fa565b9050919050565b600060208201905081810360008301526128ef81612460565b9050919050565b6000602082019050818103600083015261290f816124c6565b9050919050565b6000602082019050818103600083015261292f81612506565b9050919050565b6000602082019050818103600083015261294f8161256c565b9050919050565b6000602082019050818103600083015261296f816125d2565b9050919050565b6000602082019050818103600083015261298f81612638565b9050919050565b600060208201905081810360008301526129af8161269e565b9050919050565b60006020820190506129cb6000830184612704565b92915050565b60006080820190506129e66000830187612704565b81810360208301526129f88186612178565b9050612a076040830185612121565b8181036060830152612a198184612178565b905095945050505050565b6000604051905081810181811067ffffffffffffffff82111715612a4b57612a4a612db4565b5b8060405250919050565b600067ffffffffffffffff821115612a7057612a6f612db4565b5b601f19601f8301169050602081019050919050565b600067ffffffffffffffff821115612aa057612a9f612db4565b5b601f19601f8301169050602081019050919050565b600081519050919050565b600081519050919050565b600082825260208201905092915050565b600082825260208201905092915050565b600081905092915050565b6000612b0382612c2f565b9150612b0e83612c2f565b9250827fffffffffffffffffffffffffffffffffffffffffffffffffffffffffffffffff03821115612b4357612b42612d27565b5b828201905092915050565b6000612b5982612c2f565b9150612b6483612c2f565b925082612b7457612b73612d56565b5b828204905092915050565b6000612b8a82612c2f565b9150612b9583612c2f565b925082821015612ba857612ba7612d27565b5b828203905092915050565b6000612bbe82612c0f565b9050919050565b6000612bd082612c0f565b9050919050565b60008115159050919050565b60007fffffffff0000000000000000000000000000000000000000000000000000000082169050919050565b600073ffffffffffffffffffffffffffffffffffffffff82169050919050565b6000819050919050565b82818337600083830152505050565b60005b83811015612c66578082015181840152602081019050612c4b565b83811115612c75576000848401525b50505050565b60006002820490506001821680612c9357607f821691505b60208210811415612ca757612ca6612d85565b5b50919050565b6000612cb882612c2f565b91507fffffffffffffffffffffffffffffffffffffffffffffffffffffffffffffffff821415612ceb57612cea612d27565b5b600182019050919050565b6000612d0182612c2f565b9150612d0c83612c2f565b925082612d1c57612d1b612d56565b5b828206905092915050565b7f4e487b7100000000000000000000000000000000000000000000000000000000600052601160045260246000fd5b7f4e487b7100000000000000000000000000000000000000000000000000000000600052601260045260246000fd5b7f4e487b7100000000000000000000000000000000000000000000000000000000600052602260045260246000fd5b7f4e487b7100000000000000000000000000000000000000000000000000000000600052604160045260246000fd5b6000601f19601f8301169050919050565b612dfd81612bb3565b8114612e0857600080fd5b50565b612e1481612bd7565b8114612e1f57600080fd5b50565b612e2b81612be3565b8114612e3657600080fd5b50565b612e4281612c2f565b8114612e4d57600080fd5b5056fea2646970667358221220d5009716dbce46e52aa088a256f31a59811adc4877af3bba8ec53e33ac7f4eef64736f6c63430008000033",
  "immutableReferences": {},
  "source": "pragma solidity ^0.8.0;\r\nimport \"@openzeppelin/contracts/token/ERC721/ERC721.sol\";\r\n// import \"@openzeppelin/contracts/access/Ownable.sol\";\r\n// import \"./Auction.sol\";\r\n\r\n\r\n// function for maxPrice authorized to owner\r\n\r\ncontract ToknCollectible is ERC721{\r\n  uint256 public  _collectibleID;\r\n  uint256 public _collectibleCount;\r\n  // uint public maxPrice;\r\n\r\n  // the original creator of NFT (artist)\r\n  address payable public creator;\r\n\r\n  mapping(uint256=> Collectible) public _collectibleList;\r\n\r\n\r\n  struct Collectible{\r\n    uint256 _collectibleID;\r\n    string _title;\r\n    address _owner;\r\n    string _collectibleURI;\r\n    \r\n  }\r\n  event CollectibleCreated(\r\n    uint256 _collectibleID,\r\n    string _title,\r\n    address _owner,\r\n    string _collectibleURI\r\n    \r\n  );\r\n\r\n\r\nconstructor(string memory name, string memory symbol ) ERC721(name, symbol){\r\n    _collectibleID = 0;\r\n    _collectibleCount = 0;\r\n}\r\n\r\n\r\nfunction create(string memory _title, string memory _tokenURI) public returns(uint256){\r\n    //increment collectible count\r\n      _collectibleID++;\r\n      _collectibleCount++;\r\n\r\n    //create collectible struct\r\n    Collectible memory newCollectible = Collectible(_collectibleID, _title, msg.sender, _tokenURI);\r\n  _collectibleList[_collectibleID] = newCollectible;\r\n\r\n  //emit Event\r\n  emit CollectibleCreated(_collectibleID, _title, msg.sender, _tokenURI);\r\n\r\n  //call safemint function from openzeppelin\r\n  _safeMint(msg.sender, _collectibleID);\r\n\r\n  // Assiging msg.sender as the original creator \r\n  creator = payable(msg.sender);\r\n  return newCollectible._collectibleID;\r\n\r\n}\r\n\r\n\r\n//destroy function takes the tokenID of the NFT, then calls on openzeppelin's burn function.\r\nfunction destroy(uint256 toknID) public  returns(bool success) {\r\n  require(_exists(toknID));\r\n  // toknExists(toknID);\r\n  _burn(toknID);\r\n  delete _collectibleList[toknID];\r\n  return true;\r\n}\r\n\r\n}",
  "sourcePath": "C:/Users/lenovo/OneDrive/Desktop/projects/Tokn/contracts/ToknCollectible.sol",
  "compiler": {
    "name": "solc",
    "version": "0.8.0+commit.c7dfd78e.Emscripten.clang"
  },
  "schemaVersion": "3.4.1",
  "updatedAt": "2021-07-29T13:59:34.218Z",
  "devdoc": {
    "kind": "dev",
    "methods": {
      "approve(address,uint256)": {
        "details": "See {IERC721-approve}."
      },
      "balanceOf(address)": {
        "details": "See {IERC721-balanceOf}."
      },
      "getApproved(uint256)": {
        "details": "See {IERC721-getApproved}."
      },
      "isApprovedForAll(address,address)": {
        "details": "See {IERC721-isApprovedForAll}."
      },
      "name()": {
        "details": "See {IERC721Metadata-name}."
      },
      "ownerOf(uint256)": {
        "details": "See {IERC721-ownerOf}."
      },
      "safeTransferFrom(address,address,uint256)": {
        "details": "See {IERC721-safeTransferFrom}."
      },
      "safeTransferFrom(address,address,uint256,bytes)": {
        "details": "See {IERC721-safeTransferFrom}."
      },
      "setApprovalForAll(address,bool)": {
        "details": "See {IERC721-setApprovalForAll}."
      },
      "supportsInterface(bytes4)": {
        "details": "See {IERC165-supportsInterface}."
      },
      "symbol()": {
        "details": "See {IERC721Metadata-symbol}."
      },
      "tokenURI(uint256)": {
        "details": "See {IERC721Metadata-tokenURI}."
      },
      "transferFrom(address,address,uint256)": {
        "details": "See {IERC721-transferFrom}."
      }
    },
    "version": 1
  },
  "userdoc": {
    "kind": "user",
    "methods": {},
    "version": 1
  }
}