{
  "contractName": "ToknBidding",
  "abi": [
    {
      "inputs": [
        {
          "internalType": "string",
          "name": "name",
          "type": "string"
        },
        {
          "internalType": "string",
          "name": "symbol",
          "type": "string"
        }
      ],
      "stateMutability": "nonpayable",
      "type": "constructor"
    },
    {
      "anonymous": false,
      "inputs": [
        {
          "indexed": true,
          "internalType": "address",
          "name": "owner",
          "type": "address"
        },
        {
          "indexed": true,
          "internalType": "address",
          "name": "approved",
          "type": "address"
        },
        {
          "indexed": true,
          "internalType": "uint256",
          "name": "tokenId",
          "type": "uint256"
        }
      ],
      "name": "Approval",
      "type": "event"
    },
    {
      "anonymous": false,
      "inputs": [
        {
          "indexed": true,
          "internalType": "address",
          "name": "owner",
          "type": "address"
        },
        {
          "indexed": true,
          "internalType": "address",
          "name": "operator",
          "type": "address"
        },
        {
          "indexed": false,
          "internalType": "bool",
          "name": "approved",
          "type": "bool"
        }
      ],
      "name": "ApprovalForAll",
      "type": "event"
    },
    {
      "anonymous": false,
      "inputs": [
        {
          "indexed": false,
          "internalType": "uint256",
          "name": "_collectibleID",
          "type": "uint256"
        },
        {
          "indexed": false,
          "internalType": "string",
          "name": "_title",
          "type": "string"
        },
        {
          "indexed": false,
          "internalType": "address",
          "name": "_owner",
          "type": "address"
        },
        {
          "indexed": false,
          "internalType": "string",
          "name": "_collectibleURI",
          "type": "string"
        }
      ],
      "name": "CollectibleCreated",
      "type": "event"
    },
    {
      "anonymous": false,
      "inputs": [
        {
          "indexed": true,
          "internalType": "address",
          "name": "from",
          "type": "address"
        },
        {
          "indexed": true,
          "internalType": "address",
          "name": "to",
          "type": "address"
        },
        {
          "indexed": true,
          "internalType": "uint256",
          "name": "tokenId",
          "type": "uint256"
        }
      ],
      "name": "Transfer",
      "type": "event"
    },
    {
      "inputs": [],
      "name": "_collectibleCount",
      "outputs": [
        {
          "internalType": "uint256",
          "name": "",
          "type": "uint256"
        }
      ],
      "stateMutability": "view",
      "type": "function"
    },
    {
      "inputs": [],
      "name": "_collectibleID",
      "outputs": [
        {
          "internalType": "uint256",
          "name": "",
          "type": "uint256"
        }
      ],
      "stateMutability": "view",
      "type": "function"
    },
    {
      "inputs": [
        {
          "internalType": "uint256",
          "name": "",
          "type": "uint256"
        }
      ],
      "name": "_collectibleList",
      "outputs": [
        {
          "internalType": "uint256",
          "name": "_collectibleID",
          "type": "uint256"
        },
        {
          "internalType": "string",
          "name": "_title",
          "type": "string"
        },
        {
          "internalType": "address",
          "name": "_owner",
          "type": "address"
        },
        {
          "internalType": "string",
          "name": "_collectibleURI",
          "type": "string"
        }
      ],
      "stateMutability": "view",
      "type": "function"
    },
    {
      "inputs": [
        {
          "internalType": "address",
          "name": "to",
          "type": "address"
        },
        {
          "internalType": "uint256",
          "name": "tokenId",
          "type": "uint256"
        }
      ],
      "name": "approve",
      "outputs": [],
      "stateMutability": "nonpayable",
      "type": "function"
    },
    {
      "inputs": [
        {
          "internalType": "address",
          "name": "",
          "type": "address"
        }
      ],
      "name": "auctionMaxPrice",
      "outputs": [
        {
          "internalType": "uint256",
          "name": "",
          "type": "uint256"
        }
      ],
      "stateMutability": "view",
      "type": "function"
    },
    {
      "inputs": [
        {
          "internalType": "address",
          "name": "owner",
          "type": "address"
        }
      ],
      "name": "balanceOf",
      "outputs": [
        {
          "internalType": "uint256",
          "name": "",
          "type": "uint256"
        }
      ],
      "stateMutability": "view",
      "type": "function"
    },
    {
      "inputs": [
        {
          "internalType": "string",
          "name": "_title",
          "type": "string"
        },
        {
          "internalType": "string",
          "name": "_tokenURI",
          "type": "string"
        }
      ],
      "name": "create",
      "outputs": [
        {
          "components": [
            {
              "internalType": "uint256",
              "name": "_collectibleID",
              "type": "uint256"
            },
            {
              "internalType": "string",
              "name": "_title",
              "type": "string"
            },
            {
              "internalType": "address",
              "name": "_owner",
              "type": "address"
            },
            {
              "internalType": "string",
              "name": "_collectibleURI",
              "type": "string"
            }
          ],
          "internalType": "struct ToknCollectible.Collectible",
          "name": "",
          "type": "tuple"
        }
      ],
      "stateMutability": "nonpayable",
      "type": "function"
    },
    {
      "inputs": [],
      "name": "creator",
      "outputs": [
        {
          "internalType": "address payable",
          "name": "",
          "type": "address"
        }
      ],
      "stateMutability": "view",
      "type": "function"
    },
    {
      "inputs": [
        {
          "internalType": "uint256",
          "name": "",
          "type": "uint256"
        }
      ],
      "name": "currentAuctionForTokn",
      "outputs": [
        {
          "internalType": "address",
          "name": "",
          "type": "address"
        }
      ],
      "stateMutability": "view",
      "type": "function"
    },
    {
      "inputs": [
        {
          "internalType": "uint256",
          "name": "toknID",
          "type": "uint256"
        }
      ],
      "name": "destroy",
      "outputs": [
        {
          "internalType": "bool",
          "name": "success",
          "type": "bool"
        }
      ],
      "stateMutability": "nonpayable",
      "type": "function"
    },
    {
      "inputs": [
        {
          "internalType": "uint256",
          "name": "tokenId",
          "type": "uint256"
        }
      ],
      "name": "getApproved",
      "outputs": [
        {
          "internalType": "address",
          "name": "",
          "type": "address"
        }
      ],
      "stateMutability": "view",
      "type": "function"
    },
    {
      "inputs": [
        {
          "internalType": "address",
          "name": "owner",
          "type": "address"
        },
        {
          "internalType": "address",
          "name": "operator",
          "type": "address"
        }
      ],
      "name": "isApprovedForAll",
      "outputs": [
        {
          "internalType": "bool",
          "name": "",
          "type": "bool"
        }
      ],
      "stateMutability": "view",
      "type": "function"
    },
    {
      "inputs": [],
      "name": "name",
      "outputs": [
        {
          "internalType": "string",
          "name": "",
          "type": "string"
        }
      ],
      "stateMutability": "view",
      "type": "function"
    },
    {
      "inputs": [
        {
          "internalType": "uint256",
          "name": "tokenId",
          "type": "uint256"
        }
      ],
      "name": "ownerOf",
      "outputs": [
        {
          "internalType": "address",
          "name": "",
          "type": "address"
        }
      ],
      "stateMutability": "view",
      "type": "function"
    },
    {
      "inputs": [
        {
          "internalType": "uint256",
          "name": "",
          "type": "uint256"
        }
      ],
      "name": "runningAuction",
      "outputs": [
        {
          "internalType": "bool",
          "name": "",
          "type": "bool"
        }
      ],
      "stateMutability": "view",
      "type": "function"
    },
    {
      "inputs": [
        {
          "internalType": "address",
          "name": "from",
          "type": "address"
        },
        {
          "internalType": "address",
          "name": "to",
          "type": "address"
        },
        {
          "internalType": "uint256",
          "name": "tokenId",
          "type": "uint256"
        }
      ],
      "name": "safeTransferFrom",
      "outputs": [],
      "stateMutability": "nonpayable",
      "type": "function"
    },
    {
      "inputs": [
        {
          "internalType": "address",
          "name": "from",
          "type": "address"
        },
        {
          "internalType": "address",
          "name": "to",
          "type": "address"
        },
        {
          "internalType": "uint256",
          "name": "tokenId",
          "type": "uint256"
        },
        {
          "internalType": "bytes",
          "name": "_data",
          "type": "bytes"
        }
      ],
      "name": "safeTransferFrom",
      "outputs": [],
      "stateMutability": "nonpayable",
      "type": "function"
    },
    {
      "inputs": [
        {
          "internalType": "address",
          "name": "operator",
          "type": "address"
        },
        {
          "internalType": "bool",
          "name": "approved",
          "type": "bool"
        }
      ],
      "name": "setApprovalForAll",
      "outputs": [],
      "stateMutability": "nonpayable",
      "type": "function"
    },
    {
      "inputs": [
        {
          "internalType": "bytes4",
          "name": "interfaceId",
          "type": "bytes4"
        }
      ],
      "name": "supportsInterface",
      "outputs": [
        {
          "internalType": "bool",
          "name": "",
          "type": "bool"
        }
      ],
      "stateMutability": "view",
      "type": "function"
    },
    {
      "inputs": [],
      "name": "symbol",
      "outputs": [
        {
          "internalType": "string",
          "name": "",
          "type": "string"
        }
      ],
      "stateMutability": "view",
      "type": "function"
    },
    {
      "inputs": [
        {
          "internalType": "uint256",
          "name": "tokenId",
          "type": "uint256"
        }
      ],
      "name": "tokenURI",
      "outputs": [
        {
          "internalType": "string",
          "name": "",
          "type": "string"
        }
      ],
      "stateMutability": "view",
      "type": "function"
    },
    {
      "inputs": [
        {
          "internalType": "address",
          "name": "from",
          "type": "address"
        },
        {
          "internalType": "address",
          "name": "to",
          "type": "address"
        },
        {
          "internalType": "uint256",
          "name": "tokenId",
          "type": "uint256"
        }
      ],
      "name": "transferFrom",
      "outputs": [],
      "stateMutability": "nonpayable",
      "type": "function"
    },
    {
      "inputs": [
        {
          "internalType": "uint256",
          "name": "toknID",
          "type": "uint256"
        },
        {
          "internalType": "uint256",
          "name": "_maxPrice",
          "type": "uint256"
        }
      ],
      "name": "startAuction",
      "outputs": [],
      "stateMutability": "nonpayable",
      "type": "function"
    },
    {
      "inputs": [
        {
          "internalType": "uint256",
          "name": "_toknID",
          "type": "uint256"
        }
      ],
      "name": "bid",
      "outputs": [],
      "stateMutability": "payable",
      "type": "function"
    },
    {
      "inputs": [
        {
          "internalType": "uint256",
          "name": "_toknID",
          "type": "uint256"
        },
        {
          "internalType": "uint256",
          "name": "commission",
          "type": "uint256"
        }
      ],
      "name": "endAuction",
      "outputs": [],
      "stateMutability": "nonpayable",
      "type": "function"
    },
    {
      "inputs": [
        {
          "internalType": "uint256",
          "name": "toknID",
          "type": "uint256"
        }
      ],
      "name": "cancelAuction",
      "outputs": [],
      "stateMutability": "nonpayable",
      "type": "function"
    },
    {
      "inputs": [
        {
          "internalType": "uint256",
          "name": "toknID",
          "type": "uint256"
        },
        {
          "internalType": "uint256",
          "name": "price",
          "type": "uint256"
        }
      ],
      "name": "setMaxPrice",
      "outputs": [],
      "stateMutability": "nonpayable",
      "type": "function"
    }
  ],
  "bytecode": "0x60806040523480156200001157600080fd5b50604051620054de380380620054de8339818101604052810190620000379190620001ab565b8181818181600090805190602001906200005392919062000089565b5080600190805190602001906200006c92919062000089565b50505060006006819055506000600781905550505050506200034f565b8280546200009790620002bb565b90600052602060002090601f016020900481019282620000bb576000855562000107565b82601f10620000d657805160ff191683800117855562000107565b8280016001018555821562000107579182015b8281111562000106578251825591602001919060010190620000e9565b5b5090506200011691906200011a565b5090565b5b80821115620001355760008160009055506001016200011b565b5090565b6000620001506200014a8462000252565b6200021e565b9050828152602081018484840111156200016957600080fd5b6200017684828562000285565b509392505050565b600082601f8301126200019057600080fd5b8151620001a284826020860162000139565b91505092915050565b60008060408385031215620001bf57600080fd5b600083015167ffffffffffffffff811115620001da57600080fd5b620001e8858286016200017e565b925050602083015167ffffffffffffffff8111156200020657600080fd5b62000214858286016200017e565b9150509250929050565b6000604051905081810181811067ffffffffffffffff8211171562000248576200024762000320565b5b8060405250919050565b600067ffffffffffffffff82111562000270576200026f62000320565b5b601f19601f8301169050602081019050919050565b60005b83811015620002a557808201518184015260208101905062000288565b83811115620002b5576000848401525b50505050565b60006002820490506001821680620002d457607f821691505b60208210811415620002eb57620002ea620002f1565b5b50919050565b7f4e487b7100000000000000000000000000000000000000000000000000000000600052602260045260246000fd5b7f4e487b7100000000000000000000000000000000000000000000000000000000600052604160045260246000fd5b61517f806200035f6000396000f3fe608060405260043610620001c45760003560e01c806354bbdfab1162000103578063a22cb4651162000097578063c87b56dd116200006d578063c87b56dd1462000697578063ca225b9714620006db578063cd73240f1462000722578063e985e9c5146200076657620001c4565b8063a22cb465146200060b578063b88d4fde1462000639578063bab22d8d146200066757620001c4565b806370a0823111620000d957806370a08231146200052557806395d89b41146200056957806396b5a75514620005995780639d11877014620005c757620001c4565b806354bbdfab146200046d5780635da32739146200049d5780636352211e14620004e157620001c4565b8063224c5761116200017b57806342842e0e116200015157806342842e0e14620003c3578063454a2ab314620003f157806347afe43714620004115780634fee13fc146200043f57620001c4565b8063224c5761146200032357806323b872dd14620003675780634173ce5b146200039557620001c4565b806301ffc9a714620001c957806302d05d3f146200020d57806306fdde03146200023d578063081812fc146200026d578063095ea7b314620002b1578063198e2b8a14620002df575b600080fd5b348015620001d657600080fd5b50620001f56004803603810190620001ef91906200311d565b620007aa565b60405162000204919062003a73565b60405180910390f35b3480156200021a57600080fd5b506200022562000890565b60405162000234919062003a02565b60405180910390f35b3480156200024a57600080fd5b5062000255620008b6565b60405162000264919062003a90565b60405180910390f35b3480156200027a57600080fd5b5062000299600480360381019062000293919062003214565b62000950565b604051620002a89190620039e5565b60405180910390f35b348015620002be57600080fd5b50620002dd6004803603810190620002d79190620030dc565b620009da565b005b348015620002ec57600080fd5b506200030b6004803603810190620003059190620031a1565b62000b03565b6040516200031a919062003c90565b60405180910390f35b3480156200033057600080fd5b506200034f600480360381019062000349919062002f27565b62000cc0565b6040516200035e919062003cb4565b60405180910390f35b3480156200037457600080fd5b506200039360048036038101906200038d919062002fc0565b62000cd8565b005b348015620003a257600080fd5b50620003c16004803603810190620003bb91906200326c565b62000d41565b005b348015620003d057600080fd5b50620003ef6004803603810190620003e9919062002fc0565b62000e76565b005b6200040f600480360381019062000409919062003214565b62000e98565b005b3480156200041e57600080fd5b506200043d60048036038101906200043791906200326c565b6200101b565b005b3480156200044c57600080fd5b506200046b60048036038101906200046591906200326c565b62001541565b005b3480156200047a57600080fd5b5062000485620016ad565b60405162000494919062003cb4565b60405180910390f35b348015620004aa57600080fd5b50620004c96004803603810190620004c3919062003214565b620016b3565b604051620004d8919062003a73565b60405180910390f35b348015620004ee57600080fd5b506200050d600480360381019062000507919062003214565b620016d3565b6040516200051c9190620039e5565b60405180910390f35b3480156200053257600080fd5b506200055160048036038101906200054b919062002f27565b62001788565b60405162000560919062003cb4565b60405180910390f35b3480156200057657600080fd5b506200058162001843565b60405162000590919062003a90565b60405180910390f35b348015620005a657600080fd5b50620005c56004803603810190620005bf919062003214565b620018dd565b005b348015620005d457600080fd5b50620005f36004803603810190620005ed919062003214565b62001a53565b60405162000602919062003a73565b60405180910390f35b3480156200061857600080fd5b506200063760048036038101906200063191906200309b565b62001ae7565b005b3480156200064657600080fd5b506200066560048036038101906200065f919062003016565b62001c73565b005b3480156200067457600080fd5b506200067f62001cde565b6040516200068e919062003cb4565b60405180910390f35b348015620006a457600080fd5b50620006c36004803603810190620006bd919062003214565b62001ce4565b604051620006d2919062003a90565b60405180910390f35b348015620006e857600080fd5b5062000707600480360381019062000701919062003214565b62001d98565b60405162000719949392919062003cd1565b60405180910390f35b3480156200072f57600080fd5b506200074e600480360381019062000748919062003214565b62001f08565b6040516200075d9190620039e5565b60405180910390f35b3480156200077357600080fd5b506200079260048036038101906200078c919062002f7f565b62001f3b565b604051620007a1919062003a73565b60405180910390f35b60007f80ac58cd000000000000000000000000000000000000000000000000000000007bffffffffffffffffffffffffffffffffffffffffffffffffffffffff1916827bffffffffffffffffffffffffffffffffffffffffffffffffffffffff191614806200087657507f5b5e139f000000000000000000000000000000000000000000000000000000007bffffffffffffffffffffffffffffffffffffffffffffffffffffffff1916827bffffffffffffffffffffffffffffffffffffffffffffffffffffffff1916145b80620008895750620008888262001fcf565b5b9050919050565b600860009054906101000a900473ffffffffffffffffffffffffffffffffffffffff1681565b606060008054620008c7906200401a565b80601f0160208091040260200160405190810160405280929190818152602001828054620008f5906200401a565b8015620009465780601f106200091a5761010080835404028352916020019162000946565b820191906000526020600020905b8154815290600101906020018083116200092857829003601f168201915b5050505050905090565b60006200095d8262002039565b6200099f576040517f08c379a0000000000000000000000000000000000000000000000000000000008152600401620009969062003be6565b60405180910390fd5b6004600083815260200190815260200160002060009054906101000a900473ffffffffffffffffffffffffffffffffffffffff169050919050565b6000620009e782620016d3565b90508073ffffffffffffffffffffffffffffffffffffffff168373ffffffffffffffffffffffffffffffffffffffff16141562000a5b576040517f08c379a000000000000000000000000000000000000000000000000000000000815260040162000a529062003c4c565b60405180910390fd5b8073ffffffffffffffffffffffffffffffffffffffff1662000a7c620020a5565b73ffffffffffffffffffffffffffffffffffffffff16148062000ab0575062000aaf8162000aa9620020a5565b62001f3b565b5b62000af2576040517f08c379a000000000000000000000000000000000000000000000000000000000815260040162000ae99062003b5e565b60405180910390fd5b62000afe8383620020ad565b505050565b62000b0d62002c49565b6006600081548092919062000b229062004050565b91905055506007600081548092919062000b3c9062004050565b91905055506000604051806080016040528060065481526020018581526020013373ffffffffffffffffffffffffffffffffffffffff1681526020018481525090508060096000600654815260200190815260200160002060008201518160000155602082015181600101908051906020019062000bbc92919062002c87565b5060408201518160020160006101000a81548173ffffffffffffffffffffffffffffffffffffffff021916908373ffffffffffffffffffffffffffffffffffffffff160217905550606082015181600301908051906020019062000c2292919062002c87565b509050507f4265c0fca0618144a5f95ac58797316e876c6d2cc3c31e68bdf2c07ad8a53dd160065485338660405162000c5f949392919062003cd1565b60405180910390a162000c753360065462002168565b33600860006101000a81548173ffffffffffffffffffffffffffffffffffffffff021916908373ffffffffffffffffffffffffffffffffffffffff1602179055508091505092915050565b600c6020528060005260406000206000915090505481565b62000ced62000ce6620020a5565b8262002188565b62000d2f576040517f08c379a000000000000000000000000000000000000000000000000000000000815260040162000d269062003c6e565b60405180910390fd5b62000d3c83838362002273565b505050565b62000d4c82620024df565b6009600083815260200190815260200160002060020160009054906101000a900473ffffffffffffffffffffffffffffffffffffffff1673ffffffffffffffffffffffffffffffffffffffff163373ffffffffffffffffffffffffffffffffffffffff161462000dbb57600080fd5b600a600083815260200190815260200160002060009054906101000a900460ff1662000de657600080fd5b670de0b6b3a76400008162000dfc919062003eaf565b600c6000600b600086815260200190815260200160002060009054906101000a900473ffffffffffffffffffffffffffffffffffffffff1673ffffffffffffffffffffffffffffffffffffffff1673ffffffffffffffffffffffffffffffffffffffff168152602001908152602001600020819055505050565b62000e938383836040518060200160405280600081525062001c73565b505050565b62000ea381620024df565b600a600082815260200190815260200160002060009054906101000a900460ff1662000ece57600080fd5b600b600082815260200190815260200160002060009054906101000a900473ffffffffffffffffffffffffffffffffffffffff1673ffffffffffffffffffffffffffffffffffffffff1663e494015734336040518363ffffffff1660e01b815260040162000f3d9190620039e5565b6000604051808303818588803b15801562000f5757600080fd5b505af115801562000f6c573d6000803e3d6000fd5b5050505050600c6000600b600084815260200190815260200160002060009054906101000a900473ffffffffffffffffffffffffffffffffffffffff1673ffffffffffffffffffffffffffffffffffffffff1673ffffffffffffffffffffffffffffffffffffffff16815260200190815260200160002054341062001018576000600a600083815260200190815260200160002060006101000a81548160ff0219169083151502179055505b50565b6200102682620024df565b6000600b600084815260200190815260200160002060009054906101000a900473ffffffffffffffffffffffffffffffffffffffff1690506002600381111562001099577f4e487b7100000000000000000000000000000000000000000000000000000000600052602160045260246000fd5b8173ffffffffffffffffffffffffffffffffffffffff16637fb450996040518163ffffffff1660e01b815260040160206040518083038186803b158015620010e057600080fd5b505afa158015620010f5573d6000803e3d6000fd5b505050506040513d601f19601f820116820180604052508101906200111b919062003175565b600381111562001154577f4e487b7100000000000000000000000000000000000000000000000000000000600052602160045260246000fd5b14156200116057600080fd5b8073ffffffffffffffffffffffffffffffffffffffff16638da5cb5b6040518163ffffffff1660e01b815260040160206040518083038186803b158015620011a757600080fd5b505afa158015620011bc573d6000803e3d6000fd5b505050506040513d601f19601f82011682018060405250810190620011e2919062002f53565b73ffffffffffffffffffffffffffffffffffffffff163373ffffffffffffffffffffffffffffffffffffffff16146200121a57600080fd5b8073ffffffffffffffffffffffffffffffffffffffff1663f77282ab6040518163ffffffff1660e01b8152600401600060405180830381600087803b1580156200126357600080fd5b505af115801562001278573d6000803e3d6000fd5b505050508073ffffffffffffffffffffffffffffffffffffffff166391f901576040518163ffffffff1660e01b815260040160206040518083038186803b158015620012c357600080fd5b505afa158015620012d8573d6000803e3d6000fd5b505050506040513d601f19601f82011682018060405250810190620012fe919062002f53565b6009600085815260200190815260200160002060020160006101000a81548173ffffffffffffffffffffffffffffffffffffffff021916908373ffffffffffffffffffffffffffffffffffffffff160217905550600860009054906101000a900473ffffffffffffffffffffffffffffffffffffffff1673ffffffffffffffffffffffffffffffffffffffff166108fc670de0b6b3a7640000606485670de0b6b3a76400008673ffffffffffffffffffffffffffffffffffffffff1663d57bde796040518163ffffffff1660e01b815260040160206040518083038186803b158015620013ea57600080fd5b505afa158015620013ff573d6000803e3d6000fd5b505050506040513d601f19601f8201168201806040525081019062001425919062003240565b62001431919062003e77565b6200143d919062003eaf565b62001449919062003e77565b62001455919062003eaf565b9081150290604051600060405180830381858888f1935050505015801562001481573d6000803e3d6000fd5b5062001510338273ffffffffffffffffffffffffffffffffffffffff166391f901576040518163ffffffff1660e01b815260040160206040518083038186803b158015620014ce57600080fd5b505afa158015620014e3573d6000803e3d6000fd5b505050506040513d601f19601f8201168201806040525081019062001509919062002f53565b8562000e76565b6000600a600085815260200190815260200160002060006101000a81548160ff021916908315150217905550505050565b6200154c82620024df565b62001558338362002188565b6200156257600080fd5b60001515600a600084815260200190815260200160002060009054906101000a900460ff161515146200159457600080fd5b600033604051620015a59062002d18565b620015b1919062003a02565b604051809103906000f080158015620015ce573d6000803e3d6000fd5b509050670de0b6b3a764000082620015e7919062003eaf565b600c60008373ffffffffffffffffffffffffffffffffffffffff1673ffffffffffffffffffffffffffffffffffffffff168152602001908152602001600020819055506001600a600085815260200190815260200160002060006101000a81548160ff02191690831515021790555080600b600085815260200190815260200160002060006101000a81548173ffffffffffffffffffffffffffffffffffffffff021916908373ffffffffffffffffffffffffffffffffffffffff160217905550505050565b60075481565b600a6020528060005260406000206000915054906101000a900460ff1681565b6000806002600084815260200190815260200160002060009054906101000a900473ffffffffffffffffffffffffffffffffffffffff169050600073ffffffffffffffffffffffffffffffffffffffff168173ffffffffffffffffffffffffffffffffffffffff1614156200177f576040517f08c379a0000000000000000000000000000000000000000000000000000000008152600401620017769062003ba2565b60405180910390fd5b80915050919050565b60008073ffffffffffffffffffffffffffffffffffffffff168273ffffffffffffffffffffffffffffffffffffffff161415620017fc576040517f08c379a0000000000000000000000000000000000000000000000000000000008152600401620017f39062003b80565b60405180910390fd5b600360008373ffffffffffffffffffffffffffffffffffffffff1673ffffffffffffffffffffffffffffffffffffffff168152602001908152602001600020549050919050565b60606001805462001854906200401a565b80601f016020809104026020016040519081016040528092919081815260200182805462001882906200401a565b8015620018d35780601f10620018a757610100808354040283529160200191620018d3565b820191906000526020600020905b815481529060010190602001808311620018b557829003601f168201915b5050505050905090565b620018e881620024df565b6009600082815260200190815260200160002060020160009054906101000a900473ffffffffffffffffffffffffffffffffffffffff1673ffffffffffffffffffffffffffffffffffffffff163373ffffffffffffffffffffffffffffffffffffffff16146200195757600080fd5b600a600082815260200190815260200160002060009054906101000a900460ff166200198257600080fd5b600b600082815260200190815260200160002060009054906101000a900473ffffffffffffffffffffffffffffffffffffffff1673ffffffffffffffffffffffffffffffffffffffff1663d22cf3a4336040518263ffffffff1660e01b8152600401620019f09190620039e5565b600060405180830381600087803b15801562001a0b57600080fd5b505af115801562001a20573d6000803e3d6000fd5b505050506000600a600083815260200190815260200160002060006101000a81548160ff02191690831515021790555050565b600062001a608262002039565b62001a6a57600080fd5b62001a7582620024f7565b6009600083815260200190815260200160002060008082016000905560018201600062001aa3919062002d26565b6002820160006101000a81549073ffffffffffffffffffffffffffffffffffffffff021916905560038201600062001adc919062002d26565b505060019050919050565b62001af1620020a5565b73ffffffffffffffffffffffffffffffffffffffff168273ffffffffffffffffffffffffffffffffffffffff16141562001b62576040517f08c379a000000000000000000000000000000000000000000000000000000000815260040162001b599062003b1a565b60405180910390fd5b806005600062001b71620020a5565b73ffffffffffffffffffffffffffffffffffffffff1673ffffffffffffffffffffffffffffffffffffffff16815260200190815260200160002060008473ffffffffffffffffffffffffffffffffffffffff1673ffffffffffffffffffffffffffffffffffffffff16815260200190815260200160002060006101000a81548160ff0219169083151502179055508173ffffffffffffffffffffffffffffffffffffffff1662001c20620020a5565b73ffffffffffffffffffffffffffffffffffffffff167f17307eab39ab6107e8899845ad3d59bd9653f200f220920489ca2b5937696c318360405162001c67919062003a73565b60405180910390a35050565b62001c8862001c81620020a5565b8362002188565b62001cca576040517f08c379a000000000000000000000000000000000000000000000000000000000815260040162001cc19062003c6e565b60405180910390fd5b62001cd88484848462002610565b50505050565b60065481565b606062001cf18262002039565b62001d33576040517f08c379a000000000000000000000000000000000000000000000000000000000815260040162001d2a9062003c2a565b60405180910390fd5b600062001d3f62002673565b9050600081511162001d61576040518060200160405280600081525062001d90565b8062001d6d846200268a565b60405160200162001d80929190620039bd565b6040516020818303038152906040525b915050919050565b600960205280600052604060002060009150905080600001549080600101805462001dc3906200401a565b80601f016020809104026020016040519081016040528092919081815260200182805462001df1906200401a565b801562001e425780601f1062001e165761010080835404028352916020019162001e42565b820191906000526020600020905b81548152906001019060200180831162001e2457829003601f168201915b5050505050908060020160009054906101000a900473ffffffffffffffffffffffffffffffffffffffff169080600301805462001e7f906200401a565b80601f016020809104026020016040519081016040528092919081815260200182805462001ead906200401a565b801562001efe5780601f1062001ed25761010080835404028352916020019162001efe565b820191906000526020600020905b81548152906001019060200180831162001ee057829003601f168201915b5050505050905084565b600b6020528060005260406000206000915054906101000a900473ffffffffffffffffffffffffffffffffffffffff1681565b6000600560008473ffffffffffffffffffffffffffffffffffffffff1673ffffffffffffffffffffffffffffffffffffffff16815260200190815260200160002060008373ffffffffffffffffffffffffffffffffffffffff1673ffffffffffffffffffffffffffffffffffffffff16815260200190815260200160002060009054906101000a900460ff16905092915050565b60007f01ffc9a7000000000000000000000000000000000000000000000000000000007bffffffffffffffffffffffffffffffffffffffffffffffffffffffff1916827bffffffffffffffffffffffffffffffffffffffffffffffffffffffff1916149050919050565b60008073ffffffffffffffffffffffffffffffffffffffff166002600084815260200190815260200160002060009054906101000a900473ffffffffffffffffffffffffffffffffffffffff1673ffffffffffffffffffffffffffffffffffffffff1614159050919050565b600033905090565b816004600083815260200190815260200160002060006101000a81548173ffffffffffffffffffffffffffffffffffffffff021916908373ffffffffffffffffffffffffffffffffffffffff160217905550808273ffffffffffffffffffffffffffffffffffffffff166200212283620016d3565b73ffffffffffffffffffffffffffffffffffffffff167f8c5be1e5ebec7d5bd14f71427d1e84f3dd0314c0f7b2291e5b200ac8c7c3b92560405160405180910390a45050565b620021848282604051806020016040528060008152506200284c565b5050565b6000620021958262002039565b620021d7576040517f08c379a0000000000000000000000000000000000000000000000000000000008152600401620021ce9062003b3c565b60405180910390fd5b6000620021e483620016d3565b90508073ffffffffffffffffffffffffffffffffffffffff168473ffffffffffffffffffffffffffffffffffffffff1614806200225657508373ffffffffffffffffffffffffffffffffffffffff166200223e8462000950565b73ffffffffffffffffffffffffffffffffffffffff16145b806200226a575062002269818562001f3b565b5b91505092915050565b8273ffffffffffffffffffffffffffffffffffffffff166200229582620016d3565b73ffffffffffffffffffffffffffffffffffffffff1614620022ee576040517f08c379a0000000000000000000000000000000000000000000000000000000008152600401620022e59062003c08565b60405180910390fd5b600073ffffffffffffffffffffffffffffffffffffffff168273ffffffffffffffffffffffffffffffffffffffff16141562002361576040517f08c379a0000000000000000000000000000000000000000000000000000000008152600401620023589062003af8565b60405180910390fd5b6200236e838383620028ae565b6200237b600082620020ad565b6001600360008573ffffffffffffffffffffffffffffffffffffffff1673ffffffffffffffffffffffffffffffffffffffff1681526020019081526020016000206000828254620023cd919062003f10565b925050819055506001600360008473ffffffffffffffffffffffffffffffffffffffff1673ffffffffffffffffffffffffffffffffffffffff168152602001908152602001600020600082825462002426919062003e1a565b92505081905550816002600083815260200190815260200160002060006101000a81548173ffffffffffffffffffffffffffffffffffffffff021916908373ffffffffffffffffffffffffffffffffffffffff160217905550808273ffffffffffffffffffffffffffffffffffffffff168473ffffffffffffffffffffffffffffffffffffffff167fddf252ad1be2c89b69c2b068fc378daa952ba7f163c4a11628f55a4df523b3ef60405160405180910390a4505050565b620024ea8162002039565b620024f457600080fd5b50565b60006200250482620016d3565b90506200251481600084620028ae565b62002521600083620020ad565b6001600360008373ffffffffffffffffffffffffffffffffffffffff1673ffffffffffffffffffffffffffffffffffffffff168152602001908152602001600020600082825462002573919062003f10565b925050819055506002600083815260200190815260200160002060006101000a81549073ffffffffffffffffffffffffffffffffffffffff021916905581600073ffffffffffffffffffffffffffffffffffffffff168273ffffffffffffffffffffffffffffffffffffffff167fddf252ad1be2c89b69c2b068fc378daa952ba7f163c4a11628f55a4df523b3ef60405160405180910390a45050565b6200261d84848462002273565b6200262b84848484620028b3565b6200266d576040517f08c379a0000000000000000000000000000000000000000000000000000000008152600401620026649062003ab4565b60405180910390fd5b50505050565b606060405180602001604052806000815250905090565b60606000821415620026d4576040518060400160405280600181526020017f3000000000000000000000000000000000000000000000000000000000000000815250905062002847565b600082905060005b600082146200270c578080620026f29062004050565b915050600a8262002704919062003e77565b9150620026dc565b60008167ffffffffffffffff8111156200274f577f4e487b7100000000000000000000000000000000000000000000000000000000600052604160045260246000fd5b6040519080825280601f01601f191660200182016040528015620027825781602001600182028036833780820191505090505b5090505b6000851462002840576001826200279e919062003f10565b9150600a85620027af91906200409e565b6030620027bd919062003e1a565b60f81b818381518110620027fa577f4e487b7100000000000000000000000000000000000000000000000000000000600052603260045260246000fd5b60200101907effffffffffffffffffffffffffffffffffffffffffffffffffffffffffffff1916908160001a905350600a8562002838919062003e77565b945062002786565b8093505050505b919050565b62002858838362002a5c565b620028676000848484620028b3565b620028a9576040517f08c379a0000000000000000000000000000000000000000000000000000000008152600401620028a09062003ab4565b60405180910390fd5b505050565b505050565b6000620028d68473ffffffffffffffffffffffffffffffffffffffff1662002c36565b1562002a4f578373ffffffffffffffffffffffffffffffffffffffff1663150b7a0262002902620020a5565b8786866040518563ffffffff1660e01b815260040162002926949392919062003a1f565b602060405180830381600087803b1580156200294157600080fd5b505af19250505080156200297557506040513d601f19601f8201168201806040525081019062002972919062003149565b60015b620029fe573d8060008114620029a8576040519150601f19603f3d011682016040523d82523d6000602084013e620029ad565b606091505b50600081511415620029f6576040517f08c379a0000000000000000000000000000000000000000000000000000000008152600401620029ed9062003ab4565b60405180910390fd5b805181602001fd5b63150b7a0260e01b7bffffffffffffffffffffffffffffffffffffffffffffffffffffffff1916817bffffffffffffffffffffffffffffffffffffffffffffffffffffffff19161491505062002a54565b600190505b949350505050565b600073ffffffffffffffffffffffffffffffffffffffff168273ffffffffffffffffffffffffffffffffffffffff16141562002acf576040517f08c379a000000000000000000000000000000000000000000000000000000000815260040162002ac69062003bc4565b60405180910390fd5b62002ada8162002039565b1562002b1d576040517f08c379a000000000000000000000000000000000000000000000000000000000815260040162002b149062003ad6565b60405180910390fd5b62002b2b60008383620028ae565b6001600360008473ffffffffffffffffffffffffffffffffffffffff1673ffffffffffffffffffffffffffffffffffffffff168152602001908152602001600020600082825462002b7d919062003e1a565b92505081905550816002600083815260200190815260200160002060006101000a81548173ffffffffffffffffffffffffffffffffffffffff021916908373ffffffffffffffffffffffffffffffffffffffff160217905550808273ffffffffffffffffffffffffffffffffffffffff16600073ffffffffffffffffffffffffffffffffffffffff167fddf252ad1be2c89b69c2b068fc378daa952ba7f163c4a11628f55a4df523b3ef60405160405180910390a45050565b600080823b905060008111915050919050565b60405180608001604052806000815260200160608152602001600073ffffffffffffffffffffffffffffffffffffffff168152602001606081525090565b82805462002c95906200401a565b90600052602060002090601f01602090048101928262002cb9576000855562002d05565b82601f1062002cd457805160ff191683800117855562002d05565b8280016001018555821562002d05579182015b8281111562002d0457825182559160200191906001019062002ce7565b5b50905062002d14919062002d6c565b5090565b610f13806200423783390190565b50805462002d34906200401a565b6000825580601f1062002d48575062002d69565b601f01602090049060005260206000209081019062002d68919062002d6c565b5b50565b5b8082111562002d8757600081600090555060010162002d6d565b5090565b600062002da262002d9c8462003d60565b62003d2c565b90508281526020810184848401111562002dbb57600080fd5b62002dc884828562003fd5565b509392505050565b600062002de762002de18462003d93565b62003d2c565b90508281526020810184848401111562002e0057600080fd5b62002e0d84828562003fd5565b509392505050565b60008135905062002e2681620041a3565b92915050565b60008151905062002e3d81620041bd565b92915050565b60008135905062002e5481620041d7565b92915050565b60008135905062002e6b81620041f1565b92915050565b60008151905062002e8281620041f1565b92915050565b600082601f83011262002e9a57600080fd5b813562002eac84826020860162002d8b565b91505092915050565b60008151905062002ec6816200420b565b92915050565b600082601f83011262002ede57600080fd5b813562002ef084826020860162002dd0565b91505092915050565b60008135905062002f0a816200421c565b92915050565b60008151905062002f21816200421c565b92915050565b60006020828403121562002f3a57600080fd5b600062002f4a8482850162002e15565b91505092915050565b60006020828403121562002f6657600080fd5b600062002f768482850162002e2c565b91505092915050565b6000806040838503121562002f9357600080fd5b600062002fa38582860162002e15565b925050602062002fb68582860162002e15565b9150509250929050565b60008060006060848603121562002fd657600080fd5b600062002fe68682870162002e15565b935050602062002ff98682870162002e15565b92505060406200300c8682870162002ef9565b9150509250925092565b600080600080608085870312156200302d57600080fd5b60006200303d8782880162002e15565b9450506020620030508782880162002e15565b9350506040620030638782880162002ef9565b925050606085013567ffffffffffffffff8111156200308157600080fd5b6200308f8782880162002e88565b91505092959194509250565b60008060408385031215620030af57600080fd5b6000620030bf8582860162002e15565b9250506020620030d28582860162002e43565b9150509250929050565b60008060408385031215620030f057600080fd5b6000620031008582860162002e15565b9250506020620031138582860162002ef9565b9150509250929050565b6000602082840312156200313057600080fd5b6000620031408482850162002e5a565b91505092915050565b6000602082840312156200315c57600080fd5b60006200316c8482850162002e71565b91505092915050565b6000602082840312156200318857600080fd5b6000620031988482850162002eb5565b91505092915050565b60008060408385031215620031b557600080fd5b600083013567ffffffffffffffff811115620031d057600080fd5b620031de8582860162002ecc565b925050602083013567ffffffffffffffff811115620031fc57600080fd5b6200320a8582860162002ecc565b9150509250929050565b6000602082840312156200322757600080fd5b6000620032378482850162002ef9565b91505092915050565b6000602082840312156200325357600080fd5b6000620032638482850162002f10565b91505092915050565b600080604083850312156200328057600080fd5b6000620032908582860162002ef9565b9250506020620032a38582860162002ef9565b9150509250929050565b620032b88162003f5f565b82525050565b620032c98162003f4b565b82525050565b620032da8162003f4b565b82525050565b620032eb8162003f73565b82525050565b6000620032fe8262003dc6565b6200330a818562003ddc565b93506200331c81856020860162003fe4565b620033278162004192565b840191505092915050565b60006200333f8262003dd1565b6200334b818562003ded565b93506200335d81856020860162003fe4565b620033688162004192565b840191505092915050565b6000620033808262003dd1565b6200338c818562003dfe565b93506200339e81856020860162003fe4565b620033a98162004192565b840191505092915050565b6000620033c18262003dd1565b620033cd818562003e0f565b9350620033df81856020860162003fe4565b80840191505092915050565b6000620033fa60328362003dfe565b91507f4552433732313a207472616e7366657220746f206e6f6e20455243373231526560008301527f63656976657220696d706c656d656e74657200000000000000000000000000006020830152604082019050919050565b600062003462601c8362003dfe565b91507f4552433732313a20746f6b656e20616c7265616479206d696e746564000000006000830152602082019050919050565b6000620034a460248362003dfe565b91507f4552433732313a207472616e7366657220746f20746865207a65726f2061646460008301527f72657373000000000000000000000000000000000000000000000000000000006020830152604082019050919050565b60006200350c60198362003dfe565b91507f4552433732313a20617070726f766520746f2063616c6c6572000000000000006000830152602082019050919050565b60006200354e602c8362003dfe565b91507f4552433732313a206f70657261746f7220717565727920666f72206e6f6e657860008301527f697374656e7420746f6b656e00000000000000000000000000000000000000006020830152604082019050919050565b6000620035b660388362003dfe565b91507f4552433732313a20617070726f76652063616c6c6572206973206e6f74206f7760008301527f6e6572206e6f7220617070726f76656420666f7220616c6c00000000000000006020830152604082019050919050565b60006200361e602a8362003dfe565b91507f4552433732313a2062616c616e636520717565727920666f7220746865207a6560008301527f726f2061646472657373000000000000000000000000000000000000000000006020830152604082019050919050565b60006200368660298362003dfe565b91507f4552433732313a206f776e657220717565727920666f72206e6f6e657869737460008301527f656e7420746f6b656e00000000000000000000000000000000000000000000006020830152604082019050919050565b6000620036ee60208362003dfe565b91507f4552433732313a206d696e7420746f20746865207a65726f20616464726573736000830152602082019050919050565b600062003730602c8362003dfe565b91507f4552433732313a20617070726f76656420717565727920666f72206e6f6e657860008301527f697374656e7420746f6b656e00000000000000000000000000000000000000006020830152604082019050919050565b60006200379860298362003dfe565b91507f4552433732313a207472616e73666572206f6620746f6b656e2074686174206960008301527f73206e6f74206f776e00000000000000000000000000000000000000000000006020830152604082019050919050565b600062003800602f8362003dfe565b91507f4552433732314d657461646174613a2055524920717565727920666f72206e6f60008301527f6e6578697374656e7420746f6b656e00000000000000000000000000000000006020830152604082019050919050565b60006200386860218362003dfe565b91507f4552433732313a20617070726f76616c20746f2063757272656e74206f776e6560008301527f72000000000000000000000000000000000000000000000000000000000000006020830152604082019050919050565b6000620038d060318362003dfe565b91507f4552433732313a207472616e736665722063616c6c6572206973206e6f74206f60008301527f776e6572206e6f7220617070726f7665640000000000000000000000000000006020830152604082019050919050565b60006080830160008301516200394360008601826200399b565b50602083015184820360208601526200395d828262003332565b9150506040830151620039746040860182620032be565b50606083015184820360608601526200398e828262003332565b9150508091505092915050565b620039a68162003fcb565b82525050565b620039b78162003fcb565b82525050565b6000620039cb8285620033b4565b9150620039d98284620033b4565b91508190509392505050565b6000602082019050620039fc6000830184620032cf565b92915050565b600060208201905062003a196000830184620032ad565b92915050565b600060808201905062003a366000830187620032cf565b62003a456020830186620032cf565b62003a546040830185620039ac565b818103606083015262003a688184620032f1565b905095945050505050565b600060208201905062003a8a6000830184620032e0565b92915050565b6000602082019050818103600083015262003aac818462003373565b905092915050565b6000602082019050818103600083015262003acf81620033eb565b9050919050565b6000602082019050818103600083015262003af18162003453565b9050919050565b6000602082019050818103600083015262003b138162003495565b9050919050565b6000602082019050818103600083015262003b3581620034fd565b9050919050565b6000602082019050818103600083015262003b57816200353f565b9050919050565b6000602082019050818103600083015262003b7981620035a7565b9050919050565b6000602082019050818103600083015262003b9b816200360f565b9050919050565b6000602082019050818103600083015262003bbd8162003677565b9050919050565b6000602082019050818103600083015262003bdf81620036df565b9050919050565b6000602082019050818103600083015262003c018162003721565b9050919050565b6000602082019050818103600083015262003c238162003789565b9050919050565b6000602082019050818103600083015262003c4581620037f1565b9050919050565b6000602082019050818103600083015262003c678162003859565b9050919050565b6000602082019050818103600083015262003c8981620038c1565b9050919050565b6000602082019050818103600083015262003cac818462003929565b905092915050565b600060208201905062003ccb6000830184620039ac565b92915050565b600060808201905062003ce86000830187620039ac565b818103602083015262003cfc818662003373565b905062003d0d6040830185620032cf565b818103606083015262003d21818462003373565b905095945050505050565b6000604051905081810181811067ffffffffffffffff8211171562003d565762003d5562004163565b5b8060405250919050565b600067ffffffffffffffff82111562003d7e5762003d7d62004163565b5b601f19601f8301169050602081019050919050565b600067ffffffffffffffff82111562003db15762003db062004163565b5b601f19601f8301169050602081019050919050565b600081519050919050565b600081519050919050565b600082825260208201905092915050565b600082825260208201905092915050565b600082825260208201905092915050565b600081905092915050565b600062003e278262003fcb565b915062003e348362003fcb565b9250827fffffffffffffffffffffffffffffffffffffffffffffffffffffffffffffffff0382111562003e6c5762003e6b620040d6565b5b828201905092915050565b600062003e848262003fcb565b915062003e918362003fcb565b92508262003ea45762003ea362004105565b5b828204905092915050565b600062003ebc8262003fcb565b915062003ec98362003fcb565b9250817fffffffffffffffffffffffffffffffffffffffffffffffffffffffffffffffff048311821515161562003f055762003f04620040d6565b5b828202905092915050565b600062003f1d8262003fcb565b915062003f2a8362003fcb565b92508282101562003f405762003f3f620040d6565b5b828203905092915050565b600062003f588262003fab565b9050919050565b600062003f6c8262003fab565b9050919050565b60008115159050919050565b60007fffffffff0000000000000000000000000000000000000000000000000000000082169050919050565b600073ffffffffffffffffffffffffffffffffffffffff82169050919050565b6000819050919050565b82818337600083830152505050565b60005b838110156200400457808201518184015260208101905062003fe7565b8381111562004014576000848401525b50505050565b600060028204905060018216806200403357607f821691505b602082108114156200404a576200404962004134565b5b50919050565b60006200405d8262003fcb565b91507fffffffffffffffffffffffffffffffffffffffffffffffffffffffffffffffff821415620040935762004092620040d6565b5b600182019050919050565b6000620040ab8262003fcb565b9150620040b88362003fcb565b925082620040cb57620040ca62004105565b5b828206905092915050565b7f4e487b7100000000000000000000000000000000000000000000000000000000600052601160045260246000fd5b7f4e487b7100000000000000000000000000000000000000000000000000000000600052601260045260246000fd5b7f4e487b7100000000000000000000000000000000000000000000000000000000600052602260045260246000fd5b7f4e487b7100000000000000000000000000000000000000000000000000000000600052604160045260246000fd5b6000601f19601f8301169050919050565b620041ae8162003f4b565b8114620041ba57600080fd5b50565b620041c88162003f5f565b8114620041d457600080fd5b50565b620041e28162003f73565b8114620041ee57600080fd5b50565b620041fc8162003f7f565b81146200420857600080fd5b50565b600481106200421957600080fd5b50565b620042278162003fcb565b81146200423357600080fd5b5056fe608060405234801561001057600080fd5b50604051610f13380380610f13833981810160405281019061003291906100de565b806000806101000a81548173ffffffffffffffffffffffffffffffffffffffff021916908373ffffffffffffffffffffffffffffffffffffffff1602179055506001600260006101000a81548160ff021916908360038111156100be577f4e487b7100000000000000000000000000000000000000000000000000000000600052602160045260246000fd5b021790555050610150565b6000815190506100d881610139565b92915050565b6000602082840312156100f057600080fd5b60006100fe848285016100c9565b91505092915050565b600061011282610119565b9050919050565b600073ffffffffffffffffffffffffffffffffffffffff82169050919050565b61014281610107565b811461014d57600080fd5b50565b610db48061015f6000396000f3fe6080604052600436106100865760003560e01c8063cff29dfd11610059578063cff29dfd14610149578063d22cf3a414610186578063d57bde79146101af578063e4940157146101da578063f77282ab146101f657610086565b806362ea82db1461008b5780637fb45099146100c85780638da5cb5b146100f357806391f901571461011e575b600080fd5b34801561009757600080fd5b506100b260048036038101906100ad9190610afc565b61020d565b6040516100bf9190610bb1565b60405180910390f35b3480156100d457600080fd5b506100dd610225565b6040516100ea9190610b96565b60405180910390f35b3480156100ff57600080fd5b50610108610238565b6040516101159190610b7b565b60405180910390f35b34801561012a57600080fd5b5061013361025c565b6040516101409190610b7b565b60405180910390f35b34801561015557600080fd5b50610170600480360381019061016b9190610b25565b610282565b60405161017d9190610b7b565b60405180910390f35b34801561019257600080fd5b506101ad60048036038101906101a89190610afc565b6102c1565b005b3480156101bb57600080fd5b506101c46104dd565b6040516101d19190610bb1565b60405180910390f35b6101f460048036038101906101ef9190610afc565b6104e3565b005b34801561020257600080fd5b5061020b610761565b005b60056020528060005260406000206000915090505481565b600260009054906101000a900460ff1681565b60008054906101000a900473ffffffffffffffffffffffffffffffffffffffff1681565b600460009054906101000a900473ffffffffffffffffffffffffffffffffffffffff1681565b6001818154811061029257600080fd5b906000526020600020016000915054906101000a900473ffffffffffffffffffffffffffffffffffffffff1681565b60008054906101000a900473ffffffffffffffffffffffffffffffffffffffff1673ffffffffffffffffffffffffffffffffffffffff168173ffffffffffffffffffffffffffffffffffffffff161461031957600080fd5b6003600260006101000a81548160ff02191690836003811115610365577f4e487b7100000000000000000000000000000000000000000000000000000000600052602160045260246000fd5b021790555060005b6001805490508110156104d957600181815481106103b4577f4e487b7100000000000000000000000000000000000000000000000000000000600052603260045260246000fd5b9060005260206000200160009054906101000a900473ffffffffffffffffffffffffffffffffffffffff1673ffffffffffffffffffffffffffffffffffffffff166108fc6005600060018581548110610436577f4e487b7100000000000000000000000000000000000000000000000000000000600052603260045260246000fd5b9060005260206000200160009054906101000a900473ffffffffffffffffffffffffffffffffffffffff1673ffffffffffffffffffffffffffffffffffffffff1673ffffffffffffffffffffffffffffffffffffffff168152602001908152602001600020549081150290604051600060405180830381858888f193505050501580156104c7573d6000803e3d6000fd5b50806104d290610c95565b905061036d565b5050565b60035481565b60008054906101000a900473ffffffffffffffffffffffffffffffffffffffff1673ffffffffffffffffffffffffffffffffffffffff168173ffffffffffffffffffffffffffffffffffffffff16141561053c57600080fd5b60016003811115610576577f4e487b7100000000000000000000000000000000000000000000000000000000600052602160045260246000fd5b600260009054906101000a900460ff1660038111156105be577f4e487b7100000000000000000000000000000000000000000000000000000000600052602160045260246000fd5b146105c857600080fd5b6000600560008373ffffffffffffffffffffffffffffffffffffffff1673ffffffffffffffffffffffffffffffffffffffff168152602001908152602001600020541415610674576001819080600181540180825580915050600190039060005260206000200160009091909190916101000a81548173ffffffffffffffffffffffffffffffffffffffff021916908373ffffffffffffffffffffffffffffffffffffffff1602179055505b600034600560008473ffffffffffffffffffffffffffffffffffffffff1673ffffffffffffffffffffffffffffffffffffffff168152602001908152602001600020546106c19190610bcc565b905060035481116106d157600080fd5b80600560008473ffffffffffffffffffffffffffffffffffffffff1673ffffffffffffffffffffffffffffffffffffffff168152602001908152602001600020819055508060038190555081600460006101000a81548173ffffffffffffffffffffffffffffffffffffffff021916908373ffffffffffffffffffffffffffffffffffffffff1602179055505050565b60038081111561079a577f4e487b7100000000000000000000000000000000000000000000000000000000600052602160045260246000fd5b600260009054906101000a900460ff1660038111156107e2577f4e487b7100000000000000000000000000000000000000000000000000000000600052602160045260246000fd5b14156107ed57600080fd5b60008054906101000a900473ffffffffffffffffffffffffffffffffffffffff1673ffffffffffffffffffffffffffffffffffffffff166108fc6003549081150290604051600060405180830381858888f19350505050158015610855573d6000803e3d6000fd5b5060005b600180549050811015610a7f57600460009054906101000a900473ffffffffffffffffffffffffffffffffffffffff1673ffffffffffffffffffffffffffffffffffffffff16600182815481106108d9577f4e487b7100000000000000000000000000000000000000000000000000000000600052603260045260246000fd5b9060005260206000200160009054906101000a900473ffffffffffffffffffffffffffffffffffffffff1673ffffffffffffffffffffffffffffffffffffffff1614610a6e5760018181548110610959577f4e487b7100000000000000000000000000000000000000000000000000000000600052603260045260246000fd5b9060005260206000200160009054906101000a900473ffffffffffffffffffffffffffffffffffffffff1673ffffffffffffffffffffffffffffffffffffffff166108fc60056000600185815481106109db577f4e487b7100000000000000000000000000000000000000000000000000000000600052603260045260246000fd5b9060005260206000200160009054906101000a900473ffffffffffffffffffffffffffffffffffffffff1673ffffffffffffffffffffffffffffffffffffffff1673ffffffffffffffffffffffffffffffffffffffff168152602001908152602001600020549081150290604051600060405180830381858888f19350505050158015610a6c573d6000803e3d6000fd5b505b80610a7890610c95565b9050610859565b5060028060006101000a81548160ff02191690836003811115610acb577f4e487b7100000000000000000000000000000000000000000000000000000000600052602160045260246000fd5b0217905550565b600081359050610ae181610d50565b92915050565b600081359050610af681610d67565b92915050565b600060208284031215610b0e57600080fd5b6000610b1c84828501610ad2565b91505092915050565b600060208284031215610b3757600080fd5b6000610b4584828501610ae7565b91505092915050565b610b5781610c34565b82525050565b610b6681610c83565b82525050565b610b7581610c79565b82525050565b6000602082019050610b906000830184610b4e565b92915050565b6000602082019050610bab6000830184610b5d565b92915050565b6000602082019050610bc66000830184610b6c565b92915050565b6000610bd782610c79565b9150610be283610c79565b9250827fffffffffffffffffffffffffffffffffffffffffffffffffffffffffffffffff03821115610c1757610c16610cde565b5b828201905092915050565b6000610c2d82610c59565b9050919050565b6000610c3f82610c59565b9050919050565b6000819050610c5482610d3c565b919050565b600073ffffffffffffffffffffffffffffffffffffffff82169050919050565b6000819050919050565b6000610c8e82610c46565b9050919050565b6000610ca082610c79565b91507fffffffffffffffffffffffffffffffffffffffffffffffffffffffffffffffff821415610cd357610cd2610cde565b5b600182019050919050565b7f4e487b7100000000000000000000000000000000000000000000000000000000600052601160045260246000fd5b7f4e487b7100000000000000000000000000000000000000000000000000000000600052602160045260246000fd5b60048110610d4d57610d4c610d0d565b5b50565b610d5981610c22565b8114610d6457600080fd5b50565b610d7081610c79565b8114610d7b57600080fd5b5056fea264697066735822122061703e9eb9daefc24c004e903d86a7c30e0a8cc8404c9137ece482364107cd2e64736f6c63430008000033a2646970667358221220c8836da1b3885a6786c80b5e01c88bffd911eb5851e639d0ee9c099d6723ffb764736f6c63430008000033",
  "immutableReferences": {},
  "source": "pragma solidity ^0.8.0;\r\n\r\nimport \"./ToknCollectible.sol\";\r\nimport \"./Auction.sol\";\r\n\r\ncontract ToknBidding is ToknCollectible{\r\n\r\n  // uint256 collectibleID;\r\n  // address payable creator;\r\n  // address payable owner;\r\n    mapping(uint256=> bool) public runningAuction;\r\n  mapping(uint256=> address) public currentAuctionForTokn;\r\n  // mapping(uint256=> mapping(address=>bool)) public currentRunningAuction;\r\n  mapping(address=> uint) public auctionMaxPrice;\r\n  \r\n  constructor(string memory name, string memory symbol) public ToknCollectible(name, symbol){\r\n    // collectibleID = _toknID;\r\n    // creator = payable(_creator);\r\n    // owner = payable(msg.sender);\r\n  }\r\nfunction toknExists(uint256 toknID) private view{\r\n  require(_exists(toknID));\r\n}\r\n\r\n // Starting auction for a particular collectible\r\nfunction startAuction(uint256 toknID, uint _maxPrice) public {\r\n  toknExists(toknID);\r\n  // require(_exists(toknID));\r\n  require(_isApprovedOrOwner(msg.sender, toknID));\r\n  require(runningAuction[toknID] == false);\r\n\r\n  address newAuction = address(new Auction(payable(msg.sender)));\r\n  // collectibleAuctions[toknID].push(address(newAuction));\r\n  auctionMaxPrice[newAuction] =_maxPrice*10**18;\r\n  runningAuction[toknID] = true;\r\n  currentAuctionForTokn[toknID] = newAuction;\r\n}\r\n\r\n\r\n// Placeing Bid\r\nfunction bid(uint256 _toknID) public payable{\r\n  toknExists(_toknID);\r\n  // require(_exists(_toknID));\r\n  require(runningAuction[_toknID]);\r\n  \r\n  // Auction currentAuction = currentAuctionForTokn[_toknID];\r\n\r\n  Auction(currentAuctionForTokn[_toknID]).placeBid{value: msg.value}(msg.sender);\r\n\r\n  // Finalizing the auction if the current bid reaches maximum price defines by the owner \r\n  if(msg.value >= auctionMaxPrice[address(currentAuctionForTokn[_toknID])]){\r\n    runningAuction[_toknID] = false;\r\n\r\n  }\r\n  \r\n}\r\n\r\n// Finalizing Auction and transferring the ownership to the buyer and sending the commision to the original creator\r\nfunction endAuction(uint256 _toknID, uint256 commission) public {\r\n  toknExists(_toknID);\r\n  // require(_exists(_toknID));\r\n  Auction currentAuction = Auction(currentAuctionForTokn[_toknID]);\r\n  require(currentAuction.auctionState() != Auction.State.Ended); \r\n  require(msg.sender == currentAuction.owner());\r\n  \r\n  currentAuction.finalizeAuction();\r\n  _collectibleList[_toknID]._owner = currentAuction.highestBidder();\r\n  // uint lastPrice = currentAuction.highestBid()/uint(10**18);\r\n  // uint creatorCommission = ((currentAuction.highestBid()/uint(10**18))*commission/uint(100));\r\n  creator.transfer(((currentAuction.highestBid()/uint(10**18))*commission/uint(100))*10**18); \r\n  safeTransferFrom(msg.sender, currentAuction.highestBidder(), _toknID);\r\n  runningAuction[_toknID] = false;\r\n  // delete currentAuctionForTokn[_toknID];\r\n}\r\n\r\n//cancelling the auction\r\nfunction cancelAuction(uint256 toknID) public {\r\n  toknExists(toknID);\r\n  // require(_exists(toknID));\r\n  require(msg.sender == _collectibleList[toknID]._owner);\r\n  require(runningAuction[toknID]);\r\n  // Auction currentAuction = currentAuctionForTokn[toknID];\r\n  Auction(currentAuctionForTokn[toknID]).cancelAuction(msg.sender);\r\n  runningAuction[toknID] = false;\r\n  // delete currentAuctionForTokn[toknID];\r\n}\r\n\r\n// setting terminal price for auction\r\nfunction setMaxPrice(uint256 toknID, uint price) public {\r\n  toknExists(toknID);\r\n  // require(_exists(toknID));\r\n  require(msg.sender == _collectibleList[toknID]._owner);\r\n  require(runningAuction[toknID]);\r\n \r\n  // Auction currentAuction = currentAuctionForTokn[toknID];\r\n  auctionMaxPrice[currentAuctionForTokn[toknID]] = price*10**18;\r\n}\r\n\r\n}",
  "sourcePath": "C:/Users/lenovo/OneDrive/Desktop/projects/Tokn/contracts/ToknBidding.sol",
  "compiler": {
    "name": "solc",
    "version": "0.8.0+commit.c7dfd78e.Emscripten.clang"
  },
  "schemaVersion": "3.4.1",
  "updatedAt": "2021-07-29T03:29:19.852Z",
  "devdoc": {
    "kind": "dev",
    "methods": {
      "approve(address,uint256)": {
        "details": "See {IERC721-approve}."
      },
      "balanceOf(address)": {
        "details": "See {IERC721-balanceOf}."
      },
      "getApproved(uint256)": {
        "details": "See {IERC721-getApproved}."
      },
      "isApprovedForAll(address,address)": {
        "details": "See {IERC721-isApprovedForAll}."
      },
      "name()": {
        "details": "See {IERC721Metadata-name}."
      },
      "ownerOf(uint256)": {
        "details": "See {IERC721-ownerOf}."
      },
      "safeTransferFrom(address,address,uint256)": {
        "details": "See {IERC721-safeTransferFrom}."
      },
      "safeTransferFrom(address,address,uint256,bytes)": {
        "details": "See {IERC721-safeTransferFrom}."
      },
      "setApprovalForAll(address,bool)": {
        "details": "See {IERC721-setApprovalForAll}."
      },
      "supportsInterface(bytes4)": {
        "details": "See {IERC165-supportsInterface}."
      },
      "symbol()": {
        "details": "See {IERC721Metadata-symbol}."
      },
      "tokenURI(uint256)": {
        "details": "See {IERC721Metadata-tokenURI}."
      },
      "transferFrom(address,address,uint256)": {
        "details": "See {IERC721-transferFrom}."
      }
    },
    "version": 1
  },
  "userdoc": {
    "kind": "user",
    "methods": {},
    "version": 1
  }
}