{
  "contractName": "ToknFactory",
  "abi": [
    {
      "inputs": [
        {
          "internalType": "address payable",
          "name": "_deployer",
          "type": "address"
        }
      ],
      "stateMutability": "nonpayable",
      "type": "constructor"
    },
    {
      "anonymous": false,
      "inputs": [
        {
          "indexed": false,
          "internalType": "uint256",
          "name": "_songID",
          "type": "uint256"
        },
        {
          "indexed": false,
          "internalType": "string",
          "name": "_title",
          "type": "string"
        },
        {
          "indexed": false,
          "internalType": "address",
          "name": "_artist",
          "type": "address"
        },
        {
          "indexed": false,
          "internalType": "string",
          "name": "_albumCoverHash",
          "type": "string"
        },
        {
          "indexed": false,
          "internalType": "string",
          "name": "_audioHash",
          "type": "string"
        }
      ],
      "name": "SongUploaded",
      "type": "event"
    },
    {
      "inputs": [
        {
          "internalType": "address",
          "name": "",
          "type": "address"
        }
      ],
      "name": "artistTokn",
      "outputs": [
        {
          "internalType": "address",
          "name": "",
          "type": "address"
        }
      ],
      "stateMutability": "view",
      "type": "function"
    },
    {
      "inputs": [
        {
          "internalType": "uint256",
          "name": "",
          "type": "uint256"
        }
      ],
      "name": "songList",
      "outputs": [
        {
          "internalType": "uint256",
          "name": "_songID",
          "type": "uint256"
        },
        {
          "internalType": "string",
          "name": "_title",
          "type": "string"
        },
        {
          "internalType": "address",
          "name": "_artist",
          "type": "address"
        },
        {
          "internalType": "string",
          "name": "_albumCoverHash",
          "type": "string"
        },
        {
          "internalType": "string",
          "name": "_audioHash",
          "type": "string"
        }
      ],
      "stateMutability": "view",
      "type": "function"
    },
    {
      "inputs": [
        {
          "internalType": "string",
          "name": "_albumCoverHash",
          "type": "string"
        },
        {
          "internalType": "string",
          "name": "_audioHash",
          "type": "string"
        },
        {
          "internalType": "string",
          "name": "_title",
          "type": "string"
        }
      ],
      "name": "uploadSong",
      "outputs": [],
      "stateMutability": "nonpayable",
      "type": "function"
    },
    {
      "inputs": [
        {
          "internalType": "string",
          "name": "name",
          "type": "string"
        },
        {
          "internalType": "string",
          "name": "symbol",
          "type": "string"
        },
        {
          "internalType": "uint256",
          "name": "_songID",
          "type": "uint256"
        }
      ],
      "name": "createTokn",
      "outputs": [],
      "stateMutability": "nonpayable",
      "type": "function"
    }
  ],
  "bytecode": "0x608060405234801561001057600080fd5b50604051620062f7380380620062f783398181016040528101906100349190610097565b806000806101000a81548173ffffffffffffffffffffffffffffffffffffffff021916908373ffffffffffffffffffffffffffffffffffffffff160217905550600060018190555050610109565b600081519050610091816100f2565b92915050565b6000602082840312156100a957600080fd5b60006100b784828501610082565b91505092915050565b60006100cb826100d2565b9050919050565b600073ffffffffffffffffffffffffffffffffffffffff82169050919050565b6100fb816100c0565b811461010657600080fd5b50565b6161de80620001196000396000f3fe60806040523480156200001157600080fd5b5060043610620000525760003560e01c8063231f9f5e14620000575780633a5623771462000077578063538241eb14620000b157806392a7dcd814620000e7575b600080fd5b6200007560048036038101906200006f9190620007d2565b62000107565b005b6200009560048036038101906200008f9190620008fb565b620002dd565b604051620000a8959493929190620009e2565b60405180910390f35b620000cf6004803603810190620000c99190620007a6565b620004e3565b604051620000de91906200098a565b60405180910390f35b620001056004803603810190620000ff919062000873565b62000516565b005b60008351116200011657600080fd5b60008251116200012557600080fd5b600073ffffffffffffffffffffffffffffffffffffffff163373ffffffffffffffffffffffffffffffffffffffff1614156200016057600080fd5b60016000815480929190620001759062000b90565b91905055506040518060a0016040528060015481526020018281526020013373ffffffffffffffffffffffffffffffffffffffff16815260200184815260200183815250600260006001548152602001908152602001600020600082015181600001556020820151816001019080519060200190620001f692919062000648565b5060408201518160020160006101000a81548173ffffffffffffffffffffffffffffffffffffffff021916908373ffffffffffffffffffffffffffffffffffffffff16021790555060608201518160030190805190602001906200025c92919062000648565b5060808201518160040190805190602001906200027b92919062000648565b509050507f5df60c579373c546d17741611b09fc1dd3c390ac50dbcd85b321439eb7dd0de860016000815480929190620002b59062000b90565b9190505582338686604051620002d0959493929190620009e2565b60405180910390a1505050565b6002602052806000526040600020600091509050806000015490806001018054620003089062000b5a565b80601f0160208091040260200160405190810160405280929190818152602001828054620003369062000b5a565b8015620003875780601f106200035b5761010080835404028352916020019162000387565b820191906000526020600020905b8154815290600101906020018083116200036957829003601f168201915b5050505050908060020160009054906101000a900473ffffffffffffffffffffffffffffffffffffffff1690806003018054620003c49062000b5a565b80601f0160208091040260200160405190810160405280929190818152602001828054620003f29062000b5a565b8015620004435780601f10620004175761010080835404028352916020019162000443565b820191906000526020600020905b8154815290600101906020018083116200042557829003601f168201915b5050505050908060040180546200045a9062000b5a565b80601f0160208091040260200160405190810160405280929190818152602001828054620004889062000b5a565b8015620004d95780601f10620004ad57610100808354040283529160200191620004d9565b820191906000526020600020905b815481529060010190602001808311620004bb57829003601f168201915b5050505050905085565b60036020528060005260406000206000915054906101000a900473ffffffffffffffffffffffffffffffffffffffff1681565b6002600082815260200190815260200160002060020160009054906101000a900473ffffffffffffffffffffffffffffffffffffffff1673ffffffffffffffffffffffffffffffffffffffff163373ffffffffffffffffffffffffffffffffffffffff16146200058557600080fd5b600083836040516200059790620006d9565b620005a4929190620009a7565b604051809103906000f080158015620005c1573d6000803e3d6000fd5b50905080600360003373ffffffffffffffffffffffffffffffffffffffff1673ffffffffffffffffffffffffffffffffffffffff16815260200190815260200160002060006101000a81548173ffffffffffffffffffffffffffffffffffffffff021916908373ffffffffffffffffffffffffffffffffffffffff16021790555050505050565b828054620006569062000b5a565b90600052602060002090601f0160209004810192826200067a5760008555620006c6565b82601f106200069557805160ff1916838001178555620006c6565b82800160010185558215620006c6579182015b82811115620006c5578251825591602001919060010190620006a8565b5b509050620006d59190620006e7565b5090565b6154f88062000cb183390190565b5b8082111562000702576000816000905550600101620006e8565b5090565b60006200071d620007178462000a88565b62000a54565b9050828152602081018484840111156200073657600080fd5b6200074384828562000b15565b509392505050565b6000813590506200075c8162000c7c565b92915050565b600082601f8301126200077457600080fd5b81356200078684826020860162000706565b91505092915050565b600081359050620007a08162000c96565b92915050565b600060208284031215620007b957600080fd5b6000620007c9848285016200074b565b91505092915050565b600080600060608486031215620007e857600080fd5b600084013567ffffffffffffffff8111156200080357600080fd5b620008118682870162000762565b935050602084013567ffffffffffffffff8111156200082f57600080fd5b6200083d8682870162000762565b925050604084013567ffffffffffffffff8111156200085b57600080fd5b620008698682870162000762565b9150509250925092565b6000806000606084860312156200088957600080fd5b600084013567ffffffffffffffff811115620008a457600080fd5b620008b28682870162000762565b935050602084013567ffffffffffffffff811115620008d057600080fd5b620008de8682870162000762565b9250506040620008f1868287016200078f565b9150509250925092565b6000602082840312156200090e57600080fd5b60006200091e848285016200078f565b91505092915050565b620009328162000ad7565b82525050565b6000620009458262000abb565b62000951818562000ac6565b93506200096381856020860162000b24565b6200096e8162000c6b565b840191505092915050565b620009848162000b0b565b82525050565b6000602082019050620009a1600083018462000927565b92915050565b60006040820190508181036000830152620009c3818562000938565b90508181036020830152620009d9818462000938565b90509392505050565b600060a082019050620009f9600083018862000979565b818103602083015262000a0d818762000938565b905062000a1e604083018662000927565b818103606083015262000a32818562000938565b9050818103608083015262000a48818462000938565b90509695505050505050565b6000604051905081810181811067ffffffffffffffff8211171562000a7e5762000a7d62000c3c565b5b8060405250919050565b600067ffffffffffffffff82111562000aa65762000aa562000c3c565b5b601f19601f8301169050602081019050919050565b600081519050919050565b600082825260208201905092915050565b600062000ae48262000aeb565b9050919050565b600073ffffffffffffffffffffffffffffffffffffffff82169050919050565b6000819050919050565b82818337600083830152505050565b60005b8381101562000b4457808201518184015260208101905062000b27565b8381111562000b54576000848401525b50505050565b6000600282049050600182168062000b7357607f821691505b6020821081141562000b8a5762000b8962000c0d565b5b50919050565b600062000b9d8262000b0b565b91507fffffffffffffffffffffffffffffffffffffffffffffffffffffffffffffffff82141562000bd35762000bd262000bde565b5b600182019050919050565b7f4e487b7100000000000000000000000000000000000000000000000000000000600052601160045260246000fd5b7f4e487b7100000000000000000000000000000000000000000000000000000000600052602260045260246000fd5b7f4e487b7100000000000000000000000000000000000000000000000000000000600052604160045260246000fd5b6000601f19601f8301169050919050565b62000c878162000ad7565b811462000c9357600080fd5b50565b62000ca18162000b0b565b811462000cad57600080fd5b5056fe60806040523480156200001157600080fd5b50604051620054f8380380620054f88339818101604052810190620000379190620001ab565b8181818181600090805190602001906200005392919062000089565b5080600190805190602001906200006c92919062000089565b50505060006006819055506000600781905550505050506200034f565b8280546200009790620002bb565b90600052602060002090601f016020900481019282620000bb576000855562000107565b82601f10620000d657805160ff191683800117855562000107565b8280016001018555821562000107579182015b8281111562000106578251825591602001919060010190620000e9565b5b5090506200011691906200011a565b5090565b5b80821115620001355760008160009055506001016200011b565b5090565b6000620001506200014a8462000252565b6200021e565b9050828152602081018484840111156200016957600080fd5b6200017684828562000285565b509392505050565b600082601f8301126200019057600080fd5b8151620001a284826020860162000139565b91505092915050565b60008060408385031215620001bf57600080fd5b600083015167ffffffffffffffff811115620001da57600080fd5b620001e8858286016200017e565b925050602083015167ffffffffffffffff8111156200020657600080fd5b62000214858286016200017e565b9150509250929050565b6000604051905081810181811067ffffffffffffffff8211171562000248576200024762000320565b5b8060405250919050565b600067ffffffffffffffff82111562000270576200026f62000320565b5b601f19601f8301169050602081019050919050565b60005b83811015620002a557808201518184015260208101905062000288565b83811115620002b5576000848401525b50505050565b60006002820490506001821680620002d457607f821691505b60208210811415620002eb57620002ea620002f1565b5b50919050565b7f4e487b7100000000000000000000000000000000000000000000000000000000600052602260045260246000fd5b7f4e487b7100000000000000000000000000000000000000000000000000000000600052604160045260246000fd5b615199806200035f6000396000f3fe608060405260043610620001c45760003560e01c806354bbdfab1162000103578063a22cb4651162000097578063c87b56dd116200006d578063c87b56dd14620006ad578063ca225b9714620006f1578063cd73240f1462000738578063e985e9c5146200077c57620001c4565b8063a22cb4651462000621578063b88d4fde146200064f578063bab22d8d146200067d57620001c4565b806370a0823111620000d957806370a08231146200053b57806395d89b41146200057f57806396b5a75514620005af5780639d11877014620005dd57620001c4565b806354bbdfab14620004835780635da3273914620004b35780636352211e14620004f757620001c4565b8063224c5761116200017b57806342842e0e116200015157806342842e0e14620003c3578063454a2ab314620003f157806347afe43714620004275780634fee13fc146200045557620001c4565b8063224c5761146200032357806323b872dd14620003675780634173ce5b146200039557620001c4565b806301ffc9a714620001c957806302d05d3f146200020d57806306fdde03146200023d578063081812fc146200026d578063095ea7b314620002b1578063198e2b8a14620002df575b600080fd5b348015620001d657600080fd5b50620001f56004803603810190620001ef919062003137565b620007c0565b60405162000204919062003a8d565b60405180910390f35b3480156200021a57600080fd5b5062000225620008a6565b60405162000234919062003a1c565b60405180910390f35b3480156200024a57600080fd5b5062000255620008cc565b60405162000264919062003aaa565b60405180910390f35b3480156200027a57600080fd5b506200029960048036038101906200029391906200322e565b62000966565b604051620002a89190620039ff565b60405180910390f35b348015620002be57600080fd5b50620002dd6004803603810190620002d79190620030f6565b620009f0565b005b348015620002ec57600080fd5b506200030b6004803603810190620003059190620031bb565b62000b19565b6040516200031a919062003caa565b60405180910390f35b3480156200033057600080fd5b506200034f600480360381019062000349919062002f41565b62000cd6565b6040516200035e919062003cce565b60405180910390f35b3480156200037457600080fd5b506200039360048036038101906200038d919062002fda565b62000cee565b005b348015620003a257600080fd5b50620003c16004803603810190620003bb919062003286565b62000d57565b005b348015620003d057600080fd5b50620003ef6004803603810190620003e9919062002fda565b62000e8c565b005b6200040f60048036038101906200040991906200322e565b62000eae565b6040516200041e919062003a8d565b60405180910390f35b3480156200043457600080fd5b506200045360048036038101906200044d919062003286565b62001035565b005b3480156200046257600080fd5b506200048160048036038101906200047b919062003286565b6200155b565b005b3480156200049057600080fd5b506200049b620016c7565b604051620004aa919062003cce565b60405180910390f35b348015620004c057600080fd5b50620004df6004803603810190620004d991906200322e565b620016cd565b604051620004ee919062003a8d565b60405180910390f35b3480156200050457600080fd5b506200052360048036038101906200051d91906200322e565b620016ed565b604051620005329190620039ff565b60405180910390f35b3480156200054857600080fd5b5062000567600480360381019062000561919062002f41565b620017a2565b60405162000576919062003cce565b60405180910390f35b3480156200058c57600080fd5b50620005976200185d565b604051620005a6919062003aaa565b60405180910390f35b348015620005bc57600080fd5b50620005db6004803603810190620005d591906200322e565b620018f7565b005b348015620005ea57600080fd5b506200060960048036038101906200060391906200322e565b62001a6d565b60405162000618919062003a8d565b60405180910390f35b3480156200062e57600080fd5b506200064d6004803603810190620006479190620030b5565b62001b01565b005b3480156200065c57600080fd5b506200067b600480360381019062000675919062003030565b62001c8d565b005b3480156200068a57600080fd5b506200069562001cf8565b604051620006a4919062003cce565b60405180910390f35b348015620006ba57600080fd5b50620006d96004803603810190620006d391906200322e565b62001cfe565b604051620006e8919062003aaa565b60405180910390f35b348015620006fe57600080fd5b506200071d60048036038101906200071791906200322e565b62001db2565b6040516200072f949392919062003ceb565b60405180910390f35b3480156200074557600080fd5b506200076460048036038101906200075e91906200322e565b62001f22565b604051620007739190620039ff565b60405180910390f35b3480156200078957600080fd5b50620007a86004803603810190620007a2919062002f99565b62001f55565b604051620007b7919062003a8d565b60405180910390f35b60007f80ac58cd000000000000000000000000000000000000000000000000000000007bffffffffffffffffffffffffffffffffffffffffffffffffffffffff1916827bffffffffffffffffffffffffffffffffffffffffffffffffffffffff191614806200088c57507f5b5e139f000000000000000000000000000000000000000000000000000000007bffffffffffffffffffffffffffffffffffffffffffffffffffffffff1916827bffffffffffffffffffffffffffffffffffffffffffffffffffffffff1916145b806200089f57506200089e8262001fe9565b5b9050919050565b600860009054906101000a900473ffffffffffffffffffffffffffffffffffffffff1681565b606060008054620008dd9062004034565b80601f01602080910402602001604051908101604052809291908181526020018280546200090b9062004034565b80156200095c5780601f1062000930576101008083540402835291602001916200095c565b820191906000526020600020905b8154815290600101906020018083116200093e57829003601f168201915b5050505050905090565b6000620009738262002053565b620009b5576040517f08c379a0000000000000000000000000000000000000000000000000000000008152600401620009ac9062003c00565b60405180910390fd5b6004600083815260200190815260200160002060009054906101000a900473ffffffffffffffffffffffffffffffffffffffff169050919050565b6000620009fd82620016ed565b90508073ffffffffffffffffffffffffffffffffffffffff168373ffffffffffffffffffffffffffffffffffffffff16141562000a71576040517f08c379a000000000000000000000000000000000000000000000000000000000815260040162000a689062003c66565b60405180910390fd5b8073ffffffffffffffffffffffffffffffffffffffff1662000a92620020bf565b73ffffffffffffffffffffffffffffffffffffffff16148062000ac6575062000ac58162000abf620020bf565b62001f55565b5b62000b08576040517f08c379a000000000000000000000000000000000000000000000000000000000815260040162000aff9062003b78565b60405180910390fd5b62000b148383620020c7565b505050565b62000b2362002c63565b6006600081548092919062000b38906200406a565b91905055506007600081548092919062000b52906200406a565b91905055506000604051806080016040528060065481526020018581526020013373ffffffffffffffffffffffffffffffffffffffff1681526020018481525090508060096000600654815260200190815260200160002060008201518160000155602082015181600101908051906020019062000bd292919062002ca1565b5060408201518160020160006101000a81548173ffffffffffffffffffffffffffffffffffffffff021916908373ffffffffffffffffffffffffffffffffffffffff160217905550606082015181600301908051906020019062000c3892919062002ca1565b509050507f4265c0fca0618144a5f95ac58797316e876c6d2cc3c31e68bdf2c07ad8a53dd160065485338660405162000c75949392919062003ceb565b60405180910390a162000c8b3360065462002182565b33600860006101000a81548173ffffffffffffffffffffffffffffffffffffffff021916908373ffffffffffffffffffffffffffffffffffffffff1602179055508091505092915050565b600c6020528060005260406000206000915090505481565b62000d0362000cfc620020bf565b82620021a2565b62000d45576040517f08c379a000000000000000000000000000000000000000000000000000000000815260040162000d3c9062003c88565b60405180910390fd5b62000d528383836200228d565b505050565b62000d6282620024f9565b6009600083815260200190815260200160002060020160009054906101000a900473ffffffffffffffffffffffffffffffffffffffff1673ffffffffffffffffffffffffffffffffffffffff163373ffffffffffffffffffffffffffffffffffffffff161462000dd157600080fd5b600a600083815260200190815260200160002060009054906101000a900460ff1662000dfc57600080fd5b670de0b6b3a76400008162000e12919062003ec9565b600c6000600b600086815260200190815260200160002060009054906101000a900473ffffffffffffffffffffffffffffffffffffffff1673ffffffffffffffffffffffffffffffffffffffff1673ffffffffffffffffffffffffffffffffffffffff168152602001908152602001600020819055505050565b62000ea98383836040518060200160405280600081525062001c8d565b505050565b600062000ebb82620024f9565b600a600083815260200190815260200160002060009054906101000a900460ff1662000ee657600080fd5b600b600083815260200190815260200160002060009054906101000a900473ffffffffffffffffffffffffffffffffffffffff1673ffffffffffffffffffffffffffffffffffffffff1663e494015734336040518363ffffffff1660e01b815260040162000f559190620039ff565b6000604051808303818588803b15801562000f6f57600080fd5b505af115801562000f84573d6000803e3d6000fd5b5050505050600c6000600b600085815260200190815260200160002060009054906101000a900473ffffffffffffffffffffffffffffffffffffffff1673ffffffffffffffffffffffffffffffffffffffff1673ffffffffffffffffffffffffffffffffffffffff16815260200190815260200160002054341062001030576000600a600084815260200190815260200160002060006101000a81548160ff0219169083151502179055505b919050565b6200104082620024f9565b6000600b600084815260200190815260200160002060009054906101000a900473ffffffffffffffffffffffffffffffffffffffff16905060026003811115620010b3577f4e487b7100000000000000000000000000000000000000000000000000000000600052602160045260246000fd5b8173ffffffffffffffffffffffffffffffffffffffff16637fb450996040518163ffffffff1660e01b815260040160206040518083038186803b158015620010fa57600080fd5b505afa1580156200110f573d6000803e3d6000fd5b505050506040513d601f19601f820116820180604052508101906200113591906200318f565b60038111156200116e577f4e487b7100000000000000000000000000000000000000000000000000000000600052602160045260246000fd5b14156200117a57600080fd5b8073ffffffffffffffffffffffffffffffffffffffff16638da5cb5b6040518163ffffffff1660e01b815260040160206040518083038186803b158015620011c157600080fd5b505afa158015620011d6573d6000803e3d6000fd5b505050506040513d601f19601f82011682018060405250810190620011fc919062002f6d565b73ffffffffffffffffffffffffffffffffffffffff163373ffffffffffffffffffffffffffffffffffffffff16146200123457600080fd5b8073ffffffffffffffffffffffffffffffffffffffff1663f77282ab6040518163ffffffff1660e01b8152600401600060405180830381600087803b1580156200127d57600080fd5b505af115801562001292573d6000803e3d6000fd5b505050508073ffffffffffffffffffffffffffffffffffffffff166391f901576040518163ffffffff1660e01b815260040160206040518083038186803b158015620012dd57600080fd5b505afa158015620012f2573d6000803e3d6000fd5b505050506040513d601f19601f8201168201806040525081019062001318919062002f6d565b6009600085815260200190815260200160002060020160006101000a81548173ffffffffffffffffffffffffffffffffffffffff021916908373ffffffffffffffffffffffffffffffffffffffff160217905550600860009054906101000a900473ffffffffffffffffffffffffffffffffffffffff1673ffffffffffffffffffffffffffffffffffffffff166108fc670de0b6b3a7640000606485670de0b6b3a76400008673ffffffffffffffffffffffffffffffffffffffff1663d57bde796040518163ffffffff1660e01b815260040160206040518083038186803b1580156200140457600080fd5b505afa15801562001419573d6000803e3d6000fd5b505050506040513d601f19601f820116820180604052508101906200143f91906200325a565b6200144b919062003e91565b62001457919062003ec9565b62001463919062003e91565b6200146f919062003ec9565b9081150290604051600060405180830381858888f193505050501580156200149b573d6000803e3d6000fd5b506200152a338273ffffffffffffffffffffffffffffffffffffffff166391f901576040518163ffffffff1660e01b815260040160206040518083038186803b158015620014e857600080fd5b505afa158015620014fd573d6000803e3d6000fd5b505050506040513d601f19601f8201168201806040525081019062001523919062002f6d565b8562000e8c565b6000600a600085815260200190815260200160002060006101000a81548160ff021916908315150217905550505050565b6200156682620024f9565b620015723383620021a2565b6200157c57600080fd5b60001515600a600084815260200190815260200160002060009054906101000a900460ff16151514620015ae57600080fd5b600033604051620015bf9062002d32565b620015cb919062003a1c565b604051809103906000f080158015620015e8573d6000803e3d6000fd5b509050670de0b6b3a76400008262001601919062003ec9565b600c60008373ffffffffffffffffffffffffffffffffffffffff1673ffffffffffffffffffffffffffffffffffffffff168152602001908152602001600020819055506001600a600085815260200190815260200160002060006101000a81548160ff02191690831515021790555080600b600085815260200190815260200160002060006101000a81548173ffffffffffffffffffffffffffffffffffffffff021916908373ffffffffffffffffffffffffffffffffffffffff160217905550505050565b60075481565b600a6020528060005260406000206000915054906101000a900460ff1681565b6000806002600084815260200190815260200160002060009054906101000a900473ffffffffffffffffffffffffffffffffffffffff169050600073ffffffffffffffffffffffffffffffffffffffff168173ffffffffffffffffffffffffffffffffffffffff16141562001799576040517f08c379a0000000000000000000000000000000000000000000000000000000008152600401620017909062003bbc565b60405180910390fd5b80915050919050565b60008073ffffffffffffffffffffffffffffffffffffffff168273ffffffffffffffffffffffffffffffffffffffff16141562001816576040517f08c379a00000000000000000000000000000000000000000000000000000000081526004016200180d9062003b9a565b60405180910390fd5b600360008373ffffffffffffffffffffffffffffffffffffffff1673ffffffffffffffffffffffffffffffffffffffff168152602001908152602001600020549050919050565b6060600180546200186e9062004034565b80601f01602080910402602001604051908101604052809291908181526020018280546200189c9062004034565b8015620018ed5780601f10620018c157610100808354040283529160200191620018ed565b820191906000526020600020905b815481529060010190602001808311620018cf57829003601f168201915b5050505050905090565b6200190281620024f9565b6009600082815260200190815260200160002060020160009054906101000a900473ffffffffffffffffffffffffffffffffffffffff1673ffffffffffffffffffffffffffffffffffffffff163373ffffffffffffffffffffffffffffffffffffffff16146200197157600080fd5b600a600082815260200190815260200160002060009054906101000a900460ff166200199c57600080fd5b600b600082815260200190815260200160002060009054906101000a900473ffffffffffffffffffffffffffffffffffffffff1673ffffffffffffffffffffffffffffffffffffffff1663d22cf3a4336040518263ffffffff1660e01b815260040162001a0a9190620039ff565b600060405180830381600087803b15801562001a2557600080fd5b505af115801562001a3a573d6000803e3d6000fd5b505050506000600a600083815260200190815260200160002060006101000a81548160ff02191690831515021790555050565b600062001a7a8262002053565b62001a8457600080fd5b62001a8f8262002511565b6009600083815260200190815260200160002060008082016000905560018201600062001abd919062002d40565b6002820160006101000a81549073ffffffffffffffffffffffffffffffffffffffff021916905560038201600062001af6919062002d40565b505060019050919050565b62001b0b620020bf565b73ffffffffffffffffffffffffffffffffffffffff168273ffffffffffffffffffffffffffffffffffffffff16141562001b7c576040517f08c379a000000000000000000000000000000000000000000000000000000000815260040162001b739062003b34565b60405180910390fd5b806005600062001b8b620020bf565b73ffffffffffffffffffffffffffffffffffffffff1673ffffffffffffffffffffffffffffffffffffffff16815260200190815260200160002060008473ffffffffffffffffffffffffffffffffffffffff1673ffffffffffffffffffffffffffffffffffffffff16815260200190815260200160002060006101000a81548160ff0219169083151502179055508173ffffffffffffffffffffffffffffffffffffffff1662001c3a620020bf565b73ffffffffffffffffffffffffffffffffffffffff167f17307eab39ab6107e8899845ad3d59bd9653f200f220920489ca2b5937696c318360405162001c81919062003a8d565b60405180910390a35050565b62001ca262001c9b620020bf565b83620021a2565b62001ce4576040517f08c379a000000000000000000000000000000000000000000000000000000000815260040162001cdb9062003c88565b60405180910390fd5b62001cf2848484846200262a565b50505050565b60065481565b606062001d0b8262002053565b62001d4d576040517f08c379a000000000000000000000000000000000000000000000000000000000815260040162001d449062003c44565b60405180910390fd5b600062001d596200268d565b9050600081511162001d7b576040518060200160405280600081525062001daa565b8062001d8784620026a4565b60405160200162001d9a929190620039d7565b6040516020818303038152906040525b915050919050565b600960205280600052604060002060009150905080600001549080600101805462001ddd9062004034565b80601f016020809104026020016040519081016040528092919081815260200182805462001e0b9062004034565b801562001e5c5780601f1062001e305761010080835404028352916020019162001e5c565b820191906000526020600020905b81548152906001019060200180831162001e3e57829003601f168201915b5050505050908060020160009054906101000a900473ffffffffffffffffffffffffffffffffffffffff169080600301805462001e999062004034565b80601f016020809104026020016040519081016040528092919081815260200182805462001ec79062004034565b801562001f185780601f1062001eec5761010080835404028352916020019162001f18565b820191906000526020600020905b81548152906001019060200180831162001efa57829003601f168201915b5050505050905084565b600b6020528060005260406000206000915054906101000a900473ffffffffffffffffffffffffffffffffffffffff1681565b6000600560008473ffffffffffffffffffffffffffffffffffffffff1673ffffffffffffffffffffffffffffffffffffffff16815260200190815260200160002060008373ffffffffffffffffffffffffffffffffffffffff1673ffffffffffffffffffffffffffffffffffffffff16815260200190815260200160002060009054906101000a900460ff16905092915050565b60007f01ffc9a7000000000000000000000000000000000000000000000000000000007bffffffffffffffffffffffffffffffffffffffffffffffffffffffff1916827bffffffffffffffffffffffffffffffffffffffffffffffffffffffff1916149050919050565b60008073ffffffffffffffffffffffffffffffffffffffff166002600084815260200190815260200160002060009054906101000a900473ffffffffffffffffffffffffffffffffffffffff1673ffffffffffffffffffffffffffffffffffffffff1614159050919050565b600033905090565b816004600083815260200190815260200160002060006101000a81548173ffffffffffffffffffffffffffffffffffffffff021916908373ffffffffffffffffffffffffffffffffffffffff160217905550808273ffffffffffffffffffffffffffffffffffffffff166200213c83620016ed565b73ffffffffffffffffffffffffffffffffffffffff167f8c5be1e5ebec7d5bd14f71427d1e84f3dd0314c0f7b2291e5b200ac8c7c3b92560405160405180910390a45050565b6200219e82826040518060200160405280600081525062002866565b5050565b6000620021af8262002053565b620021f1576040517f08c379a0000000000000000000000000000000000000000000000000000000008152600401620021e89062003b56565b60405180910390fd5b6000620021fe83620016ed565b90508073ffffffffffffffffffffffffffffffffffffffff168473ffffffffffffffffffffffffffffffffffffffff1614806200227057508373ffffffffffffffffffffffffffffffffffffffff16620022588462000966565b73ffffffffffffffffffffffffffffffffffffffff16145b8062002284575062002283818562001f55565b5b91505092915050565b8273ffffffffffffffffffffffffffffffffffffffff16620022af82620016ed565b73ffffffffffffffffffffffffffffffffffffffff161462002308576040517f08c379a0000000000000000000000000000000000000000000000000000000008152600401620022ff9062003c22565b60405180910390fd5b600073ffffffffffffffffffffffffffffffffffffffff168273ffffffffffffffffffffffffffffffffffffffff1614156200237b576040517f08c379a0000000000000000000000000000000000000000000000000000000008152600401620023729062003b12565b60405180910390fd5b62002388838383620028c8565b62002395600082620020c7565b6001600360008573ffffffffffffffffffffffffffffffffffffffff1673ffffffffffffffffffffffffffffffffffffffff1681526020019081526020016000206000828254620023e7919062003f2a565b925050819055506001600360008473ffffffffffffffffffffffffffffffffffffffff1673ffffffffffffffffffffffffffffffffffffffff168152602001908152602001600020600082825462002440919062003e34565b92505081905550816002600083815260200190815260200160002060006101000a81548173ffffffffffffffffffffffffffffffffffffffff021916908373ffffffffffffffffffffffffffffffffffffffff160217905550808273ffffffffffffffffffffffffffffffffffffffff168473ffffffffffffffffffffffffffffffffffffffff167fddf252ad1be2c89b69c2b068fc378daa952ba7f163c4a11628f55a4df523b3ef60405160405180910390a4505050565b620025048162002053565b6200250e57600080fd5b50565b60006200251e82620016ed565b90506200252e81600084620028c8565b6200253b600083620020c7565b6001600360008373ffffffffffffffffffffffffffffffffffffffff1673ffffffffffffffffffffffffffffffffffffffff16815260200190815260200160002060008282546200258d919062003f2a565b925050819055506002600083815260200190815260200160002060006101000a81549073ffffffffffffffffffffffffffffffffffffffff021916905581600073ffffffffffffffffffffffffffffffffffffffff168273ffffffffffffffffffffffffffffffffffffffff167fddf252ad1be2c89b69c2b068fc378daa952ba7f163c4a11628f55a4df523b3ef60405160405180910390a45050565b620026378484846200228d565b6200264584848484620028cd565b62002687576040517f08c379a00000000000000000000000000000000000000000000000000000000081526004016200267e9062003ace565b60405180910390fd5b50505050565b606060405180602001604052806000815250905090565b60606000821415620026ee576040518060400160405280600181526020017f3000000000000000000000000000000000000000000000000000000000000000815250905062002861565b600082905060005b60008214620027265780806200270c906200406a565b915050600a826200271e919062003e91565b9150620026f6565b60008167ffffffffffffffff81111562002769577f4e487b7100000000000000000000000000000000000000000000000000000000600052604160045260246000fd5b6040519080825280601f01601f1916602001820160405280156200279c5781602001600182028036833780820191505090505b5090505b600085146200285a57600182620027b8919062003f2a565b9150600a85620027c99190620040b8565b6030620027d7919062003e34565b60f81b81838151811062002814577f4e487b7100000000000000000000000000000000000000000000000000000000600052603260045260246000fd5b60200101907effffffffffffffffffffffffffffffffffffffffffffffffffffffffffffff1916908160001a905350600a8562002852919062003e91565b9450620027a0565b8093505050505b919050565b62002872838362002a76565b620028816000848484620028cd565b620028c3576040517f08c379a0000000000000000000000000000000000000000000000000000000008152600401620028ba9062003ace565b60405180910390fd5b505050565b505050565b6000620028f08473ffffffffffffffffffffffffffffffffffffffff1662002c50565b1562002a69578373ffffffffffffffffffffffffffffffffffffffff1663150b7a026200291c620020bf565b8786866040518563ffffffff1660e01b815260040162002940949392919062003a39565b602060405180830381600087803b1580156200295b57600080fd5b505af19250505080156200298f57506040513d601f19601f820116820180604052508101906200298c919062003163565b60015b62002a18573d8060008114620029c2576040519150601f19603f3d011682016040523d82523d6000602084013e620029c7565b606091505b5060008151141562002a10576040517f08c379a000000000000000000000000000000000000000000000000000000000815260040162002a079062003ace565b60405180910390fd5b805181602001fd5b63150b7a0260e01b7bffffffffffffffffffffffffffffffffffffffffffffffffffffffff1916817bffffffffffffffffffffffffffffffffffffffffffffffffffffffff19161491505062002a6e565b600190505b949350505050565b600073ffffffffffffffffffffffffffffffffffffffff168273ffffffffffffffffffffffffffffffffffffffff16141562002ae9576040517f08c379a000000000000000000000000000000000000000000000000000000000815260040162002ae09062003bde565b60405180910390fd5b62002af48162002053565b1562002b37576040517f08c379a000000000000000000000000000000000000000000000000000000000815260040162002b2e9062003af0565b60405180910390fd5b62002b4560008383620028c8565b6001600360008473ffffffffffffffffffffffffffffffffffffffff1673ffffffffffffffffffffffffffffffffffffffff168152602001908152602001600020600082825462002b97919062003e34565b92505081905550816002600083815260200190815260200160002060006101000a81548173ffffffffffffffffffffffffffffffffffffffff021916908373ffffffffffffffffffffffffffffffffffffffff160217905550808273ffffffffffffffffffffffffffffffffffffffff16600073ffffffffffffffffffffffffffffffffffffffff167fddf252ad1be2c89b69c2b068fc378daa952ba7f163c4a11628f55a4df523b3ef60405160405180910390a45050565b600080823b905060008111915050919050565b60405180608001604052806000815260200160608152602001600073ffffffffffffffffffffffffffffffffffffffff168152602001606081525090565b82805462002caf9062004034565b90600052602060002090601f01602090048101928262002cd3576000855562002d1f565b82601f1062002cee57805160ff191683800117855562002d1f565b8280016001018555821562002d1f579182015b8281111562002d1e57825182559160200191906001019062002d01565b5b50905062002d2e919062002d86565b5090565b610f13806200425183390190565b50805462002d4e9062004034565b6000825580601f1062002d62575062002d83565b601f01602090049060005260206000209081019062002d82919062002d86565b5b50565b5b8082111562002da157600081600090555060010162002d87565b5090565b600062002dbc62002db68462003d7a565b62003d46565b90508281526020810184848401111562002dd557600080fd5b62002de284828562003fef565b509392505050565b600062002e0162002dfb8462003dad565b62003d46565b90508281526020810184848401111562002e1a57600080fd5b62002e2784828562003fef565b509392505050565b60008135905062002e4081620041bd565b92915050565b60008151905062002e5781620041d7565b92915050565b60008135905062002e6e81620041f1565b92915050565b60008135905062002e85816200420b565b92915050565b60008151905062002e9c816200420b565b92915050565b600082601f83011262002eb457600080fd5b813562002ec684826020860162002da5565b91505092915050565b60008151905062002ee08162004225565b92915050565b600082601f83011262002ef857600080fd5b813562002f0a84826020860162002dea565b91505092915050565b60008135905062002f248162004236565b92915050565b60008151905062002f3b8162004236565b92915050565b60006020828403121562002f5457600080fd5b600062002f648482850162002e2f565b91505092915050565b60006020828403121562002f8057600080fd5b600062002f908482850162002e46565b91505092915050565b6000806040838503121562002fad57600080fd5b600062002fbd8582860162002e2f565b925050602062002fd08582860162002e2f565b9150509250929050565b60008060006060848603121562002ff057600080fd5b6000620030008682870162002e2f565b9350506020620030138682870162002e2f565b9250506040620030268682870162002f13565b9150509250925092565b600080600080608085870312156200304757600080fd5b6000620030578782880162002e2f565b94505060206200306a8782880162002e2f565b93505060406200307d8782880162002f13565b925050606085013567ffffffffffffffff8111156200309b57600080fd5b620030a98782880162002ea2565b91505092959194509250565b60008060408385031215620030c957600080fd5b6000620030d98582860162002e2f565b9250506020620030ec8582860162002e5d565b9150509250929050565b600080604083850312156200310a57600080fd5b60006200311a8582860162002e2f565b92505060206200312d8582860162002f13565b9150509250929050565b6000602082840312156200314a57600080fd5b60006200315a8482850162002e74565b91505092915050565b6000602082840312156200317657600080fd5b6000620031868482850162002e8b565b91505092915050565b600060208284031215620031a257600080fd5b6000620031b28482850162002ecf565b91505092915050565b60008060408385031215620031cf57600080fd5b600083013567ffffffffffffffff811115620031ea57600080fd5b620031f88582860162002ee6565b925050602083013567ffffffffffffffff8111156200321657600080fd5b620032248582860162002ee6565b9150509250929050565b6000602082840312156200324157600080fd5b6000620032518482850162002f13565b91505092915050565b6000602082840312156200326d57600080fd5b60006200327d8482850162002f2a565b91505092915050565b600080604083850312156200329a57600080fd5b6000620032aa8582860162002f13565b9250506020620032bd8582860162002f13565b9150509250929050565b620032d28162003f79565b82525050565b620032e38162003f65565b82525050565b620032f48162003f65565b82525050565b620033058162003f8d565b82525050565b6000620033188262003de0565b62003324818562003df6565b93506200333681856020860162003ffe565b6200334181620041ac565b840191505092915050565b6000620033598262003deb565b62003365818562003e07565b93506200337781856020860162003ffe565b6200338281620041ac565b840191505092915050565b60006200339a8262003deb565b620033a6818562003e18565b9350620033b881856020860162003ffe565b620033c381620041ac565b840191505092915050565b6000620033db8262003deb565b620033e7818562003e29565b9350620033f981856020860162003ffe565b80840191505092915050565b60006200341460328362003e18565b91507f4552433732313a207472616e7366657220746f206e6f6e20455243373231526560008301527f63656976657220696d706c656d656e74657200000000000000000000000000006020830152604082019050919050565b60006200347c601c8362003e18565b91507f4552433732313a20746f6b656e20616c7265616479206d696e746564000000006000830152602082019050919050565b6000620034be60248362003e18565b91507f4552433732313a207472616e7366657220746f20746865207a65726f2061646460008301527f72657373000000000000000000000000000000000000000000000000000000006020830152604082019050919050565b60006200352660198362003e18565b91507f4552433732313a20617070726f766520746f2063616c6c6572000000000000006000830152602082019050919050565b600062003568602c8362003e18565b91507f4552433732313a206f70657261746f7220717565727920666f72206e6f6e657860008301527f697374656e7420746f6b656e00000000000000000000000000000000000000006020830152604082019050919050565b6000620035d060388362003e18565b91507f4552433732313a20617070726f76652063616c6c6572206973206e6f74206f7760008301527f6e6572206e6f7220617070726f76656420666f7220616c6c00000000000000006020830152604082019050919050565b600062003638602a8362003e18565b91507f4552433732313a2062616c616e636520717565727920666f7220746865207a6560008301527f726f2061646472657373000000000000000000000000000000000000000000006020830152604082019050919050565b6000620036a060298362003e18565b91507f4552433732313a206f776e657220717565727920666f72206e6f6e657869737460008301527f656e7420746f6b656e00000000000000000000000000000000000000000000006020830152604082019050919050565b60006200370860208362003e18565b91507f4552433732313a206d696e7420746f20746865207a65726f20616464726573736000830152602082019050919050565b60006200374a602c8362003e18565b91507f4552433732313a20617070726f76656420717565727920666f72206e6f6e657860008301527f697374656e7420746f6b656e00000000000000000000000000000000000000006020830152604082019050919050565b6000620037b260298362003e18565b91507f4552433732313a207472616e73666572206f6620746f6b656e2074686174206960008301527f73206e6f74206f776e00000000000000000000000000000000000000000000006020830152604082019050919050565b60006200381a602f8362003e18565b91507f4552433732314d657461646174613a2055524920717565727920666f72206e6f60008301527f6e6578697374656e7420746f6b656e00000000000000000000000000000000006020830152604082019050919050565b60006200388260218362003e18565b91507f4552433732313a20617070726f76616c20746f2063757272656e74206f776e6560008301527f72000000000000000000000000000000000000000000000000000000000000006020830152604082019050919050565b6000620038ea60318362003e18565b91507f4552433732313a207472616e736665722063616c6c6572206973206e6f74206f60008301527f776e6572206e6f7220617070726f7665640000000000000000000000000000006020830152604082019050919050565b60006080830160008301516200395d6000860182620039b5565b50602083015184820360208601526200397782826200334c565b91505060408301516200398e6040860182620032d8565b5060608301518482036060860152620039a882826200334c565b9150508091505092915050565b620039c08162003fe5565b82525050565b620039d18162003fe5565b82525050565b6000620039e58285620033ce565b9150620039f38284620033ce565b91508190509392505050565b600060208201905062003a166000830184620032e9565b92915050565b600060208201905062003a336000830184620032c7565b92915050565b600060808201905062003a506000830187620032e9565b62003a5f6020830186620032e9565b62003a6e6040830185620039c6565b818103606083015262003a8281846200330b565b905095945050505050565b600060208201905062003aa46000830184620032fa565b92915050565b6000602082019050818103600083015262003ac681846200338d565b905092915050565b6000602082019050818103600083015262003ae98162003405565b9050919050565b6000602082019050818103600083015262003b0b816200346d565b9050919050565b6000602082019050818103600083015262003b2d81620034af565b9050919050565b6000602082019050818103600083015262003b4f8162003517565b9050919050565b6000602082019050818103600083015262003b718162003559565b9050919050565b6000602082019050818103600083015262003b9381620035c1565b9050919050565b6000602082019050818103600083015262003bb58162003629565b9050919050565b6000602082019050818103600083015262003bd78162003691565b9050919050565b6000602082019050818103600083015262003bf981620036f9565b9050919050565b6000602082019050818103600083015262003c1b816200373b565b9050919050565b6000602082019050818103600083015262003c3d81620037a3565b9050919050565b6000602082019050818103600083015262003c5f816200380b565b9050919050565b6000602082019050818103600083015262003c818162003873565b9050919050565b6000602082019050818103600083015262003ca381620038db565b9050919050565b6000602082019050818103600083015262003cc6818462003943565b905092915050565b600060208201905062003ce56000830184620039c6565b92915050565b600060808201905062003d026000830187620039c6565b818103602083015262003d1681866200338d565b905062003d276040830185620032e9565b818103606083015262003d3b81846200338d565b905095945050505050565b6000604051905081810181811067ffffffffffffffff8211171562003d705762003d6f6200417d565b5b8060405250919050565b600067ffffffffffffffff82111562003d985762003d976200417d565b5b601f19601f8301169050602081019050919050565b600067ffffffffffffffff82111562003dcb5762003dca6200417d565b5b601f19601f8301169050602081019050919050565b600081519050919050565b600081519050919050565b600082825260208201905092915050565b600082825260208201905092915050565b600082825260208201905092915050565b600081905092915050565b600062003e418262003fe5565b915062003e4e8362003fe5565b9250827fffffffffffffffffffffffffffffffffffffffffffffffffffffffffffffffff0382111562003e865762003e85620040f0565b5b828201905092915050565b600062003e9e8262003fe5565b915062003eab8362003fe5565b92508262003ebe5762003ebd6200411f565b5b828204905092915050565b600062003ed68262003fe5565b915062003ee38362003fe5565b9250817fffffffffffffffffffffffffffffffffffffffffffffffffffffffffffffffff048311821515161562003f1f5762003f1e620040f0565b5b828202905092915050565b600062003f378262003fe5565b915062003f448362003fe5565b92508282101562003f5a5762003f59620040f0565b5b828203905092915050565b600062003f728262003fc5565b9050919050565b600062003f868262003fc5565b9050919050565b60008115159050919050565b60007fffffffff0000000000000000000000000000000000000000000000000000000082169050919050565b600073ffffffffffffffffffffffffffffffffffffffff82169050919050565b6000819050919050565b82818337600083830152505050565b60005b838110156200401e57808201518184015260208101905062004001565b838111156200402e576000848401525b50505050565b600060028204905060018216806200404d57607f821691505b602082108114156200406457620040636200414e565b5b50919050565b6000620040778262003fe5565b91507fffffffffffffffffffffffffffffffffffffffffffffffffffffffffffffffff821415620040ad57620040ac620040f0565b5b600182019050919050565b6000620040c58262003fe5565b9150620040d28362003fe5565b925082620040e557620040e46200411f565b5b828206905092915050565b7f4e487b7100000000000000000000000000000000000000000000000000000000600052601160045260246000fd5b7f4e487b7100000000000000000000000000000000000000000000000000000000600052601260045260246000fd5b7f4e487b7100000000000000000000000000000000000000000000000000000000600052602260045260246000fd5b7f4e487b7100000000000000000000000000000000000000000000000000000000600052604160045260246000fd5b6000601f19601f8301169050919050565b620041c88162003f65565b8114620041d457600080fd5b50565b620041e28162003f79565b8114620041ee57600080fd5b50565b620041fc8162003f8d565b81146200420857600080fd5b50565b620042168162003f99565b81146200422257600080fd5b50565b600481106200423357600080fd5b50565b620042418162003fe5565b81146200424d57600080fd5b5056fe608060405234801561001057600080fd5b50604051610f13380380610f13833981810160405281019061003291906100de565b806000806101000a81548173ffffffffffffffffffffffffffffffffffffffff021916908373ffffffffffffffffffffffffffffffffffffffff1602179055506001600260006101000a81548160ff021916908360038111156100be577f4e487b7100000000000000000000000000000000000000000000000000000000600052602160045260246000fd5b021790555050610150565b6000815190506100d881610139565b92915050565b6000602082840312156100f057600080fd5b60006100fe848285016100c9565b91505092915050565b600061011282610119565b9050919050565b600073ffffffffffffffffffffffffffffffffffffffff82169050919050565b61014281610107565b811461014d57600080fd5b50565b610db48061015f6000396000f3fe6080604052600436106100865760003560e01c8063cff29dfd11610059578063cff29dfd14610149578063d22cf3a414610186578063d57bde79146101af578063e4940157146101da578063f77282ab146101f657610086565b806362ea82db1461008b5780637fb45099146100c85780638da5cb5b146100f357806391f901571461011e575b600080fd5b34801561009757600080fd5b506100b260048036038101906100ad9190610afc565b61020d565b6040516100bf9190610bb1565b60405180910390f35b3480156100d457600080fd5b506100dd610225565b6040516100ea9190610b96565b60405180910390f35b3480156100ff57600080fd5b50610108610238565b6040516101159190610b7b565b60405180910390f35b34801561012a57600080fd5b5061013361025c565b6040516101409190610b7b565b60405180910390f35b34801561015557600080fd5b50610170600480360381019061016b9190610b25565b610282565b60405161017d9190610b7b565b60405180910390f35b34801561019257600080fd5b506101ad60048036038101906101a89190610afc565b6102c1565b005b3480156101bb57600080fd5b506101c46104dd565b6040516101d19190610bb1565b60405180910390f35b6101f460048036038101906101ef9190610afc565b6104e3565b005b34801561020257600080fd5b5061020b610761565b005b60056020528060005260406000206000915090505481565b600260009054906101000a900460ff1681565b60008054906101000a900473ffffffffffffffffffffffffffffffffffffffff1681565b600460009054906101000a900473ffffffffffffffffffffffffffffffffffffffff1681565b6001818154811061029257600080fd5b906000526020600020016000915054906101000a900473ffffffffffffffffffffffffffffffffffffffff1681565b60008054906101000a900473ffffffffffffffffffffffffffffffffffffffff1673ffffffffffffffffffffffffffffffffffffffff168173ffffffffffffffffffffffffffffffffffffffff161461031957600080fd5b6003600260006101000a81548160ff02191690836003811115610365577f4e487b7100000000000000000000000000000000000000000000000000000000600052602160045260246000fd5b021790555060005b6001805490508110156104d957600181815481106103b4577f4e487b7100000000000000000000000000000000000000000000000000000000600052603260045260246000fd5b9060005260206000200160009054906101000a900473ffffffffffffffffffffffffffffffffffffffff1673ffffffffffffffffffffffffffffffffffffffff166108fc6005600060018581548110610436577f4e487b7100000000000000000000000000000000000000000000000000000000600052603260045260246000fd5b9060005260206000200160009054906101000a900473ffffffffffffffffffffffffffffffffffffffff1673ffffffffffffffffffffffffffffffffffffffff1673ffffffffffffffffffffffffffffffffffffffff168152602001908152602001600020549081150290604051600060405180830381858888f193505050501580156104c7573d6000803e3d6000fd5b50806104d290610c95565b905061036d565b5050565b60035481565b60008054906101000a900473ffffffffffffffffffffffffffffffffffffffff1673ffffffffffffffffffffffffffffffffffffffff168173ffffffffffffffffffffffffffffffffffffffff16141561053c57600080fd5b60016003811115610576577f4e487b7100000000000000000000000000000000000000000000000000000000600052602160045260246000fd5b600260009054906101000a900460ff1660038111156105be577f4e487b7100000000000000000000000000000000000000000000000000000000600052602160045260246000fd5b146105c857600080fd5b6000600560008373ffffffffffffffffffffffffffffffffffffffff1673ffffffffffffffffffffffffffffffffffffffff168152602001908152602001600020541415610674576001819080600181540180825580915050600190039060005260206000200160009091909190916101000a81548173ffffffffffffffffffffffffffffffffffffffff021916908373ffffffffffffffffffffffffffffffffffffffff1602179055505b600034600560008473ffffffffffffffffffffffffffffffffffffffff1673ffffffffffffffffffffffffffffffffffffffff168152602001908152602001600020546106c19190610bcc565b905060035481116106d157600080fd5b80600560008473ffffffffffffffffffffffffffffffffffffffff1673ffffffffffffffffffffffffffffffffffffffff168152602001908152602001600020819055508060038190555081600460006101000a81548173ffffffffffffffffffffffffffffffffffffffff021916908373ffffffffffffffffffffffffffffffffffffffff1602179055505050565b60038081111561079a577f4e487b7100000000000000000000000000000000000000000000000000000000600052602160045260246000fd5b600260009054906101000a900460ff1660038111156107e2577f4e487b7100000000000000000000000000000000000000000000000000000000600052602160045260246000fd5b14156107ed57600080fd5b60008054906101000a900473ffffffffffffffffffffffffffffffffffffffff1673ffffffffffffffffffffffffffffffffffffffff166108fc6003549081150290604051600060405180830381858888f19350505050158015610855573d6000803e3d6000fd5b5060005b600180549050811015610a7f57600460009054906101000a900473ffffffffffffffffffffffffffffffffffffffff1673ffffffffffffffffffffffffffffffffffffffff16600182815481106108d9577f4e487b7100000000000000000000000000000000000000000000000000000000600052603260045260246000fd5b9060005260206000200160009054906101000a900473ffffffffffffffffffffffffffffffffffffffff1673ffffffffffffffffffffffffffffffffffffffff1614610a6e5760018181548110610959577f4e487b7100000000000000000000000000000000000000000000000000000000600052603260045260246000fd5b9060005260206000200160009054906101000a900473ffffffffffffffffffffffffffffffffffffffff1673ffffffffffffffffffffffffffffffffffffffff166108fc60056000600185815481106109db577f4e487b7100000000000000000000000000000000000000000000000000000000600052603260045260246000fd5b9060005260206000200160009054906101000a900473ffffffffffffffffffffffffffffffffffffffff1673ffffffffffffffffffffffffffffffffffffffff1673ffffffffffffffffffffffffffffffffffffffff168152602001908152602001600020549081150290604051600060405180830381858888f19350505050158015610a6c573d6000803e3d6000fd5b505b80610a7890610c95565b9050610859565b5060028060006101000a81548160ff02191690836003811115610acb577f4e487b7100000000000000000000000000000000000000000000000000000000600052602160045260246000fd5b0217905550565b600081359050610ae181610d50565b92915050565b600081359050610af681610d67565b92915050565b600060208284031215610b0e57600080fd5b6000610b1c84828501610ad2565b91505092915050565b600060208284031215610b3757600080fd5b6000610b4584828501610ae7565b91505092915050565b610b5781610c34565b82525050565b610b6681610c83565b82525050565b610b7581610c79565b82525050565b6000602082019050610b906000830184610b4e565b92915050565b6000602082019050610bab6000830184610b5d565b92915050565b6000602082019050610bc66000830184610b6c565b92915050565b6000610bd782610c79565b9150610be283610c79565b9250827fffffffffffffffffffffffffffffffffffffffffffffffffffffffffffffffff03821115610c1757610c16610cde565b5b828201905092915050565b6000610c2d82610c59565b9050919050565b6000610c3f82610c59565b9050919050565b6000819050610c5482610d3c565b919050565b600073ffffffffffffffffffffffffffffffffffffffff82169050919050565b6000819050919050565b6000610c8e82610c46565b9050919050565b6000610ca082610c79565b91507fffffffffffffffffffffffffffffffffffffffffffffffffffffffffffffffff821415610cd357610cd2610cde565b5b600182019050919050565b7f4e487b7100000000000000000000000000000000000000000000000000000000600052601160045260246000fd5b7f4e487b7100000000000000000000000000000000000000000000000000000000600052602160045260246000fd5b60048110610d4d57610d4c610d0d565b5b50565b610d5981610c22565b8114610d6457600080fd5b50565b610d7081610c79565b8114610d7b57600080fd5b5056fea264697066735822122061703e9eb9daefc24c004e903d86a7c30e0a8cc8404c9137ece482364107cd2e64736f6c63430008000033a26469706673582212202a9f0683ad80c59912e43bd2c486450bbaa54fa3ee98523739305cbcca88fa1b64736f6c63430008000033a2646970667358221220eae105715b9a9433791bebd68f9e6464f6c2fc077d69cca06da41e41f153fcad64736f6c63430008000033",
  "immutableReferences": {},
  "source": "pragma solidity ^0.8.0;\r\nimport './ToknBidding.sol';\r\n\r\ncontract ToknFactory{\r\n  address payable deployer;\r\n  uint256 songID;\r\n  // address artist;\r\n//store songs\r\n mapping(uint256=> Song) public songList;\r\n mapping(address=> address) public artistTokn;\r\n\r\n//model song object\r\nstruct Song{\r\n uint256 _songID;\r\n string _title;\r\n address _artist;\r\n string _albumCoverHash;\r\n string _audioHash;\r\n }\r\n\r\n //Song uploaded EventEmitter\r\n event SongUploaded(\r\n   uint256 _songID,\r\n   string _title,\r\n   address _artist,\r\n   string _albumCoverHash,\r\n   string _audioHash\r\n );\r\n\r\nconstructor(address payable _deployer) public{\r\n  deployer = _deployer;\r\n  songID = 0;\r\n}\r\n\r\n\r\n\r\n//upload or store song on the blockchain\r\nfunction uploadSong(string memory _albumCoverHash, string memory _audioHash, string memory _title) public {\r\n  //ensure imgHash is not empty\r\n  require(bytes(_albumCoverHash).length > 0);\r\n  //ensure auidoHash is not empty\r\n  require(bytes(_audioHash).length > 0);\r\n  //ensure function caller(an artist) has an address\r\n  require(msg.sender != address(0));\r\n  //increment songID\r\n  songID++;\r\n  //create and store song object to mapping\r\n  songList[songID] = Song(songID, _title, msg.sender, _albumCoverHash, _audioHash);  \r\n  //emit event after song has been uploaded successfully\r\n  emit SongUploaded(songID++, _title, msg.sender, _albumCoverHash, _audioHash);\r\n\r\n}\r\n\r\n// Creating an NFT of the song uploaded\r\n\r\nfunction createTokn(string memory name, string memory symbol, uint256 _songID) public{\r\n  require(msg.sender == songList[_songID]._artist);\r\n  address newTokn = address(new ToknBidding(name, symbol));\r\n  // ToknCollectible.Collectible memory newCollectible = newTokn.create(songList[_songID]._title, tokenURI, commission);\r\n  artistTokn[msg.sender] = newTokn;\r\n}\r\n\r\n}",
  "sourcePath": "C:/Users/lenovo/OneDrive/Desktop/projects/Tokn/contracts/ToknFactory.sol",
  "compiler": {
    "name": "solc",
    "version": "0.8.0+commit.c7dfd78e.Emscripten.clang"
  },
  "schemaVersion": "3.4.1",
  "updatedAt": "2021-07-28T08:02:47.359Z",
  "devdoc": {
    "kind": "dev",
    "methods": {},
    "version": 1
  },
  "userdoc": {
    "kind": "user",
    "methods": {},
    "version": 1
  }
}