{
  "contractName": "ToknCollectible",
  "abi": [
    {
      "inputs": [
        {
          "internalType": "string",
          "name": "name",
          "type": "string"
        },
        {
          "internalType": "string",
          "name": "symbol",
          "type": "string"
        }
      ],
      "stateMutability": "nonpayable",
      "type": "constructor"
    },
    {
      "anonymous": false,
      "inputs": [
        {
          "indexed": true,
          "internalType": "address",
          "name": "owner",
          "type": "address"
        },
        {
          "indexed": true,
          "internalType": "address",
          "name": "approved",
          "type": "address"
        },
        {
          "indexed": true,
          "internalType": "uint256",
          "name": "tokenId",
          "type": "uint256"
        }
      ],
      "name": "Approval",
      "type": "event"
    },
    {
      "anonymous": false,
      "inputs": [
        {
          "indexed": true,
          "internalType": "address",
          "name": "owner",
          "type": "address"
        },
        {
          "indexed": true,
          "internalType": "address",
          "name": "operator",
          "type": "address"
        },
        {
          "indexed": false,
          "internalType": "bool",
          "name": "approved",
          "type": "bool"
        }
      ],
      "name": "ApprovalForAll",
      "type": "event"
    },
    {
      "anonymous": false,
      "inputs": [
        {
          "indexed": false,
          "internalType": "uint256",
          "name": "_collectibleID",
          "type": "uint256"
        },
        {
          "indexed": false,
          "internalType": "string",
          "name": "_title",
          "type": "string"
        },
        {
          "indexed": false,
          "internalType": "address",
          "name": "_owner",
          "type": "address"
        },
        {
          "indexed": false,
          "internalType": "string",
          "name": "_collectibleURI",
          "type": "string"
        }
      ],
      "name": "CollectibleCreated",
      "type": "event"
    },
    {
      "anonymous": false,
      "inputs": [
        {
          "indexed": true,
          "internalType": "address",
          "name": "from",
          "type": "address"
        },
        {
          "indexed": true,
          "internalType": "address",
          "name": "to",
          "type": "address"
        },
        {
          "indexed": true,
          "internalType": "uint256",
          "name": "tokenId",
          "type": "uint256"
        }
      ],
      "name": "Transfer",
      "type": "event"
    },
    {
      "inputs": [],
      "name": "_collectibleCount",
      "outputs": [
        {
          "internalType": "uint256",
          "name": "",
          "type": "uint256"
        }
      ],
      "stateMutability": "view",
      "type": "function"
    },
    {
      "inputs": [],
      "name": "_collectibleID",
      "outputs": [
        {
          "internalType": "uint256",
          "name": "",
          "type": "uint256"
        }
      ],
      "stateMutability": "view",
      "type": "function"
    },
    {
      "inputs": [
        {
          "internalType": "address",
          "name": "to",
          "type": "address"
        },
        {
          "internalType": "uint256",
          "name": "tokenId",
          "type": "uint256"
        }
      ],
      "name": "approve",
      "outputs": [],
      "stateMutability": "nonpayable",
      "type": "function"
    },
    {
      "inputs": [
        {
          "internalType": "address",
          "name": "owner",
          "type": "address"
        }
      ],
      "name": "balanceOf",
      "outputs": [
        {
          "internalType": "uint256",
          "name": "",
          "type": "uint256"
        }
      ],
      "stateMutability": "view",
      "type": "function"
    },
    {
      "inputs": [
        {
          "internalType": "address",
          "name": "",
          "type": "address"
        },
        {
          "internalType": "uint256",
          "name": "",
          "type": "uint256"
        }
      ],
      "name": "commissions",
      "outputs": [
        {
          "internalType": "uint256",
          "name": "",
          "type": "uint256"
        }
      ],
      "stateMutability": "view",
      "type": "function"
    },
    {
      "inputs": [],
      "name": "creator",
      "outputs": [
        {
          "internalType": "address payable",
          "name": "",
          "type": "address"
        }
      ],
      "stateMutability": "view",
      "type": "function"
    },
    {
      "inputs": [
        {
          "internalType": "uint256",
          "name": "",
          "type": "uint256"
        }
      ],
      "name": "deployedAuctions",
      "outputs": [
        {
          "internalType": "address",
          "name": "",
          "type": "address"
        }
      ],
      "stateMutability": "view",
      "type": "function"
    },
    {
      "inputs": [
        {
          "internalType": "uint256",
          "name": "tokenId",
          "type": "uint256"
        }
      ],
      "name": "getApproved",
      "outputs": [
        {
          "internalType": "address",
          "name": "",
          "type": "address"
        }
      ],
      "stateMutability": "view",
      "type": "function"
    },
    {
      "inputs": [
        {
          "internalType": "address",
          "name": "owner",
          "type": "address"
        },
        {
          "internalType": "address",
          "name": "operator",
          "type": "address"
        }
      ],
      "name": "isApprovedForAll",
      "outputs": [
        {
          "internalType": "bool",
          "name": "",
          "type": "bool"
        }
      ],
      "stateMutability": "view",
      "type": "function"
    },
    {
      "inputs": [],
      "name": "name",
      "outputs": [
        {
          "internalType": "string",
          "name": "",
          "type": "string"
        }
      ],
      "stateMutability": "view",
      "type": "function"
    },
    {
      "inputs": [
        {
          "internalType": "uint256",
          "name": "tokenId",
          "type": "uint256"
        }
      ],
      "name": "ownerOf",
      "outputs": [
        {
          "internalType": "address",
          "name": "",
          "type": "address"
        }
      ],
      "stateMutability": "view",
      "type": "function"
    },
    {
      "inputs": [
        {
          "internalType": "address",
          "name": "from",
          "type": "address"
        },
        {
          "internalType": "address",
          "name": "to",
          "type": "address"
        },
        {
          "internalType": "uint256",
          "name": "tokenId",
          "type": "uint256"
        }
      ],
      "name": "safeTransferFrom",
      "outputs": [],
      "stateMutability": "nonpayable",
      "type": "function"
    },
    {
      "inputs": [
        {
          "internalType": "address",
          "name": "from",
          "type": "address"
        },
        {
          "internalType": "address",
          "name": "to",
          "type": "address"
        },
        {
          "internalType": "uint256",
          "name": "tokenId",
          "type": "uint256"
        },
        {
          "internalType": "bytes",
          "name": "_data",
          "type": "bytes"
        }
      ],
      "name": "safeTransferFrom",
      "outputs": [],
      "stateMutability": "nonpayable",
      "type": "function"
    },
    {
      "inputs": [
        {
          "internalType": "address",
          "name": "operator",
          "type": "address"
        },
        {
          "internalType": "bool",
          "name": "approved",
          "type": "bool"
        }
      ],
      "name": "setApprovalForAll",
      "outputs": [],
      "stateMutability": "nonpayable",
      "type": "function"
    },
    {
      "inputs": [
        {
          "internalType": "bytes4",
          "name": "interfaceId",
          "type": "bytes4"
        }
      ],
      "name": "supportsInterface",
      "outputs": [
        {
          "internalType": "bool",
          "name": "",
          "type": "bool"
        }
      ],
      "stateMutability": "view",
      "type": "function"
    },
    {
      "inputs": [],
      "name": "symbol",
      "outputs": [
        {
          "internalType": "string",
          "name": "",
          "type": "string"
        }
      ],
      "stateMutability": "view",
      "type": "function"
    },
    {
      "inputs": [
        {
          "internalType": "uint256",
          "name": "tokenId",
          "type": "uint256"
        }
      ],
      "name": "tokenURI",
      "outputs": [
        {
          "internalType": "string",
          "name": "",
          "type": "string"
        }
      ],
      "stateMutability": "view",
      "type": "function"
    },
    {
      "inputs": [
        {
          "internalType": "address",
          "name": "from",
          "type": "address"
        },
        {
          "internalType": "address",
          "name": "to",
          "type": "address"
        },
        {
          "internalType": "uint256",
          "name": "tokenId",
          "type": "uint256"
        }
      ],
      "name": "transferFrom",
      "outputs": [],
      "stateMutability": "nonpayable",
      "type": "function"
    },
    {
      "inputs": [
        {
          "internalType": "string",
          "name": "_title",
          "type": "string"
        },
        {
          "internalType": "string",
          "name": "_tokenURI",
          "type": "string"
        },
        {
          "internalType": "uint256",
          "name": "commission",
          "type": "uint256"
        }
      ],
      "name": "create",
      "outputs": [
        {
          "components": [
            {
              "internalType": "uint256",
              "name": "_collectibleID",
              "type": "uint256"
            },
            {
              "internalType": "string",
              "name": "_title",
              "type": "string"
            },
            {
              "internalType": "address",
              "name": "_owner",
              "type": "address"
            },
            {
              "internalType": "string",
              "name": "_collectibleURI",
              "type": "string"
            }
          ],
          "internalType": "struct ToknCollectible.Collectible",
          "name": "",
          "type": "tuple"
        }
      ],
      "stateMutability": "nonpayable",
      "type": "function"
    },
    {
      "inputs": [
        {
          "internalType": "address",
          "name": "_owner",
          "type": "address"
        },
        {
          "internalType": "uint256",
          "name": "toknID",
          "type": "uint256"
        }
      ],
      "name": "startAuction",
      "outputs": [],
      "stateMutability": "nonpayable",
      "type": "function"
    },
    {
      "inputs": [
        {
          "internalType": "uint256",
          "name": "_toknID",
          "type": "uint256"
        }
      ],
      "name": "endAuction",
      "outputs": [],
      "stateMutability": "nonpayable",
      "type": "function"
    }
  ],
  "bytecode": "0x60806040523480156200001157600080fd5b5060405162004f7038038062004f7083398181016040528101906200003791906200019f565b81818160009080519060200190620000519291906200007d565b5080600190805190602001906200006a9291906200007d565b5050506000600681905550505062000343565b8280546200008b90620002af565b90600052602060002090601f016020900481019282620000af5760008555620000fb565b82601f10620000ca57805160ff1916838001178555620000fb565b82800160010185558215620000fb579182015b82811115620000fa578251825591602001919060010190620000dd565b5b5090506200010a91906200010e565b5090565b5b80821115620001295760008160009055506001016200010f565b5090565b6000620001446200013e8462000246565b62000212565b9050828152602081018484840111156200015d57600080fd5b6200016a84828562000279565b509392505050565b600082601f8301126200018457600080fd5b8151620001968482602086016200012d565b91505092915050565b60008060408385031215620001b357600080fd5b600083015167ffffffffffffffff811115620001ce57600080fd5b620001dc8582860162000172565b925050602083015167ffffffffffffffff811115620001fa57600080fd5b620002088582860162000172565b9150509250929050565b6000604051905081810181811067ffffffffffffffff821117156200023c576200023b62000314565b5b8060405250919050565b600067ffffffffffffffff82111562000264576200026362000314565b5b601f19601f8301169050602081019050919050565b60005b83811015620002995780820151818401526020810190506200027c565b83811115620002a9576000848401525b50505050565b60006002820490506001821680620002c857607f821691505b60208210811415620002df57620002de620002e5565b5b50919050565b7f4e487b7100000000000000000000000000000000000000000000000000000000600052602260045260246000fd5b7f4e487b7100000000000000000000000000000000000000000000000000000000600052604160045260246000fd5b614c1d80620003536000396000f3fe60806040523480156200001157600080fd5b5060043610620001545760003560e01c806354bbdfab11620000c9578063a22cb4651162000087578063a22cb46514620003db578063b88d4fde14620003fb578063b9a2de3a146200041b578063bab22d8d146200043b578063c87b56dd146200045d578063e985e9c514620004935762000154565b806354bbdfab146200030b5780636352211e146200032d578063646ec895146200036357806370a08231146200038357806395d89b4114620003b95762000154565b806314110286116200011757806314110286146200022957806323b872dd146200025f5780633ca6d100146200027f5780633d23953314620002b557806342842e0e14620002eb5762000154565b806301ffc9a7146200015957806302d05d3f146200018f57806306fdde0314620001b1578063081812fc14620001d3578063095ea7b31462000209575b600080fd5b620001776004803603810190620001719190620027e5565b620004c9565b6040516200018691906200317e565b60405180910390f35b62000199620005af565b604051620001a89190620030e0565b60405180910390f35b620001bb620005d5565b604051620001ca91906200319b565b60405180910390f35b620001f16004803603810190620001eb9190620028f1565b6200066f565b604051620002009190620030c3565b60405180910390f35b620002276004803603810190620002219190620027a4565b620006f9565b005b620002476004803603810190620002419190620027a4565b62000822565b604051620002569190620033e1565b60405180910390f35b6200027d600480360381019062000277919062002688565b62000847565b005b6200029d600480360381019062000297919062002869565b620008b0565b604051620002ac9190620033bd565b60405180910390f35b620002d36004803603810190620002cd9190620028f1565b62000ad3565b604051620002e29190620030c3565b60405180910390f35b62000309600480360381019062000303919062002688565b62000b13565b005b6200031562000b35565b604051620003249190620033e1565b60405180910390f35b6200034b6004803603810190620003459190620028f1565b62000b3b565b6040516200035a9190620030c3565b60405180910390f35b6200038160048036038101906200037b9190620027a4565b62000bf0565b005b620003a160048036038101906200039b9190620025ef565b62000ce5565b604051620003b09190620033e1565b60405180910390f35b620003c362000da0565b604051620003d291906200319b565b60405180910390f35b620003f96004803603810190620003f3919062002763565b62000e3a565b005b620004196004803603810190620004139190620026de565b62000fc6565b005b620004396004803603810190620004339190620028f1565b62001031565b005b62000445620016c0565b604051620004549190620033e1565b60405180910390f35b6200047b6004803603810190620004759190620028f1565b620016c6565b6040516200048a91906200319b565b60405180910390f35b620004b16004803603810190620004ab919062002647565b6200177a565b604051620004c091906200317e565b60405180910390f35b60007f80ac58cd000000000000000000000000000000000000000000000000000000007bffffffffffffffffffffffffffffffffffffffffffffffffffffffff1916827bffffffffffffffffffffffffffffffffffffffffffffffffffffffff191614806200059557507f5b5e139f000000000000000000000000000000000000000000000000000000007bffffffffffffffffffffffffffffffffffffffffffffffffffffffff1916827bffffffffffffffffffffffffffffffffffffffffffffffffffffffff1916145b80620005a85750620005a7826200180e565b5b9050919050565b600860009054906101000a900473ffffffffffffffffffffffffffffffffffffffff1681565b606060008054620005e69062003747565b80601f0160208091040260200160405190810160405280929190818152602001828054620006149062003747565b8015620006655780601f10620006395761010080835404028352916020019162000665565b820191906000526020600020905b8154815290600101906020018083116200064757829003601f168201915b5050505050905090565b60006200067c8262001878565b620006be576040517f08c379a0000000000000000000000000000000000000000000000000000000008152600401620006b59062003313565b60405180910390fd5b6004600083815260200190815260200160002060009054906101000a900473ffffffffffffffffffffffffffffffffffffffff169050919050565b6000620007068262000b3b565b90508073ffffffffffffffffffffffffffffffffffffffff168373ffffffffffffffffffffffffffffffffffffffff1614156200077a576040517f08c379a0000000000000000000000000000000000000000000000000000000008152600401620007719062003379565b60405180910390fd5b8073ffffffffffffffffffffffffffffffffffffffff166200079b620018e4565b73ffffffffffffffffffffffffffffffffffffffff161480620007cf5750620007ce81620007c8620018e4565b6200177a565b5b62000811576040517f08c379a000000000000000000000000000000000000000000000000000000000815260040162000808906200328b565b60405180910390fd5b6200081d8383620018ec565b505050565b600a602052816000526040600020602052806000526040600020600091509150505481565b6200085c62000855620018e4565b82620019a7565b6200089e576040517f08c379a000000000000000000000000000000000000000000000000000000000815260040162000895906200339b565b60405180910390fd5b620008ab83838362001a92565b505050565b620008ba62002357565b60066000815480929190620008cf906200377d565b919050555060076000815480929190620008e9906200377d565b91905055506000604051806080016040528060065481526020018681526020013373ffffffffffffffffffffffffffffffffffffffff168152602001858152509050806009600060065481526020019081526020016000206000820151816000015560208201518160010190805190602001906200096992919062002395565b5060408201518160020160006101000a81548173ffffffffffffffffffffffffffffffffffffffff021916908373ffffffffffffffffffffffffffffffffffffffff1602179055506060820151816003019080519060200190620009cf92919062002395565b509050507f4265c0fca0618144a5f95ac58797316e876c6d2cc3c31e68bdf2c07ad8a53dd160065486338760405162000a0c9493929190620033fe565b60405180910390a162000a223360065462001cfe565b82600a60003373ffffffffffffffffffffffffffffffffffffffff1673ffffffffffffffffffffffffffffffffffffffff168152602001908152602001600020600060065481526020019081526020016000208190555033600860006101000a81548173ffffffffffffffffffffffffffffffffffffffff021916908373ffffffffffffffffffffffffffffffffffffffff16021790555062000ac83360065462000bf0565b809150509392505050565b600b818154811062000ae457600080fd5b906000526020600020016000915054906101000a900473ffffffffffffffffffffffffffffffffffffffff1681565b62000b308383836040518060200160405280600081525062000fc6565b505050565b60075481565b6000806002600084815260200190815260200160002060009054906101000a900473ffffffffffffffffffffffffffffffffffffffff169050600073ffffffffffffffffffffffffffffffffffffffff168173ffffffffffffffffffffffffffffffffffffffff16141562000be7576040517f08c379a000000000000000000000000000000000000000000000000000000000815260040162000bde90620032cf565b60405180910390fd5b80915050919050565b62000bfc3382620019a7565b62000c3e576040517f08c379a000000000000000000000000000000000000000000000000000000000815260040162000c3590620031e1565b60405180910390fd5b6000828260405162000c509062002426565b62000c5d929190620030fd565b604051809103906000f08015801562000c7a573d6000803e3d6000fd5b509050600b819080600181540180825580915050600190039060005260206000200160009091909190916101000a81548173ffffffffffffffffffffffffffffffffffffffff021916908373ffffffffffffffffffffffffffffffffffffffff160217905550505050565b60008073ffffffffffffffffffffffffffffffffffffffff168273ffffffffffffffffffffffffffffffffffffffff16141562000d59576040517f08c379a000000000000000000000000000000000000000000000000000000000815260040162000d5090620032ad565b60405180910390fd5b600360008373ffffffffffffffffffffffffffffffffffffffff1673ffffffffffffffffffffffffffffffffffffffff168152602001908152602001600020549050919050565b60606001805462000db19062003747565b80601f016020809104026020016040519081016040528092919081815260200182805462000ddf9062003747565b801562000e305780601f1062000e045761010080835404028352916020019162000e30565b820191906000526020600020905b81548152906001019060200180831162000e1257829003601f168201915b5050505050905090565b62000e44620018e4565b73ffffffffffffffffffffffffffffffffffffffff168273ffffffffffffffffffffffffffffffffffffffff16141562000eb5576040517f08c379a000000000000000000000000000000000000000000000000000000000815260040162000eac9062003247565b60405180910390fd5b806005600062000ec4620018e4565b73ffffffffffffffffffffffffffffffffffffffff1673ffffffffffffffffffffffffffffffffffffffff16815260200190815260200160002060008473ffffffffffffffffffffffffffffffffffffffff1673ffffffffffffffffffffffffffffffffffffffff16815260200190815260200160002060006101000a81548160ff0219169083151502179055508173ffffffffffffffffffffffffffffffffffffffff1662000f73620018e4565b73ffffffffffffffffffffffffffffffffffffffff167f17307eab39ab6107e8899845ad3d59bd9653f200f220920489ca2b5937696c318360405162000fba91906200317e565b60405180910390a35050565b62000fdb62000fd4620018e4565b83620019a7565b6200101d576040517f08c379a000000000000000000000000000000000000000000000000000000000815260040162001014906200339b565b60405180910390fd5b6200102b8484848462001d1e565b50505050565b6200103c8162001878565b6200104657600080fd5b6000600b6001600b805490506200105e91906200363d565b8154811062001096577f4e487b7100000000000000000000000000000000000000000000000000000000600052603260045260246000fd5b9060005260206000200160009054906101000a900473ffffffffffffffffffffffffffffffffffffffff169050600380811115620010fd577f4e487b7100000000000000000000000000000000000000000000000000000000600052602160045260246000fd5b8173ffffffffffffffffffffffffffffffffffffffff16637fb450996040518163ffffffff1660e01b815260040160206040518083038186803b1580156200114457600080fd5b505afa15801562001159573d6000803e3d6000fd5b505050506040513d601f19601f820116820180604052508101906200117f91906200283d565b6003811115620011b8577f4e487b7100000000000000000000000000000000000000000000000000000000600052602160045260246000fd5b14158015620012bb575060026003811115620011fd577f4e487b7100000000000000000000000000000000000000000000000000000000600052602160045260246000fd5b8173ffffffffffffffffffffffffffffffffffffffff16637fb450996040518163ffffffff1660e01b815260040160206040518083038186803b1580156200124457600080fd5b505afa15801562001259573d6000803e3d6000fd5b505050506040513d601f19601f820116820180604052508101906200127f91906200283d565b6003811115620012b8577f4e487b7100000000000000000000000000000000000000000000000000000000600052602160045260246000fd5b14155b620012c557600080fd5b620012d13383620019a7565b80156200138a57508073ffffffffffffffffffffffffffffffffffffffff16638da5cb5b6040518163ffffffff1660e01b815260040160206040518083038186803b1580156200132057600080fd5b505afa15801562001335573d6000803e3d6000fd5b505050506040513d601f19601f820116820180604052508101906200135b91906200261b565b73ffffffffffffffffffffffffffffffffffffffff163373ffffffffffffffffffffffffffffffffffffffff16145b6200139457600080fd5b8073ffffffffffffffffffffffffffffffffffffffff1663f77282ab6040518163ffffffff1660e01b8152600401600060405180830381600087803b158015620013dd57600080fd5b505af1158015620013f2573d6000803e3d6000fd5b505050508073ffffffffffffffffffffffffffffffffffffffff166391f901576040518163ffffffff1660e01b815260040160206040518083038186803b1580156200143d57600080fd5b505afa15801562001452573d6000803e3d6000fd5b505050506040513d601f19601f820116820180604052508101906200147891906200261b565b6009600084815260200190815260200160002060020160006101000a81548173ffffffffffffffffffffffffffffffffffffffff021916908373ffffffffffffffffffffffffffffffffffffffff16021790555060008173ffffffffffffffffffffffffffffffffffffffff1663f5b56c566040518163ffffffff1660e01b815260040160206040518083038186803b1580156200151557600080fd5b505afa1580156200152a573d6000803e3d6000fd5b505050506040513d601f19601f820116820180604052508101906200155091906200291d565b905060006064600a60003373ffffffffffffffffffffffffffffffffffffffff1673ffffffffffffffffffffffffffffffffffffffff16815260200190815260200160002060008681526020019081526020016000205483620015b49190620035dc565b620015c09190620035a4565b9050600860009054906101000a900473ffffffffffffffffffffffffffffffffffffffff1673ffffffffffffffffffffffffffffffffffffffff166108fc829081150290604051600060405180830381858888f193505050501580156200162b573d6000803e3d6000fd5b50620016ba338473ffffffffffffffffffffffffffffffffffffffff166391f901576040518163ffffffff1660e01b815260040160206040518083038186803b1580156200167857600080fd5b505afa1580156200168d573d6000803e3d6000fd5b505050506040513d601f19601f82011682018060405250810190620016b391906200261b565b8662000b13565b50505050565b60065481565b6060620016d38262001878565b62001715576040517f08c379a00000000000000000000000000000000000000000000000000000000081526004016200170c9062003357565b60405180910390fd5b60006200172162001d81565b9050600081511162001743576040518060200160405280600081525062001772565b806200174f8462001d98565b604051602001620017629291906200309b565b6040516020818303038152906040525b915050919050565b6000600560008473ffffffffffffffffffffffffffffffffffffffff1673ffffffffffffffffffffffffffffffffffffffff16815260200190815260200160002060008373ffffffffffffffffffffffffffffffffffffffff1673ffffffffffffffffffffffffffffffffffffffff16815260200190815260200160002060009054906101000a900460ff16905092915050565b60007f01ffc9a7000000000000000000000000000000000000000000000000000000007bffffffffffffffffffffffffffffffffffffffffffffffffffffffff1916827bffffffffffffffffffffffffffffffffffffffffffffffffffffffff1916149050919050565b60008073ffffffffffffffffffffffffffffffffffffffff166002600084815260200190815260200160002060009054906101000a900473ffffffffffffffffffffffffffffffffffffffff1673ffffffffffffffffffffffffffffffffffffffff1614159050919050565b600033905090565b816004600083815260200190815260200160002060006101000a81548173ffffffffffffffffffffffffffffffffffffffff021916908373ffffffffffffffffffffffffffffffffffffffff160217905550808273ffffffffffffffffffffffffffffffffffffffff16620019618362000b3b565b73ffffffffffffffffffffffffffffffffffffffff167f8c5be1e5ebec7d5bd14f71427d1e84f3dd0314c0f7b2291e5b200ac8c7c3b92560405160405180910390a45050565b6000620019b48262001878565b620019f6576040517f08c379a0000000000000000000000000000000000000000000000000000000008152600401620019ed9062003269565b60405180910390fd5b600062001a038362000b3b565b90508073ffffffffffffffffffffffffffffffffffffffff168473ffffffffffffffffffffffffffffffffffffffff16148062001a7557508373ffffffffffffffffffffffffffffffffffffffff1662001a5d846200066f565b73ffffffffffffffffffffffffffffffffffffffff16145b8062001a89575062001a8881856200177a565b5b91505092915050565b8273ffffffffffffffffffffffffffffffffffffffff1662001ab48262000b3b565b73ffffffffffffffffffffffffffffffffffffffff161462001b0d576040517f08c379a000000000000000000000000000000000000000000000000000000000815260040162001b049062003335565b60405180910390fd5b600073ffffffffffffffffffffffffffffffffffffffff168273ffffffffffffffffffffffffffffffffffffffff16141562001b80576040517f08c379a000000000000000000000000000000000000000000000000000000000815260040162001b779062003225565b60405180910390fd5b62001b8d83838362001f5a565b62001b9a600082620018ec565b6001600360008573ffffffffffffffffffffffffffffffffffffffff1673ffffffffffffffffffffffffffffffffffffffff168152602001908152602001600020600082825462001bec91906200363d565b925050819055506001600360008473ffffffffffffffffffffffffffffffffffffffff1673ffffffffffffffffffffffffffffffffffffffff168152602001908152602001600020600082825462001c45919062003547565b92505081905550816002600083815260200190815260200160002060006101000a81548173ffffffffffffffffffffffffffffffffffffffff021916908373ffffffffffffffffffffffffffffffffffffffff160217905550808273ffffffffffffffffffffffffffffffffffffffff168473ffffffffffffffffffffffffffffffffffffffff167fddf252ad1be2c89b69c2b068fc378daa952ba7f163c4a11628f55a4df523b3ef60405160405180910390a4505050565b62001d1a82826040518060200160405280600081525062001f5f565b5050565b62001d2b84848462001a92565b62001d398484848462001fc1565b62001d7b576040517f08c379a000000000000000000000000000000000000000000000000000000000815260040162001d7290620031bf565b60405180910390fd5b50505050565b606060405180602001604052806000815250905090565b6060600082141562001de2576040518060400160405280600181526020017f3000000000000000000000000000000000000000000000000000000000000000815250905062001f55565b600082905060005b6000821462001e1a57808062001e00906200377d565b915050600a8262001e129190620035a4565b915062001dea565b60008167ffffffffffffffff81111562001e5d577f4e487b7100000000000000000000000000000000000000000000000000000000600052604160045260246000fd5b6040519080825280601f01601f19166020018201604052801562001e905781602001600182028036833780820191505090505b5090505b6000851462001f4e5760018262001eac91906200363d565b9150600a8562001ebd9190620037cb565b603062001ecb919062003547565b60f81b81838151811062001f08577f4e487b7100000000000000000000000000000000000000000000000000000000600052603260045260246000fd5b60200101907effffffffffffffffffffffffffffffffffffffffffffffffffffffffffffff1916908160001a905350600a8562001f469190620035a4565b945062001e94565b8093505050505b919050565b505050565b62001f6b83836200216a565b62001f7a600084848462001fc1565b62001fbc576040517f08c379a000000000000000000000000000000000000000000000000000000000815260040162001fb390620031bf565b60405180910390fd5b505050565b600062001fe48473ffffffffffffffffffffffffffffffffffffffff1662002344565b156200215d578373ffffffffffffffffffffffffffffffffffffffff1663150b7a0262002010620018e4565b8786866040518563ffffffff1660e01b81526004016200203494939291906200312a565b602060405180830381600087803b1580156200204f57600080fd5b505af19250505080156200208357506040513d601f19601f8201168201806040525081019062002080919062002811565b60015b6200210c573d8060008114620020b6576040519150601f19603f3d011682016040523d82523d6000602084013e620020bb565b606091505b5060008151141562002104576040517f08c379a0000000000000000000000000000000000000000000000000000000008152600401620020fb90620031bf565b60405180910390fd5b805181602001fd5b63150b7a0260e01b7bffffffffffffffffffffffffffffffffffffffffffffffffffffffff1916817bffffffffffffffffffffffffffffffffffffffffffffffffffffffff19161491505062002162565b600190505b949350505050565b600073ffffffffffffffffffffffffffffffffffffffff168273ffffffffffffffffffffffffffffffffffffffff161415620021dd576040517f08c379a0000000000000000000000000000000000000000000000000000000008152600401620021d490620032f1565b60405180910390fd5b620021e88162001878565b156200222b576040517f08c379a0000000000000000000000000000000000000000000000000000000008152600401620022229062003203565b60405180910390fd5b620022396000838362001f5a565b6001600360008473ffffffffffffffffffffffffffffffffffffffff1673ffffffffffffffffffffffffffffffffffffffff16815260200190815260200160002060008282546200228b919062003547565b92505081905550816002600083815260200190815260200160002060006101000a81548173ffffffffffffffffffffffffffffffffffffffff021916908373ffffffffffffffffffffffffffffffffffffffff160217905550808273ffffffffffffffffffffffffffffffffffffffff16600073ffffffffffffffffffffffffffffffffffffffff167fddf252ad1be2c89b69c2b068fc378daa952ba7f163c4a11628f55a4df523b3ef60405160405180910390a45050565b600080823b905060008111915050919050565b60405180608001604052806000815260200160608152602001600073ffffffffffffffffffffffffffffffffffffffff168152602001606081525090565b828054620023a39062003747565b90600052602060002090601f016020900481019282620023c7576000855562002413565b82601f10620023e257805160ff191683800117855562002413565b8280016001018555821562002413579182015b8281111562002412578251825591602001919060010190620023f5565b5b50905062002422919062002434565b5090565b611284806200396483390190565b5b808211156200244f57600081600090555060010162002435565b5090565b60006200246a62002464846200348d565b62003459565b9050828152602081018484840111156200248357600080fd5b6200249084828562003702565b509392505050565b6000620024af620024a984620034c0565b62003459565b905082815260208101848484011115620024c857600080fd5b620024d584828562003702565b509392505050565b600081359050620024ee81620038d0565b92915050565b6000815190506200250581620038ea565b92915050565b6000813590506200251c8162003904565b92915050565b60008135905062002533816200391e565b92915050565b6000815190506200254a816200391e565b92915050565b600082601f8301126200256257600080fd5b81356200257484826020860162002453565b91505092915050565b6000815190506200258e8162003938565b92915050565b600082601f830112620025a657600080fd5b8135620025b884826020860162002498565b91505092915050565b600081359050620025d28162003949565b92915050565b600081519050620025e98162003949565b92915050565b6000602082840312156200260257600080fd5b60006200261284828501620024dd565b91505092915050565b6000602082840312156200262e57600080fd5b60006200263e84828501620024f4565b91505092915050565b600080604083850312156200265b57600080fd5b60006200266b85828601620024dd565b92505060206200267e85828601620024dd565b9150509250929050565b6000806000606084860312156200269e57600080fd5b6000620026ae86828701620024dd565b9350506020620026c186828701620024dd565b9250506040620026d486828701620025c1565b9150509250925092565b60008060008060808587031215620026f557600080fd5b60006200270587828801620024dd565b94505060206200271887828801620024dd565b93505060406200272b87828801620025c1565b925050606085013567ffffffffffffffff8111156200274957600080fd5b620027578782880162002550565b91505092959194509250565b600080604083850312156200277757600080fd5b60006200278785828601620024dd565b92505060206200279a858286016200250b565b9150509250929050565b60008060408385031215620027b857600080fd5b6000620027c885828601620024dd565b9250506020620027db85828601620025c1565b9150509250929050565b600060208284031215620027f857600080fd5b6000620028088482850162002522565b91505092915050565b6000602082840312156200282457600080fd5b6000620028348482850162002539565b91505092915050565b6000602082840312156200285057600080fd5b600062002860848285016200257d565b91505092915050565b6000806000606084860312156200287f57600080fd5b600084013567ffffffffffffffff8111156200289a57600080fd5b620028a88682870162002594565b935050602084013567ffffffffffffffff811115620028c657600080fd5b620028d48682870162002594565b9250506040620028e786828701620025c1565b9150509250925092565b6000602082840312156200290457600080fd5b60006200291484828501620025c1565b91505092915050565b6000602082840312156200293057600080fd5b60006200294084828501620025d8565b91505092915050565b62002954816200368c565b82525050565b620029658162003678565b82525050565b620029768162003678565b82525050565b6200298781620036a0565b82525050565b60006200299a82620034f3565b620029a6818562003509565b9350620029b881856020860162003711565b620029c381620038bf565b840191505092915050565b6000620029db82620034fe565b620029e781856200351a565b9350620029f981856020860162003711565b62002a0481620038bf565b840191505092915050565b600062002a1c82620034fe565b62002a2881856200352b565b935062002a3a81856020860162003711565b62002a4581620038bf565b840191505092915050565b600062002a5d82620034fe565b62002a6981856200353c565b935062002a7b81856020860162003711565b80840191505092915050565b600062002a966032836200352b565b91507f4552433732313a207472616e7366657220746f206e6f6e20455243373231526560008301527f63656976657220696d706c656d656e74657200000000000000000000000000006020830152604082019050919050565b600062002afe601d836200352b565b91507f596f752073686f756c642062652074686520746f6b656e206f776e65720000006000830152602082019050919050565b600062002b40601c836200352b565b91507f4552433732313a20746f6b656e20616c7265616479206d696e746564000000006000830152602082019050919050565b600062002b826024836200352b565b91507f4552433732313a207472616e7366657220746f20746865207a65726f2061646460008301527f72657373000000000000000000000000000000000000000000000000000000006020830152604082019050919050565b600062002bea6019836200352b565b91507f4552433732313a20617070726f766520746f2063616c6c6572000000000000006000830152602082019050919050565b600062002c2c602c836200352b565b91507f4552433732313a206f70657261746f7220717565727920666f72206e6f6e657860008301527f697374656e7420746f6b656e00000000000000000000000000000000000000006020830152604082019050919050565b600062002c946038836200352b565b91507f4552433732313a20617070726f76652063616c6c6572206973206e6f74206f7760008301527f6e6572206e6f7220617070726f76656420666f7220616c6c00000000000000006020830152604082019050919050565b600062002cfc602a836200352b565b91507f4552433732313a2062616c616e636520717565727920666f7220746865207a6560008301527f726f2061646472657373000000000000000000000000000000000000000000006020830152604082019050919050565b600062002d646029836200352b565b91507f4552433732313a206f776e657220717565727920666f72206e6f6e657869737460008301527f656e7420746f6b656e00000000000000000000000000000000000000000000006020830152604082019050919050565b600062002dcc6020836200352b565b91507f4552433732313a206d696e7420746f20746865207a65726f20616464726573736000830152602082019050919050565b600062002e0e602c836200352b565b91507f4552433732313a20617070726f76656420717565727920666f72206e6f6e657860008301527f697374656e7420746f6b656e00000000000000000000000000000000000000006020830152604082019050919050565b600062002e766029836200352b565b91507f4552433732313a207472616e73666572206f6620746f6b656e2074686174206960008301527f73206e6f74206f776e00000000000000000000000000000000000000000000006020830152604082019050919050565b600062002ede602f836200352b565b91507f4552433732314d657461646174613a2055524920717565727920666f72206e6f60008301527f6e6578697374656e7420746f6b656e00000000000000000000000000000000006020830152604082019050919050565b600062002f466021836200352b565b91507f4552433732313a20617070726f76616c20746f2063757272656e74206f776e6560008301527f72000000000000000000000000000000000000000000000000000000000000006020830152604082019050919050565b600062002fae6031836200352b565b91507f4552433732313a207472616e736665722063616c6c6572206973206e6f74206f60008301527f776e6572206e6f7220617070726f7665640000000000000000000000000000006020830152604082019050919050565b600060808301600083015162003021600086018262003079565b50602083015184820360208601526200303b8282620029ce565b91505060408301516200305260408601826200295a565b50606083015184820360608601526200306c8282620029ce565b9150508091505092915050565b6200308481620036f8565b82525050565b6200309581620036f8565b82525050565b6000620030a9828562002a50565b9150620030b7828462002a50565b91508190509392505050565b6000602082019050620030da60008301846200296b565b92915050565b6000602082019050620030f7600083018462002949565b92915050565b600060408201905062003114600083018562002949565b6200312360208301846200308a565b9392505050565b60006080820190506200314160008301876200296b565b6200315060208301866200296b565b6200315f60408301856200308a565b81810360608301526200317381846200298d565b905095945050505050565b60006020820190506200319560008301846200297c565b92915050565b60006020820190508181036000830152620031b7818462002a0f565b905092915050565b60006020820190508181036000830152620031da8162002a87565b9050919050565b60006020820190508181036000830152620031fc8162002aef565b9050919050565b600060208201905081810360008301526200321e8162002b31565b9050919050565b60006020820190508181036000830152620032408162002b73565b9050919050565b60006020820190508181036000830152620032628162002bdb565b9050919050565b60006020820190508181036000830152620032848162002c1d565b9050919050565b60006020820190508181036000830152620032a68162002c85565b9050919050565b60006020820190508181036000830152620032c88162002ced565b9050919050565b60006020820190508181036000830152620032ea8162002d55565b9050919050565b600060208201905081810360008301526200330c8162002dbd565b9050919050565b600060208201905081810360008301526200332e8162002dff565b9050919050565b60006020820190508181036000830152620033508162002e67565b9050919050565b60006020820190508181036000830152620033728162002ecf565b9050919050565b60006020820190508181036000830152620033948162002f37565b9050919050565b60006020820190508181036000830152620033b68162002f9f565b9050919050565b60006020820190508181036000830152620033d9818462003007565b905092915050565b6000602082019050620033f860008301846200308a565b92915050565b60006080820190506200341560008301876200308a565b818103602083015262003429818662002a0f565b90506200343a60408301856200296b565b81810360608301526200344e818462002a0f565b905095945050505050565b6000604051905081810181811067ffffffffffffffff8211171562003483576200348262003890565b5b8060405250919050565b600067ffffffffffffffff821115620034ab57620034aa62003890565b5b601f19601f8301169050602081019050919050565b600067ffffffffffffffff821115620034de57620034dd62003890565b5b601f19601f8301169050602081019050919050565b600081519050919050565b600081519050919050565b600082825260208201905092915050565b600082825260208201905092915050565b600082825260208201905092915050565b600081905092915050565b60006200355482620036f8565b91506200356183620036f8565b9250827fffffffffffffffffffffffffffffffffffffffffffffffffffffffffffffffff0382111562003599576200359862003803565b5b828201905092915050565b6000620035b182620036f8565b9150620035be83620036f8565b925082620035d157620035d062003832565b5b828204905092915050565b6000620035e982620036f8565b9150620035f683620036f8565b9250817fffffffffffffffffffffffffffffffffffffffffffffffffffffffffffffffff048311821515161562003632576200363162003803565b5b828202905092915050565b60006200364a82620036f8565b91506200365783620036f8565b9250828210156200366d576200366c62003803565b5b828203905092915050565b60006200368582620036d8565b9050919050565b60006200369982620036d8565b9050919050565b60008115159050919050565b60007fffffffff0000000000000000000000000000000000000000000000000000000082169050919050565b600073ffffffffffffffffffffffffffffffffffffffff82169050919050565b6000819050919050565b82818337600083830152505050565b60005b838110156200373157808201518184015260208101905062003714565b8381111562003741576000848401525b50505050565b600060028204905060018216806200376057607f821691505b6020821081141562003777576200377662003861565b5b50919050565b60006200378a82620036f8565b91507fffffffffffffffffffffffffffffffffffffffffffffffffffffffffffffffff821415620037c057620037bf62003803565b5b600182019050919050565b6000620037d882620036f8565b9150620037e583620036f8565b925082620037f857620037f762003832565b5b828206905092915050565b7f4e487b7100000000000000000000000000000000000000000000000000000000600052601160045260246000fd5b7f4e487b7100000000000000000000000000000000000000000000000000000000600052601260045260246000fd5b7f4e487b7100000000000000000000000000000000000000000000000000000000600052602260045260246000fd5b7f4e487b7100000000000000000000000000000000000000000000000000000000600052604160045260246000fd5b6000601f19601f8301169050919050565b620038db8162003678565b8114620038e757600080fd5b50565b620038f5816200368c565b81146200390157600080fd5b50565b6200390f81620036a0565b81146200391b57600080fd5b50565b6200392981620036ac565b81146200393557600080fd5b50565b600481106200394657600080fd5b50565b6200395481620036f8565b81146200396057600080fd5b5056fe60806040523480156200001157600080fd5b506040516200128438038062001284833981810160405281019062000037919062000115565b816000806101000a81548173ffffffffffffffffffffffffffffffffffffffff021916908373ffffffffffffffffffffffffffffffffffffffff1602179055506001600560006101000a81548160ff02191690836003811115620000c4577f4e487b7100000000000000000000000000000000000000000000000000000000600052602160045260246000fd5b02179055504360018190555080600381905550600a6009819055505050620001c8565b600081519050620000f88162000194565b92915050565b6000815190506200010f81620001ae565b92915050565b600080604083850312156200012957600080fd5b60006200013985828601620000e7565b92505060206200014c85828601620000fe565b9150509250929050565b600062000163826200016a565b9050919050565b600073ffffffffffffffffffffffffffffffffffffffff82169050919050565b6000819050919050565b6200019f8162000156565b8114620001ab57600080fd5b50565b620001b9816200018a565b8114620001c557600080fd5b50565b6110ac80620001d86000396000f3fe6080604052600436106100a75760003560e01c80638fa8b790116100645780638fa8b790146101c057806391f90157146101d7578063cff29dfd14610202578063ecfc7ecc1461023f578063f5b56c561461025d578063f77282ab14610288576100a7565b8063083c6323146100ac5780631b2b1f7d146100d757806348cd4cb11461010257806362ea82db1461012d5780637fb450991461016a5780638da5cb5b14610195575b600080fd5b3480156100b857600080fd5b506100c161029f565b6040516100ce9190610e69565b60405180910390f35b3480156100e357600080fd5b506100ec6102a5565b6040516100f99190610e69565b60405180910390f35b34801561010e57600080fd5b506101176102ab565b6040516101249190610e69565b60405180910390f35b34801561013957600080fd5b50610154600480360381019061014f9190610d8a565b6102b1565b6040516101619190610e69565b60405180910390f35b34801561017657600080fd5b5061017f6102c9565b60405161018c9190610e4e565b60405180910390f35b3480156101a157600080fd5b506101aa6102dc565b6040516101b79190610e18565b60405180910390f35b3480156101cc57600080fd5b506101d5610300565b005b3480156101e357600080fd5b506101ec61051a565b6040516101f99190610e18565b60405180910390f35b34801561020e57600080fd5b5061022960048036038101906102249190610db3565b610540565b6040516102369190610e18565b60405180910390f35b61024761057f565b6040516102549190610e33565b60405180910390f35b34801561026957600080fd5b50610272610989565b60405161027f9190610e69565b60405180910390f35b34801561029457600080fd5b5061029d61098f565b005b60025481565b60035481565b60015481565b60086020528060005260406000206000915090505481565b600560009054906101000a900460ff1681565b60008054906101000a900473ffffffffffffffffffffffffffffffffffffffff1681565b60008054906101000a900473ffffffffffffffffffffffffffffffffffffffff1673ffffffffffffffffffffffffffffffffffffffff163373ffffffffffffffffffffffffffffffffffffffff161461035857600080fd5b6003600560006101000a81548160ff021916908360038111156103a4577f4e487b7100000000000000000000000000000000000000000000000000000000600052602160045260246000fd5b021790555060005b600480549050811161051757600481815481106103f2577f4e487b7100000000000000000000000000000000000000000000000000000000600052603260045260246000fd5b9060005260206000200160009054906101000a900473ffffffffffffffffffffffffffffffffffffffff1673ffffffffffffffffffffffffffffffffffffffff166108fc6008600060048581548110610474577f4e487b7100000000000000000000000000000000000000000000000000000000600052603260045260246000fd5b9060005260206000200160009054906101000a900473ffffffffffffffffffffffffffffffffffffffff1673ffffffffffffffffffffffffffffffffffffffff1673ffffffffffffffffffffffffffffffffffffffff168152602001908152602001600020549081150290604051600060405180830381858888f19350505050158015610505573d6000803e3d6000fd5b508061051090610f8d565b90506103ac565b50565b600760009054906101000a900473ffffffffffffffffffffffffffffffffffffffff1681565b6004818154811061055057600080fd5b906000526020600020016000915054906101000a900473ffffffffffffffffffffffffffffffffffffffff1681565b60008060009054906101000a900473ffffffffffffffffffffffffffffffffffffffff1673ffffffffffffffffffffffffffffffffffffffff163373ffffffffffffffffffffffffffffffffffffffff1614156105db57600080fd5b6001544310156105ea57600080fd5b60016003811115610624577f4e487b7100000000000000000000000000000000000000000000000000000000600052602160045260246000fd5b600560009054906101000a900460ff16600381111561066c577f4e487b7100000000000000000000000000000000000000000000000000000000600052602160045260246000fd5b1461067657600080fd5b66038d7ea4c68000341161068957600080fd5b6000600860003373ffffffffffffffffffffffffffffffffffffffff1673ffffffffffffffffffffffffffffffffffffffff168152602001908152602001600020541415610735576004339080600181540180825580915050600190039060005260206000200160009091909190916101000a81548173ffffffffffffffffffffffffffffffffffffffff021916908373ffffffffffffffffffffffffffffffffffffffff1602179055505b600034600860003373ffffffffffffffffffffffffffffffffffffffff1673ffffffffffffffffffffffffffffffffffffffff168152602001908152602001600020546107829190610e84565b9050600654811161079257600080fd5b80600860003373ffffffffffffffffffffffffffffffffffffffff1673ffffffffffffffffffffffffffffffffffffffff1681526020019081526020016000208190555060086000600760009054906101000a900473ffffffffffffffffffffffffffffffffffffffff1673ffffffffffffffffffffffffffffffffffffffff1673ffffffffffffffffffffffffffffffffffffffff1681526020019081526020016000205481116108c1576108b66009548261084f9190610e84565b60086000600760009054906101000a900473ffffffffffffffffffffffffffffffffffffffff1673ffffffffffffffffffffffffffffffffffffffff1673ffffffffffffffffffffffffffffffffffffffff16815260200190815260200160002054610d44565b600681905550610981565b6109398160095460086000600760009054906101000a900473ffffffffffffffffffffffffffffffffffffffff1673ffffffffffffffffffffffffffffffffffffffff1673ffffffffffffffffffffffffffffffffffffffff168152602001908152602001600020546109349190610e84565b610d44565b60068190555033600760006101000a81548173ffffffffffffffffffffffffffffffffffffffff021916908373ffffffffffffffffffffffffffffffffffffffff1602179055505b600191505090565b60065481565b60008054906101000a900473ffffffffffffffffffffffffffffffffffffffff1673ffffffffffffffffffffffffffffffffffffffff163373ffffffffffffffffffffffffffffffffffffffff16146109e757600080fd5b600380811115610a20577f4e487b7100000000000000000000000000000000000000000000000000000000600052602160045260246000fd5b600560009054906101000a900460ff166003811115610a68577f4e487b7100000000000000000000000000000000000000000000000000000000600052602160045260246000fd5b1415610a7357600080fd5b60008060008054906101000a900473ffffffffffffffffffffffffffffffffffffffff16915060065490508173ffffffffffffffffffffffffffffffffffffffff166108fc829081150290604051600060405180830381858888f19350505050158015610ae4573d6000803e3d6000fd5b5060005b6004805490508111610ce757600760009054906101000a900473ffffffffffffffffffffffffffffffffffffffff1673ffffffffffffffffffffffffffffffffffffffff1660048281548110610b67577f4e487b7100000000000000000000000000000000000000000000000000000000600052603260045260246000fd5b9060005260206000200160009054906101000a900473ffffffffffffffffffffffffffffffffffffffff1673ffffffffffffffffffffffffffffffffffffffff161415610c4957600760009054906101000a900473ffffffffffffffffffffffffffffffffffffffff16925060065460086000600760009054906101000a900473ffffffffffffffffffffffffffffffffffffffff1673ffffffffffffffffffffffffffffffffffffffff1673ffffffffffffffffffffffffffffffffffffffff16815260200190815260200160002054610c429190610eda565b9150610c8f565b339250600860003373ffffffffffffffffffffffffffffffffffffffff1673ffffffffffffffffffffffffffffffffffffffff1681526020019081526020016000205491505b8273ffffffffffffffffffffffffffffffffffffffff166108fc839081150290604051600060405180830381858888f19350505050158015610cd5573d6000803e3d6000fd5b5080610ce090610f8d565b9050610ae8565b506002600560006101000a81548160ff02191690836003811115610d34577f4e487b7100000000000000000000000000000000000000000000000000000000600052602160045260246000fd5b0217905550436002819055505050565b600081831015610d5657829050610d5a565b8190505b92915050565b600081359050610d6f81611048565b92915050565b600081359050610d848161105f565b92915050565b600060208284031215610d9c57600080fd5b6000610daa84828501610d60565b91505092915050565b600060208284031215610dc557600080fd5b6000610dd384828501610d75565b91505092915050565b610de581610f20565b82525050565b610df481610f32565b82525050565b610e0381610f7b565b82525050565b610e1281610f71565b82525050565b6000602082019050610e2d6000830184610ddc565b92915050565b6000602082019050610e486000830184610deb565b92915050565b6000602082019050610e636000830184610dfa565b92915050565b6000602082019050610e7e6000830184610e09565b92915050565b6000610e8f82610f71565b9150610e9a83610f71565b9250827fffffffffffffffffffffffffffffffffffffffffffffffffffffffffffffffff03821115610ecf57610ece610fd6565b5b828201905092915050565b6000610ee582610f71565b9150610ef083610f71565b925082821015610f0357610f02610fd6565b5b828203905092915050565b6000610f1982610f51565b9050919050565b6000610f2b82610f51565b9050919050565b60008115159050919050565b6000819050610f4c82611034565b919050565b600073ffffffffffffffffffffffffffffffffffffffff82169050919050565b6000819050919050565b6000610f8682610f3e565b9050919050565b6000610f9882610f71565b91507fffffffffffffffffffffffffffffffffffffffffffffffffffffffffffffffff821415610fcb57610fca610fd6565b5b600182019050919050565b7f4e487b7100000000000000000000000000000000000000000000000000000000600052601160045260246000fd5b7f4e487b7100000000000000000000000000000000000000000000000000000000600052602160045260246000fd5b6004811061104557611044611005565b5b50565b61105181610f0e565b811461105c57600080fd5b50565b61106881610f71565b811461107357600080fd5b5056fea264697066735822122068e1c1542aec8058744874a9899bdbb27bf32b44c2808b0991956a715d59f9bf64736f6c63430008000033a2646970667358221220cbf979d164660eb7e4f1a751a580ac5cbed4f576dba7d2c6d8b4ce9fd868234b64736f6c63430008000033",
  "immutableReferences": {},
  "source": "pragma solidity ^0.8.0;\r\nimport \"@openzeppelin/contracts/token/ERC721/ERC721.sol\";\r\nimport \"@openzeppelin/contracts/access/Ownable.sol\";\r\nimport \"./Auction.sol\";\r\n\r\ncontract ToknCollectible is ERC721{\r\n  uint256 public  _collectibleID;\r\n  uint256 public _collectibleCount;\r\n  address payable public creator;\r\n\r\n  mapping(uint256=> Collectible) private _collectibleList;\r\n  mapping(address=> mapping (uint256=> uint256)) public commissions;\r\n\r\n  address[] public deployedAuctions;\r\n\r\n  struct Collectible{\r\n    uint256 _collectibleID;\r\n    string _title;\r\n    address _owner;\r\n    string _collectibleURI;\r\n    \r\n  }\r\n  event CollectibleCreated(\r\n    uint256 _collectibleID,\r\n    string _title,\r\n    address _owner,\r\n    string _collectibleURI\r\n    \r\n  );\r\n\r\n\r\nconstructor(string memory name, string memory symbol ) public ERC721(name, symbol){\r\n    _collectibleID = 0;\r\n}\r\n\r\n//creates and mints NFT Tokn to user.\r\n//Takes as input _tokenURI: token data off chain, address of the _owner,collectible title\r\n\r\nfunction create(string memory _title, string memory _tokenURI, uint256 commission) public returns(Collectible memory){\r\n    //increment collectible count\r\n      _collectibleID++;\r\n      _collectibleCount++;\r\n\r\n    //create collectible struct\r\n    Collectible memory newCollectible = Collectible(_collectibleID, _title, msg.sender, _tokenURI);\r\n  _collectibleList[_collectibleID] = newCollectible;\r\n\r\n  //emit Event\r\n  emit CollectibleCreated(_collectibleID, _title, msg.sender, _tokenURI);\r\n\r\n  //call safemint function from openzeppelin\r\n  _safeMint(msg.sender, _collectibleID);\r\n  commissions[msg.sender][_collectibleID] = commission;\r\n  creator = payable(msg.sender);\r\n\r\n// According to Release date\r\n  startAuction(msg.sender, _collectibleID);\r\n\r\n  return newCollectible;\r\n\r\n}\r\n\r\nfunction startAuction(address _owner, uint256 toknID) public{\r\n  require(_isApprovedOrOwner(msg.sender, toknID), \"You should be the token owner\");\r\n  Auction newAuction = new Auction(payable(_owner), toknID);\r\n  deployedAuctions.push(address(newAuction));\r\n\r\n}\r\n\r\nfunction endAuction(uint256 _toknID) public{\r\n  require(_exists(_toknID));\r\n\r\n  Auction currentAuction = Auction(deployedAuctions[deployedAuctions.length - 1]);\r\n\r\n  require(currentAuction.auctionState() != Auction.State.Cancelled && currentAuction.auctionState() != Auction.State.Ended); \r\n  require(_isApprovedOrOwner(msg.sender, _toknID) && msg.sender == currentAuction.owner());\r\n  \r\n  currentAuction.finalizeAuction();\r\n  _collectibleList[_toknID]._owner = currentAuction.highestBidder();\r\n  uint256 lastPrice = uint256(currentAuction.highestBindingBid());\r\n  uint256 creatorCommission = lastPrice*commissions[msg.sender][_toknID]/uint256(100);\r\n  creator.transfer(creatorCommission); \r\n  safeTransferFrom(msg.sender, currentAuction.highestBidder(), _toknID);\r\n}\r\n\r\n//destroy function takes the tokenID of the NFT, then calls on openzeppelin's burn function.\r\nfunction destroy() internal returns(bool success) {\r\n  _burn(_collectibleID);\r\n\r\n  return true;\r\n}\r\n\r\n}",
  "sourcePath": "C:\\Users\\lenovo\\OneDrive\\Desktop\\projects\\Tokn\\contracts\\ToknCollectible.sol",
  "compiler": {
    "name": "solc",
    "version": "0.8.0+commit.c7dfd78e.Emscripten.clang"
  },
  "schemaVersion": "3.4.1",
  "updatedAt": "2021-07-16T10:19:29.136Z",
  "devdoc": {
    "kind": "dev",
    "methods": {
      "approve(address,uint256)": {
        "details": "See {IERC721-approve}."
      },
      "balanceOf(address)": {
        "details": "See {IERC721-balanceOf}."
      },
      "getApproved(uint256)": {
        "details": "See {IERC721-getApproved}."
      },
      "isApprovedForAll(address,address)": {
        "details": "See {IERC721-isApprovedForAll}."
      },
      "name()": {
        "details": "See {IERC721Metadata-name}."
      },
      "ownerOf(uint256)": {
        "details": "See {IERC721-ownerOf}."
      },
      "safeTransferFrom(address,address,uint256)": {
        "details": "See {IERC721-safeTransferFrom}."
      },
      "safeTransferFrom(address,address,uint256,bytes)": {
        "details": "See {IERC721-safeTransferFrom}."
      },
      "setApprovalForAll(address,bool)": {
        "details": "See {IERC721-setApprovalForAll}."
      },
      "supportsInterface(bytes4)": {
        "details": "See {IERC165-supportsInterface}."
      },
      "symbol()": {
        "details": "See {IERC721Metadata-symbol}."
      },
      "tokenURI(uint256)": {
        "details": "See {IERC721Metadata-tokenURI}."
      },
      "transferFrom(address,address,uint256)": {
        "details": "See {IERC721-transferFrom}."
      }
    },
    "version": 1
  },
  "userdoc": {
    "kind": "user",
    "methods": {},
    "version": 1
  }
}