{
  "contractName": "ToknBidding",
  "abi": [
    {
      "inputs": [
        {
          "internalType": "string",
          "name": "name",
          "type": "string"
        },
        {
          "internalType": "string",
          "name": "symbol",
          "type": "string"
        }
      ],
      "stateMutability": "nonpayable",
      "type": "constructor"
    },
    {
      "anonymous": false,
      "inputs": [
        {
          "indexed": true,
          "internalType": "address",
          "name": "owner",
          "type": "address"
        },
        {
          "indexed": true,
          "internalType": "address",
          "name": "approved",
          "type": "address"
        },
        {
          "indexed": true,
          "internalType": "uint256",
          "name": "tokenId",
          "type": "uint256"
        }
      ],
      "name": "Approval",
      "type": "event"
    },
    {
      "anonymous": false,
      "inputs": [
        {
          "indexed": true,
          "internalType": "address",
          "name": "owner",
          "type": "address"
        },
        {
          "indexed": true,
          "internalType": "address",
          "name": "operator",
          "type": "address"
        },
        {
          "indexed": false,
          "internalType": "bool",
          "name": "approved",
          "type": "bool"
        }
      ],
      "name": "ApprovalForAll",
      "type": "event"
    },
    {
      "anonymous": false,
      "inputs": [
        {
          "indexed": false,
          "internalType": "uint256",
          "name": "_collectibleID",
          "type": "uint256"
        },
        {
          "indexed": false,
          "internalType": "string",
          "name": "_title",
          "type": "string"
        },
        {
          "indexed": false,
          "internalType": "address",
          "name": "_owner",
          "type": "address"
        },
        {
          "indexed": false,
          "internalType": "string",
          "name": "_collectibleURI",
          "type": "string"
        }
      ],
      "name": "CollectibleCreated",
      "type": "event"
    },
    {
      "anonymous": false,
      "inputs": [
        {
          "indexed": true,
          "internalType": "address",
          "name": "from",
          "type": "address"
        },
        {
          "indexed": true,
          "internalType": "address",
          "name": "to",
          "type": "address"
        },
        {
          "indexed": true,
          "internalType": "uint256",
          "name": "tokenId",
          "type": "uint256"
        }
      ],
      "name": "Transfer",
      "type": "event"
    },
    {
      "inputs": [],
      "name": "_collectibleCount",
      "outputs": [
        {
          "internalType": "uint256",
          "name": "",
          "type": "uint256"
        }
      ],
      "stateMutability": "view",
      "type": "function"
    },
    {
      "inputs": [],
      "name": "_collectibleID",
      "outputs": [
        {
          "internalType": "uint256",
          "name": "",
          "type": "uint256"
        }
      ],
      "stateMutability": "view",
      "type": "function"
    },
    {
      "inputs": [
        {
          "internalType": "uint256",
          "name": "",
          "type": "uint256"
        }
      ],
      "name": "_collectibleList",
      "outputs": [
        {
          "internalType": "uint256",
          "name": "_collectibleID",
          "type": "uint256"
        },
        {
          "internalType": "string",
          "name": "_title",
          "type": "string"
        },
        {
          "internalType": "address",
          "name": "_owner",
          "type": "address"
        },
        {
          "internalType": "string",
          "name": "_collectibleURI",
          "type": "string"
        }
      ],
      "stateMutability": "view",
      "type": "function"
    },
    {
      "inputs": [
        {
          "internalType": "address",
          "name": "to",
          "type": "address"
        },
        {
          "internalType": "uint256",
          "name": "tokenId",
          "type": "uint256"
        }
      ],
      "name": "approve",
      "outputs": [],
      "stateMutability": "nonpayable",
      "type": "function"
    },
    {
      "inputs": [
        {
          "internalType": "address",
          "name": "",
          "type": "address"
        }
      ],
      "name": "auctionMaxPrice",
      "outputs": [
        {
          "internalType": "uint256",
          "name": "",
          "type": "uint256"
        }
      ],
      "stateMutability": "view",
      "type": "function"
    },
    {
      "inputs": [
        {
          "internalType": "address",
          "name": "owner",
          "type": "address"
        }
      ],
      "name": "balanceOf",
      "outputs": [
        {
          "internalType": "uint256",
          "name": "",
          "type": "uint256"
        }
      ],
      "stateMutability": "view",
      "type": "function"
    },
    {
      "inputs": [
        {
          "internalType": "string",
          "name": "_title",
          "type": "string"
        },
        {
          "internalType": "string",
          "name": "_tokenURI",
          "type": "string"
        }
      ],
      "name": "create",
      "outputs": [
        {
          "components": [
            {
              "internalType": "uint256",
              "name": "_collectibleID",
              "type": "uint256"
            },
            {
              "internalType": "string",
              "name": "_title",
              "type": "string"
            },
            {
              "internalType": "address",
              "name": "_owner",
              "type": "address"
            },
            {
              "internalType": "string",
              "name": "_collectibleURI",
              "type": "string"
            }
          ],
          "internalType": "struct ToknCollectible.Collectible",
          "name": "",
          "type": "tuple"
        }
      ],
      "stateMutability": "nonpayable",
      "type": "function"
    },
    {
      "inputs": [],
      "name": "creator",
      "outputs": [
        {
          "internalType": "address payable",
          "name": "",
          "type": "address"
        }
      ],
      "stateMutability": "view",
      "type": "function"
    },
    {
      "inputs": [
        {
          "internalType": "uint256",
          "name": "",
          "type": "uint256"
        }
      ],
      "name": "currentAuctionForTokn",
      "outputs": [
        {
          "internalType": "address",
          "name": "",
          "type": "address"
        }
      ],
      "stateMutability": "view",
      "type": "function"
    },
    {
      "inputs": [
        {
          "internalType": "uint256",
          "name": "toknID",
          "type": "uint256"
        }
      ],
      "name": "destroy",
      "outputs": [
        {
          "internalType": "bool",
          "name": "success",
          "type": "bool"
        }
      ],
      "stateMutability": "nonpayable",
      "type": "function"
    },
    {
      "inputs": [
        {
          "internalType": "uint256",
          "name": "tokenId",
          "type": "uint256"
        }
      ],
      "name": "getApproved",
      "outputs": [
        {
          "internalType": "address",
          "name": "",
          "type": "address"
        }
      ],
      "stateMutability": "view",
      "type": "function"
    },
    {
      "inputs": [
        {
          "internalType": "address",
          "name": "owner",
          "type": "address"
        },
        {
          "internalType": "address",
          "name": "operator",
          "type": "address"
        }
      ],
      "name": "isApprovedForAll",
      "outputs": [
        {
          "internalType": "bool",
          "name": "",
          "type": "bool"
        }
      ],
      "stateMutability": "view",
      "type": "function"
    },
    {
      "inputs": [],
      "name": "maxPrice",
      "outputs": [
        {
          "internalType": "uint256",
          "name": "",
          "type": "uint256"
        }
      ],
      "stateMutability": "view",
      "type": "function"
    },
    {
      "inputs": [],
      "name": "name",
      "outputs": [
        {
          "internalType": "string",
          "name": "",
          "type": "string"
        }
      ],
      "stateMutability": "view",
      "type": "function"
    },
    {
      "inputs": [
        {
          "internalType": "uint256",
          "name": "tokenId",
          "type": "uint256"
        }
      ],
      "name": "ownerOf",
      "outputs": [
        {
          "internalType": "address",
          "name": "",
          "type": "address"
        }
      ],
      "stateMutability": "view",
      "type": "function"
    },
    {
      "inputs": [
        {
          "internalType": "uint256",
          "name": "",
          "type": "uint256"
        }
      ],
      "name": "runningAuction",
      "outputs": [
        {
          "internalType": "bool",
          "name": "",
          "type": "bool"
        }
      ],
      "stateMutability": "view",
      "type": "function"
    },
    {
      "inputs": [
        {
          "internalType": "address",
          "name": "from",
          "type": "address"
        },
        {
          "internalType": "address",
          "name": "to",
          "type": "address"
        },
        {
          "internalType": "uint256",
          "name": "tokenId",
          "type": "uint256"
        }
      ],
      "name": "safeTransferFrom",
      "outputs": [],
      "stateMutability": "nonpayable",
      "type": "function"
    },
    {
      "inputs": [
        {
          "internalType": "address",
          "name": "from",
          "type": "address"
        },
        {
          "internalType": "address",
          "name": "to",
          "type": "address"
        },
        {
          "internalType": "uint256",
          "name": "tokenId",
          "type": "uint256"
        },
        {
          "internalType": "bytes",
          "name": "_data",
          "type": "bytes"
        }
      ],
      "name": "safeTransferFrom",
      "outputs": [],
      "stateMutability": "nonpayable",
      "type": "function"
    },
    {
      "inputs": [
        {
          "internalType": "address",
          "name": "operator",
          "type": "address"
        },
        {
          "internalType": "bool",
          "name": "approved",
          "type": "bool"
        }
      ],
      "name": "setApprovalForAll",
      "outputs": [],
      "stateMutability": "nonpayable",
      "type": "function"
    },
    {
      "inputs": [
        {
          "internalType": "bytes4",
          "name": "interfaceId",
          "type": "bytes4"
        }
      ],
      "name": "supportsInterface",
      "outputs": [
        {
          "internalType": "bool",
          "name": "",
          "type": "bool"
        }
      ],
      "stateMutability": "view",
      "type": "function"
    },
    {
      "inputs": [],
      "name": "symbol",
      "outputs": [
        {
          "internalType": "string",
          "name": "",
          "type": "string"
        }
      ],
      "stateMutability": "view",
      "type": "function"
    },
    {
      "inputs": [
        {
          "internalType": "uint256",
          "name": "tokenId",
          "type": "uint256"
        }
      ],
      "name": "tokenURI",
      "outputs": [
        {
          "internalType": "string",
          "name": "",
          "type": "string"
        }
      ],
      "stateMutability": "view",
      "type": "function"
    },
    {
      "inputs": [
        {
          "internalType": "address",
          "name": "from",
          "type": "address"
        },
        {
          "internalType": "address",
          "name": "to",
          "type": "address"
        },
        {
          "internalType": "uint256",
          "name": "tokenId",
          "type": "uint256"
        }
      ],
      "name": "transferFrom",
      "outputs": [],
      "stateMutability": "nonpayable",
      "type": "function"
    },
    {
      "inputs": [
        {
          "internalType": "uint256",
          "name": "toknID",
          "type": "uint256"
        },
        {
          "internalType": "uint256",
          "name": "_maxPrice",
          "type": "uint256"
        }
      ],
      "name": "startAuction",
      "outputs": [],
      "stateMutability": "nonpayable",
      "type": "function"
    },
    {
      "inputs": [
        {
          "internalType": "uint256",
          "name": "_toknID",
          "type": "uint256"
        }
      ],
      "name": "bid",
      "outputs": [
        {
          "internalType": "bool",
          "name": "",
          "type": "bool"
        }
      ],
      "stateMutability": "payable",
      "type": "function"
    },
    {
      "inputs": [
        {
          "internalType": "uint256",
          "name": "_toknID",
          "type": "uint256"
        },
        {
          "internalType": "uint256",
          "name": "commission",
          "type": "uint256"
        }
      ],
      "name": "endAuction",
      "outputs": [],
      "stateMutability": "nonpayable",
      "type": "function"
    },
    {
      "inputs": [
        {
          "internalType": "uint256",
          "name": "toknID",
          "type": "uint256"
        }
      ],
      "name": "cancelAuction",
      "outputs": [],
      "stateMutability": "nonpayable",
      "type": "function"
    },
    {
      "inputs": [
        {
          "internalType": "uint256",
          "name": "toknID",
          "type": "uint256"
        },
        {
          "internalType": "uint256",
          "name": "price",
          "type": "uint256"
        }
      ],
      "name": "setMaxPrice",
      "outputs": [
        {
          "internalType": "bool",
          "name": "",
          "type": "bool"
        }
      ],
      "stateMutability": "nonpayable",
      "type": "function"
    }
  ],
  "bytecode": "0x60806040523480156200001157600080fd5b50604051620057c5380380620057c58339818101604052810190620000379190620001ab565b8181818181600090805190602001906200005392919062000089565b5080600190805190602001906200006c92919062000089565b50505060006006819055506000600781905550505050506200034f565b8280546200009790620002bb565b90600052602060002090601f016020900481019282620000bb576000855562000107565b82601f10620000d657805160ff191683800117855562000107565b8280016001018555821562000107579182015b8281111562000106578251825591602001919060010190620000e9565b5b5090506200011691906200011a565b5090565b5b80821115620001355760008160009055506001016200011b565b5090565b6000620001506200014a8462000252565b6200021e565b9050828152602081018484840111156200016957600080fd5b6200017684828562000285565b509392505050565b600082601f8301126200019057600080fd5b8151620001a284826020860162000139565b91505092915050565b60008060408385031215620001bf57600080fd5b600083015167ffffffffffffffff811115620001da57600080fd5b620001e8858286016200017e565b925050602083015167ffffffffffffffff8111156200020657600080fd5b62000214858286016200017e565b9150509250929050565b6000604051905081810181811067ffffffffffffffff8211171562000248576200024762000320565b5b8060405250919050565b600067ffffffffffffffff82111562000270576200026f62000320565b5b601f19601f8301169050602081019050919050565b60005b83811015620002a557808201518184015260208101905062000288565b83811115620002b5576000848401525b50505050565b60006002820490506001821680620002d457607f821691505b60208210811415620002eb57620002ea620002f1565b5b50919050565b7f4e487b7100000000000000000000000000000000000000000000000000000000600052602260045260246000fd5b7f4e487b7100000000000000000000000000000000000000000000000000000000600052604160045260246000fd5b615466806200035f6000396000f3fe608060405260043610620001e25760003560e01c80635da327391162000103578063b88d4fde1162000097578063ca225b97116200006d578063ca225b971462000725578063cd73240f146200076c578063e38d6b5c14620007b0578063e985e9c514620007e057620001e2565b8063b88d4fde1462000683578063bab22d8d14620006b1578063c87b56dd14620006e157620001e2565b806395d89b4111620000d957806395d89b4114620005b357806396b5a75514620005e35780639d1187701462000611578063a22cb465146200065557620001e2565b80635da3273914620004e75780636352211e146200052b57806370a08231146200056f57620001e2565b806323b872dd116200017b578063454a2ab31162000151578063454a2ab3146200042557806347afe437146200045b5780634fee13fc146200048957806354bbdfab14620004b757620001e2565b806323b872dd14620003855780634173ce5b14620003b357806342842e0e14620003f757620001e2565b8063081812fc11620001bd578063081812fc146200028b578063095ea7b314620002cf578063198e2b8a14620002fd578063224c5761146200034157620001e2565b806301ffc9a714620001e757806302d05d3f146200022b57806306fdde03146200025b575b600080fd5b348015620001f457600080fd5b506200021360048036038101906200020d9190620032cb565b62000824565b60405162000222919062003c4e565b60405180910390f35b3480156200023857600080fd5b50620002436200090a565b60405162000252919062003bb0565b60405180910390f35b3480156200026857600080fd5b506200027362000930565b60405162000282919062003c6b565b60405180910390f35b3480156200029857600080fd5b50620002b76004803603810190620002b19190620033c2565b620009ca565b604051620002c6919062003b93565b60405180910390f35b348015620002dc57600080fd5b50620002fb6004803603810190620002f591906200325e565b62000a54565b005b3480156200030a57600080fd5b506200032960048036038101906200032391906200334f565b62000b7d565b60405162000338919062003e6b565b60405180910390f35b3480156200034e57600080fd5b506200036d6004803603810190620003679190620030a9565b62000d3a565b6040516200037c919062003e8f565b60405180910390f35b3480156200039257600080fd5b50620003b16004803603810190620003ab919062003142565b62000d52565b005b348015620003c057600080fd5b50620003df6004803603810190620003d991906200341a565b62000dbb565b604051620003ee919062003c4e565b60405180910390f35b3480156200040457600080fd5b506200042360048036038101906200041d919062003142565b62000f04565b005b6200044360048036038101906200043d9190620033c2565b62000f26565b60405162000452919062003c4e565b60405180910390f35b3480156200046857600080fd5b506200048760048036038101906200048191906200341a565b620010e3565b005b3480156200049657600080fd5b50620004b56004803603810190620004af91906200341a565b6200166c565b005b348015620004c457600080fd5b50620004cf620017e6565b604051620004de919062003e8f565b60405180910390f35b348015620004f457600080fd5b506200051360048036038101906200050d9190620033c2565b620017ec565b60405162000522919062003c4e565b60405180910390f35b3480156200053857600080fd5b50620005576004803603810190620005519190620033c2565b6200180c565b60405162000566919062003b93565b60405180910390f35b3480156200057c57600080fd5b506200059b6004803603810190620005959190620030a9565b620018c1565b604051620005aa919062003e8f565b60405180910390f35b348015620005c057600080fd5b50620005cb6200197c565b604051620005da919062003c6b565b60405180910390f35b348015620005f057600080fd5b506200060f6004803603810190620006099190620033c2565b62001a16565b005b3480156200061e57600080fd5b506200063d6004803603810190620006379190620033c2565b62001bce565b6040516200064c919062003c4e565b60405180910390f35b3480156200066257600080fd5b506200068160048036038101906200067b91906200321d565b62001c64565b005b3480156200069057600080fd5b50620006af6004803603810190620006a9919062003198565b62001df0565b005b348015620006be57600080fd5b50620006c962001e5b565b604051620006d8919062003e8f565b60405180910390f35b348015620006ee57600080fd5b506200070d6004803603810190620007079190620033c2565b62001e61565b6040516200071c919062003c6b565b60405180910390f35b3480156200073257600080fd5b506200075160048036038101906200074b9190620033c2565b62001f15565b60405162000763949392919062003eac565b60405180910390f35b3480156200077957600080fd5b50620007986004803603810190620007929190620033c2565b62002085565b604051620007a7919062003b93565b60405180910390f35b348015620007bd57600080fd5b50620007c8620020b8565b604051620007d7919062003e8f565b60405180910390f35b348015620007ed57600080fd5b506200080c600480360381019062000806919062003101565b620020be565b6040516200081b919062003c4e565b60405180910390f35b60007f80ac58cd000000000000000000000000000000000000000000000000000000007bffffffffffffffffffffffffffffffffffffffffffffffffffffffff1916827bffffffffffffffffffffffffffffffffffffffffffffffffffffffff19161480620008f057507f5b5e139f000000000000000000000000000000000000000000000000000000007bffffffffffffffffffffffffffffffffffffffffffffffffffffffff1916827bffffffffffffffffffffffffffffffffffffffffffffffffffffffff1916145b80620009035750620009028262002152565b5b9050919050565b600960009054906101000a900473ffffffffffffffffffffffffffffffffffffffff1681565b6060600080546200094190620041f5565b80601f01602080910402602001604051908101604052809291908181526020018280546200096f90620041f5565b8015620009c05780601f106200099457610100808354040283529160200191620009c0565b820191906000526020600020905b815481529060010190602001808311620009a257829003601f168201915b5050505050905090565b6000620009d782620021bc565b62000a19576040517f08c379a000000000000000000000000000000000000000000000000000000000815260040162000a109062003dc1565b60405180910390fd5b6004600083815260200190815260200160002060009054906101000a900473ffffffffffffffffffffffffffffffffffffffff169050919050565b600062000a61826200180c565b90508073ffffffffffffffffffffffffffffffffffffffff168373ffffffffffffffffffffffffffffffffffffffff16141562000ad5576040517f08c379a000000000000000000000000000000000000000000000000000000000815260040162000acc9062003e27565b60405180910390fd5b8073ffffffffffffffffffffffffffffffffffffffff1662000af662002228565b73ffffffffffffffffffffffffffffffffffffffff16148062000b2a575062000b298162000b2362002228565b620020be565b5b62000b6c576040517f08c379a000000000000000000000000000000000000000000000000000000000815260040162000b639062003d39565b60405180910390fd5b62000b78838362002230565b505050565b62000b8762002db4565b6006600081548092919062000b9c906200422b565b91905055506007600081548092919062000bb6906200422b565b91905055506000604051806080016040528060065481526020018581526020013373ffffffffffffffffffffffffffffffffffffffff16815260200184815250905080600a6000600654815260200190815260200160002060008201518160000155602082015181600101908051906020019062000c3692919062002df2565b5060408201518160020160006101000a81548173ffffffffffffffffffffffffffffffffffffffff021916908373ffffffffffffffffffffffffffffffffffffffff160217905550606082015181600301908051906020019062000c9c92919062002df2565b509050507f4265c0fca0618144a5f95ac58797316e876c6d2cc3c31e68bdf2c07ad8a53dd160065485338660405162000cd9949392919062003eac565b60405180910390a162000cef33600654620022eb565b33600960006101000a81548173ffffffffffffffffffffffffffffffffffffffff021916908373ffffffffffffffffffffffffffffffffffffffff1602179055508091505092915050565b600d6020528060005260406000206000915090505481565b62000d6762000d6062002228565b826200230b565b62000da9576040517f08c379a000000000000000000000000000000000000000000000000000000000815260040162000da09062003e49565b60405180910390fd5b62000db6838383620023f6565b505050565b60008262000dc981620021bc565b62000dd357600080fd5b600a600085815260200190815260200160002060020160009054906101000a900473ffffffffffffffffffffffffffffffffffffffff1673ffffffffffffffffffffffffffffffffffffffff163373ffffffffffffffffffffffffffffffffffffffff161462000e4257600080fd5b600b600085815260200190815260200160002060009054906101000a900460ff1662000e6d57600080fd5b670de0b6b3a76400008362000e8391906200408a565b600d6000600c600088815260200190815260200160002060009054906101000a900473ffffffffffffffffffffffffffffffffffffffff1673ffffffffffffffffffffffffffffffffffffffff1673ffffffffffffffffffffffffffffffffffffffff16815260200190815260200160002081905550600191505092915050565b62000f218383836040518060200160405280600081525062001df0565b505050565b60008162000f3481620021bc565b62000f3e57600080fd5b600b600084815260200190815260200160002060009054906101000a900460ff1662000f6957600080fd5b6000600c600085815260200190815260200160002060009054906101000a900473ffffffffffffffffffffffffffffffffffffffff1673ffffffffffffffffffffffffffffffffffffffff1663e494015734336040518363ffffffff1660e01b815260040162000fda919062003b93565b6020604051808303818588803b15801562000ff457600080fd5b505af115801562001009573d6000803e3d6000fd5b50505050506040513d601f19601f820116820180604052508101906200103091906200329f565b9050600d6000600c600087815260200190815260200160002060009054906101000a900473ffffffffffffffffffffffffffffffffffffffff1673ffffffffffffffffffffffffffffffffffffffff1673ffffffffffffffffffffffffffffffffffffffff168152602001908152602001600020543410620010d9576000600b600086815260200190815260200160002060006101000a81548160ff0219169083151502179055505b8092505050919050565b81620010ef81620021bc565b620010f957600080fd5b6000600c600085815260200190815260200160002060009054906101000a900473ffffffffffffffffffffffffffffffffffffffff169050600260038111156200116c577f4e487b7100000000000000000000000000000000000000000000000000000000600052602160045260246000fd5b8173ffffffffffffffffffffffffffffffffffffffff16637fb450996040518163ffffffff1660e01b815260040160206040518083038186803b158015620011b357600080fd5b505afa158015620011c8573d6000803e3d6000fd5b505050506040513d601f19601f82011682018060405250810190620011ee919062003323565b600381111562001227577f4e487b7100000000000000000000000000000000000000000000000000000000600052602160045260246000fd5b14156200123357600080fd5b6200123f33856200230b565b8015620012f857508073ffffffffffffffffffffffffffffffffffffffff16638da5cb5b6040518163ffffffff1660e01b815260040160206040518083038186803b1580156200128e57600080fd5b505afa158015620012a3573d6000803e3d6000fd5b505050506040513d601f19601f82011682018060405250810190620012c99190620030d5565b73ffffffffffffffffffffffffffffffffffffffff163373ffffffffffffffffffffffffffffffffffffffff16145b6200130257600080fd5b8073ffffffffffffffffffffffffffffffffffffffff1663f77282ab6040518163ffffffff1660e01b8152600401600060405180830381600087803b1580156200134b57600080fd5b505af115801562001360573d6000803e3d6000fd5b505050508073ffffffffffffffffffffffffffffffffffffffff166391f901576040518163ffffffff1660e01b815260040160206040518083038186803b158015620013ab57600080fd5b505afa158015620013c0573d6000803e3d6000fd5b505050506040513d601f19601f82011682018060405250810190620013e69190620030d5565b600a600086815260200190815260200160002060020160006101000a81548173ffffffffffffffffffffffffffffffffffffffff021916908373ffffffffffffffffffffffffffffffffffffffff1602179055506000670de0b6b3a76400008273ffffffffffffffffffffffffffffffffffffffff1663d57bde796040518163ffffffff1660e01b815260040160206040518083038186803b1580156200148c57600080fd5b505afa158015620014a1573d6000803e3d6000fd5b505050506040513d601f19601f82011682018060405250810190620014c79190620033ee565b620014d3919062004052565b9050600060648583620014e791906200408a565b620014f3919062004052565b9050600960009054906101000a900473ffffffffffffffffffffffffffffffffffffffff1673ffffffffffffffffffffffffffffffffffffffff166108fc670de0b6b3a7640000836200154791906200408a565b9081150290604051600060405180830381858888f1935050505015801562001573573d6000803e3d6000fd5b5062001602338473ffffffffffffffffffffffffffffffffffffffff166391f901576040518163ffffffff1660e01b815260040160206040518083038186803b158015620015c057600080fd5b505afa158015620015d5573d6000803e3d6000fd5b505050506040513d601f19601f82011682018060405250810190620015fb9190620030d5565b8862000f04565b6000600b600088815260200190815260200160002060006101000a81548160ff021916908315150217905550600c600087815260200190815260200160002060006101000a81549073ffffffffffffffffffffffffffffffffffffffff0219169055505050505050565b816200167881620021bc565b6200168257600080fd5b6200168e33846200230b565b6200169857600080fd5b60001515600b600085815260200190815260200160002060009054906101000a900460ff16151514620016ca57600080fd5b60003384604051620016dc9062002e83565b620016e992919062003bcd565b604051809103906000f08015801562001706573d6000803e3d6000fd5b509050670de0b6b3a7640000836200171f91906200408a565b600d60008373ffffffffffffffffffffffffffffffffffffffff1673ffffffffffffffffffffffffffffffffffffffff168152602001908152602001600020819055506001600b600086815260200190815260200160002060006101000a81548160ff02191690831515021790555080600c600086815260200190815260200160002060006101000a81548173ffffffffffffffffffffffffffffffffffffffff021916908373ffffffffffffffffffffffffffffffffffffffff16021790555050505050565b60075481565b600b6020528060005260406000206000915054906101000a900460ff1681565b6000806002600084815260200190815260200160002060009054906101000a900473ffffffffffffffffffffffffffffffffffffffff169050600073ffffffffffffffffffffffffffffffffffffffff168173ffffffffffffffffffffffffffffffffffffffff161415620018b8576040517f08c379a0000000000000000000000000000000000000000000000000000000008152600401620018af9062003d7d565b60405180910390fd5b80915050919050565b60008073ffffffffffffffffffffffffffffffffffffffff168273ffffffffffffffffffffffffffffffffffffffff16141562001935576040517f08c379a00000000000000000000000000000000000000000000000000000000081526004016200192c9062003d5b565b60405180910390fd5b600360008373ffffffffffffffffffffffffffffffffffffffff1673ffffffffffffffffffffffffffffffffffffffff168152602001908152602001600020549050919050565b6060600180546200198d90620041f5565b80601f0160208091040260200160405190810160405280929190818152602001828054620019bb90620041f5565b801562001a0c5780601f10620019e05761010080835404028352916020019162001a0c565b820191906000526020600020905b815481529060010190602001808311620019ee57829003601f168201915b5050505050905090565b8062001a2281620021bc565b62001a2c57600080fd5b600a600083815260200190815260200160002060020160009054906101000a900473ffffffffffffffffffffffffffffffffffffffff1673ffffffffffffffffffffffffffffffffffffffff163373ffffffffffffffffffffffffffffffffffffffff161462001a9b57600080fd5b600b600083815260200190815260200160002060009054906101000a900460ff1662001ac657600080fd5b600c600083815260200190815260200160002060009054906101000a900473ffffffffffffffffffffffffffffffffffffffff1673ffffffffffffffffffffffffffffffffffffffff1663d22cf3a4336040518263ffffffff1660e01b815260040162001b34919062003b93565b600060405180830381600087803b15801562001b4f57600080fd5b505af115801562001b64573d6000803e3d6000fd5b505050506000600b600084815260200190815260200160002060006101000a81548160ff021916908315150217905550600c600083815260200190815260200160002060006101000a81549073ffffffffffffffffffffffffffffffffffffffff02191690555050565b60008162001bdc81620021bc565b62001be657600080fd5b62001bf18362002662565b600a600084815260200190815260200160002060008082016000905560018201600062001c1f919062002e91565b6002820160006101000a81549073ffffffffffffffffffffffffffffffffffffffff021916905560038201600062001c58919062002e91565b50506001915050919050565b62001c6e62002228565b73ffffffffffffffffffffffffffffffffffffffff168273ffffffffffffffffffffffffffffffffffffffff16141562001cdf576040517f08c379a000000000000000000000000000000000000000000000000000000000815260040162001cd69062003cf5565b60405180910390fd5b806005600062001cee62002228565b73ffffffffffffffffffffffffffffffffffffffff1673ffffffffffffffffffffffffffffffffffffffff16815260200190815260200160002060008473ffffffffffffffffffffffffffffffffffffffff1673ffffffffffffffffffffffffffffffffffffffff16815260200190815260200160002060006101000a81548160ff0219169083151502179055508173ffffffffffffffffffffffffffffffffffffffff1662001d9d62002228565b73ffffffffffffffffffffffffffffffffffffffff167f17307eab39ab6107e8899845ad3d59bd9653f200f220920489ca2b5937696c318360405162001de4919062003c4e565b60405180910390a35050565b62001e0562001dfe62002228565b836200230b565b62001e47576040517f08c379a000000000000000000000000000000000000000000000000000000000815260040162001e3e9062003e49565b60405180910390fd5b62001e55848484846200277b565b50505050565b60065481565b606062001e6e82620021bc565b62001eb0576040517f08c379a000000000000000000000000000000000000000000000000000000000815260040162001ea79062003e05565b60405180910390fd5b600062001ebc620027de565b9050600081511162001ede576040518060200160405280600081525062001f0d565b8062001eea84620027f5565b60405160200162001efd92919062003b6b565b6040516020818303038152906040525b915050919050565b600a60205280600052604060002060009150905080600001549080600101805462001f4090620041f5565b80601f016020809104026020016040519081016040528092919081815260200182805462001f6e90620041f5565b801562001fbf5780601f1062001f935761010080835404028352916020019162001fbf565b820191906000526020600020905b81548152906001019060200180831162001fa157829003601f168201915b5050505050908060020160009054906101000a900473ffffffffffffffffffffffffffffffffffffffff169080600301805462001ffc90620041f5565b80601f01602080910402602001604051908101604052809291908181526020018280546200202a90620041f5565b80156200207b5780601f106200204f576101008083540402835291602001916200207b565b820191906000526020600020905b8154815290600101906020018083116200205d57829003601f168201915b5050505050905084565b600c6020528060005260406000206000915054906101000a900473ffffffffffffffffffffffffffffffffffffffff1681565b60085481565b6000600560008473ffffffffffffffffffffffffffffffffffffffff1673ffffffffffffffffffffffffffffffffffffffff16815260200190815260200160002060008373ffffffffffffffffffffffffffffffffffffffff1673ffffffffffffffffffffffffffffffffffffffff16815260200190815260200160002060009054906101000a900460ff16905092915050565b60007f01ffc9a7000000000000000000000000000000000000000000000000000000007bffffffffffffffffffffffffffffffffffffffffffffffffffffffff1916827bffffffffffffffffffffffffffffffffffffffffffffffffffffffff1916149050919050565b60008073ffffffffffffffffffffffffffffffffffffffff166002600084815260200190815260200160002060009054906101000a900473ffffffffffffffffffffffffffffffffffffffff1673ffffffffffffffffffffffffffffffffffffffff1614159050919050565b600033905090565b816004600083815260200190815260200160002060006101000a81548173ffffffffffffffffffffffffffffffffffffffff021916908373ffffffffffffffffffffffffffffffffffffffff160217905550808273ffffffffffffffffffffffffffffffffffffffff16620022a5836200180c565b73ffffffffffffffffffffffffffffffffffffffff167f8c5be1e5ebec7d5bd14f71427d1e84f3dd0314c0f7b2291e5b200ac8c7c3b92560405160405180910390a45050565b62002307828260405180602001604052806000815250620029b7565b5050565b60006200231882620021bc565b6200235a576040517f08c379a0000000000000000000000000000000000000000000000000000000008152600401620023519062003d17565b60405180910390fd5b600062002367836200180c565b90508073ffffffffffffffffffffffffffffffffffffffff168473ffffffffffffffffffffffffffffffffffffffff161480620023d957508373ffffffffffffffffffffffffffffffffffffffff16620023c184620009ca565b73ffffffffffffffffffffffffffffffffffffffff16145b80620023ed5750620023ec8185620020be565b5b91505092915050565b8273ffffffffffffffffffffffffffffffffffffffff1662002418826200180c565b73ffffffffffffffffffffffffffffffffffffffff161462002471576040517f08c379a0000000000000000000000000000000000000000000000000000000008152600401620024689062003de3565b60405180910390fd5b600073ffffffffffffffffffffffffffffffffffffffff168273ffffffffffffffffffffffffffffffffffffffff161415620024e4576040517f08c379a0000000000000000000000000000000000000000000000000000000008152600401620024db9062003cd3565b60405180910390fd5b620024f183838362002a19565b620024fe60008262002230565b6001600360008573ffffffffffffffffffffffffffffffffffffffff1673ffffffffffffffffffffffffffffffffffffffff1681526020019081526020016000206000828254620025509190620040eb565b925050819055506001600360008473ffffffffffffffffffffffffffffffffffffffff1673ffffffffffffffffffffffffffffffffffffffff1681526020019081526020016000206000828254620025a9919062003ff5565b92505081905550816002600083815260200190815260200160002060006101000a81548173ffffffffffffffffffffffffffffffffffffffff021916908373ffffffffffffffffffffffffffffffffffffffff160217905550808273ffffffffffffffffffffffffffffffffffffffff168473ffffffffffffffffffffffffffffffffffffffff167fddf252ad1be2c89b69c2b068fc378daa952ba7f163c4a11628f55a4df523b3ef60405160405180910390a4505050565b60006200266f826200180c565b90506200267f8160008462002a19565b6200268c60008362002230565b6001600360008373ffffffffffffffffffffffffffffffffffffffff1673ffffffffffffffffffffffffffffffffffffffff1681526020019081526020016000206000828254620026de9190620040eb565b925050819055506002600083815260200190815260200160002060006101000a81549073ffffffffffffffffffffffffffffffffffffffff021916905581600073ffffffffffffffffffffffffffffffffffffffff168273ffffffffffffffffffffffffffffffffffffffff167fddf252ad1be2c89b69c2b068fc378daa952ba7f163c4a11628f55a4df523b3ef60405160405180910390a45050565b62002788848484620023f6565b620027968484848462002a1e565b620027d8576040517f08c379a0000000000000000000000000000000000000000000000000000000008152600401620027cf9062003c8f565b60405180910390fd5b50505050565b606060405180602001604052806000815250905090565b606060008214156200283f576040518060400160405280600181526020017f30000000000000000000000000000000000000000000000000000000000000008152509050620029b2565b600082905060005b60008214620028775780806200285d906200422b565b915050600a826200286f919062004052565b915062002847565b60008167ffffffffffffffff811115620028ba577f4e487b7100000000000000000000000000000000000000000000000000000000600052604160045260246000fd5b6040519080825280601f01601f191660200182016040528015620028ed5781602001600182028036833780820191505090505b5090505b60008514620029ab57600182620029099190620040eb565b9150600a856200291a919062004279565b603062002928919062003ff5565b60f81b81838151811062002965577f4e487b7100000000000000000000000000000000000000000000000000000000600052603260045260246000fd5b60200101907effffffffffffffffffffffffffffffffffffffffffffffffffffffffffffff1916908160001a905350600a85620029a3919062004052565b9450620028f1565b8093505050505b919050565b620029c3838362002bc7565b620029d2600084848462002a1e565b62002a14576040517f08c379a000000000000000000000000000000000000000000000000000000000815260040162002a0b9062003c8f565b60405180910390fd5b505050565b505050565b600062002a418473ffffffffffffffffffffffffffffffffffffffff1662002da1565b1562002bba578373ffffffffffffffffffffffffffffffffffffffff1663150b7a0262002a6d62002228565b8786866040518563ffffffff1660e01b815260040162002a91949392919062003bfa565b602060405180830381600087803b15801562002aac57600080fd5b505af192505050801562002ae057506040513d601f19601f8201168201806040525081019062002add9190620032f7565b60015b62002b69573d806000811462002b13576040519150601f19603f3d011682016040523d82523d6000602084013e62002b18565b606091505b5060008151141562002b61576040517f08c379a000000000000000000000000000000000000000000000000000000000815260040162002b589062003c8f565b60405180910390fd5b805181602001fd5b63150b7a0260e01b7bffffffffffffffffffffffffffffffffffffffffffffffffffffffff1916817bffffffffffffffffffffffffffffffffffffffffffffffffffffffff19161491505062002bbf565b600190505b949350505050565b600073ffffffffffffffffffffffffffffffffffffffff168273ffffffffffffffffffffffffffffffffffffffff16141562002c3a576040517f08c379a000000000000000000000000000000000000000000000000000000000815260040162002c319062003d9f565b60405180910390fd5b62002c4581620021bc565b1562002c88576040517f08c379a000000000000000000000000000000000000000000000000000000000815260040162002c7f9062003cb1565b60405180910390fd5b62002c966000838362002a19565b6001600360008473ffffffffffffffffffffffffffffffffffffffff1673ffffffffffffffffffffffffffffffffffffffff168152602001908152602001600020600082825462002ce8919062003ff5565b92505081905550816002600083815260200190815260200160002060006101000a81548173ffffffffffffffffffffffffffffffffffffffff021916908373ffffffffffffffffffffffffffffffffffffffff160217905550808273ffffffffffffffffffffffffffffffffffffffff16600073ffffffffffffffffffffffffffffffffffffffff167fddf252ad1be2c89b69c2b068fc378daa952ba7f163c4a11628f55a4df523b3ef60405160405180910390a45050565b600080823b905060008111915050919050565b60405180608001604052806000815260200160608152602001600073ffffffffffffffffffffffffffffffffffffffff168152602001606081525090565b82805462002e0090620041f5565b90600052602060002090601f01602090048101928262002e24576000855562002e70565b82601f1062002e3f57805160ff191683800117855562002e70565b8280016001018555821562002e70579182015b8281111562002e6f57825182559160200191906001019062002e52565b5b50905062002e7f919062002ed7565b5090565b61101f806200441283390190565b50805462002e9f90620041f5565b6000825580601f1062002eb3575062002ed4565b601f01602090049060005260206000209081019062002ed3919062002ed7565b5b50565b5b8082111562002ef257600081600090555060010162002ed8565b5090565b600062002f0d62002f078462003f3b565b62003f07565b90508281526020810184848401111562002f2657600080fd5b62002f33848285620041b0565b509392505050565b600062002f5262002f4c8462003f6e565b62003f07565b90508281526020810184848401111562002f6b57600080fd5b62002f78848285620041b0565b509392505050565b60008135905062002f91816200437e565b92915050565b60008151905062002fa88162004398565b92915050565b60008135905062002fbf81620043b2565b92915050565b60008151905062002fd681620043b2565b92915050565b60008135905062002fed81620043cc565b92915050565b6000815190506200300481620043cc565b92915050565b600082601f8301126200301c57600080fd5b81356200302e84826020860162002ef6565b91505092915050565b6000815190506200304881620043e6565b92915050565b600082601f8301126200306057600080fd5b81356200307284826020860162002f3b565b91505092915050565b6000813590506200308c81620043f7565b92915050565b600081519050620030a381620043f7565b92915050565b600060208284031215620030bc57600080fd5b6000620030cc8482850162002f80565b91505092915050565b600060208284031215620030e857600080fd5b6000620030f88482850162002f97565b91505092915050565b600080604083850312156200311557600080fd5b6000620031258582860162002f80565b9250506020620031388582860162002f80565b9150509250929050565b6000806000606084860312156200315857600080fd5b6000620031688682870162002f80565b93505060206200317b8682870162002f80565b92505060406200318e868287016200307b565b9150509250925092565b60008060008060808587031215620031af57600080fd5b6000620031bf8782880162002f80565b9450506020620031d28782880162002f80565b9350506040620031e5878288016200307b565b925050606085013567ffffffffffffffff8111156200320357600080fd5b62003211878288016200300a565b91505092959194509250565b600080604083850312156200323157600080fd5b6000620032418582860162002f80565b9250506020620032548582860162002fae565b9150509250929050565b600080604083850312156200327257600080fd5b6000620032828582860162002f80565b925050602062003295858286016200307b565b9150509250929050565b600060208284031215620032b257600080fd5b6000620032c28482850162002fc5565b91505092915050565b600060208284031215620032de57600080fd5b6000620032ee8482850162002fdc565b91505092915050565b6000602082840312156200330a57600080fd5b60006200331a8482850162002ff3565b91505092915050565b6000602082840312156200333657600080fd5b6000620033468482850162003037565b91505092915050565b600080604083850312156200336357600080fd5b600083013567ffffffffffffffff8111156200337e57600080fd5b6200338c858286016200304e565b925050602083013567ffffffffffffffff811115620033aa57600080fd5b620033b8858286016200304e565b9150509250929050565b600060208284031215620033d557600080fd5b6000620033e5848285016200307b565b91505092915050565b6000602082840312156200340157600080fd5b6000620034118482850162003092565b91505092915050565b600080604083850312156200342e57600080fd5b60006200343e858286016200307b565b925050602062003451858286016200307b565b9150509250929050565b62003466816200413a565b82525050565b620034778162004126565b82525050565b620034888162004126565b82525050565b62003499816200414e565b82525050565b6000620034ac8262003fa1565b620034b8818562003fb7565b9350620034ca818560208601620041bf565b620034d5816200436d565b840191505092915050565b6000620034ed8262003fac565b620034f9818562003fc8565b93506200350b818560208601620041bf565b62003516816200436d565b840191505092915050565b60006200352e8262003fac565b6200353a818562003fd9565b93506200354c818560208601620041bf565b62003557816200436d565b840191505092915050565b60006200356f8262003fac565b6200357b818562003fea565b93506200358d818560208601620041bf565b80840191505092915050565b6000620035a860328362003fd9565b91507f4552433732313a207472616e7366657220746f206e6f6e20455243373231526560008301527f63656976657220696d706c656d656e74657200000000000000000000000000006020830152604082019050919050565b600062003610601c8362003fd9565b91507f4552433732313a20746f6b656e20616c7265616479206d696e746564000000006000830152602082019050919050565b60006200365260248362003fd9565b91507f4552433732313a207472616e7366657220746f20746865207a65726f2061646460008301527f72657373000000000000000000000000000000000000000000000000000000006020830152604082019050919050565b6000620036ba60198362003fd9565b91507f4552433732313a20617070726f766520746f2063616c6c6572000000000000006000830152602082019050919050565b6000620036fc602c8362003fd9565b91507f4552433732313a206f70657261746f7220717565727920666f72206e6f6e657860008301527f697374656e7420746f6b656e00000000000000000000000000000000000000006020830152604082019050919050565b60006200376460388362003fd9565b91507f4552433732313a20617070726f76652063616c6c6572206973206e6f74206f7760008301527f6e6572206e6f7220617070726f76656420666f7220616c6c00000000000000006020830152604082019050919050565b6000620037cc602a8362003fd9565b91507f4552433732313a2062616c616e636520717565727920666f7220746865207a6560008301527f726f2061646472657373000000000000000000000000000000000000000000006020830152604082019050919050565b60006200383460298362003fd9565b91507f4552433732313a206f776e657220717565727920666f72206e6f6e657869737460008301527f656e7420746f6b656e00000000000000000000000000000000000000000000006020830152604082019050919050565b60006200389c60208362003fd9565b91507f4552433732313a206d696e7420746f20746865207a65726f20616464726573736000830152602082019050919050565b6000620038de602c8362003fd9565b91507f4552433732313a20617070726f76656420717565727920666f72206e6f6e657860008301527f697374656e7420746f6b656e00000000000000000000000000000000000000006020830152604082019050919050565b60006200394660298362003fd9565b91507f4552433732313a207472616e73666572206f6620746f6b656e2074686174206960008301527f73206e6f74206f776e00000000000000000000000000000000000000000000006020830152604082019050919050565b6000620039ae602f8362003fd9565b91507f4552433732314d657461646174613a2055524920717565727920666f72206e6f60008301527f6e6578697374656e7420746f6b656e00000000000000000000000000000000006020830152604082019050919050565b600062003a1660218362003fd9565b91507f4552433732313a20617070726f76616c20746f2063757272656e74206f776e6560008301527f72000000000000000000000000000000000000000000000000000000000000006020830152604082019050919050565b600062003a7e60318362003fd9565b91507f4552433732313a207472616e736665722063616c6c6572206973206e6f74206f60008301527f776e6572206e6f7220617070726f7665640000000000000000000000000000006020830152604082019050919050565b600060808301600083015162003af1600086018262003b49565b506020830151848203602086015262003b0b8282620034e0565b915050604083015162003b2260408601826200346c565b506060830151848203606086015262003b3c8282620034e0565b9150508091505092915050565b62003b5481620041a6565b82525050565b62003b6581620041a6565b82525050565b600062003b79828562003562565b915062003b87828462003562565b91508190509392505050565b600060208201905062003baa60008301846200347d565b92915050565b600060208201905062003bc760008301846200345b565b92915050565b600060408201905062003be460008301856200345b565b62003bf3602083018462003b5a565b9392505050565b600060808201905062003c1160008301876200347d565b62003c2060208301866200347d565b62003c2f604083018562003b5a565b818103606083015262003c4381846200349f565b905095945050505050565b600060208201905062003c6560008301846200348e565b92915050565b6000602082019050818103600083015262003c87818462003521565b905092915050565b6000602082019050818103600083015262003caa8162003599565b9050919050565b6000602082019050818103600083015262003ccc8162003601565b9050919050565b6000602082019050818103600083015262003cee8162003643565b9050919050565b6000602082019050818103600083015262003d1081620036ab565b9050919050565b6000602082019050818103600083015262003d3281620036ed565b9050919050565b6000602082019050818103600083015262003d548162003755565b9050919050565b6000602082019050818103600083015262003d7681620037bd565b9050919050565b6000602082019050818103600083015262003d988162003825565b9050919050565b6000602082019050818103600083015262003dba816200388d565b9050919050565b6000602082019050818103600083015262003ddc81620038cf565b9050919050565b6000602082019050818103600083015262003dfe8162003937565b9050919050565b6000602082019050818103600083015262003e20816200399f565b9050919050565b6000602082019050818103600083015262003e428162003a07565b9050919050565b6000602082019050818103600083015262003e648162003a6f565b9050919050565b6000602082019050818103600083015262003e87818462003ad7565b905092915050565b600060208201905062003ea6600083018462003b5a565b92915050565b600060808201905062003ec3600083018762003b5a565b818103602083015262003ed7818662003521565b905062003ee860408301856200347d565b818103606083015262003efc818462003521565b905095945050505050565b6000604051905081810181811067ffffffffffffffff8211171562003f315762003f306200433e565b5b8060405250919050565b600067ffffffffffffffff82111562003f595762003f586200433e565b5b601f19601f8301169050602081019050919050565b600067ffffffffffffffff82111562003f8c5762003f8b6200433e565b5b601f19601f8301169050602081019050919050565b600081519050919050565b600081519050919050565b600082825260208201905092915050565b600082825260208201905092915050565b600082825260208201905092915050565b600081905092915050565b60006200400282620041a6565b91506200400f83620041a6565b9250827fffffffffffffffffffffffffffffffffffffffffffffffffffffffffffffffff03821115620040475762004046620042b1565b5b828201905092915050565b60006200405f82620041a6565b91506200406c83620041a6565b9250826200407f576200407e620042e0565b5b828204905092915050565b60006200409782620041a6565b9150620040a483620041a6565b9250817fffffffffffffffffffffffffffffffffffffffffffffffffffffffffffffffff0483118215151615620040e057620040df620042b1565b5b828202905092915050565b6000620040f882620041a6565b91506200410583620041a6565b9250828210156200411b576200411a620042b1565b5b828203905092915050565b6000620041338262004186565b9050919050565b6000620041478262004186565b9050919050565b60008115159050919050565b60007fffffffff0000000000000000000000000000000000000000000000000000000082169050919050565b600073ffffffffffffffffffffffffffffffffffffffff82169050919050565b6000819050919050565b82818337600083830152505050565b60005b83811015620041df578082015181840152602081019050620041c2565b83811115620041ef576000848401525b50505050565b600060028204905060018216806200420e57607f821691505b602082108114156200422557620042246200430f565b5b50919050565b60006200423882620041a6565b91507fffffffffffffffffffffffffffffffffffffffffffffffffffffffffffffffff8214156200426e576200426d620042b1565b5b600182019050919050565b60006200428682620041a6565b91506200429383620041a6565b925082620042a657620042a5620042e0565b5b828206905092915050565b7f4e487b7100000000000000000000000000000000000000000000000000000000600052601160045260246000fd5b7f4e487b7100000000000000000000000000000000000000000000000000000000600052601260045260246000fd5b7f4e487b7100000000000000000000000000000000000000000000000000000000600052602260045260246000fd5b7f4e487b7100000000000000000000000000000000000000000000000000000000600052604160045260246000fd5b6000601f19601f8301169050919050565b620043898162004126565b81146200439557600080fd5b50565b620043a3816200413a565b8114620043af57600080fd5b50565b620043bd816200414e565b8114620043c957600080fd5b50565b620043d7816200415a565b8114620043e357600080fd5b50565b60048110620043f457600080fd5b50565b6200440281620041a6565b81146200440e57600080fd5b5056fe60806040523480156200001157600080fd5b506040516200101f3803806200101f833981810160405281019062000037919062000106565b816000806101000a81548173ffffffffffffffffffffffffffffffffffffffff021916908373ffffffffffffffffffffffffffffffffffffffff1602179055506001600360006101000a81548160ff02191690836003811115620000c4577f4e487b7100000000000000000000000000000000000000000000000000000000600052602160045260246000fd5b0217905550806001819055505050620001b9565b600081519050620000e98162000185565b92915050565b60008151905062000100816200019f565b92915050565b600080604083850312156200011a57600080fd5b60006200012a85828601620000d8565b92505060206200013d85828601620000ef565b9150509250929050565b600062000154826200015b565b9050919050565b600073ffffffffffffffffffffffffffffffffffffffff82169050919050565b6000819050919050565b620001908162000147565b81146200019c57600080fd5b50565b620001aa816200017b565b8114620001b657600080fd5b50565b610e5680620001c96000396000f3fe6080604052600436106100915760003560e01c8063cff29dfd11610059578063cff29dfd1461017f578063d22cf3a4146101bc578063d57bde79146101e5578063e494015714610210578063f77282ab1461024057610091565b80631b2b1f7d1461009657806362ea82db146100c15780637fb45099146100fe5780638da5cb5b1461012957806391f9015714610154575b600080fd5b3480156100a257600080fd5b506100ab610257565b6040516100b89190610c47565b60405180910390f35b3480156100cd57600080fd5b506100e860048036038101906100e39190610b68565b61025d565b6040516100f59190610c47565b60405180910390f35b34801561010a57600080fd5b50610113610275565b6040516101209190610c2c565b60405180910390f35b34801561013557600080fd5b5061013e610288565b60405161014b9190610bf6565b60405180910390f35b34801561016057600080fd5b506101696102ac565b6040516101769190610bf6565b60405180910390f35b34801561018b57600080fd5b506101a660048036038101906101a19190610b91565b6102d2565b6040516101b39190610bf6565b60405180910390f35b3480156101c857600080fd5b506101e360048036038101906101de9190610b68565b610311565b005b3480156101f157600080fd5b506101fa61052c565b6040516102079190610c47565b60405180910390f35b61022a60048036038101906102259190610b68565b610532565b6040516102379190610c11565b60405180910390f35b34801561024c57600080fd5b506102556107cc565b005b60015481565b60066020528060005260406000206000915090505481565b600360009054906101000a900460ff1681565b60008054906101000a900473ffffffffffffffffffffffffffffffffffffffff1681565b600560009054906101000a900473ffffffffffffffffffffffffffffffffffffffff1681565b600281815481106102e257600080fd5b906000526020600020016000915054906101000a900473ffffffffffffffffffffffffffffffffffffffff1681565b60008054906101000a900473ffffffffffffffffffffffffffffffffffffffff1673ffffffffffffffffffffffffffffffffffffffff168173ffffffffffffffffffffffffffffffffffffffff161461036957600080fd5b60038060006101000a81548160ff021916908360038111156103b4577f4e487b7100000000000000000000000000000000000000000000000000000000600052602160045260246000fd5b021790555060005b6002805490508110156105285760028181548110610403577f4e487b7100000000000000000000000000000000000000000000000000000000600052603260045260246000fd5b9060005260206000200160009054906101000a900473ffffffffffffffffffffffffffffffffffffffff1673ffffffffffffffffffffffffffffffffffffffff166108fc6006600060028581548110610485577f4e487b7100000000000000000000000000000000000000000000000000000000600052603260045260246000fd5b9060005260206000200160009054906101000a900473ffffffffffffffffffffffffffffffffffffffff1673ffffffffffffffffffffffffffffffffffffffff1673ffffffffffffffffffffffffffffffffffffffff168152602001908152602001600020549081150290604051600060405180830381858888f19350505050158015610516573d6000803e3d6000fd5b508061052190610d37565b90506103bc565b5050565b60045481565b60008060009054906101000a900473ffffffffffffffffffffffffffffffffffffffff1673ffffffffffffffffffffffffffffffffffffffff168273ffffffffffffffffffffffffffffffffffffffff16141561058e57600080fd5b600160038111156105c8577f4e487b7100000000000000000000000000000000000000000000000000000000600052602160045260246000fd5b600360009054906101000a900460ff166003811115610610577f4e487b7100000000000000000000000000000000000000000000000000000000600052602160045260246000fd5b1461061a57600080fd5b66038d7ea4c68000341161062d57600080fd5b6000600660008473ffffffffffffffffffffffffffffffffffffffff1673ffffffffffffffffffffffffffffffffffffffff1681526020019081526020016000205414156106d9576002829080600181540180825580915050600190039060005260206000200160009091909190916101000a81548173ffffffffffffffffffffffffffffffffffffffff021916908373ffffffffffffffffffffffffffffffffffffffff1602179055505b600034600660008573ffffffffffffffffffffffffffffffffffffffff1673ffffffffffffffffffffffffffffffffffffffff168152602001908152602001600020546107269190610c62565b9050600454811161073657600080fd5b80600660008573ffffffffffffffffffffffffffffffffffffffff1673ffffffffffffffffffffffffffffffffffffffff168152602001908152602001600020819055508060048190555082600560006101000a81548173ffffffffffffffffffffffffffffffffffffffff021916908373ffffffffffffffffffffffffffffffffffffffff1602179055506001915050919050565b600380811115610805577f4e487b7100000000000000000000000000000000000000000000000000000000600052602160045260246000fd5b600360009054906101000a900460ff16600381111561084d577f4e487b7100000000000000000000000000000000000000000000000000000000600052602160045260246000fd5b141561085857600080fd5b60008054906101000a900473ffffffffffffffffffffffffffffffffffffffff1673ffffffffffffffffffffffffffffffffffffffff166108fc6004549081150290604051600060405180830381858888f193505050501580156108c0573d6000803e3d6000fd5b5060005b600280549050811015610aea57600560009054906101000a900473ffffffffffffffffffffffffffffffffffffffff1673ffffffffffffffffffffffffffffffffffffffff1660028281548110610944577f4e487b7100000000000000000000000000000000000000000000000000000000600052603260045260246000fd5b9060005260206000200160009054906101000a900473ffffffffffffffffffffffffffffffffffffffff1673ffffffffffffffffffffffffffffffffffffffff1614610ad957600281815481106109c4577f4e487b7100000000000000000000000000000000000000000000000000000000600052603260045260246000fd5b9060005260206000200160009054906101000a900473ffffffffffffffffffffffffffffffffffffffff1673ffffffffffffffffffffffffffffffffffffffff166108fc6006600060028581548110610a46577f4e487b7100000000000000000000000000000000000000000000000000000000600052603260045260246000fd5b9060005260206000200160009054906101000a900473ffffffffffffffffffffffffffffffffffffffff1673ffffffffffffffffffffffffffffffffffffffff1673ffffffffffffffffffffffffffffffffffffffff168152602001908152602001600020549081150290604051600060405180830381858888f19350505050158015610ad7573d6000803e3d6000fd5b505b80610ae390610d37565b90506108c4565b506002600360006101000a81548160ff02191690836003811115610b37577f4e487b7100000000000000000000000000000000000000000000000000000000600052602160045260246000fd5b0217905550565b600081359050610b4d81610df2565b92915050565b600081359050610b6281610e09565b92915050565b600060208284031215610b7a57600080fd5b6000610b8884828501610b3e565b91505092915050565b600060208284031215610ba357600080fd5b6000610bb184828501610b53565b91505092915050565b610bc381610cca565b82525050565b610bd281610cdc565b82525050565b610be181610d25565b82525050565b610bf081610d1b565b82525050565b6000602082019050610c0b6000830184610bba565b92915050565b6000602082019050610c266000830184610bc9565b92915050565b6000602082019050610c416000830184610bd8565b92915050565b6000602082019050610c5c6000830184610be7565b92915050565b6000610c6d82610d1b565b9150610c7883610d1b565b9250827fffffffffffffffffffffffffffffffffffffffffffffffffffffffffffffffff03821115610cad57610cac610d80565b5b828201905092915050565b6000610cc382610cfb565b9050919050565b6000610cd582610cfb565b9050919050565b60008115159050919050565b6000819050610cf682610dde565b919050565b600073ffffffffffffffffffffffffffffffffffffffff82169050919050565b6000819050919050565b6000610d3082610ce8565b9050919050565b6000610d4282610d1b565b91507fffffffffffffffffffffffffffffffffffffffffffffffffffffffffffffffff821415610d7557610d74610d80565b5b600182019050919050565b7f4e487b7100000000000000000000000000000000000000000000000000000000600052601160045260246000fd5b7f4e487b7100000000000000000000000000000000000000000000000000000000600052602160045260246000fd5b60048110610def57610dee610daf565b5b50565b610dfb81610cb8565b8114610e0657600080fd5b50565b610e1281610d1b565b8114610e1d57600080fd5b5056fea26469706673582212204190294ef1ef1788e9d2f5635115584f39dacdbf14e3e9214d28a7da7ea8653164736f6c63430008000033a2646970667358221220cbf8fd46f5d3ebc64fef9c2b2ab8f23f6d60a7719a6a164e0c23832ccb9443d764736f6c63430008000033",
  "immutableReferences": {},
  "source": "pragma solidity ^0.8.0;\r\n\r\nimport \"./ToknCollectible.sol\";\r\nimport \"./Auction.sol\";\r\n\r\ncontract ToknBidding is ToknCollectible{\r\n\r\n  // uint256 collectibleID;\r\n  // address payable creator;\r\n  // address payable owner;\r\n\r\n    mapping(uint256=> bool) public runningAuction;\r\n  mapping(uint256=> address) public currentAuctionForTokn;\r\n  mapping(address=> uint) public auctionMaxPrice;\r\n  \r\n  constructor(string memory name, string memory symbol) public ToknCollectible(name, symbol){\r\n    // collectibleID = _toknID;\r\n    // creator = payable(_creator);\r\n    // owner = payable(msg.sender);\r\n  }\r\n\r\n\r\n // Starting auction for a particular collectible\r\nfunction startAuction(uint256 toknID, uint _maxPrice) public toknExists(toknID){\r\n  // require(_exists(toknID));\r\n  require(_isApprovedOrOwner(msg.sender, toknID));\r\n  require(runningAuction[toknID] == false);\r\n  Auction newAuction = new Auction(payable(msg.sender), toknID);\r\n  // collectibleAuctions[toknID].push(address(newAuction));\r\n  auctionMaxPrice[address(newAuction)] =_maxPrice*10**18;\r\n  runningAuction[toknID] = true;\r\n  currentAuctionForTokn[toknID] = address(newAuction);\r\n}\r\n\r\n\r\n// Placeing Bid\r\nfunction bid(uint256 _toknID) public payable toknExists(_toknID) returns(bool){\r\n  // require(_exists(_toknID));\r\n  require(runningAuction[_toknID]);\r\n  \r\n  // Auction currentAuction = currentAuctionForTokn[_toknID];\r\n\r\n  bool res = Auction(currentAuctionForTokn[_toknID]).placeBid{value: msg.value}(msg.sender);\r\n\r\n  // Finalizing the auction if the current bid reaches maximum price defines by the owner \r\n  if(msg.value >= auctionMaxPrice[address(currentAuctionForTokn[_toknID])]){\r\n    runningAuction[_toknID] = false;\r\n\r\n  }\r\n  return res;\r\n}\r\n\r\n// Finalizing Auction and transferring the ownership to the buyer and sending the commision to the original creator\r\nfunction endAuction(uint256 _toknID, uint256 commission) public toknExists(_toknID){\r\n  // require(_exists(_toknID));\r\n  Auction currentAuction = Auction(currentAuctionForTokn[_toknID]);\r\n  require(currentAuction.auctionState() != Auction.State.Ended); \r\n  require(_isApprovedOrOwner(msg.sender, _toknID) && msg.sender == currentAuction.owner());\r\n  \r\n  currentAuction.finalizeAuction();\r\n  _collectibleList[_toknID]._owner = currentAuction.highestBidder();\r\n  uint lastPrice = currentAuction.highestBid()/uint(10**18);\r\n  uint creatorCommission = lastPrice*commission/uint(100);\r\n  creator.transfer(creatorCommission*10**18); \r\n  safeTransferFrom(msg.sender, currentAuction.highestBidder(), _toknID);\r\n  runningAuction[_toknID] = false;\r\n  delete currentAuctionForTokn[_toknID];\r\n}\r\n\r\n//cancelling the auction\r\nfunction cancelAuction(uint256 toknID) public toknExists(toknID){\r\n  // require(_exists(toknID));\r\n  require(msg.sender == _collectibleList[toknID]._owner);\r\n  require(runningAuction[toknID]);\r\n  // Auction currentAuction = currentAuctionForTokn[toknID];\r\n  Auction(currentAuctionForTokn[toknID]).cancelAuction(msg.sender);\r\n  runningAuction[toknID] = false;\r\n  delete currentAuctionForTokn[toknID];\r\n}\r\n\r\n// setting terminal price for auction\r\nfunction setMaxPrice(uint256 toknID, uint price) public toknExists(toknID) returns(bool){\r\n  // require(_exists(toknID));\r\n  require(msg.sender == _collectibleList[toknID]._owner);\r\n  require(runningAuction[toknID]);\r\n \r\n  // Auction currentAuction = currentAuctionForTokn[toknID];\r\n  auctionMaxPrice[currentAuctionForTokn[toknID]] = price*10**18;\r\n  return true;\r\n}\r\n\r\n}",
  "sourcePath": "C:/Users/lenovo/OneDrive/Desktop/projects/Tokn/contracts/ToknBidding.sol",
  "compiler": {
    "name": "solc",
    "version": "0.8.0+commit.c7dfd78e.Emscripten.clang"
  },
  "schemaVersion": "3.4.1",
  "updatedAt": "2021-07-21T12:38:55.884Z",
  "devdoc": {
    "kind": "dev",
    "methods": {
      "approve(address,uint256)": {
        "details": "See {IERC721-approve}."
      },
      "balanceOf(address)": {
        "details": "See {IERC721-balanceOf}."
      },
      "getApproved(uint256)": {
        "details": "See {IERC721-getApproved}."
      },
      "isApprovedForAll(address,address)": {
        "details": "See {IERC721-isApprovedForAll}."
      },
      "name()": {
        "details": "See {IERC721Metadata-name}."
      },
      "ownerOf(uint256)": {
        "details": "See {IERC721-ownerOf}."
      },
      "safeTransferFrom(address,address,uint256)": {
        "details": "See {IERC721-safeTransferFrom}."
      },
      "safeTransferFrom(address,address,uint256,bytes)": {
        "details": "See {IERC721-safeTransferFrom}."
      },
      "setApprovalForAll(address,bool)": {
        "details": "See {IERC721-setApprovalForAll}."
      },
      "supportsInterface(bytes4)": {
        "details": "See {IERC165-supportsInterface}."
      },
      "symbol()": {
        "details": "See {IERC721Metadata-symbol}."
      },
      "tokenURI(uint256)": {
        "details": "See {IERC721Metadata-tokenURI}."
      },
      "transferFrom(address,address,uint256)": {
        "details": "See {IERC721-transferFrom}."
      }
    },
    "version": 1
  },
  "userdoc": {
    "kind": "user",
    "methods": {},
    "version": 1
  }
}