{
  "contractName": "ToknBidding",
  "abi": [
    {
      "inputs": [
        {
          "internalType": "string",
          "name": "name",
          "type": "string"
        },
        {
          "internalType": "string",
          "name": "symbol",
          "type": "string"
        }
      ],
      "stateMutability": "nonpayable",
      "type": "constructor"
    },
    {
      "anonymous": false,
      "inputs": [
        {
          "indexed": true,
          "internalType": "address",
          "name": "owner",
          "type": "address"
        },
        {
          "indexed": true,
          "internalType": "address",
          "name": "approved",
          "type": "address"
        },
        {
          "indexed": true,
          "internalType": "uint256",
          "name": "tokenId",
          "type": "uint256"
        }
      ],
      "name": "Approval",
      "type": "event"
    },
    {
      "anonymous": false,
      "inputs": [
        {
          "indexed": true,
          "internalType": "address",
          "name": "owner",
          "type": "address"
        },
        {
          "indexed": true,
          "internalType": "address",
          "name": "operator",
          "type": "address"
        },
        {
          "indexed": false,
          "internalType": "bool",
          "name": "approved",
          "type": "bool"
        }
      ],
      "name": "ApprovalForAll",
      "type": "event"
    },
    {
      "anonymous": false,
      "inputs": [
        {
          "indexed": false,
          "internalType": "uint256",
          "name": "_collectibleID",
          "type": "uint256"
        },
        {
          "indexed": false,
          "internalType": "string",
          "name": "_title",
          "type": "string"
        },
        {
          "indexed": false,
          "internalType": "address",
          "name": "_owner",
          "type": "address"
        },
        {
          "indexed": false,
          "internalType": "string",
          "name": "_collectibleURI",
          "type": "string"
        }
      ],
      "name": "CollectibleCreated",
      "type": "event"
    },
    {
      "anonymous": false,
      "inputs": [
        {
          "indexed": true,
          "internalType": "address",
          "name": "from",
          "type": "address"
        },
        {
          "indexed": true,
          "internalType": "address",
          "name": "to",
          "type": "address"
        },
        {
          "indexed": true,
          "internalType": "uint256",
          "name": "tokenId",
          "type": "uint256"
        }
      ],
      "name": "Transfer",
      "type": "event"
    },
    {
      "inputs": [],
      "name": "_collectibleCount",
      "outputs": [
        {
          "internalType": "uint256",
          "name": "",
          "type": "uint256"
        }
      ],
      "stateMutability": "view",
      "type": "function"
    },
    {
      "inputs": [],
      "name": "_collectibleID",
      "outputs": [
        {
          "internalType": "uint256",
          "name": "",
          "type": "uint256"
        }
      ],
      "stateMutability": "view",
      "type": "function"
    },
    {
      "inputs": [
        {
          "internalType": "uint256",
          "name": "",
          "type": "uint256"
        }
      ],
      "name": "_collectibleList",
      "outputs": [
        {
          "internalType": "uint256",
          "name": "_collectibleID",
          "type": "uint256"
        },
        {
          "internalType": "string",
          "name": "_title",
          "type": "string"
        },
        {
          "internalType": "address",
          "name": "_owner",
          "type": "address"
        },
        {
          "internalType": "string",
          "name": "_collectibleURI",
          "type": "string"
        }
      ],
      "stateMutability": "view",
      "type": "function"
    },
    {
      "inputs": [
        {
          "internalType": "address",
          "name": "to",
          "type": "address"
        },
        {
          "internalType": "uint256",
          "name": "tokenId",
          "type": "uint256"
        }
      ],
      "name": "approve",
      "outputs": [],
      "stateMutability": "nonpayable",
      "type": "function"
    },
    {
      "inputs": [
        {
          "internalType": "address",
          "name": "",
          "type": "address"
        }
      ],
      "name": "auctionMaxPrice",
      "outputs": [
        {
          "internalType": "uint256",
          "name": "",
          "type": "uint256"
        }
      ],
      "stateMutability": "view",
      "type": "function"
    },
    {
      "inputs": [
        {
          "internalType": "address",
          "name": "owner",
          "type": "address"
        }
      ],
      "name": "balanceOf",
      "outputs": [
        {
          "internalType": "uint256",
          "name": "",
          "type": "uint256"
        }
      ],
      "stateMutability": "view",
      "type": "function"
    },
    {
      "inputs": [
        {
          "internalType": "string",
          "name": "_title",
          "type": "string"
        },
        {
          "internalType": "string",
          "name": "_tokenURI",
          "type": "string"
        }
      ],
      "name": "create",
      "outputs": [
        {
          "components": [
            {
              "internalType": "uint256",
              "name": "_collectibleID",
              "type": "uint256"
            },
            {
              "internalType": "string",
              "name": "_title",
              "type": "string"
            },
            {
              "internalType": "address",
              "name": "_owner",
              "type": "address"
            },
            {
              "internalType": "string",
              "name": "_collectibleURI",
              "type": "string"
            }
          ],
          "internalType": "struct ToknCollectible.Collectible",
          "name": "",
          "type": "tuple"
        }
      ],
      "stateMutability": "nonpayable",
      "type": "function"
    },
    {
      "inputs": [],
      "name": "creator",
      "outputs": [
        {
          "internalType": "address payable",
          "name": "",
          "type": "address"
        }
      ],
      "stateMutability": "view",
      "type": "function"
    },
    {
      "inputs": [
        {
          "internalType": "uint256",
          "name": "",
          "type": "uint256"
        }
      ],
      "name": "currentAuctionForTokn",
      "outputs": [
        {
          "internalType": "address",
          "name": "",
          "type": "address"
        }
      ],
      "stateMutability": "view",
      "type": "function"
    },
    {
      "inputs": [
        {
          "internalType": "uint256",
          "name": "toknID",
          "type": "uint256"
        }
      ],
      "name": "destroy",
      "outputs": [
        {
          "internalType": "bool",
          "name": "success",
          "type": "bool"
        }
      ],
      "stateMutability": "nonpayable",
      "type": "function"
    },
    {
      "inputs": [
        {
          "internalType": "uint256",
          "name": "tokenId",
          "type": "uint256"
        }
      ],
      "name": "getApproved",
      "outputs": [
        {
          "internalType": "address",
          "name": "",
          "type": "address"
        }
      ],
      "stateMutability": "view",
      "type": "function"
    },
    {
      "inputs": [
        {
          "internalType": "address",
          "name": "owner",
          "type": "address"
        },
        {
          "internalType": "address",
          "name": "operator",
          "type": "address"
        }
      ],
      "name": "isApprovedForAll",
      "outputs": [
        {
          "internalType": "bool",
          "name": "",
          "type": "bool"
        }
      ],
      "stateMutability": "view",
      "type": "function"
    },
    {
      "inputs": [],
      "name": "name",
      "outputs": [
        {
          "internalType": "string",
          "name": "",
          "type": "string"
        }
      ],
      "stateMutability": "view",
      "type": "function"
    },
    {
      "inputs": [
        {
          "internalType": "uint256",
          "name": "tokenId",
          "type": "uint256"
        }
      ],
      "name": "ownerOf",
      "outputs": [
        {
          "internalType": "address",
          "name": "",
          "type": "address"
        }
      ],
      "stateMutability": "view",
      "type": "function"
    },
    {
      "inputs": [
        {
          "internalType": "uint256",
          "name": "",
          "type": "uint256"
        }
      ],
      "name": "runningAuction",
      "outputs": [
        {
          "internalType": "bool",
          "name": "",
          "type": "bool"
        }
      ],
      "stateMutability": "view",
      "type": "function"
    },
    {
      "inputs": [
        {
          "internalType": "address",
          "name": "from",
          "type": "address"
        },
        {
          "internalType": "address",
          "name": "to",
          "type": "address"
        },
        {
          "internalType": "uint256",
          "name": "tokenId",
          "type": "uint256"
        }
      ],
      "name": "safeTransferFrom",
      "outputs": [],
      "stateMutability": "nonpayable",
      "type": "function"
    },
    {
      "inputs": [
        {
          "internalType": "address",
          "name": "from",
          "type": "address"
        },
        {
          "internalType": "address",
          "name": "to",
          "type": "address"
        },
        {
          "internalType": "uint256",
          "name": "tokenId",
          "type": "uint256"
        },
        {
          "internalType": "bytes",
          "name": "_data",
          "type": "bytes"
        }
      ],
      "name": "safeTransferFrom",
      "outputs": [],
      "stateMutability": "nonpayable",
      "type": "function"
    },
    {
      "inputs": [
        {
          "internalType": "address",
          "name": "operator",
          "type": "address"
        },
        {
          "internalType": "bool",
          "name": "approved",
          "type": "bool"
        }
      ],
      "name": "setApprovalForAll",
      "outputs": [],
      "stateMutability": "nonpayable",
      "type": "function"
    },
    {
      "inputs": [
        {
          "internalType": "bytes4",
          "name": "interfaceId",
          "type": "bytes4"
        }
      ],
      "name": "supportsInterface",
      "outputs": [
        {
          "internalType": "bool",
          "name": "",
          "type": "bool"
        }
      ],
      "stateMutability": "view",
      "type": "function"
    },
    {
      "inputs": [],
      "name": "symbol",
      "outputs": [
        {
          "internalType": "string",
          "name": "",
          "type": "string"
        }
      ],
      "stateMutability": "view",
      "type": "function"
    },
    {
      "inputs": [
        {
          "internalType": "uint256",
          "name": "tokenId",
          "type": "uint256"
        }
      ],
      "name": "tokenURI",
      "outputs": [
        {
          "internalType": "string",
          "name": "",
          "type": "string"
        }
      ],
      "stateMutability": "view",
      "type": "function"
    },
    {
      "inputs": [
        {
          "internalType": "address",
          "name": "from",
          "type": "address"
        },
        {
          "internalType": "address",
          "name": "to",
          "type": "address"
        },
        {
          "internalType": "uint256",
          "name": "tokenId",
          "type": "uint256"
        }
      ],
      "name": "transferFrom",
      "outputs": [],
      "stateMutability": "nonpayable",
      "type": "function"
    },
    {
      "inputs": [
        {
          "internalType": "uint256",
          "name": "toknID",
          "type": "uint256"
        },
        {
          "internalType": "uint256",
          "name": "_maxPrice",
          "type": "uint256"
        }
      ],
      "name": "startAuction",
      "outputs": [],
      "stateMutability": "nonpayable",
      "type": "function"
    },
    {
      "inputs": [
        {
          "internalType": "uint256",
          "name": "_toknID",
          "type": "uint256"
        }
      ],
      "name": "bid",
      "outputs": [
        {
          "internalType": "bool",
          "name": "",
          "type": "bool"
        }
      ],
      "stateMutability": "payable",
      "type": "function"
    },
    {
      "inputs": [
        {
          "internalType": "uint256",
          "name": "_toknID",
          "type": "uint256"
        },
        {
          "internalType": "uint256",
          "name": "commission",
          "type": "uint256"
        }
      ],
      "name": "endAuction",
      "outputs": [],
      "stateMutability": "nonpayable",
      "type": "function"
    },
    {
      "inputs": [
        {
          "internalType": "uint256",
          "name": "toknID",
          "type": "uint256"
        }
      ],
      "name": "cancelAuction",
      "outputs": [],
      "stateMutability": "nonpayable",
      "type": "function"
    },
    {
      "inputs": [
        {
          "internalType": "uint256",
          "name": "toknID",
          "type": "uint256"
        },
        {
          "internalType": "uint256",
          "name": "price",
          "type": "uint256"
        }
      ],
      "name": "setMaxPrice",
      "outputs": [
        {
          "internalType": "bool",
          "name": "",
          "type": "bool"
        }
      ],
      "stateMutability": "nonpayable",
      "type": "function"
    }
  ],
  "bytecode": "0x60806040523480156200001157600080fd5b506040516200567b3803806200567b8339818101604052810190620000379190620001ab565b8181818181600090805190602001906200005392919062000089565b5080600190805190602001906200006c92919062000089565b50505060006006819055506000600781905550505050506200034f565b8280546200009790620002bb565b90600052602060002090601f016020900481019282620000bb576000855562000107565b82601f10620000d657805160ff191683800117855562000107565b8280016001018555821562000107579182015b8281111562000106578251825591602001919060010190620000e9565b5b5090506200011691906200011a565b5090565b5b80821115620001355760008160009055506001016200011b565b5090565b6000620001506200014a8462000252565b6200021e565b9050828152602081018484840111156200016957600080fd5b6200017684828562000285565b509392505050565b600082601f8301126200019057600080fd5b8151620001a284826020860162000139565b91505092915050565b60008060408385031215620001bf57600080fd5b600083015167ffffffffffffffff811115620001da57600080fd5b620001e8858286016200017e565b925050602083015167ffffffffffffffff8111156200020657600080fd5b62000214858286016200017e565b9150509250929050565b6000604051905081810181811067ffffffffffffffff8211171562000248576200024762000320565b5b8060405250919050565b600067ffffffffffffffff82111562000270576200026f62000320565b5b601f19601f8301169050602081019050919050565b60005b83811015620002a557808201518184015260208101905062000288565b83811115620002b5576000848401525b50505050565b60006002820490506001821680620002d457607f821691505b60208210811415620002eb57620002ea620002f1565b5b50919050565b7f4e487b7100000000000000000000000000000000000000000000000000000000600052602260045260246000fd5b7f4e487b7100000000000000000000000000000000000000000000000000000000600052604160045260246000fd5b61531c806200035f6000396000f3fe608060405260043610620001c45760003560e01c806354bbdfab1162000103578063a22cb4651162000097578063c87b56dd116200006d578063c87b56dd14620006c3578063ca225b971462000707578063cd73240f146200074e578063e985e9c5146200079257620001c4565b8063a22cb4651462000637578063b88d4fde1462000665578063bab22d8d146200069357620001c4565b806370a0823111620000d957806370a08231146200055157806395d89b41146200059557806396b5a75514620005c55780639d11877014620005f357620001c4565b806354bbdfab14620004995780635da3273914620004c95780636352211e146200050d57620001c4565b8063224c5761116200017b57806342842e0e116200015157806342842e0e14620003d9578063454a2ab3146200040757806347afe437146200043d5780634fee13fc146200046b57620001c4565b8063224c5761146200032357806323b872dd14620003675780634173ce5b146200039557620001c4565b806301ffc9a714620001c957806302d05d3f146200020d57806306fdde03146200023d578063081812fc146200026d578063095ea7b314620002b1578063198e2b8a14620002df575b600080fd5b348015620001d657600080fd5b50620001f56004803603810190620001ef919062003254565b620007d6565b60405162000204919062003baa565b60405180910390f35b3480156200021a57600080fd5b5062000225620008bc565b60405162000234919062003b39565b60405180910390f35b3480156200024a57600080fd5b5062000255620008e2565b60405162000264919062003bc7565b60405180910390f35b3480156200027a57600080fd5b506200029960048036038101906200029391906200334b565b6200097c565b604051620002a8919062003b1c565b60405180910390f35b348015620002be57600080fd5b50620002dd6004803603810190620002d79190620031e7565b62000a06565b005b348015620002ec57600080fd5b506200030b6004803603810190620003059190620032d8565b62000b2f565b6040516200031a919062003dc7565b60405180910390f35b3480156200033057600080fd5b506200034f600480360381019062000349919062003032565b62000cec565b6040516200035e919062003deb565b60405180910390f35b3480156200037457600080fd5b506200039360048036038101906200038d9190620030cb565b62000d04565b005b348015620003a257600080fd5b50620003c16004803603810190620003bb9190620033a3565b62000d6d565b604051620003d0919062003baa565b60405180910390f35b348015620003e657600080fd5b50620004056004803603810190620003ff9190620030cb565b62000eb6565b005b6200042560048036038101906200041f91906200334b565b62000ed8565b60405162000434919062003baa565b60405180910390f35b3480156200044a57600080fd5b50620004696004803603810190620004639190620033a3565b62001095565b005b3480156200047857600080fd5b50620004976004803603810190620004919190620033a3565b620015fd565b005b348015620004a657600080fd5b50620004b162001775565b604051620004c0919062003deb565b60405180910390f35b348015620004d657600080fd5b50620004f56004803603810190620004ef91906200334b565b6200177b565b60405162000504919062003baa565b60405180910390f35b3480156200051a57600080fd5b506200053960048036038101906200053391906200334b565b6200179b565b60405162000548919062003b1c565b60405180910390f35b3480156200055e57600080fd5b506200057d600480360381019062000577919062003032565b62001850565b6040516200058c919062003deb565b60405180910390f35b348015620005a257600080fd5b50620005ad6200190b565b604051620005bc919062003bc7565b60405180910390f35b348015620005d257600080fd5b50620005f16004803603810190620005eb91906200334b565b620019a5565b005b3480156200060057600080fd5b506200061f60048036038101906200061991906200334b565b62001b5d565b6040516200062e919062003baa565b60405180910390f35b3480156200064457600080fd5b506200066360048036038101906200065d9190620031a6565b62001bf3565b005b3480156200067257600080fd5b506200069160048036038101906200068b919062003121565b62001d7f565b005b348015620006a057600080fd5b50620006ab62001dea565b604051620006ba919062003deb565b60405180910390f35b348015620006d057600080fd5b50620006ef6004803603810190620006e991906200334b565b62001df0565b604051620006fe919062003bc7565b60405180910390f35b3480156200071457600080fd5b506200073360048036038101906200072d91906200334b565b62001ea4565b60405162000745949392919062003e08565b60405180910390f35b3480156200075b57600080fd5b506200077a60048036038101906200077491906200334b565b62002014565b60405162000789919062003b1c565b60405180910390f35b3480156200079f57600080fd5b50620007be6004803603810190620007b891906200308a565b62002047565b604051620007cd919062003baa565b60405180910390f35b60007f80ac58cd000000000000000000000000000000000000000000000000000000007bffffffffffffffffffffffffffffffffffffffffffffffffffffffff1916827bffffffffffffffffffffffffffffffffffffffffffffffffffffffff19161480620008a257507f5b5e139f000000000000000000000000000000000000000000000000000000007bffffffffffffffffffffffffffffffffffffffffffffffffffffffff1916827bffffffffffffffffffffffffffffffffffffffffffffffffffffffff1916145b80620008b55750620008b482620020db565b5b9050919050565b600860009054906101000a900473ffffffffffffffffffffffffffffffffffffffff1681565b606060008054620008f39062004151565b80601f0160208091040260200160405190810160405280929190818152602001828054620009219062004151565b8015620009725780601f10620009465761010080835404028352916020019162000972565b820191906000526020600020905b8154815290600101906020018083116200095457829003601f168201915b5050505050905090565b6000620009898262002145565b620009cb576040517f08c379a0000000000000000000000000000000000000000000000000000000008152600401620009c29062003d1d565b60405180910390fd5b6004600083815260200190815260200160002060009054906101000a900473ffffffffffffffffffffffffffffffffffffffff169050919050565b600062000a13826200179b565b90508073ffffffffffffffffffffffffffffffffffffffff168373ffffffffffffffffffffffffffffffffffffffff16141562000a87576040517f08c379a000000000000000000000000000000000000000000000000000000000815260040162000a7e9062003d83565b60405180910390fd5b8073ffffffffffffffffffffffffffffffffffffffff1662000aa8620021b1565b73ffffffffffffffffffffffffffffffffffffffff16148062000adc575062000adb8162000ad5620021b1565b62002047565b5b62000b1e576040517f08c379a000000000000000000000000000000000000000000000000000000000815260040162000b159062003c95565b60405180910390fd5b62000b2a8383620021b9565b505050565b62000b3962002d3d565b6006600081548092919062000b4e9062004187565b91905055506007600081548092919062000b689062004187565b91905055506000604051806080016040528060065481526020018581526020013373ffffffffffffffffffffffffffffffffffffffff1681526020018481525090508060096000600654815260200190815260200160002060008201518160000155602082015181600101908051906020019062000be892919062002d7b565b5060408201518160020160006101000a81548173ffffffffffffffffffffffffffffffffffffffff021916908373ffffffffffffffffffffffffffffffffffffffff160217905550606082015181600301908051906020019062000c4e92919062002d7b565b509050507f4265c0fca0618144a5f95ac58797316e876c6d2cc3c31e68bdf2c07ad8a53dd160065485338660405162000c8b949392919062003e08565b60405180910390a162000ca13360065462002274565b33600860006101000a81548173ffffffffffffffffffffffffffffffffffffffff021916908373ffffffffffffffffffffffffffffffffffffffff1602179055508091505092915050565b600c6020528060005260406000206000915090505481565b62000d1962000d12620021b1565b8262002294565b62000d5b576040517f08c379a000000000000000000000000000000000000000000000000000000000815260040162000d529062003da5565b60405180910390fd5b62000d688383836200237f565b505050565b60008262000d7b8162002145565b62000d8557600080fd5b6009600085815260200190815260200160002060020160009054906101000a900473ffffffffffffffffffffffffffffffffffffffff1673ffffffffffffffffffffffffffffffffffffffff163373ffffffffffffffffffffffffffffffffffffffff161462000df457600080fd5b600a600085815260200190815260200160002060009054906101000a900460ff1662000e1f57600080fd5b670de0b6b3a76400008362000e35919062003fe6565b600c6000600b600088815260200190815260200160002060009054906101000a900473ffffffffffffffffffffffffffffffffffffffff1673ffffffffffffffffffffffffffffffffffffffff1673ffffffffffffffffffffffffffffffffffffffff16815260200190815260200160002081905550600191505092915050565b62000ed38383836040518060200160405280600081525062001d7f565b505050565b60008162000ee68162002145565b62000ef057600080fd5b600a600084815260200190815260200160002060009054906101000a900460ff1662000f1b57600080fd5b6000600b600085815260200190815260200160002060009054906101000a900473ffffffffffffffffffffffffffffffffffffffff1673ffffffffffffffffffffffffffffffffffffffff1663e494015734336040518363ffffffff1660e01b815260040162000f8c919062003b1c565b6020604051808303818588803b15801562000fa657600080fd5b505af115801562000fbb573d6000803e3d6000fd5b50505050506040513d601f19601f8201168201806040525081019062000fe2919062003228565b9050600c6000600b600087815260200190815260200160002060009054906101000a900473ffffffffffffffffffffffffffffffffffffffff1673ffffffffffffffffffffffffffffffffffffffff1673ffffffffffffffffffffffffffffffffffffffff1681526020019081526020016000205434106200108b576000600a600086815260200190815260200160002060006101000a81548160ff0219169083151502179055505b8092505050919050565b81620010a18162002145565b620010ab57600080fd5b6000600b600085815260200190815260200160002060009054906101000a900473ffffffffffffffffffffffffffffffffffffffff169050600260038111156200111e577f4e487b7100000000000000000000000000000000000000000000000000000000600052602160045260246000fd5b8173ffffffffffffffffffffffffffffffffffffffff16637fb450996040518163ffffffff1660e01b815260040160206040518083038186803b1580156200116557600080fd5b505afa1580156200117a573d6000803e3d6000fd5b505050506040513d601f19601f82011682018060405250810190620011a09190620032ac565b6003811115620011d9577f4e487b7100000000000000000000000000000000000000000000000000000000600052602160045260246000fd5b1415620011e557600080fd5b8073ffffffffffffffffffffffffffffffffffffffff16638da5cb5b6040518163ffffffff1660e01b815260040160206040518083038186803b1580156200122c57600080fd5b505afa15801562001241573d6000803e3d6000fd5b505050506040513d601f19601f820116820180604052508101906200126791906200305e565b73ffffffffffffffffffffffffffffffffffffffff163373ffffffffffffffffffffffffffffffffffffffff16146200129f57600080fd5b8073ffffffffffffffffffffffffffffffffffffffff1663f77282ab6040518163ffffffff1660e01b8152600401600060405180830381600087803b158015620012e857600080fd5b505af1158015620012fd573d6000803e3d6000fd5b505050508073ffffffffffffffffffffffffffffffffffffffff166391f901576040518163ffffffff1660e01b815260040160206040518083038186803b1580156200134857600080fd5b505afa1580156200135d573d6000803e3d6000fd5b505050506040513d601f19601f820116820180604052508101906200138391906200305e565b6009600086815260200190815260200160002060020160006101000a81548173ffffffffffffffffffffffffffffffffffffffff021916908373ffffffffffffffffffffffffffffffffffffffff160217905550600860009054906101000a900473ffffffffffffffffffffffffffffffffffffffff1673ffffffffffffffffffffffffffffffffffffffff166108fc670de0b6b3a7640000606486670de0b6b3a76400008673ffffffffffffffffffffffffffffffffffffffff1663d57bde796040518163ffffffff1660e01b815260040160206040518083038186803b1580156200146f57600080fd5b505afa15801562001484573d6000803e3d6000fd5b505050506040513d601f19601f82011682018060405250810190620014aa919062003377565b620014b6919062003fae565b620014c2919062003fe6565b620014ce919062003fae565b620014da919062003fe6565b9081150290604051600060405180830381858888f1935050505015801562001506573d6000803e3d6000fd5b5062001595338273ffffffffffffffffffffffffffffffffffffffff166391f901576040518163ffffffff1660e01b815260040160206040518083038186803b1580156200155357600080fd5b505afa15801562001568573d6000803e3d6000fd5b505050506040513d601f19601f820116820180604052508101906200158e91906200305e565b8662000eb6565b6000600a600086815260200190815260200160002060006101000a81548160ff021916908315150217905550600b600085815260200190815260200160002060006101000a81549073ffffffffffffffffffffffffffffffffffffffff021916905550505050565b81620016098162002145565b6200161357600080fd5b6200161f338462002294565b6200162957600080fd5b60001515600a600085815260200190815260200160002060009054906101000a900460ff161515146200165b57600080fd5b6000336040516200166c9062002e0c565b62001678919062003b39565b604051809103906000f08015801562001695573d6000803e3d6000fd5b509050670de0b6b3a764000083620016ae919062003fe6565b600c60008373ffffffffffffffffffffffffffffffffffffffff1673ffffffffffffffffffffffffffffffffffffffff168152602001908152602001600020819055506001600a600086815260200190815260200160002060006101000a81548160ff02191690831515021790555080600b600086815260200190815260200160002060006101000a81548173ffffffffffffffffffffffffffffffffffffffff021916908373ffffffffffffffffffffffffffffffffffffffff16021790555050505050565b60075481565b600a6020528060005260406000206000915054906101000a900460ff1681565b6000806002600084815260200190815260200160002060009054906101000a900473ffffffffffffffffffffffffffffffffffffffff169050600073ffffffffffffffffffffffffffffffffffffffff168173ffffffffffffffffffffffffffffffffffffffff16141562001847576040517f08c379a00000000000000000000000000000000000000000000000000000000081526004016200183e9062003cd9565b60405180910390fd5b80915050919050565b60008073ffffffffffffffffffffffffffffffffffffffff168273ffffffffffffffffffffffffffffffffffffffff161415620018c4576040517f08c379a0000000000000000000000000000000000000000000000000000000008152600401620018bb9062003cb7565b60405180910390fd5b600360008373ffffffffffffffffffffffffffffffffffffffff1673ffffffffffffffffffffffffffffffffffffffff168152602001908152602001600020549050919050565b6060600180546200191c9062004151565b80601f01602080910402602001604051908101604052809291908181526020018280546200194a9062004151565b80156200199b5780601f106200196f576101008083540402835291602001916200199b565b820191906000526020600020905b8154815290600101906020018083116200197d57829003601f168201915b5050505050905090565b80620019b18162002145565b620019bb57600080fd5b6009600083815260200190815260200160002060020160009054906101000a900473ffffffffffffffffffffffffffffffffffffffff1673ffffffffffffffffffffffffffffffffffffffff163373ffffffffffffffffffffffffffffffffffffffff161462001a2a57600080fd5b600a600083815260200190815260200160002060009054906101000a900460ff1662001a5557600080fd5b600b600083815260200190815260200160002060009054906101000a900473ffffffffffffffffffffffffffffffffffffffff1673ffffffffffffffffffffffffffffffffffffffff1663d22cf3a4336040518263ffffffff1660e01b815260040162001ac3919062003b1c565b600060405180830381600087803b15801562001ade57600080fd5b505af115801562001af3573d6000803e3d6000fd5b505050506000600a600084815260200190815260200160002060006101000a81548160ff021916908315150217905550600b600083815260200190815260200160002060006101000a81549073ffffffffffffffffffffffffffffffffffffffff02191690555050565b60008162001b6b8162002145565b62001b7557600080fd5b62001b8083620025eb565b6009600084815260200190815260200160002060008082016000905560018201600062001bae919062002e1a565b6002820160006101000a81549073ffffffffffffffffffffffffffffffffffffffff021916905560038201600062001be7919062002e1a565b50506001915050919050565b62001bfd620021b1565b73ffffffffffffffffffffffffffffffffffffffff168273ffffffffffffffffffffffffffffffffffffffff16141562001c6e576040517f08c379a000000000000000000000000000000000000000000000000000000000815260040162001c659062003c51565b60405180910390fd5b806005600062001c7d620021b1565b73ffffffffffffffffffffffffffffffffffffffff1673ffffffffffffffffffffffffffffffffffffffff16815260200190815260200160002060008473ffffffffffffffffffffffffffffffffffffffff1673ffffffffffffffffffffffffffffffffffffffff16815260200190815260200160002060006101000a81548160ff0219169083151502179055508173ffffffffffffffffffffffffffffffffffffffff1662001d2c620021b1565b73ffffffffffffffffffffffffffffffffffffffff167f17307eab39ab6107e8899845ad3d59bd9653f200f220920489ca2b5937696c318360405162001d73919062003baa565b60405180910390a35050565b62001d9462001d8d620021b1565b8362002294565b62001dd6576040517f08c379a000000000000000000000000000000000000000000000000000000000815260040162001dcd9062003da5565b60405180910390fd5b62001de48484848462002704565b50505050565b60065481565b606062001dfd8262002145565b62001e3f576040517f08c379a000000000000000000000000000000000000000000000000000000000815260040162001e369062003d61565b60405180910390fd5b600062001e4b62002767565b9050600081511162001e6d576040518060200160405280600081525062001e9c565b8062001e79846200277e565b60405160200162001e8c92919062003af4565b6040516020818303038152906040525b915050919050565b600960205280600052604060002060009150905080600001549080600101805462001ecf9062004151565b80601f016020809104026020016040519081016040528092919081815260200182805462001efd9062004151565b801562001f4e5780601f1062001f225761010080835404028352916020019162001f4e565b820191906000526020600020905b81548152906001019060200180831162001f3057829003601f168201915b5050505050908060020160009054906101000a900473ffffffffffffffffffffffffffffffffffffffff169080600301805462001f8b9062004151565b80601f016020809104026020016040519081016040528092919081815260200182805462001fb99062004151565b80156200200a5780601f1062001fde576101008083540402835291602001916200200a565b820191906000526020600020905b81548152906001019060200180831162001fec57829003601f168201915b5050505050905084565b600b6020528060005260406000206000915054906101000a900473ffffffffffffffffffffffffffffffffffffffff1681565b6000600560008473ffffffffffffffffffffffffffffffffffffffff1673ffffffffffffffffffffffffffffffffffffffff16815260200190815260200160002060008373ffffffffffffffffffffffffffffffffffffffff1673ffffffffffffffffffffffffffffffffffffffff16815260200190815260200160002060009054906101000a900460ff16905092915050565b60007f01ffc9a7000000000000000000000000000000000000000000000000000000007bffffffffffffffffffffffffffffffffffffffffffffffffffffffff1916827bffffffffffffffffffffffffffffffffffffffffffffffffffffffff1916149050919050565b60008073ffffffffffffffffffffffffffffffffffffffff166002600084815260200190815260200160002060009054906101000a900473ffffffffffffffffffffffffffffffffffffffff1673ffffffffffffffffffffffffffffffffffffffff1614159050919050565b600033905090565b816004600083815260200190815260200160002060006101000a81548173ffffffffffffffffffffffffffffffffffffffff021916908373ffffffffffffffffffffffffffffffffffffffff160217905550808273ffffffffffffffffffffffffffffffffffffffff166200222e836200179b565b73ffffffffffffffffffffffffffffffffffffffff167f8c5be1e5ebec7d5bd14f71427d1e84f3dd0314c0f7b2291e5b200ac8c7c3b92560405160405180910390a45050565b6200229082826040518060200160405280600081525062002940565b5050565b6000620022a18262002145565b620022e3576040517f08c379a0000000000000000000000000000000000000000000000000000000008152600401620022da9062003c73565b60405180910390fd5b6000620022f0836200179b565b90508073ffffffffffffffffffffffffffffffffffffffff168473ffffffffffffffffffffffffffffffffffffffff1614806200236257508373ffffffffffffffffffffffffffffffffffffffff166200234a846200097c565b73ffffffffffffffffffffffffffffffffffffffff16145b8062002376575062002375818562002047565b5b91505092915050565b8273ffffffffffffffffffffffffffffffffffffffff16620023a1826200179b565b73ffffffffffffffffffffffffffffffffffffffff1614620023fa576040517f08c379a0000000000000000000000000000000000000000000000000000000008152600401620023f19062003d3f565b60405180910390fd5b600073ffffffffffffffffffffffffffffffffffffffff168273ffffffffffffffffffffffffffffffffffffffff1614156200246d576040517f08c379a0000000000000000000000000000000000000000000000000000000008152600401620024649062003c2f565b60405180910390fd5b6200247a838383620029a2565b62002487600082620021b9565b6001600360008573ffffffffffffffffffffffffffffffffffffffff1673ffffffffffffffffffffffffffffffffffffffff1681526020019081526020016000206000828254620024d9919062004047565b925050819055506001600360008473ffffffffffffffffffffffffffffffffffffffff1673ffffffffffffffffffffffffffffffffffffffff168152602001908152602001600020600082825462002532919062003f51565b92505081905550816002600083815260200190815260200160002060006101000a81548173ffffffffffffffffffffffffffffffffffffffff021916908373ffffffffffffffffffffffffffffffffffffffff160217905550808273ffffffffffffffffffffffffffffffffffffffff168473ffffffffffffffffffffffffffffffffffffffff167fddf252ad1be2c89b69c2b068fc378daa952ba7f163c4a11628f55a4df523b3ef60405160405180910390a4505050565b6000620025f8826200179b565b90506200260881600084620029a2565b62002615600083620021b9565b6001600360008373ffffffffffffffffffffffffffffffffffffffff1673ffffffffffffffffffffffffffffffffffffffff168152602001908152602001600020600082825462002667919062004047565b925050819055506002600083815260200190815260200160002060006101000a81549073ffffffffffffffffffffffffffffffffffffffff021916905581600073ffffffffffffffffffffffffffffffffffffffff168273ffffffffffffffffffffffffffffffffffffffff167fddf252ad1be2c89b69c2b068fc378daa952ba7f163c4a11628f55a4df523b3ef60405160405180910390a45050565b620027118484846200237f565b6200271f84848484620029a7565b62002761576040517f08c379a0000000000000000000000000000000000000000000000000000000008152600401620027589062003beb565b60405180910390fd5b50505050565b606060405180602001604052806000815250905090565b60606000821415620027c8576040518060400160405280600181526020017f300000000000000000000000000000000000000000000000000000000000000081525090506200293b565b600082905060005b6000821462002800578080620027e69062004187565b915050600a82620027f8919062003fae565b9150620027d0565b60008167ffffffffffffffff81111562002843577f4e487b7100000000000000000000000000000000000000000000000000000000600052604160045260246000fd5b6040519080825280601f01601f191660200182016040528015620028765781602001600182028036833780820191505090505b5090505b60008514620029345760018262002892919062004047565b9150600a85620028a39190620041d5565b6030620028b1919062003f51565b60f81b818381518110620028ee577f4e487b7100000000000000000000000000000000000000000000000000000000600052603260045260246000fd5b60200101907effffffffffffffffffffffffffffffffffffffffffffffffffffffffffffff1916908160001a905350600a856200292c919062003fae565b94506200287a565b8093505050505b919050565b6200294c838362002b50565b6200295b6000848484620029a7565b6200299d576040517f08c379a0000000000000000000000000000000000000000000000000000000008152600401620029949062003beb565b60405180910390fd5b505050565b505050565b6000620029ca8473ffffffffffffffffffffffffffffffffffffffff1662002d2a565b1562002b43578373ffffffffffffffffffffffffffffffffffffffff1663150b7a02620029f6620021b1565b8786866040518563ffffffff1660e01b815260040162002a1a949392919062003b56565b602060405180830381600087803b15801562002a3557600080fd5b505af192505050801562002a6957506040513d601f19601f8201168201806040525081019062002a66919062003280565b60015b62002af2573d806000811462002a9c576040519150601f19603f3d011682016040523d82523d6000602084013e62002aa1565b606091505b5060008151141562002aea576040517f08c379a000000000000000000000000000000000000000000000000000000000815260040162002ae19062003beb565b60405180910390fd5b805181602001fd5b63150b7a0260e01b7bffffffffffffffffffffffffffffffffffffffffffffffffffffffff1916817bffffffffffffffffffffffffffffffffffffffffffffffffffffffff19161491505062002b48565b600190505b949350505050565b600073ffffffffffffffffffffffffffffffffffffffff168273ffffffffffffffffffffffffffffffffffffffff16141562002bc3576040517f08c379a000000000000000000000000000000000000000000000000000000000815260040162002bba9062003cfb565b60405180910390fd5b62002bce8162002145565b1562002c11576040517f08c379a000000000000000000000000000000000000000000000000000000000815260040162002c089062003c0d565b60405180910390fd5b62002c1f60008383620029a2565b6001600360008473ffffffffffffffffffffffffffffffffffffffff1673ffffffffffffffffffffffffffffffffffffffff168152602001908152602001600020600082825462002c71919062003f51565b92505081905550816002600083815260200190815260200160002060006101000a81548173ffffffffffffffffffffffffffffffffffffffff021916908373ffffffffffffffffffffffffffffffffffffffff160217905550808273ffffffffffffffffffffffffffffffffffffffff16600073ffffffffffffffffffffffffffffffffffffffff167fddf252ad1be2c89b69c2b068fc378daa952ba7f163c4a11628f55a4df523b3ef60405160405180910390a45050565b600080823b905060008111915050919050565b60405180608001604052806000815260200160608152602001600073ffffffffffffffffffffffffffffffffffffffff168152602001606081525090565b82805462002d899062004151565b90600052602060002090601f01602090048101928262002dad576000855562002df9565b82601f1062002dc857805160ff191683800117855562002df9565b8280016001018555821562002df9579182015b8281111562002df857825182559160200191906001019062002ddb565b5b50905062002e08919062002e60565b5090565b610f79806200436e83390190565b50805462002e289062004151565b6000825580601f1062002e3c575062002e5d565b601f01602090049060005260206000209081019062002e5c919062002e60565b5b50565b5b8082111562002e7b57600081600090555060010162002e61565b5090565b600062002e9662002e908462003e97565b62003e63565b90508281526020810184848401111562002eaf57600080fd5b62002ebc8482856200410c565b509392505050565b600062002edb62002ed58462003eca565b62003e63565b90508281526020810184848401111562002ef457600080fd5b62002f018482856200410c565b509392505050565b60008135905062002f1a81620042da565b92915050565b60008151905062002f3181620042f4565b92915050565b60008135905062002f48816200430e565b92915050565b60008151905062002f5f816200430e565b92915050565b60008135905062002f768162004328565b92915050565b60008151905062002f8d8162004328565b92915050565b600082601f83011262002fa557600080fd5b813562002fb784826020860162002e7f565b91505092915050565b60008151905062002fd18162004342565b92915050565b600082601f83011262002fe957600080fd5b813562002ffb84826020860162002ec4565b91505092915050565b600081359050620030158162004353565b92915050565b6000815190506200302c8162004353565b92915050565b6000602082840312156200304557600080fd5b6000620030558482850162002f09565b91505092915050565b6000602082840312156200307157600080fd5b6000620030818482850162002f20565b91505092915050565b600080604083850312156200309e57600080fd5b6000620030ae8582860162002f09565b9250506020620030c18582860162002f09565b9150509250929050565b600080600060608486031215620030e157600080fd5b6000620030f18682870162002f09565b9350506020620031048682870162002f09565b9250506040620031178682870162003004565b9150509250925092565b600080600080608085870312156200313857600080fd5b6000620031488782880162002f09565b94505060206200315b8782880162002f09565b93505060406200316e8782880162003004565b925050606085013567ffffffffffffffff8111156200318c57600080fd5b6200319a8782880162002f93565b91505092959194509250565b60008060408385031215620031ba57600080fd5b6000620031ca8582860162002f09565b9250506020620031dd8582860162002f37565b9150509250929050565b60008060408385031215620031fb57600080fd5b60006200320b8582860162002f09565b92505060206200321e8582860162003004565b9150509250929050565b6000602082840312156200323b57600080fd5b60006200324b8482850162002f4e565b91505092915050565b6000602082840312156200326757600080fd5b6000620032778482850162002f65565b91505092915050565b6000602082840312156200329357600080fd5b6000620032a38482850162002f7c565b91505092915050565b600060208284031215620032bf57600080fd5b6000620032cf8482850162002fc0565b91505092915050565b60008060408385031215620032ec57600080fd5b600083013567ffffffffffffffff8111156200330757600080fd5b620033158582860162002fd7565b925050602083013567ffffffffffffffff8111156200333357600080fd5b620033418582860162002fd7565b9150509250929050565b6000602082840312156200335e57600080fd5b60006200336e8482850162003004565b91505092915050565b6000602082840312156200338a57600080fd5b60006200339a848285016200301b565b91505092915050565b60008060408385031215620033b757600080fd5b6000620033c78582860162003004565b9250506020620033da8582860162003004565b9150509250929050565b620033ef8162004096565b82525050565b620034008162004082565b82525050565b620034118162004082565b82525050565b6200342281620040aa565b82525050565b6000620034358262003efd565b62003441818562003f13565b9350620034538185602086016200411b565b6200345e81620042c9565b840191505092915050565b6000620034768262003f08565b62003482818562003f24565b9350620034948185602086016200411b565b6200349f81620042c9565b840191505092915050565b6000620034b78262003f08565b620034c3818562003f35565b9350620034d58185602086016200411b565b620034e081620042c9565b840191505092915050565b6000620034f88262003f08565b62003504818562003f46565b9350620035168185602086016200411b565b80840191505092915050565b60006200353160328362003f35565b91507f4552433732313a207472616e7366657220746f206e6f6e20455243373231526560008301527f63656976657220696d706c656d656e74657200000000000000000000000000006020830152604082019050919050565b600062003599601c8362003f35565b91507f4552433732313a20746f6b656e20616c7265616479206d696e746564000000006000830152602082019050919050565b6000620035db60248362003f35565b91507f4552433732313a207472616e7366657220746f20746865207a65726f2061646460008301527f72657373000000000000000000000000000000000000000000000000000000006020830152604082019050919050565b60006200364360198362003f35565b91507f4552433732313a20617070726f766520746f2063616c6c6572000000000000006000830152602082019050919050565b600062003685602c8362003f35565b91507f4552433732313a206f70657261746f7220717565727920666f72206e6f6e657860008301527f697374656e7420746f6b656e00000000000000000000000000000000000000006020830152604082019050919050565b6000620036ed60388362003f35565b91507f4552433732313a20617070726f76652063616c6c6572206973206e6f74206f7760008301527f6e6572206e6f7220617070726f76656420666f7220616c6c00000000000000006020830152604082019050919050565b600062003755602a8362003f35565b91507f4552433732313a2062616c616e636520717565727920666f7220746865207a6560008301527f726f2061646472657373000000000000000000000000000000000000000000006020830152604082019050919050565b6000620037bd60298362003f35565b91507f4552433732313a206f776e657220717565727920666f72206e6f6e657869737460008301527f656e7420746f6b656e00000000000000000000000000000000000000000000006020830152604082019050919050565b60006200382560208362003f35565b91507f4552433732313a206d696e7420746f20746865207a65726f20616464726573736000830152602082019050919050565b600062003867602c8362003f35565b91507f4552433732313a20617070726f76656420717565727920666f72206e6f6e657860008301527f697374656e7420746f6b656e00000000000000000000000000000000000000006020830152604082019050919050565b6000620038cf60298362003f35565b91507f4552433732313a207472616e73666572206f6620746f6b656e2074686174206960008301527f73206e6f74206f776e00000000000000000000000000000000000000000000006020830152604082019050919050565b600062003937602f8362003f35565b91507f4552433732314d657461646174613a2055524920717565727920666f72206e6f60008301527f6e6578697374656e7420746f6b656e00000000000000000000000000000000006020830152604082019050919050565b60006200399f60218362003f35565b91507f4552433732313a20617070726f76616c20746f2063757272656e74206f776e6560008301527f72000000000000000000000000000000000000000000000000000000000000006020830152604082019050919050565b600062003a0760318362003f35565b91507f4552433732313a207472616e736665722063616c6c6572206973206e6f74206f60008301527f776e6572206e6f7220617070726f7665640000000000000000000000000000006020830152604082019050919050565b600060808301600083015162003a7a600086018262003ad2565b506020830151848203602086015262003a94828262003469565b915050604083015162003aab6040860182620033f5565b506060830151848203606086015262003ac5828262003469565b9150508091505092915050565b62003add8162004102565b82525050565b62003aee8162004102565b82525050565b600062003b028285620034eb565b915062003b108284620034eb565b91508190509392505050565b600060208201905062003b33600083018462003406565b92915050565b600060208201905062003b506000830184620033e4565b92915050565b600060808201905062003b6d600083018762003406565b62003b7c602083018662003406565b62003b8b604083018562003ae3565b818103606083015262003b9f818462003428565b905095945050505050565b600060208201905062003bc1600083018462003417565b92915050565b6000602082019050818103600083015262003be38184620034aa565b905092915050565b6000602082019050818103600083015262003c068162003522565b9050919050565b6000602082019050818103600083015262003c28816200358a565b9050919050565b6000602082019050818103600083015262003c4a81620035cc565b9050919050565b6000602082019050818103600083015262003c6c8162003634565b9050919050565b6000602082019050818103600083015262003c8e8162003676565b9050919050565b6000602082019050818103600083015262003cb081620036de565b9050919050565b6000602082019050818103600083015262003cd28162003746565b9050919050565b6000602082019050818103600083015262003cf481620037ae565b9050919050565b6000602082019050818103600083015262003d168162003816565b9050919050565b6000602082019050818103600083015262003d388162003858565b9050919050565b6000602082019050818103600083015262003d5a81620038c0565b9050919050565b6000602082019050818103600083015262003d7c8162003928565b9050919050565b6000602082019050818103600083015262003d9e8162003990565b9050919050565b6000602082019050818103600083015262003dc081620039f8565b9050919050565b6000602082019050818103600083015262003de3818462003a60565b905092915050565b600060208201905062003e02600083018462003ae3565b92915050565b600060808201905062003e1f600083018762003ae3565b818103602083015262003e338186620034aa565b905062003e44604083018562003406565b818103606083015262003e588184620034aa565b905095945050505050565b6000604051905081810181811067ffffffffffffffff8211171562003e8d5762003e8c6200429a565b5b8060405250919050565b600067ffffffffffffffff82111562003eb55762003eb46200429a565b5b601f19601f8301169050602081019050919050565b600067ffffffffffffffff82111562003ee85762003ee76200429a565b5b601f19601f8301169050602081019050919050565b600081519050919050565b600081519050919050565b600082825260208201905092915050565b600082825260208201905092915050565b600082825260208201905092915050565b600081905092915050565b600062003f5e8262004102565b915062003f6b8362004102565b9250827fffffffffffffffffffffffffffffffffffffffffffffffffffffffffffffffff0382111562003fa35762003fa26200420d565b5b828201905092915050565b600062003fbb8262004102565b915062003fc88362004102565b92508262003fdb5762003fda6200423c565b5b828204905092915050565b600062003ff38262004102565b9150620040008362004102565b9250817fffffffffffffffffffffffffffffffffffffffffffffffffffffffffffffffff04831182151516156200403c576200403b6200420d565b5b828202905092915050565b6000620040548262004102565b9150620040618362004102565b9250828210156200407757620040766200420d565b5b828203905092915050565b60006200408f82620040e2565b9050919050565b6000620040a382620040e2565b9050919050565b60008115159050919050565b60007fffffffff0000000000000000000000000000000000000000000000000000000082169050919050565b600073ffffffffffffffffffffffffffffffffffffffff82169050919050565b6000819050919050565b82818337600083830152505050565b60005b838110156200413b5780820151818401526020810190506200411e565b838111156200414b576000848401525b50505050565b600060028204905060018216806200416a57607f821691505b602082108114156200418157620041806200426b565b5b50919050565b6000620041948262004102565b91507fffffffffffffffffffffffffffffffffffffffffffffffffffffffffffffffff821415620041ca57620041c96200420d565b5b600182019050919050565b6000620041e28262004102565b9150620041ef8362004102565b9250826200420257620042016200423c565b5b828206905092915050565b7f4e487b7100000000000000000000000000000000000000000000000000000000600052601160045260246000fd5b7f4e487b7100000000000000000000000000000000000000000000000000000000600052601260045260246000fd5b7f4e487b7100000000000000000000000000000000000000000000000000000000600052602260045260246000fd5b7f4e487b7100000000000000000000000000000000000000000000000000000000600052604160045260246000fd5b6000601f19601f8301169050919050565b620042e58162004082565b8114620042f157600080fd5b50565b620042ff8162004096565b81146200430b57600080fd5b50565b6200431981620040aa565b81146200432557600080fd5b50565b6200433381620040b6565b81146200433f57600080fd5b50565b600481106200435057600080fd5b50565b6200435e8162004102565b81146200436a57600080fd5b5056fe608060405234801561001057600080fd5b50604051610f79380380610f79833981810160405281019061003291906100de565b806000806101000a81548173ffffffffffffffffffffffffffffffffffffffff021916908373ffffffffffffffffffffffffffffffffffffffff1602179055506001600260006101000a81548160ff021916908360038111156100be577f4e487b7100000000000000000000000000000000000000000000000000000000600052602160045260246000fd5b021790555050610150565b6000815190506100d881610139565b92915050565b6000602082840312156100f057600080fd5b60006100fe848285016100c9565b91505092915050565b600061011282610119565b9050919050565b600073ffffffffffffffffffffffffffffffffffffffff82169050919050565b61014281610107565b811461014d57600080fd5b50565b610e1a8061015f6000396000f3fe6080604052600436106100865760003560e01c8063cff29dfd11610059578063cff29dfd14610149578063d22cf3a414610186578063d57bde79146101af578063e4940157146101da578063f77282ab1461020a57610086565b806362ea82db1461008b5780637fb45099146100c85780638da5cb5b146100f357806391f901571461011e575b600080fd5b34801561009757600080fd5b506100b260048036038101906100ad9190610b2c565b610221565b6040516100bf9190610c0b565b60405180910390f35b3480156100d457600080fd5b506100dd610239565b6040516100ea9190610bf0565b60405180910390f35b3480156100ff57600080fd5b5061010861024c565b6040516101159190610bba565b60405180910390f35b34801561012a57600080fd5b50610133610270565b6040516101409190610bba565b60405180910390f35b34801561015557600080fd5b50610170600480360381019061016b9190610b55565b610296565b60405161017d9190610bba565b60405180910390f35b34801561019257600080fd5b506101ad60048036038101906101a89190610b2c565b6102d5565b005b3480156101bb57600080fd5b506101c46104f1565b6040516101d19190610c0b565b60405180910390f35b6101f460048036038101906101ef9190610b2c565b6104f7565b6040516102019190610bd5565b60405180910390f35b34801561021657600080fd5b5061021f610791565b005b60056020528060005260406000206000915090505481565b600260009054906101000a900460ff1681565b60008054906101000a900473ffffffffffffffffffffffffffffffffffffffff1681565b600460009054906101000a900473ffffffffffffffffffffffffffffffffffffffff1681565b600181815481106102a657600080fd5b906000526020600020016000915054906101000a900473ffffffffffffffffffffffffffffffffffffffff1681565b60008054906101000a900473ffffffffffffffffffffffffffffffffffffffff1673ffffffffffffffffffffffffffffffffffffffff168173ffffffffffffffffffffffffffffffffffffffff161461032d57600080fd5b6003600260006101000a81548160ff02191690836003811115610379577f4e487b7100000000000000000000000000000000000000000000000000000000600052602160045260246000fd5b021790555060005b6001805490508110156104ed57600181815481106103c8577f4e487b7100000000000000000000000000000000000000000000000000000000600052603260045260246000fd5b9060005260206000200160009054906101000a900473ffffffffffffffffffffffffffffffffffffffff1673ffffffffffffffffffffffffffffffffffffffff166108fc600560006001858154811061044a577f4e487b7100000000000000000000000000000000000000000000000000000000600052603260045260246000fd5b9060005260206000200160009054906101000a900473ffffffffffffffffffffffffffffffffffffffff1673ffffffffffffffffffffffffffffffffffffffff1673ffffffffffffffffffffffffffffffffffffffff168152602001908152602001600020549081150290604051600060405180830381858888f193505050501580156104db573d6000803e3d6000fd5b50806104e690610cfb565b9050610381565b5050565b60035481565b60008060009054906101000a900473ffffffffffffffffffffffffffffffffffffffff1673ffffffffffffffffffffffffffffffffffffffff168273ffffffffffffffffffffffffffffffffffffffff16141561055357600080fd5b6001600381111561058d577f4e487b7100000000000000000000000000000000000000000000000000000000600052602160045260246000fd5b600260009054906101000a900460ff1660038111156105d5577f4e487b7100000000000000000000000000000000000000000000000000000000600052602160045260246000fd5b146105df57600080fd5b66038d7ea4c6800034116105f257600080fd5b6000600560008473ffffffffffffffffffffffffffffffffffffffff1673ffffffffffffffffffffffffffffffffffffffff16815260200190815260200160002054141561069e576001829080600181540180825580915050600190039060005260206000200160009091909190916101000a81548173ffffffffffffffffffffffffffffffffffffffff021916908373ffffffffffffffffffffffffffffffffffffffff1602179055505b600034600560008573ffffffffffffffffffffffffffffffffffffffff1673ffffffffffffffffffffffffffffffffffffffff168152602001908152602001600020546106eb9190610c26565b905060035481116106fb57600080fd5b80600560008573ffffffffffffffffffffffffffffffffffffffff1673ffffffffffffffffffffffffffffffffffffffff168152602001908152602001600020819055508060038190555082600460006101000a81548173ffffffffffffffffffffffffffffffffffffffff021916908373ffffffffffffffffffffffffffffffffffffffff1602179055506001915050919050565b6003808111156107ca577f4e487b7100000000000000000000000000000000000000000000000000000000600052602160045260246000fd5b600260009054906101000a900460ff166003811115610812577f4e487b7100000000000000000000000000000000000000000000000000000000600052602160045260246000fd5b141561081d57600080fd5b60008054906101000a900473ffffffffffffffffffffffffffffffffffffffff1673ffffffffffffffffffffffffffffffffffffffff166108fc6003549081150290604051600060405180830381858888f19350505050158015610885573d6000803e3d6000fd5b5060005b600180549050811015610aaf57600460009054906101000a900473ffffffffffffffffffffffffffffffffffffffff1673ffffffffffffffffffffffffffffffffffffffff1660018281548110610909577f4e487b7100000000000000000000000000000000000000000000000000000000600052603260045260246000fd5b9060005260206000200160009054906101000a900473ffffffffffffffffffffffffffffffffffffffff1673ffffffffffffffffffffffffffffffffffffffff1614610a9e5760018181548110610989577f4e487b7100000000000000000000000000000000000000000000000000000000600052603260045260246000fd5b9060005260206000200160009054906101000a900473ffffffffffffffffffffffffffffffffffffffff1673ffffffffffffffffffffffffffffffffffffffff166108fc6005600060018581548110610a0b577f4e487b7100000000000000000000000000000000000000000000000000000000600052603260045260246000fd5b9060005260206000200160009054906101000a900473ffffffffffffffffffffffffffffffffffffffff1673ffffffffffffffffffffffffffffffffffffffff1673ffffffffffffffffffffffffffffffffffffffff168152602001908152602001600020549081150290604051600060405180830381858888f19350505050158015610a9c573d6000803e3d6000fd5b505b80610aa890610cfb565b9050610889565b5060028060006101000a81548160ff02191690836003811115610afb577f4e487b7100000000000000000000000000000000000000000000000000000000600052602160045260246000fd5b0217905550565b600081359050610b1181610db6565b92915050565b600081359050610b2681610dcd565b92915050565b600060208284031215610b3e57600080fd5b6000610b4c84828501610b02565b91505092915050565b600060208284031215610b6757600080fd5b6000610b7584828501610b17565b91505092915050565b610b8781610c8e565b82525050565b610b9681610ca0565b82525050565b610ba581610ce9565b82525050565b610bb481610cdf565b82525050565b6000602082019050610bcf6000830184610b7e565b92915050565b6000602082019050610bea6000830184610b8d565b92915050565b6000602082019050610c056000830184610b9c565b92915050565b6000602082019050610c206000830184610bab565b92915050565b6000610c3182610cdf565b9150610c3c83610cdf565b9250827fffffffffffffffffffffffffffffffffffffffffffffffffffffffffffffffff03821115610c7157610c70610d44565b5b828201905092915050565b6000610c8782610cbf565b9050919050565b6000610c9982610cbf565b9050919050565b60008115159050919050565b6000819050610cba82610da2565b919050565b600073ffffffffffffffffffffffffffffffffffffffff82169050919050565b6000819050919050565b6000610cf482610cac565b9050919050565b6000610d0682610cdf565b91507fffffffffffffffffffffffffffffffffffffffffffffffffffffffffffffffff821415610d3957610d38610d44565b5b600182019050919050565b7f4e487b7100000000000000000000000000000000000000000000000000000000600052601160045260246000fd5b7f4e487b7100000000000000000000000000000000000000000000000000000000600052602160045260246000fd5b60048110610db357610db2610d73565b5b50565b610dbf81610c7c565b8114610dca57600080fd5b50565b610dd681610cdf565b8114610de157600080fd5b5056fea26469706673582212202328129fd86dbe101045ba5295f3029d672ad2bc6e741654801f2def0efc805764736f6c63430008000033a264697066735822122012d621566d4964cb613064777cd61df34144a39d8400dc9b98ab08f41a1cff6564736f6c63430008000033",
  "immutableReferences": {},
  "source": "pragma solidity ^0.8.0;\r\n\r\nimport \"./ToknCollectible.sol\";\r\nimport \"./Auction.sol\";\r\n\r\ncontract ToknBidding is ToknCollectible{\r\n\r\n  // uint256 collectibleID;\r\n  // address payable creator;\r\n  // address payable owner;\r\n    mapping(uint256=> bool) public runningAuction;\r\n  mapping(uint256=> address) public currentAuctionForTokn;\r\n  // mapping(uint256=> mapping(address=>bool)) public currentRunningAuction;\r\n  mapping(address=> uint) public auctionMaxPrice;\r\n  \r\n  constructor(string memory name, string memory symbol) public ToknCollectible(name, symbol){\r\n    // collectibleID = _toknID;\r\n    // creator = payable(_creator);\r\n    // owner = payable(msg.sender);\r\n  }\r\n\r\n\r\n // Starting auction for a particular collectible\r\nfunction startAuction(uint256 toknID, uint _maxPrice) public toknExists(toknID){\r\n  // require(_exists(toknID));\r\n  require(_isApprovedOrOwner(msg.sender, toknID));\r\n  require(runningAuction[toknID] == false);\r\n\r\n  Auction newAuction = new Auction(payable(msg.sender));\r\n  // collectibleAuctions[toknID].push(address(newAuction));\r\n  auctionMaxPrice[address(newAuction)] =_maxPrice*10**18;\r\n  runningAuction[toknID] = true;\r\n  currentAuctionForTokn[toknID] = address(newAuction);\r\n}\r\n\r\n\r\n// Placeing Bid\r\nfunction bid(uint256 _toknID) public payable toknExists(_toknID) returns(bool){\r\n  // require(_exists(_toknID));\r\n  require(runningAuction[_toknID]);\r\n  \r\n  // Auction currentAuction = currentAuctionForTokn[_toknID];\r\n\r\n  bool res = Auction(currentAuctionForTokn[_toknID]).placeBid{value: msg.value}(msg.sender);\r\n\r\n  // Finalizing the auction if the current bid reaches maximum price defines by the owner \r\n  if(msg.value >= auctionMaxPrice[address(currentAuctionForTokn[_toknID])]){\r\n    runningAuction[_toknID] = false;\r\n\r\n  }\r\n  return res;\r\n}\r\n\r\n// Finalizing Auction and transferring the ownership to the buyer and sending the commision to the original creator\r\nfunction endAuction(uint256 _toknID, uint256 commission) public toknExists(_toknID){\r\n  // require(_exists(_toknID));\r\n  Auction currentAuction = Auction(currentAuctionForTokn[_toknID]);\r\n  require(currentAuction.auctionState() != Auction.State.Ended); \r\n  require(msg.sender == currentAuction.owner());\r\n  \r\n  currentAuction.finalizeAuction();\r\n  _collectibleList[_toknID]._owner = currentAuction.highestBidder();\r\n  // uint lastPrice = currentAuction.highestBid()/uint(10**18);\r\n  // uint creatorCommission = ((currentAuction.highestBid()/uint(10**18))*commission/uint(100));\r\n  creator.transfer(((currentAuction.highestBid()/uint(10**18))*commission/uint(100))*10**18); \r\n  safeTransferFrom(msg.sender, currentAuction.highestBidder(), _toknID);\r\n  runningAuction[_toknID] = false;\r\n  delete currentAuctionForTokn[_toknID];\r\n}\r\n\r\n//cancelling the auction\r\nfunction cancelAuction(uint256 toknID) public toknExists(toknID){\r\n  // require(_exists(toknID));\r\n  require(msg.sender == _collectibleList[toknID]._owner);\r\n  require(runningAuction[toknID]);\r\n  // Auction currentAuction = currentAuctionForTokn[toknID];\r\n  Auction(currentAuctionForTokn[toknID]).cancelAuction(msg.sender);\r\n  runningAuction[toknID] = false;\r\n  delete currentAuctionForTokn[toknID];\r\n}\r\n\r\n// setting terminal price for auction\r\nfunction setMaxPrice(uint256 toknID, uint price) public toknExists(toknID) returns(bool){\r\n  // require(_exists(toknID));\r\n  require(msg.sender == _collectibleList[toknID]._owner);\r\n  require(runningAuction[toknID]);\r\n \r\n  // Auction currentAuction = currentAuctionForTokn[toknID];\r\n  auctionMaxPrice[currentAuctionForTokn[toknID]] = price*10**18;\r\n  return true;\r\n}\r\n\r\n}",
  "sourcePath": "C:\\Users\\lenovo\\OneDrive\\Desktop\\projects\\Tokn\\contracts\\ToknBidding.sol",
  "compiler": {
    "name": "solc",
    "version": "0.8.0+commit.c7dfd78e.Emscripten.clang"
  },
  "schemaVersion": "3.4.1",
  "updatedAt": "2021-07-21T21:38:37.890Z",
  "devdoc": {
    "kind": "dev",
    "methods": {
      "approve(address,uint256)": {
        "details": "See {IERC721-approve}."
      },
      "balanceOf(address)": {
        "details": "See {IERC721-balanceOf}."
      },
      "getApproved(uint256)": {
        "details": "See {IERC721-getApproved}."
      },
      "isApprovedForAll(address,address)": {
        "details": "See {IERC721-isApprovedForAll}."
      },
      "name()": {
        "details": "See {IERC721Metadata-name}."
      },
      "ownerOf(uint256)": {
        "details": "See {IERC721-ownerOf}."
      },
      "safeTransferFrom(address,address,uint256)": {
        "details": "See {IERC721-safeTransferFrom}."
      },
      "safeTransferFrom(address,address,uint256,bytes)": {
        "details": "See {IERC721-safeTransferFrom}."
      },
      "setApprovalForAll(address,bool)": {
        "details": "See {IERC721-setApprovalForAll}."
      },
      "supportsInterface(bytes4)": {
        "details": "See {IERC165-supportsInterface}."
      },
      "symbol()": {
        "details": "See {IERC721Metadata-symbol}."
      },
      "tokenURI(uint256)": {
        "details": "See {IERC721Metadata-tokenURI}."
      },
      "transferFrom(address,address,uint256)": {
        "details": "See {IERC721-transferFrom}."
      }
    },
    "version": 1
  },
  "userdoc": {
    "kind": "user",
    "methods": {},
    "version": 1
  }
}