{
  "contractName": "ToknBidding",
  "abi": [
    {
      "inputs": [
        {
          "internalType": "string",
          "name": "name",
          "type": "string"
        },
        {
          "internalType": "string",
          "name": "symbol",
          "type": "string"
        }
      ],
      "stateMutability": "nonpayable",
      "type": "constructor"
    },
    {
      "anonymous": false,
      "inputs": [
        {
          "indexed": true,
          "internalType": "address",
          "name": "owner",
          "type": "address"
        },
        {
          "indexed": true,
          "internalType": "address",
          "name": "approved",
          "type": "address"
        },
        {
          "indexed": true,
          "internalType": "uint256",
          "name": "tokenId",
          "type": "uint256"
        }
      ],
      "name": "Approval",
      "type": "event"
    },
    {
      "anonymous": false,
      "inputs": [
        {
          "indexed": true,
          "internalType": "address",
          "name": "owner",
          "type": "address"
        },
        {
          "indexed": true,
          "internalType": "address",
          "name": "operator",
          "type": "address"
        },
        {
          "indexed": false,
          "internalType": "bool",
          "name": "approved",
          "type": "bool"
        }
      ],
      "name": "ApprovalForAll",
      "type": "event"
    },
    {
      "anonymous": false,
      "inputs": [
        {
          "indexed": false,
          "internalType": "uint256",
          "name": "_collectibleID",
          "type": "uint256"
        },
        {
          "indexed": false,
          "internalType": "string",
          "name": "_title",
          "type": "string"
        },
        {
          "indexed": false,
          "internalType": "address",
          "name": "_owner",
          "type": "address"
        },
        {
          "indexed": false,
          "internalType": "string",
          "name": "_collectibleURI",
          "type": "string"
        }
      ],
      "name": "CollectibleCreated",
      "type": "event"
    },
    {
      "anonymous": false,
      "inputs": [
        {
          "indexed": true,
          "internalType": "address",
          "name": "from",
          "type": "address"
        },
        {
          "indexed": true,
          "internalType": "address",
          "name": "to",
          "type": "address"
        },
        {
          "indexed": true,
          "internalType": "uint256",
          "name": "tokenId",
          "type": "uint256"
        }
      ],
      "name": "Transfer",
      "type": "event"
    },
    {
      "inputs": [],
      "name": "_collectibleCount",
      "outputs": [
        {
          "internalType": "uint256",
          "name": "",
          "type": "uint256"
        }
      ],
      "stateMutability": "view",
      "type": "function"
    },
    {
      "inputs": [],
      "name": "_collectibleID",
      "outputs": [
        {
          "internalType": "uint256",
          "name": "",
          "type": "uint256"
        }
      ],
      "stateMutability": "view",
      "type": "function"
    },
    {
      "inputs": [
        {
          "internalType": "uint256",
          "name": "",
          "type": "uint256"
        }
      ],
      "name": "_collectibleList",
      "outputs": [
        {
          "internalType": "uint256",
          "name": "_collectibleID",
          "type": "uint256"
        },
        {
          "internalType": "string",
          "name": "_title",
          "type": "string"
        },
        {
          "internalType": "address",
          "name": "_owner",
          "type": "address"
        },
        {
          "internalType": "string",
          "name": "_collectibleURI",
          "type": "string"
        }
      ],
      "stateMutability": "view",
      "type": "function"
    },
    {
      "inputs": [
        {
          "internalType": "address",
          "name": "to",
          "type": "address"
        },
        {
          "internalType": "uint256",
          "name": "tokenId",
          "type": "uint256"
        }
      ],
      "name": "approve",
      "outputs": [],
      "stateMutability": "nonpayable",
      "type": "function"
    },
    {
      "inputs": [
        {
          "internalType": "address",
          "name": "owner",
          "type": "address"
        }
      ],
      "name": "balanceOf",
      "outputs": [
        {
          "internalType": "uint256",
          "name": "",
          "type": "uint256"
        }
      ],
      "stateMutability": "view",
      "type": "function"
    },
    {
      "inputs": [
        {
          "internalType": "string",
          "name": "_title",
          "type": "string"
        },
        {
          "internalType": "string",
          "name": "_tokenURI",
          "type": "string"
        }
      ],
      "name": "create",
      "outputs": [
        {
          "components": [
            {
              "internalType": "uint256",
              "name": "_collectibleID",
              "type": "uint256"
            },
            {
              "internalType": "string",
              "name": "_title",
              "type": "string"
            },
            {
              "internalType": "address",
              "name": "_owner",
              "type": "address"
            },
            {
              "internalType": "string",
              "name": "_collectibleURI",
              "type": "string"
            }
          ],
          "internalType": "struct ToknCollectible.Collectible",
          "name": "",
          "type": "tuple"
        }
      ],
      "stateMutability": "nonpayable",
      "type": "function"
    },
    {
      "inputs": [],
      "name": "creator",
      "outputs": [
        {
          "internalType": "address payable",
          "name": "",
          "type": "address"
        }
      ],
      "stateMutability": "view",
      "type": "function"
    },
    {
      "inputs": [
        {
          "internalType": "uint256",
          "name": "",
          "type": "uint256"
        }
      ],
      "name": "currentAuctionForTokn",
      "outputs": [
        {
          "internalType": "address",
          "name": "",
          "type": "address"
        }
      ],
      "stateMutability": "view",
      "type": "function"
    },
    {
      "inputs": [
        {
          "internalType": "uint256",
          "name": "toknID",
          "type": "uint256"
        }
      ],
      "name": "destroy",
      "outputs": [
        {
          "internalType": "bool",
          "name": "success",
          "type": "bool"
        }
      ],
      "stateMutability": "nonpayable",
      "type": "function"
    },
    {
      "inputs": [
        {
          "internalType": "uint256",
          "name": "tokenId",
          "type": "uint256"
        }
      ],
      "name": "getApproved",
      "outputs": [
        {
          "internalType": "address",
          "name": "",
          "type": "address"
        }
      ],
      "stateMutability": "view",
      "type": "function"
    },
    {
      "inputs": [
        {
          "internalType": "address",
          "name": "owner",
          "type": "address"
        },
        {
          "internalType": "address",
          "name": "operator",
          "type": "address"
        }
      ],
      "name": "isApprovedForAll",
      "outputs": [
        {
          "internalType": "bool",
          "name": "",
          "type": "bool"
        }
      ],
      "stateMutability": "view",
      "type": "function"
    },
    {
      "inputs": [],
      "name": "name",
      "outputs": [
        {
          "internalType": "string",
          "name": "",
          "type": "string"
        }
      ],
      "stateMutability": "view",
      "type": "function"
    },
    {
      "inputs": [
        {
          "internalType": "uint256",
          "name": "tokenId",
          "type": "uint256"
        }
      ],
      "name": "ownerOf",
      "outputs": [
        {
          "internalType": "address",
          "name": "",
          "type": "address"
        }
      ],
      "stateMutability": "view",
      "type": "function"
    },
    {
      "inputs": [
        {
          "internalType": "uint256",
          "name": "",
          "type": "uint256"
        }
      ],
      "name": "runningAuction",
      "outputs": [
        {
          "internalType": "bool",
          "name": "",
          "type": "bool"
        }
      ],
      "stateMutability": "view",
      "type": "function"
    },
    {
      "inputs": [
        {
          "internalType": "address",
          "name": "from",
          "type": "address"
        },
        {
          "internalType": "address",
          "name": "to",
          "type": "address"
        },
        {
          "internalType": "uint256",
          "name": "tokenId",
          "type": "uint256"
        }
      ],
      "name": "safeTransferFrom",
      "outputs": [],
      "stateMutability": "nonpayable",
      "type": "function"
    },
    {
      "inputs": [
        {
          "internalType": "address",
          "name": "from",
          "type": "address"
        },
        {
          "internalType": "address",
          "name": "to",
          "type": "address"
        },
        {
          "internalType": "uint256",
          "name": "tokenId",
          "type": "uint256"
        },
        {
          "internalType": "bytes",
          "name": "_data",
          "type": "bytes"
        }
      ],
      "name": "safeTransferFrom",
      "outputs": [],
      "stateMutability": "nonpayable",
      "type": "function"
    },
    {
      "inputs": [
        {
          "internalType": "address",
          "name": "operator",
          "type": "address"
        },
        {
          "internalType": "bool",
          "name": "approved",
          "type": "bool"
        }
      ],
      "name": "setApprovalForAll",
      "outputs": [],
      "stateMutability": "nonpayable",
      "type": "function"
    },
    {
      "inputs": [
        {
          "internalType": "bytes4",
          "name": "interfaceId",
          "type": "bytes4"
        }
      ],
      "name": "supportsInterface",
      "outputs": [
        {
          "internalType": "bool",
          "name": "",
          "type": "bool"
        }
      ],
      "stateMutability": "view",
      "type": "function"
    },
    {
      "inputs": [],
      "name": "symbol",
      "outputs": [
        {
          "internalType": "string",
          "name": "",
          "type": "string"
        }
      ],
      "stateMutability": "view",
      "type": "function"
    },
    {
      "inputs": [
        {
          "internalType": "uint256",
          "name": "tokenId",
          "type": "uint256"
        }
      ],
      "name": "tokenURI",
      "outputs": [
        {
          "internalType": "string",
          "name": "",
          "type": "string"
        }
      ],
      "stateMutability": "view",
      "type": "function"
    },
    {
      "inputs": [
        {
          "internalType": "uint256",
          "name": "",
          "type": "uint256"
        }
      ],
      "name": "toknMaxPrice",
      "outputs": [
        {
          "internalType": "uint256",
          "name": "",
          "type": "uint256"
        }
      ],
      "stateMutability": "view",
      "type": "function"
    },
    {
      "inputs": [
        {
          "internalType": "address",
          "name": "from",
          "type": "address"
        },
        {
          "internalType": "address",
          "name": "to",
          "type": "address"
        },
        {
          "internalType": "uint256",
          "name": "tokenId",
          "type": "uint256"
        }
      ],
      "name": "transferFrom",
      "outputs": [],
      "stateMutability": "nonpayable",
      "type": "function"
    },
    {
      "inputs": [
        {
          "internalType": "uint256",
          "name": "toknID",
          "type": "uint256"
        },
        {
          "internalType": "uint256",
          "name": "_maxPrice",
          "type": "uint256"
        }
      ],
      "name": "startAuction",
      "outputs": [],
      "stateMutability": "nonpayable",
      "type": "function"
    },
    {
      "inputs": [
        {
          "internalType": "uint256",
          "name": "_toknID",
          "type": "uint256"
        }
      ],
      "name": "bid",
      "outputs": [],
      "stateMutability": "payable",
      "type": "function"
    },
    {
      "inputs": [
        {
          "internalType": "uint256",
          "name": "_toknID",
          "type": "uint256"
        },
        {
          "internalType": "uint256",
          "name": "commission",
          "type": "uint256"
        }
      ],
      "name": "endAuction",
      "outputs": [],
      "stateMutability": "nonpayable",
      "type": "function"
    },
    {
      "inputs": [
        {
          "internalType": "uint256",
          "name": "toknID",
          "type": "uint256"
        }
      ],
      "name": "cancelAuction",
      "outputs": [],
      "stateMutability": "nonpayable",
      "type": "function"
    },
    {
      "inputs": [
        {
          "internalType": "uint256",
          "name": "toknID",
          "type": "uint256"
        },
        {
          "internalType": "uint256",
          "name": "price",
          "type": "uint256"
        }
      ],
      "name": "setMaxPrice",
      "outputs": [],
      "stateMutability": "nonpayable",
      "type": "function"
    }
  ],
  "bytecode": "0x60806040523480156200001157600080fd5b50604051620053f4380380620053f48339818101604052810190620000379190620001ab565b8181818181600090805190602001906200005392919062000089565b5080600190805190602001906200006c92919062000089565b50505060006006819055506000600781905550505050506200034f565b8280546200009790620002bb565b90600052602060002090601f016020900481019282620000bb576000855562000107565b82601f10620000d657805160ff191683800117855562000107565b8280016001018555821562000107579182015b8281111562000106578251825591602001919060010190620000e9565b5b5090506200011691906200011a565b5090565b5b80821115620001355760008160009055506001016200011b565b5090565b6000620001506200014a8462000252565b6200021e565b9050828152602081018484840111156200016957600080fd5b6200017684828562000285565b509392505050565b600082601f8301126200019057600080fd5b8151620001a284826020860162000139565b91505092915050565b60008060408385031215620001bf57600080fd5b600083015167ffffffffffffffff811115620001da57600080fd5b620001e8858286016200017e565b925050602083015167ffffffffffffffff8111156200020657600080fd5b62000214858286016200017e565b9150509250929050565b6000604051905081810181811067ffffffffffffffff8211171562000248576200024762000320565b5b8060405250919050565b600067ffffffffffffffff82111562000270576200026f62000320565b5b601f19601f8301169050602081019050919050565b60005b83811015620002a557808201518184015260208101905062000288565b83811115620002b5576000848401525b50505050565b60006002820490506001821680620002d457607f821691505b60208210811415620002eb57620002ea620002f1565b5b50919050565b7f4e487b7100000000000000000000000000000000000000000000000000000000600052602260045260246000fd5b7f4e487b7100000000000000000000000000000000000000000000000000000000600052604160045260246000fd5b615095806200035f6000396000f3fe608060405260043610620001c45760003560e01c806354bbdfab1162000103578063a22cb4651162000097578063c87b56dd116200006d578063c87b56dd1462000697578063ca225b9714620006db578063cd73240f1462000722578063e985e9c5146200076657620001c4565b8063a22cb465146200060b578063b88d4fde1462000639578063bab22d8d146200066757620001c4565b806370a0823111620000d957806370a08231146200052557806395d89b41146200056957806396b5a75514620005995780639d11877014620005c757620001c4565b806354bbdfab146200046d5780635da32739146200049d5780636352211e14620004e157620001c4565b8063198e2b8a116200017b57806342842e0e116200015157806342842e0e14620003c3578063454a2ab314620003f157806347afe43714620004115780634fee13fc146200043f57620001c4565b8063198e2b8a146200032357806323b872dd14620003675780634173ce5b146200039557620001c4565b806301ffc9a714620001c957806302d05d3f146200020d57806306fdde03146200023d578063081812fc146200026d578063095ea7b314620002b157806312baa91014620002df575b600080fd5b348015620001d657600080fd5b50620001f56004803603810190620001ef919062003033565b620007aa565b60405162000204919062003989565b60405180910390f35b3480156200021a57600080fd5b506200022562000890565b60405162000234919062003918565b60405180910390f35b3480156200024a57600080fd5b5062000255620008b6565b604051620002649190620039a6565b60405180910390f35b3480156200027a57600080fd5b506200029960048036038101906200029391906200312a565b62000950565b604051620002a89190620038fb565b60405180910390f35b348015620002be57600080fd5b50620002dd6004803603810190620002d7919062002ff2565b620009da565b005b348015620002ec57600080fd5b506200030b60048036038101906200030591906200312a565b62000b03565b6040516200031a919062003bca565b60405180910390f35b3480156200033057600080fd5b506200034f6004803603810190620003499190620030b7565b62000b1b565b6040516200035e919062003ba6565b60405180910390f35b3480156200037457600080fd5b506200039360048036038101906200038d919062002ed6565b62000cd8565b005b348015620003a257600080fd5b50620003c16004803603810190620003bb919062003182565b62000d41565b005b348015620003d057600080fd5b50620003ef6004803603810190620003e9919062002ed6565b62000e17565b005b6200040f60048036038101906200040991906200312a565b62000e39565b005b3480156200041e57600080fd5b506200043d600480360381019062000437919062003182565b62000f5d565b005b3480156200044c57600080fd5b506200046b600480360381019062000465919062003182565b62001483565b005b3480156200047a57600080fd5b5062000485620015c3565b60405162000494919062003bca565b60405180910390f35b348015620004aa57600080fd5b50620004c96004803603810190620004c391906200312a565b620015c9565b604051620004d8919062003989565b60405180910390f35b348015620004ee57600080fd5b506200050d60048036038101906200050791906200312a565b620015e9565b6040516200051c9190620038fb565b60405180910390f35b3480156200053257600080fd5b506200055160048036038101906200054b919062002e3d565b6200169e565b60405162000560919062003bca565b60405180910390f35b3480156200057657600080fd5b506200058162001759565b604051620005909190620039a6565b60405180910390f35b348015620005a657600080fd5b50620005c56004803603810190620005bf91906200312a565b620017f3565b005b348015620005d457600080fd5b50620005f36004803603810190620005ed91906200312a565b62001969565b60405162000602919062003989565b60405180910390f35b3480156200061857600080fd5b5062000637600480360381019062000631919062002fb1565b620019fd565b005b3480156200064657600080fd5b506200066560048036038101906200065f919062002f2c565b62001b89565b005b3480156200067457600080fd5b506200067f62001bf4565b6040516200068e919062003bca565b60405180910390f35b348015620006a457600080fd5b50620006c36004803603810190620006bd91906200312a565b62001bfa565b604051620006d29190620039a6565b60405180910390f35b348015620006e857600080fd5b506200070760048036038101906200070191906200312a565b62001cae565b60405162000719949392919062003be7565b60405180910390f35b3480156200072f57600080fd5b506200074e60048036038101906200074891906200312a565b62001e1e565b6040516200075d9190620038fb565b60405180910390f35b3480156200077357600080fd5b506200079260048036038101906200078c919062002e95565b62001e51565b604051620007a1919062003989565b60405180910390f35b60007f80ac58cd000000000000000000000000000000000000000000000000000000007bffffffffffffffffffffffffffffffffffffffffffffffffffffffff1916827bffffffffffffffffffffffffffffffffffffffffffffffffffffffff191614806200087657507f5b5e139f000000000000000000000000000000000000000000000000000000007bffffffffffffffffffffffffffffffffffffffffffffffffffffffff1916827bffffffffffffffffffffffffffffffffffffffffffffffffffffffff1916145b80620008895750620008888262001ee5565b5b9050919050565b600860009054906101000a900473ffffffffffffffffffffffffffffffffffffffff1681565b606060008054620008c79062003f30565b80601f0160208091040260200160405190810160405280929190818152602001828054620008f59062003f30565b8015620009465780601f106200091a5761010080835404028352916020019162000946565b820191906000526020600020905b8154815290600101906020018083116200092857829003601f168201915b5050505050905090565b60006200095d8262001f4f565b6200099f576040517f08c379a0000000000000000000000000000000000000000000000000000000008152600401620009969062003afc565b60405180910390fd5b6004600083815260200190815260200160002060009054906101000a900473ffffffffffffffffffffffffffffffffffffffff169050919050565b6000620009e782620015e9565b90508073ffffffffffffffffffffffffffffffffffffffff168373ffffffffffffffffffffffffffffffffffffffff16141562000a5b576040517f08c379a000000000000000000000000000000000000000000000000000000000815260040162000a529062003b62565b60405180910390fd5b8073ffffffffffffffffffffffffffffffffffffffff1662000a7c62001fbb565b73ffffffffffffffffffffffffffffffffffffffff16148062000ab0575062000aaf8162000aa962001fbb565b62001e51565b5b62000af2576040517f08c379a000000000000000000000000000000000000000000000000000000000815260040162000ae99062003a74565b60405180910390fd5b62000afe838362001fc3565b505050565b600c6020528060005260406000206000915090505481565b62000b2562002b5f565b6006600081548092919062000b3a9062003f66565b91905055506007600081548092919062000b549062003f66565b91905055506000604051806080016040528060065481526020018581526020013373ffffffffffffffffffffffffffffffffffffffff1681526020018481525090508060096000600654815260200190815260200160002060008201518160000155602082015181600101908051906020019062000bd492919062002b9d565b5060408201518160020160006101000a81548173ffffffffffffffffffffffffffffffffffffffff021916908373ffffffffffffffffffffffffffffffffffffffff160217905550606082015181600301908051906020019062000c3a92919062002b9d565b509050507f4265c0fca0618144a5f95ac58797316e876c6d2cc3c31e68bdf2c07ad8a53dd160065485338660405162000c77949392919062003be7565b60405180910390a162000c8d336006546200207e565b33600860006101000a81548173ffffffffffffffffffffffffffffffffffffffff021916908373ffffffffffffffffffffffffffffffffffffffff1602179055508091505092915050565b62000ced62000ce662001fbb565b826200209e565b62000d2f576040517f08c379a000000000000000000000000000000000000000000000000000000000815260040162000d269062003b84565b60405180910390fd5b62000d3c83838362002189565b505050565b62000d4c82620023f5565b6009600083815260200190815260200160002060020160009054906101000a900473ffffffffffffffffffffffffffffffffffffffff1673ffffffffffffffffffffffffffffffffffffffff163373ffffffffffffffffffffffffffffffffffffffff161462000dbb57600080fd5b600a600083815260200190815260200160002060009054906101000a900460ff1662000de657600080fd5b670de0b6b3a76400008162000dfc919062003dc5565b600c6000848152602001908152602001600020819055505050565b62000e348383836040518060200160405280600081525062001b89565b505050565b62000e4481620023f5565b600a600082815260200190815260200160002060009054906101000a900460ff1662000e6f57600080fd5b600b600082815260200190815260200160002060009054906101000a900473ffffffffffffffffffffffffffffffffffffffff1673ffffffffffffffffffffffffffffffffffffffff1663e494015734336040518363ffffffff1660e01b815260040162000ede9190620038fb565b6000604051808303818588803b15801562000ef857600080fd5b505af115801562000f0d573d6000803e3d6000fd5b5050505050600c600082815260200190815260200160002054341062000f5a576000600a600083815260200190815260200160002060006101000a81548160ff0219169083151502179055505b50565b62000f6882620023f5565b6000600b600084815260200190815260200160002060009054906101000a900473ffffffffffffffffffffffffffffffffffffffff1690506002600381111562000fdb577f4e487b7100000000000000000000000000000000000000000000000000000000600052602160045260246000fd5b8173ffffffffffffffffffffffffffffffffffffffff16637fb450996040518163ffffffff1660e01b815260040160206040518083038186803b1580156200102257600080fd5b505afa15801562001037573d6000803e3d6000fd5b505050506040513d601f19601f820116820180604052508101906200105d91906200308b565b600381111562001096577f4e487b7100000000000000000000000000000000000000000000000000000000600052602160045260246000fd5b1415620010a257600080fd5b8073ffffffffffffffffffffffffffffffffffffffff16638da5cb5b6040518163ffffffff1660e01b815260040160206040518083038186803b158015620010e957600080fd5b505afa158015620010fe573d6000803e3d6000fd5b505050506040513d601f19601f8201168201806040525081019062001124919062002e69565b73ffffffffffffffffffffffffffffffffffffffff163373ffffffffffffffffffffffffffffffffffffffff16146200115c57600080fd5b8073ffffffffffffffffffffffffffffffffffffffff1663f77282ab6040518163ffffffff1660e01b8152600401600060405180830381600087803b158015620011a557600080fd5b505af1158015620011ba573d6000803e3d6000fd5b505050508073ffffffffffffffffffffffffffffffffffffffff166391f901576040518163ffffffff1660e01b815260040160206040518083038186803b1580156200120557600080fd5b505afa1580156200121a573d6000803e3d6000fd5b505050506040513d601f19601f8201168201806040525081019062001240919062002e69565b6009600085815260200190815260200160002060020160006101000a81548173ffffffffffffffffffffffffffffffffffffffff021916908373ffffffffffffffffffffffffffffffffffffffff160217905550600860009054906101000a900473ffffffffffffffffffffffffffffffffffffffff1673ffffffffffffffffffffffffffffffffffffffff166108fc670de0b6b3a7640000606485670de0b6b3a76400008673ffffffffffffffffffffffffffffffffffffffff1663d57bde796040518163ffffffff1660e01b815260040160206040518083038186803b1580156200132c57600080fd5b505afa15801562001341573d6000803e3d6000fd5b505050506040513d601f19601f8201168201806040525081019062001367919062003156565b62001373919062003d8d565b6200137f919062003dc5565b6200138b919062003d8d565b62001397919062003dc5565b9081150290604051600060405180830381858888f19350505050158015620013c3573d6000803e3d6000fd5b5062001452338273ffffffffffffffffffffffffffffffffffffffff166391f901576040518163ffffffff1660e01b815260040160206040518083038186803b1580156200141057600080fd5b505afa15801562001425573d6000803e3d6000fd5b505050506040513d601f19601f820116820180604052508101906200144b919062002e69565b8562000e17565b6000600a600085815260200190815260200160002060006101000a81548160ff021916908315150217905550505050565b6200148e82620023f5565b6200149a33836200209e565b620014a457600080fd5b60001515600a600084815260200190815260200160002060009054906101000a900460ff16151514620014d657600080fd5b600033604051620014e79062002c2e565b620014f3919062003918565b604051809103906000f08015801562001510573d6000803e3d6000fd5b509050670de0b6b3a76400008262001529919062003dc5565b600c6000858152602001908152602001600020819055506001600a600085815260200190815260200160002060006101000a81548160ff02191690831515021790555080600b600085815260200190815260200160002060006101000a81548173ffffffffffffffffffffffffffffffffffffffff021916908373ffffffffffffffffffffffffffffffffffffffff160217905550505050565b60075481565b600a6020528060005260406000206000915054906101000a900460ff1681565b6000806002600084815260200190815260200160002060009054906101000a900473ffffffffffffffffffffffffffffffffffffffff169050600073ffffffffffffffffffffffffffffffffffffffff168173ffffffffffffffffffffffffffffffffffffffff16141562001695576040517f08c379a00000000000000000000000000000000000000000000000000000000081526004016200168c9062003ab8565b60405180910390fd5b80915050919050565b60008073ffffffffffffffffffffffffffffffffffffffff168273ffffffffffffffffffffffffffffffffffffffff16141562001712576040517f08c379a0000000000000000000000000000000000000000000000000000000008152600401620017099062003a96565b60405180910390fd5b600360008373ffffffffffffffffffffffffffffffffffffffff1673ffffffffffffffffffffffffffffffffffffffff168152602001908152602001600020549050919050565b6060600180546200176a9062003f30565b80601f0160208091040260200160405190810160405280929190818152602001828054620017989062003f30565b8015620017e95780601f10620017bd57610100808354040283529160200191620017e9565b820191906000526020600020905b815481529060010190602001808311620017cb57829003601f168201915b5050505050905090565b620017fe81620023f5565b6009600082815260200190815260200160002060020160009054906101000a900473ffffffffffffffffffffffffffffffffffffffff1673ffffffffffffffffffffffffffffffffffffffff163373ffffffffffffffffffffffffffffffffffffffff16146200186d57600080fd5b600a600082815260200190815260200160002060009054906101000a900460ff166200189857600080fd5b600b600082815260200190815260200160002060009054906101000a900473ffffffffffffffffffffffffffffffffffffffff1673ffffffffffffffffffffffffffffffffffffffff1663d22cf3a4336040518263ffffffff1660e01b8152600401620019069190620038fb565b600060405180830381600087803b1580156200192157600080fd5b505af115801562001936573d6000803e3d6000fd5b505050506000600a600083815260200190815260200160002060006101000a81548160ff02191690831515021790555050565b6000620019768262001f4f565b6200198057600080fd5b6200198b826200240d565b60096000838152602001908152602001600020600080820160009055600182016000620019b9919062002c3c565b6002820160006101000a81549073ffffffffffffffffffffffffffffffffffffffff0219169055600382016000620019f2919062002c3c565b505060019050919050565b62001a0762001fbb565b73ffffffffffffffffffffffffffffffffffffffff168273ffffffffffffffffffffffffffffffffffffffff16141562001a78576040517f08c379a000000000000000000000000000000000000000000000000000000000815260040162001a6f9062003a30565b60405180910390fd5b806005600062001a8762001fbb565b73ffffffffffffffffffffffffffffffffffffffff1673ffffffffffffffffffffffffffffffffffffffff16815260200190815260200160002060008473ffffffffffffffffffffffffffffffffffffffff1673ffffffffffffffffffffffffffffffffffffffff16815260200190815260200160002060006101000a81548160ff0219169083151502179055508173ffffffffffffffffffffffffffffffffffffffff1662001b3662001fbb565b73ffffffffffffffffffffffffffffffffffffffff167f17307eab39ab6107e8899845ad3d59bd9653f200f220920489ca2b5937696c318360405162001b7d919062003989565b60405180910390a35050565b62001b9e62001b9762001fbb565b836200209e565b62001be0576040517f08c379a000000000000000000000000000000000000000000000000000000000815260040162001bd79062003b84565b60405180910390fd5b62001bee8484848462002526565b50505050565b60065481565b606062001c078262001f4f565b62001c49576040517f08c379a000000000000000000000000000000000000000000000000000000000815260040162001c409062003b40565b60405180910390fd5b600062001c5562002589565b9050600081511162001c77576040518060200160405280600081525062001ca6565b8062001c8384620025a0565b60405160200162001c96929190620038d3565b6040516020818303038152906040525b915050919050565b600960205280600052604060002060009150905080600001549080600101805462001cd99062003f30565b80601f016020809104026020016040519081016040528092919081815260200182805462001d079062003f30565b801562001d585780601f1062001d2c5761010080835404028352916020019162001d58565b820191906000526020600020905b81548152906001019060200180831162001d3a57829003601f168201915b5050505050908060020160009054906101000a900473ffffffffffffffffffffffffffffffffffffffff169080600301805462001d959062003f30565b80601f016020809104026020016040519081016040528092919081815260200182805462001dc39062003f30565b801562001e145780601f1062001de85761010080835404028352916020019162001e14565b820191906000526020600020905b81548152906001019060200180831162001df657829003601f168201915b5050505050905084565b600b6020528060005260406000206000915054906101000a900473ffffffffffffffffffffffffffffffffffffffff1681565b6000600560008473ffffffffffffffffffffffffffffffffffffffff1673ffffffffffffffffffffffffffffffffffffffff16815260200190815260200160002060008373ffffffffffffffffffffffffffffffffffffffff1673ffffffffffffffffffffffffffffffffffffffff16815260200190815260200160002060009054906101000a900460ff16905092915050565b60007f01ffc9a7000000000000000000000000000000000000000000000000000000007bffffffffffffffffffffffffffffffffffffffffffffffffffffffff1916827bffffffffffffffffffffffffffffffffffffffffffffffffffffffff1916149050919050565b60008073ffffffffffffffffffffffffffffffffffffffff166002600084815260200190815260200160002060009054906101000a900473ffffffffffffffffffffffffffffffffffffffff1673ffffffffffffffffffffffffffffffffffffffff1614159050919050565b600033905090565b816004600083815260200190815260200160002060006101000a81548173ffffffffffffffffffffffffffffffffffffffff021916908373ffffffffffffffffffffffffffffffffffffffff160217905550808273ffffffffffffffffffffffffffffffffffffffff166200203883620015e9565b73ffffffffffffffffffffffffffffffffffffffff167f8c5be1e5ebec7d5bd14f71427d1e84f3dd0314c0f7b2291e5b200ac8c7c3b92560405160405180910390a45050565b6200209a82826040518060200160405280600081525062002762565b5050565b6000620020ab8262001f4f565b620020ed576040517f08c379a0000000000000000000000000000000000000000000000000000000008152600401620020e49062003a52565b60405180910390fd5b6000620020fa83620015e9565b90508073ffffffffffffffffffffffffffffffffffffffff168473ffffffffffffffffffffffffffffffffffffffff1614806200216c57508373ffffffffffffffffffffffffffffffffffffffff16620021548462000950565b73ffffffffffffffffffffffffffffffffffffffff16145b806200218057506200217f818562001e51565b5b91505092915050565b8273ffffffffffffffffffffffffffffffffffffffff16620021ab82620015e9565b73ffffffffffffffffffffffffffffffffffffffff161462002204576040517f08c379a0000000000000000000000000000000000000000000000000000000008152600401620021fb9062003b1e565b60405180910390fd5b600073ffffffffffffffffffffffffffffffffffffffff168273ffffffffffffffffffffffffffffffffffffffff16141562002277576040517f08c379a00000000000000000000000000000000000000000000000000000000081526004016200226e9062003a0e565b60405180910390fd5b62002284838383620027c4565b6200229160008262001fc3565b6001600360008573ffffffffffffffffffffffffffffffffffffffff1673ffffffffffffffffffffffffffffffffffffffff1681526020019081526020016000206000828254620022e3919062003e26565b925050819055506001600360008473ffffffffffffffffffffffffffffffffffffffff1673ffffffffffffffffffffffffffffffffffffffff16815260200190815260200160002060008282546200233c919062003d30565b92505081905550816002600083815260200190815260200160002060006101000a81548173ffffffffffffffffffffffffffffffffffffffff021916908373ffffffffffffffffffffffffffffffffffffffff160217905550808273ffffffffffffffffffffffffffffffffffffffff168473ffffffffffffffffffffffffffffffffffffffff167fddf252ad1be2c89b69c2b068fc378daa952ba7f163c4a11628f55a4df523b3ef60405160405180910390a4505050565b620024008162001f4f565b6200240a57600080fd5b50565b60006200241a82620015e9565b90506200242a81600084620027c4565b6200243760008362001fc3565b6001600360008373ffffffffffffffffffffffffffffffffffffffff1673ffffffffffffffffffffffffffffffffffffffff168152602001908152602001600020600082825462002489919062003e26565b925050819055506002600083815260200190815260200160002060006101000a81549073ffffffffffffffffffffffffffffffffffffffff021916905581600073ffffffffffffffffffffffffffffffffffffffff168273ffffffffffffffffffffffffffffffffffffffff167fddf252ad1be2c89b69c2b068fc378daa952ba7f163c4a11628f55a4df523b3ef60405160405180910390a45050565b6200253384848462002189565b6200254184848484620027c9565b62002583576040517f08c379a00000000000000000000000000000000000000000000000000000000081526004016200257a90620039ca565b60405180910390fd5b50505050565b606060405180602001604052806000815250905090565b60606000821415620025ea576040518060400160405280600181526020017f300000000000000000000000000000000000000000000000000000000000000081525090506200275d565b600082905060005b6000821462002622578080620026089062003f66565b915050600a826200261a919062003d8d565b9150620025f2565b60008167ffffffffffffffff81111562002665577f4e487b7100000000000000000000000000000000000000000000000000000000600052604160045260246000fd5b6040519080825280601f01601f191660200182016040528015620026985781602001600182028036833780820191505090505b5090505b600085146200275657600182620026b4919062003e26565b9150600a85620026c5919062003fb4565b6030620026d3919062003d30565b60f81b81838151811062002710577f4e487b7100000000000000000000000000000000000000000000000000000000600052603260045260246000fd5b60200101907effffffffffffffffffffffffffffffffffffffffffffffffffffffffffffff1916908160001a905350600a856200274e919062003d8d565b94506200269c565b8093505050505b919050565b6200276e838362002972565b6200277d6000848484620027c9565b620027bf576040517f08c379a0000000000000000000000000000000000000000000000000000000008152600401620027b690620039ca565b60405180910390fd5b505050565b505050565b6000620027ec8473ffffffffffffffffffffffffffffffffffffffff1662002b4c565b1562002965578373ffffffffffffffffffffffffffffffffffffffff1663150b7a026200281862001fbb565b8786866040518563ffffffff1660e01b81526004016200283c949392919062003935565b602060405180830381600087803b1580156200285757600080fd5b505af19250505080156200288b57506040513d601f19601f820116820180604052508101906200288891906200305f565b60015b62002914573d8060008114620028be576040519150601f19603f3d011682016040523d82523d6000602084013e620028c3565b606091505b506000815114156200290c576040517f08c379a00000000000000000000000000000000000000000000000000000000081526004016200290390620039ca565b60405180910390fd5b805181602001fd5b63150b7a0260e01b7bffffffffffffffffffffffffffffffffffffffffffffffffffffffff1916817bffffffffffffffffffffffffffffffffffffffffffffffffffffffff1916149150506200296a565b600190505b949350505050565b600073ffffffffffffffffffffffffffffffffffffffff168273ffffffffffffffffffffffffffffffffffffffff161415620029e5576040517f08c379a0000000000000000000000000000000000000000000000000000000008152600401620029dc9062003ada565b60405180910390fd5b620029f08162001f4f565b1562002a33576040517f08c379a000000000000000000000000000000000000000000000000000000000815260040162002a2a90620039ec565b60405180910390fd5b62002a4160008383620027c4565b6001600360008473ffffffffffffffffffffffffffffffffffffffff1673ffffffffffffffffffffffffffffffffffffffff168152602001908152602001600020600082825462002a93919062003d30565b92505081905550816002600083815260200190815260200160002060006101000a81548173ffffffffffffffffffffffffffffffffffffffff021916908373ffffffffffffffffffffffffffffffffffffffff160217905550808273ffffffffffffffffffffffffffffffffffffffff16600073ffffffffffffffffffffffffffffffffffffffff167fddf252ad1be2c89b69c2b068fc378daa952ba7f163c4a11628f55a4df523b3ef60405160405180910390a45050565b600080823b905060008111915050919050565b60405180608001604052806000815260200160608152602001600073ffffffffffffffffffffffffffffffffffffffff168152602001606081525090565b82805462002bab9062003f30565b90600052602060002090601f01602090048101928262002bcf576000855562002c1b565b82601f1062002bea57805160ff191683800117855562002c1b565b8280016001018555821562002c1b579182015b8281111562002c1a57825182559160200191906001019062002bfd565b5b50905062002c2a919062002c82565b5090565b610f13806200414d83390190565b50805462002c4a9062003f30565b6000825580601f1062002c5e575062002c7f565b601f01602090049060005260206000209081019062002c7e919062002c82565b5b50565b5b8082111562002c9d57600081600090555060010162002c83565b5090565b600062002cb862002cb28462003c76565b62003c42565b90508281526020810184848401111562002cd157600080fd5b62002cde84828562003eeb565b509392505050565b600062002cfd62002cf78462003ca9565b62003c42565b90508281526020810184848401111562002d1657600080fd5b62002d2384828562003eeb565b509392505050565b60008135905062002d3c81620040b9565b92915050565b60008151905062002d5381620040d3565b92915050565b60008135905062002d6a81620040ed565b92915050565b60008135905062002d818162004107565b92915050565b60008151905062002d988162004107565b92915050565b600082601f83011262002db057600080fd5b813562002dc284826020860162002ca1565b91505092915050565b60008151905062002ddc8162004121565b92915050565b600082601f83011262002df457600080fd5b813562002e0684826020860162002ce6565b91505092915050565b60008135905062002e208162004132565b92915050565b60008151905062002e378162004132565b92915050565b60006020828403121562002e5057600080fd5b600062002e608482850162002d2b565b91505092915050565b60006020828403121562002e7c57600080fd5b600062002e8c8482850162002d42565b91505092915050565b6000806040838503121562002ea957600080fd5b600062002eb98582860162002d2b565b925050602062002ecc8582860162002d2b565b9150509250929050565b60008060006060848603121562002eec57600080fd5b600062002efc8682870162002d2b565b935050602062002f0f8682870162002d2b565b925050604062002f228682870162002e0f565b9150509250925092565b6000806000806080858703121562002f4357600080fd5b600062002f538782880162002d2b565b945050602062002f668782880162002d2b565b935050604062002f798782880162002e0f565b925050606085013567ffffffffffffffff81111562002f9757600080fd5b62002fa58782880162002d9e565b91505092959194509250565b6000806040838503121562002fc557600080fd5b600062002fd58582860162002d2b565b925050602062002fe88582860162002d59565b9150509250929050565b600080604083850312156200300657600080fd5b6000620030168582860162002d2b565b9250506020620030298582860162002e0f565b9150509250929050565b6000602082840312156200304657600080fd5b6000620030568482850162002d70565b91505092915050565b6000602082840312156200307257600080fd5b6000620030828482850162002d87565b91505092915050565b6000602082840312156200309e57600080fd5b6000620030ae8482850162002dcb565b91505092915050565b60008060408385031215620030cb57600080fd5b600083013567ffffffffffffffff811115620030e657600080fd5b620030f48582860162002de2565b925050602083013567ffffffffffffffff8111156200311257600080fd5b620031208582860162002de2565b9150509250929050565b6000602082840312156200313d57600080fd5b60006200314d8482850162002e0f565b91505092915050565b6000602082840312156200316957600080fd5b6000620031798482850162002e26565b91505092915050565b600080604083850312156200319657600080fd5b6000620031a68582860162002e0f565b9250506020620031b98582860162002e0f565b9150509250929050565b620031ce8162003e75565b82525050565b620031df8162003e61565b82525050565b620031f08162003e61565b82525050565b620032018162003e89565b82525050565b6000620032148262003cdc565b62003220818562003cf2565b93506200323281856020860162003efa565b6200323d81620040a8565b840191505092915050565b6000620032558262003ce7565b62003261818562003d03565b93506200327381856020860162003efa565b6200327e81620040a8565b840191505092915050565b6000620032968262003ce7565b620032a2818562003d14565b9350620032b481856020860162003efa565b620032bf81620040a8565b840191505092915050565b6000620032d78262003ce7565b620032e3818562003d25565b9350620032f581856020860162003efa565b80840191505092915050565b60006200331060328362003d14565b91507f4552433732313a207472616e7366657220746f206e6f6e20455243373231526560008301527f63656976657220696d706c656d656e74657200000000000000000000000000006020830152604082019050919050565b600062003378601c8362003d14565b91507f4552433732313a20746f6b656e20616c7265616479206d696e746564000000006000830152602082019050919050565b6000620033ba60248362003d14565b91507f4552433732313a207472616e7366657220746f20746865207a65726f2061646460008301527f72657373000000000000000000000000000000000000000000000000000000006020830152604082019050919050565b60006200342260198362003d14565b91507f4552433732313a20617070726f766520746f2063616c6c6572000000000000006000830152602082019050919050565b600062003464602c8362003d14565b91507f4552433732313a206f70657261746f7220717565727920666f72206e6f6e657860008301527f697374656e7420746f6b656e00000000000000000000000000000000000000006020830152604082019050919050565b6000620034cc60388362003d14565b91507f4552433732313a20617070726f76652063616c6c6572206973206e6f74206f7760008301527f6e6572206e6f7220617070726f76656420666f7220616c6c00000000000000006020830152604082019050919050565b600062003534602a8362003d14565b91507f4552433732313a2062616c616e636520717565727920666f7220746865207a6560008301527f726f2061646472657373000000000000000000000000000000000000000000006020830152604082019050919050565b60006200359c60298362003d14565b91507f4552433732313a206f776e657220717565727920666f72206e6f6e657869737460008301527f656e7420746f6b656e00000000000000000000000000000000000000000000006020830152604082019050919050565b60006200360460208362003d14565b91507f4552433732313a206d696e7420746f20746865207a65726f20616464726573736000830152602082019050919050565b600062003646602c8362003d14565b91507f4552433732313a20617070726f76656420717565727920666f72206e6f6e657860008301527f697374656e7420746f6b656e00000000000000000000000000000000000000006020830152604082019050919050565b6000620036ae60298362003d14565b91507f4552433732313a207472616e73666572206f6620746f6b656e2074686174206960008301527f73206e6f74206f776e00000000000000000000000000000000000000000000006020830152604082019050919050565b600062003716602f8362003d14565b91507f4552433732314d657461646174613a2055524920717565727920666f72206e6f60008301527f6e6578697374656e7420746f6b656e00000000000000000000000000000000006020830152604082019050919050565b60006200377e60218362003d14565b91507f4552433732313a20617070726f76616c20746f2063757272656e74206f776e6560008301527f72000000000000000000000000000000000000000000000000000000000000006020830152604082019050919050565b6000620037e660318362003d14565b91507f4552433732313a207472616e736665722063616c6c6572206973206e6f74206f60008301527f776e6572206e6f7220617070726f7665640000000000000000000000000000006020830152604082019050919050565b6000608083016000830151620038596000860182620038b1565b506020830151848203602086015262003873828262003248565b91505060408301516200388a6040860182620031d4565b5060608301518482036060860152620038a4828262003248565b9150508091505092915050565b620038bc8162003ee1565b82525050565b620038cd8162003ee1565b82525050565b6000620038e18285620032ca565b9150620038ef8284620032ca565b91508190509392505050565b6000602082019050620039126000830184620031e5565b92915050565b60006020820190506200392f6000830184620031c3565b92915050565b60006080820190506200394c6000830187620031e5565b6200395b6020830186620031e5565b6200396a6040830185620038c2565b81810360608301526200397e818462003207565b905095945050505050565b6000602082019050620039a06000830184620031f6565b92915050565b60006020820190508181036000830152620039c2818462003289565b905092915050565b60006020820190508181036000830152620039e58162003301565b9050919050565b6000602082019050818103600083015262003a078162003369565b9050919050565b6000602082019050818103600083015262003a2981620033ab565b9050919050565b6000602082019050818103600083015262003a4b8162003413565b9050919050565b6000602082019050818103600083015262003a6d8162003455565b9050919050565b6000602082019050818103600083015262003a8f81620034bd565b9050919050565b6000602082019050818103600083015262003ab18162003525565b9050919050565b6000602082019050818103600083015262003ad3816200358d565b9050919050565b6000602082019050818103600083015262003af581620035f5565b9050919050565b6000602082019050818103600083015262003b178162003637565b9050919050565b6000602082019050818103600083015262003b39816200369f565b9050919050565b6000602082019050818103600083015262003b5b8162003707565b9050919050565b6000602082019050818103600083015262003b7d816200376f565b9050919050565b6000602082019050818103600083015262003b9f81620037d7565b9050919050565b6000602082019050818103600083015262003bc281846200383f565b905092915050565b600060208201905062003be16000830184620038c2565b92915050565b600060808201905062003bfe6000830187620038c2565b818103602083015262003c12818662003289565b905062003c236040830185620031e5565b818103606083015262003c37818462003289565b905095945050505050565b6000604051905081810181811067ffffffffffffffff8211171562003c6c5762003c6b62004079565b5b8060405250919050565b600067ffffffffffffffff82111562003c945762003c9362004079565b5b601f19601f8301169050602081019050919050565b600067ffffffffffffffff82111562003cc75762003cc662004079565b5b601f19601f8301169050602081019050919050565b600081519050919050565b600081519050919050565b600082825260208201905092915050565b600082825260208201905092915050565b600082825260208201905092915050565b600081905092915050565b600062003d3d8262003ee1565b915062003d4a8362003ee1565b9250827fffffffffffffffffffffffffffffffffffffffffffffffffffffffffffffffff0382111562003d825762003d8162003fec565b5b828201905092915050565b600062003d9a8262003ee1565b915062003da78362003ee1565b92508262003dba5762003db96200401b565b5b828204905092915050565b600062003dd28262003ee1565b915062003ddf8362003ee1565b9250817fffffffffffffffffffffffffffffffffffffffffffffffffffffffffffffffff048311821515161562003e1b5762003e1a62003fec565b5b828202905092915050565b600062003e338262003ee1565b915062003e408362003ee1565b92508282101562003e565762003e5562003fec565b5b828203905092915050565b600062003e6e8262003ec1565b9050919050565b600062003e828262003ec1565b9050919050565b60008115159050919050565b60007fffffffff0000000000000000000000000000000000000000000000000000000082169050919050565b600073ffffffffffffffffffffffffffffffffffffffff82169050919050565b6000819050919050565b82818337600083830152505050565b60005b8381101562003f1a57808201518184015260208101905062003efd565b8381111562003f2a576000848401525b50505050565b6000600282049050600182168062003f4957607f821691505b6020821081141562003f605762003f5f6200404a565b5b50919050565b600062003f738262003ee1565b91507fffffffffffffffffffffffffffffffffffffffffffffffffffffffffffffffff82141562003fa95762003fa862003fec565b5b600182019050919050565b600062003fc18262003ee1565b915062003fce8362003ee1565b92508262003fe15762003fe06200401b565b5b828206905092915050565b7f4e487b7100000000000000000000000000000000000000000000000000000000600052601160045260246000fd5b7f4e487b7100000000000000000000000000000000000000000000000000000000600052601260045260246000fd5b7f4e487b7100000000000000000000000000000000000000000000000000000000600052602260045260246000fd5b7f4e487b7100000000000000000000000000000000000000000000000000000000600052604160045260246000fd5b6000601f19601f8301169050919050565b620040c48162003e61565b8114620040d057600080fd5b50565b620040de8162003e75565b8114620040ea57600080fd5b50565b620040f88162003e89565b81146200410457600080fd5b50565b620041128162003e95565b81146200411e57600080fd5b50565b600481106200412f57600080fd5b50565b6200413d8162003ee1565b81146200414957600080fd5b5056fe608060405234801561001057600080fd5b50604051610f13380380610f13833981810160405281019061003291906100de565b806000806101000a81548173ffffffffffffffffffffffffffffffffffffffff021916908373ffffffffffffffffffffffffffffffffffffffff1602179055506001600260006101000a81548160ff021916908360038111156100be577f4e487b7100000000000000000000000000000000000000000000000000000000600052602160045260246000fd5b021790555050610150565b6000815190506100d881610139565b92915050565b6000602082840312156100f057600080fd5b60006100fe848285016100c9565b91505092915050565b600061011282610119565b9050919050565b600073ffffffffffffffffffffffffffffffffffffffff82169050919050565b61014281610107565b811461014d57600080fd5b50565b610db48061015f6000396000f3fe6080604052600436106100865760003560e01c8063cff29dfd11610059578063cff29dfd14610149578063d22cf3a414610186578063d57bde79146101af578063e4940157146101da578063f77282ab146101f657610086565b806362ea82db1461008b5780637fb45099146100c85780638da5cb5b146100f357806391f901571461011e575b600080fd5b34801561009757600080fd5b506100b260048036038101906100ad9190610afc565b61020d565b6040516100bf9190610bb1565b60405180910390f35b3480156100d457600080fd5b506100dd610225565b6040516100ea9190610b96565b60405180910390f35b3480156100ff57600080fd5b50610108610238565b6040516101159190610b7b565b60405180910390f35b34801561012a57600080fd5b5061013361025c565b6040516101409190610b7b565b60405180910390f35b34801561015557600080fd5b50610170600480360381019061016b9190610b25565b610282565b60405161017d9190610b7b565b60405180910390f35b34801561019257600080fd5b506101ad60048036038101906101a89190610afc565b6102c1565b005b3480156101bb57600080fd5b506101c46104dd565b6040516101d19190610bb1565b60405180910390f35b6101f460048036038101906101ef9190610afc565b6104e3565b005b34801561020257600080fd5b5061020b610761565b005b60056020528060005260406000206000915090505481565b600260009054906101000a900460ff1681565b60008054906101000a900473ffffffffffffffffffffffffffffffffffffffff1681565b600460009054906101000a900473ffffffffffffffffffffffffffffffffffffffff1681565b6001818154811061029257600080fd5b906000526020600020016000915054906101000a900473ffffffffffffffffffffffffffffffffffffffff1681565b60008054906101000a900473ffffffffffffffffffffffffffffffffffffffff1673ffffffffffffffffffffffffffffffffffffffff168173ffffffffffffffffffffffffffffffffffffffff161461031957600080fd5b6003600260006101000a81548160ff02191690836003811115610365577f4e487b7100000000000000000000000000000000000000000000000000000000600052602160045260246000fd5b021790555060005b6001805490508110156104d957600181815481106103b4577f4e487b7100000000000000000000000000000000000000000000000000000000600052603260045260246000fd5b9060005260206000200160009054906101000a900473ffffffffffffffffffffffffffffffffffffffff1673ffffffffffffffffffffffffffffffffffffffff166108fc6005600060018581548110610436577f4e487b7100000000000000000000000000000000000000000000000000000000600052603260045260246000fd5b9060005260206000200160009054906101000a900473ffffffffffffffffffffffffffffffffffffffff1673ffffffffffffffffffffffffffffffffffffffff1673ffffffffffffffffffffffffffffffffffffffff168152602001908152602001600020549081150290604051600060405180830381858888f193505050501580156104c7573d6000803e3d6000fd5b50806104d290610c95565b905061036d565b5050565b60035481565b60008054906101000a900473ffffffffffffffffffffffffffffffffffffffff1673ffffffffffffffffffffffffffffffffffffffff168173ffffffffffffffffffffffffffffffffffffffff16141561053c57600080fd5b60016003811115610576577f4e487b7100000000000000000000000000000000000000000000000000000000600052602160045260246000fd5b600260009054906101000a900460ff1660038111156105be577f4e487b7100000000000000000000000000000000000000000000000000000000600052602160045260246000fd5b146105c857600080fd5b6000600560008373ffffffffffffffffffffffffffffffffffffffff1673ffffffffffffffffffffffffffffffffffffffff168152602001908152602001600020541415610674576001819080600181540180825580915050600190039060005260206000200160009091909190916101000a81548173ffffffffffffffffffffffffffffffffffffffff021916908373ffffffffffffffffffffffffffffffffffffffff1602179055505b600034600560008473ffffffffffffffffffffffffffffffffffffffff1673ffffffffffffffffffffffffffffffffffffffff168152602001908152602001600020546106c19190610bcc565b905060035481116106d157600080fd5b80600560008473ffffffffffffffffffffffffffffffffffffffff1673ffffffffffffffffffffffffffffffffffffffff168152602001908152602001600020819055508060038190555081600460006101000a81548173ffffffffffffffffffffffffffffffffffffffff021916908373ffffffffffffffffffffffffffffffffffffffff1602179055505050565b60038081111561079a577f4e487b7100000000000000000000000000000000000000000000000000000000600052602160045260246000fd5b600260009054906101000a900460ff1660038111156107e2577f4e487b7100000000000000000000000000000000000000000000000000000000600052602160045260246000fd5b14156107ed57600080fd5b60008054906101000a900473ffffffffffffffffffffffffffffffffffffffff1673ffffffffffffffffffffffffffffffffffffffff166108fc6003549081150290604051600060405180830381858888f19350505050158015610855573d6000803e3d6000fd5b5060005b600180549050811015610a7f57600460009054906101000a900473ffffffffffffffffffffffffffffffffffffffff1673ffffffffffffffffffffffffffffffffffffffff16600182815481106108d9577f4e487b7100000000000000000000000000000000000000000000000000000000600052603260045260246000fd5b9060005260206000200160009054906101000a900473ffffffffffffffffffffffffffffffffffffffff1673ffffffffffffffffffffffffffffffffffffffff1614610a6e5760018181548110610959577f4e487b7100000000000000000000000000000000000000000000000000000000600052603260045260246000fd5b9060005260206000200160009054906101000a900473ffffffffffffffffffffffffffffffffffffffff1673ffffffffffffffffffffffffffffffffffffffff166108fc60056000600185815481106109db577f4e487b7100000000000000000000000000000000000000000000000000000000600052603260045260246000fd5b9060005260206000200160009054906101000a900473ffffffffffffffffffffffffffffffffffffffff1673ffffffffffffffffffffffffffffffffffffffff1673ffffffffffffffffffffffffffffffffffffffff168152602001908152602001600020549081150290604051600060405180830381858888f19350505050158015610a6c573d6000803e3d6000fd5b505b80610a7890610c95565b9050610859565b5060028060006101000a81548160ff02191690836003811115610acb577f4e487b7100000000000000000000000000000000000000000000000000000000600052602160045260246000fd5b0217905550565b600081359050610ae181610d50565b92915050565b600081359050610af681610d67565b92915050565b600060208284031215610b0e57600080fd5b6000610b1c84828501610ad2565b91505092915050565b600060208284031215610b3757600080fd5b6000610b4584828501610ae7565b91505092915050565b610b5781610c34565b82525050565b610b6681610c83565b82525050565b610b7581610c79565b82525050565b6000602082019050610b906000830184610b4e565b92915050565b6000602082019050610bab6000830184610b5d565b92915050565b6000602082019050610bc66000830184610b6c565b92915050565b6000610bd782610c79565b9150610be283610c79565b9250827fffffffffffffffffffffffffffffffffffffffffffffffffffffffffffffffff03821115610c1757610c16610cde565b5b828201905092915050565b6000610c2d82610c59565b9050919050565b6000610c3f82610c59565b9050919050565b6000819050610c5482610d3c565b919050565b600073ffffffffffffffffffffffffffffffffffffffff82169050919050565b6000819050919050565b6000610c8e82610c46565b9050919050565b6000610ca082610c79565b91507fffffffffffffffffffffffffffffffffffffffffffffffffffffffffffffffff821415610cd357610cd2610cde565b5b600182019050919050565b7f4e487b7100000000000000000000000000000000000000000000000000000000600052601160045260246000fd5b7f4e487b7100000000000000000000000000000000000000000000000000000000600052602160045260246000fd5b60048110610d4d57610d4c610d0d565b5b50565b610d5981610c22565b8114610d6457600080fd5b50565b610d7081610c79565b8114610d7b57600080fd5b5056fea264697066735822122061703e9eb9daefc24c004e903d86a7c30e0a8cc8404c9137ece482364107cd2e64736f6c63430008000033a264697066735822122019f19dd0bab301ca6fb1ea52aeec8a7552cdfc415f9e59d6f46c43ba6767186064736f6c63430008000033",
  "immutableReferences": {},
  "source": "pragma solidity ^0.8.0;\r\n\r\nimport \"./ToknCollectible.sol\";\r\nimport \"./Auction.sol\";\r\n\r\ncontract ToknBidding is ToknCollectible{\r\n\r\n  // uint256 collectibleID;\r\n  // address payable creator;\r\n  // address payable owner;\r\n    mapping(uint256=> bool) public runningAuction;\r\n  mapping(uint256=> address) public currentAuctionForTokn;\r\n  // mapping(uint256=> mapping(address=>bool)) public currentRunningAuction;\r\n  mapping(uint=> uint) public toknMaxPrice;\r\n  \r\n  constructor(string memory name, string memory symbol) public ToknCollectible(name, symbol){\r\n    // collectibleID = _toknID;\r\n    // creator = payable(_creator);\r\n    // owner = payable(msg.sender);\r\n  }\r\nfunction toknExists(uint256 toknID) private view{\r\n  require(_exists(toknID));\r\n}\r\n\r\n // Starting auction for a particular collectible\r\nfunction startAuction(uint256 toknID, uint _maxPrice) public {\r\n  toknExists(toknID);\r\n  // require(_exists(toknID));\r\n  require(_isApprovedOrOwner(msg.sender, toknID));\r\n  require(runningAuction[toknID] == false);\r\n\r\n  address newAuction = address(new Auction(payable(msg.sender)));\r\n  // collectibleAuctions[toknID].push(address(newAuction));\r\n  toknMaxPrice[toknID] =_maxPrice*10**18;\r\n  runningAuction[toknID] = true;\r\n  currentAuctionForTokn[toknID] = newAuction;\r\n}\r\n\r\n\r\n// Placeing Bid\r\nfunction bid(uint256 _toknID) public payable{\r\n  toknExists(_toknID);\r\n  // require(_exists(_toknID));\r\n  require(runningAuction[_toknID]);\r\n  \r\n  // Auction currentAuction = currentAuctionForTokn[_toknID];\r\n\r\n  Auction(currentAuctionForTokn[_toknID]).placeBid{value: msg.value}(msg.sender);\r\n\r\n  // Finalizing the auction if the current bid reaches maximum price defines by the owner \r\n  if(msg.value >= toknMaxPrice[_toknID]){\r\n    runningAuction[_toknID] = false;\r\n\r\n  }\r\n  \r\n}\r\n\r\n// Finalizing Auction and transferring the ownership to the buyer and sending the commision to the original creator\r\nfunction endAuction(uint256 _toknID, uint256 commission) public {\r\n  toknExists(_toknID);\r\n  // require(_exists(_toknID));\r\n  Auction currentAuction = Auction(currentAuctionForTokn[_toknID]);\r\n  require(currentAuction.auctionState() != Auction.State.Ended); \r\n  require(msg.sender == currentAuction.owner());\r\n  \r\n  currentAuction.finalizeAuction();\r\n  _collectibleList[_toknID]._owner = currentAuction.highestBidder();\r\n  // uint lastPrice = currentAuction.highestBid()/uint(10**18);\r\n  // uint creatorCommission = ((currentAuction.highestBid()/uint(10**18))*commission/uint(100));\r\n  creator.transfer(((currentAuction.highestBid()/uint(10**18))*commission/uint(100))*10**18); \r\n  safeTransferFrom(msg.sender, currentAuction.highestBidder(), _toknID);\r\n  runningAuction[_toknID] = false;\r\n  // delete currentAuctionForTokn[_toknID];\r\n}\r\n\r\n//cancelling the auction\r\nfunction cancelAuction(uint256 toknID) public {\r\n  toknExists(toknID);\r\n  // require(_exists(toknID));\r\n  require(msg.sender == _collectibleList[toknID]._owner);\r\n  require(runningAuction[toknID]);\r\n  // Auction currentAuction = currentAuctionForTokn[toknID];\r\n  Auction(currentAuctionForTokn[toknID]).cancelAuction(msg.sender);\r\n  runningAuction[toknID] = false;\r\n  // delete currentAuctionForTokn[toknID];\r\n}\r\n\r\n// setting terminal price for auction\r\nfunction setMaxPrice(uint256 toknID, uint price) public {\r\n  toknExists(toknID);\r\n  // require(_exists(toknID));\r\n  require(msg.sender == _collectibleList[toknID]._owner);\r\n  require(runningAuction[toknID]);\r\n \r\n  // Auction currentAuction = currentAuctionForTokn[toknID];\r\n  toknMaxPrice[toknID] = price*10**18;\r\n}\r\n\r\n}",
  "sourcePath": "C:\\Users\\lenovo\\OneDrive\\Desktop\\projects\\Tokn\\contracts\\ToknBidding.sol",
  "compiler": {
    "name": "solc",
    "version": "0.8.0+commit.c7dfd78e.Emscripten.clang"
  },
  "schemaVersion": "3.4.1",
  "updatedAt": "2021-07-29T03:56:40.368Z",
  "devdoc": {
    "kind": "dev",
    "methods": {
      "approve(address,uint256)": {
        "details": "See {IERC721-approve}."
      },
      "balanceOf(address)": {
        "details": "See {IERC721-balanceOf}."
      },
      "getApproved(uint256)": {
        "details": "See {IERC721-getApproved}."
      },
      "isApprovedForAll(address,address)": {
        "details": "See {IERC721-isApprovedForAll}."
      },
      "name()": {
        "details": "See {IERC721Metadata-name}."
      },
      "ownerOf(uint256)": {
        "details": "See {IERC721-ownerOf}."
      },
      "safeTransferFrom(address,address,uint256)": {
        "details": "See {IERC721-safeTransferFrom}."
      },
      "safeTransferFrom(address,address,uint256,bytes)": {
        "details": "See {IERC721-safeTransferFrom}."
      },
      "setApprovalForAll(address,bool)": {
        "details": "See {IERC721-setApprovalForAll}."
      },
      "supportsInterface(bytes4)": {
        "details": "See {IERC165-supportsInterface}."
      },
      "symbol()": {
        "details": "See {IERC721Metadata-symbol}."
      },
      "tokenURI(uint256)": {
        "details": "See {IERC721Metadata-tokenURI}."
      },
      "transferFrom(address,address,uint256)": {
        "details": "See {IERC721-transferFrom}."
      }
    },
    "version": 1
  },
  "userdoc": {
    "kind": "user",
    "methods": {},
    "version": 1
  }
}