{
  "contractName": "ToknCollectible",
  "abi": [
    {
      "inputs": [
        {
          "internalType": "string",
          "name": "name",
          "type": "string"
        },
        {
          "internalType": "string",
          "name": "symbol",
          "type": "string"
        }
      ],
      "stateMutability": "nonpayable",
      "type": "constructor"
    },
    {
      "anonymous": false,
      "inputs": [
        {
          "indexed": true,
          "internalType": "address",
          "name": "owner",
          "type": "address"
        },
        {
          "indexed": true,
          "internalType": "address",
          "name": "approved",
          "type": "address"
        },
        {
          "indexed": true,
          "internalType": "uint256",
          "name": "tokenId",
          "type": "uint256"
        }
      ],
      "name": "Approval",
      "type": "event"
    },
    {
      "anonymous": false,
      "inputs": [
        {
          "indexed": true,
          "internalType": "address",
          "name": "owner",
          "type": "address"
        },
        {
          "indexed": true,
          "internalType": "address",
          "name": "operator",
          "type": "address"
        },
        {
          "indexed": false,
          "internalType": "bool",
          "name": "approved",
          "type": "bool"
        }
      ],
      "name": "ApprovalForAll",
      "type": "event"
    },
    {
      "anonymous": false,
      "inputs": [
        {
          "indexed": false,
          "internalType": "uint256",
          "name": "_collectibleID",
          "type": "uint256"
        },
        {
          "indexed": false,
          "internalType": "string",
          "name": "_title",
          "type": "string"
        },
        {
          "indexed": false,
          "internalType": "address",
          "name": "_owner",
          "type": "address"
        },
        {
          "indexed": false,
          "internalType": "string",
          "name": "_collectibleURI",
          "type": "string"
        }
      ],
      "name": "CollectibleCreated",
      "type": "event"
    },
    {
      "anonymous": false,
      "inputs": [
        {
          "indexed": true,
          "internalType": "address",
          "name": "from",
          "type": "address"
        },
        {
          "indexed": true,
          "internalType": "address",
          "name": "to",
          "type": "address"
        },
        {
          "indexed": true,
          "internalType": "uint256",
          "name": "tokenId",
          "type": "uint256"
        }
      ],
      "name": "Transfer",
      "type": "event"
    },
    {
      "inputs": [],
      "name": "_collectibleCount",
      "outputs": [
        {
          "internalType": "uint256",
          "name": "",
          "type": "uint256"
        }
      ],
      "stateMutability": "view",
      "type": "function"
    },
    {
      "inputs": [],
      "name": "_collectibleID",
      "outputs": [
        {
          "internalType": "uint256",
          "name": "",
          "type": "uint256"
        }
      ],
      "stateMutability": "view",
      "type": "function"
    },
    {
      "inputs": [
        {
          "internalType": "uint256",
          "name": "",
          "type": "uint256"
        }
      ],
      "name": "_collectibleList",
      "outputs": [
        {
          "internalType": "uint256",
          "name": "_collectibleID",
          "type": "uint256"
        },
        {
          "internalType": "string",
          "name": "_title",
          "type": "string"
        },
        {
          "internalType": "address",
          "name": "_owner",
          "type": "address"
        },
        {
          "internalType": "string",
          "name": "_collectibleURI",
          "type": "string"
        }
      ],
      "stateMutability": "view",
      "type": "function"
    },
    {
      "inputs": [
        {
          "internalType": "address",
          "name": "to",
          "type": "address"
        },
        {
          "internalType": "uint256",
          "name": "tokenId",
          "type": "uint256"
        }
      ],
      "name": "approve",
      "outputs": [],
      "stateMutability": "nonpayable",
      "type": "function"
    },
    {
      "inputs": [
        {
          "internalType": "address",
          "name": "owner",
          "type": "address"
        }
      ],
      "name": "balanceOf",
      "outputs": [
        {
          "internalType": "uint256",
          "name": "",
          "type": "uint256"
        }
      ],
      "stateMutability": "view",
      "type": "function"
    },
    {
      "inputs": [],
      "name": "creator",
      "outputs": [
        {
          "internalType": "address payable",
          "name": "",
          "type": "address"
        }
      ],
      "stateMutability": "view",
      "type": "function"
    },
    {
      "inputs": [
        {
          "internalType": "uint256",
          "name": "tokenId",
          "type": "uint256"
        }
      ],
      "name": "getApproved",
      "outputs": [
        {
          "internalType": "address",
          "name": "",
          "type": "address"
        }
      ],
      "stateMutability": "view",
      "type": "function"
    },
    {
      "inputs": [
        {
          "internalType": "address",
          "name": "owner",
          "type": "address"
        },
        {
          "internalType": "address",
          "name": "operator",
          "type": "address"
        }
      ],
      "name": "isApprovedForAll",
      "outputs": [
        {
          "internalType": "bool",
          "name": "",
          "type": "bool"
        }
      ],
      "stateMutability": "view",
      "type": "function"
    },
    {
      "inputs": [],
      "name": "maxPrice",
      "outputs": [
        {
          "internalType": "uint256",
          "name": "",
          "type": "uint256"
        }
      ],
      "stateMutability": "view",
      "type": "function"
    },
    {
      "inputs": [],
      "name": "name",
      "outputs": [
        {
          "internalType": "string",
          "name": "",
          "type": "string"
        }
      ],
      "stateMutability": "view",
      "type": "function"
    },
    {
      "inputs": [
        {
          "internalType": "uint256",
          "name": "tokenId",
          "type": "uint256"
        }
      ],
      "name": "ownerOf",
      "outputs": [
        {
          "internalType": "address",
          "name": "",
          "type": "address"
        }
      ],
      "stateMutability": "view",
      "type": "function"
    },
    {
      "inputs": [
        {
          "internalType": "address",
          "name": "from",
          "type": "address"
        },
        {
          "internalType": "address",
          "name": "to",
          "type": "address"
        },
        {
          "internalType": "uint256",
          "name": "tokenId",
          "type": "uint256"
        }
      ],
      "name": "safeTransferFrom",
      "outputs": [],
      "stateMutability": "nonpayable",
      "type": "function"
    },
    {
      "inputs": [
        {
          "internalType": "address",
          "name": "from",
          "type": "address"
        },
        {
          "internalType": "address",
          "name": "to",
          "type": "address"
        },
        {
          "internalType": "uint256",
          "name": "tokenId",
          "type": "uint256"
        },
        {
          "internalType": "bytes",
          "name": "_data",
          "type": "bytes"
        }
      ],
      "name": "safeTransferFrom",
      "outputs": [],
      "stateMutability": "nonpayable",
      "type": "function"
    },
    {
      "inputs": [
        {
          "internalType": "address",
          "name": "operator",
          "type": "address"
        },
        {
          "internalType": "bool",
          "name": "approved",
          "type": "bool"
        }
      ],
      "name": "setApprovalForAll",
      "outputs": [],
      "stateMutability": "nonpayable",
      "type": "function"
    },
    {
      "inputs": [
        {
          "internalType": "bytes4",
          "name": "interfaceId",
          "type": "bytes4"
        }
      ],
      "name": "supportsInterface",
      "outputs": [
        {
          "internalType": "bool",
          "name": "",
          "type": "bool"
        }
      ],
      "stateMutability": "view",
      "type": "function"
    },
    {
      "inputs": [],
      "name": "symbol",
      "outputs": [
        {
          "internalType": "string",
          "name": "",
          "type": "string"
        }
      ],
      "stateMutability": "view",
      "type": "function"
    },
    {
      "inputs": [
        {
          "internalType": "uint256",
          "name": "tokenId",
          "type": "uint256"
        }
      ],
      "name": "tokenURI",
      "outputs": [
        {
          "internalType": "string",
          "name": "",
          "type": "string"
        }
      ],
      "stateMutability": "view",
      "type": "function"
    },
    {
      "inputs": [
        {
          "internalType": "address",
          "name": "from",
          "type": "address"
        },
        {
          "internalType": "address",
          "name": "to",
          "type": "address"
        },
        {
          "internalType": "uint256",
          "name": "tokenId",
          "type": "uint256"
        }
      ],
      "name": "transferFrom",
      "outputs": [],
      "stateMutability": "nonpayable",
      "type": "function"
    },
    {
      "inputs": [
        {
          "internalType": "string",
          "name": "_title",
          "type": "string"
        },
        {
          "internalType": "string",
          "name": "_tokenURI",
          "type": "string"
        }
      ],
      "name": "create",
      "outputs": [
        {
          "components": [
            {
              "internalType": "uint256",
              "name": "_collectibleID",
              "type": "uint256"
            },
            {
              "internalType": "string",
              "name": "_title",
              "type": "string"
            },
            {
              "internalType": "address",
              "name": "_owner",
              "type": "address"
            },
            {
              "internalType": "string",
              "name": "_collectibleURI",
              "type": "string"
            }
          ],
          "internalType": "struct ToknCollectible.Collectible",
          "name": "",
          "type": "tuple"
        }
      ],
      "stateMutability": "nonpayable",
      "type": "function"
    },
    {
      "inputs": [
        {
          "internalType": "uint256",
          "name": "toknID",
          "type": "uint256"
        }
      ],
      "name": "destroy",
      "outputs": [
        {
          "internalType": "bool",
          "name": "success",
          "type": "bool"
        }
      ],
      "stateMutability": "nonpayable",
      "type": "function"
    }
  ],
  "bytecode": "0x60806040523480156200001157600080fd5b5060405162003346380380620033468339818101604052810190620000379190620001a7565b818181600090805190602001906200005192919062000085565b5080600190805190602001906200006a92919062000085565b5050506000600681905550600060078190555050506200034b565b8280546200009390620002b7565b90600052602060002090601f016020900481019282620000b7576000855562000103565b82601f10620000d257805160ff191683800117855562000103565b8280016001018555821562000103579182015b8281111562000102578251825591602001919060010190620000e5565b5b50905062000112919062000116565b5090565b5b808211156200013157600081600090555060010162000117565b5090565b60006200014c62000146846200024e565b6200021a565b9050828152602081018484840111156200016557600080fd5b6200017284828562000281565b509392505050565b600082601f8301126200018c57600080fd5b81516200019e84826020860162000135565b91505092915050565b60008060408385031215620001bb57600080fd5b600083015167ffffffffffffffff811115620001d657600080fd5b620001e4858286016200017a565b925050602083015167ffffffffffffffff8111156200020257600080fd5b62000210858286016200017a565b9150509250929050565b6000604051905081810181811067ffffffffffffffff821117156200024457620002436200031c565b5b8060405250919050565b600067ffffffffffffffff8211156200026c576200026b6200031c565b5b601f19601f8301169050602081019050919050565b60005b83811015620002a157808201518184015260208101905062000284565b83811115620002b1576000848401525b50505050565b60006002820490506001821680620002d057607f821691505b60208210811415620002e757620002e6620002ed565b5b50919050565b7f4e487b7100000000000000000000000000000000000000000000000000000000600052602260045260246000fd5b7f4e487b7100000000000000000000000000000000000000000000000000000000600052604160045260246000fd5b612feb806200035b6000396000f3fe608060405234801561001057600080fd5b506004361061012c5760003560e01c806370a08231116100ad578063bab22d8d11610071578063bab22d8d14610355578063c87b56dd14610373578063ca225b97146103a3578063e38d6b5c146103d6578063e985e9c5146103f45761012c565b806370a082311461029f57806395d89b41146102cf5780639d118770146102ed578063a22cb4651461031d578063b88d4fde146103395761012c565b8063198e2b8a116100f4578063198e2b8a146101e957806323b872dd1461021957806342842e0e1461023557806354bbdfab146102515780636352211e1461026f5761012c565b806301ffc9a71461013157806302d05d3f1461016157806306fdde031461017f578063081812fc1461019d578063095ea7b3146101cd575b600080fd5b61014b6004803603810190610146919061209c565b610424565b60405161015891906128eb565b60405180910390f35b610169610506565b6040516101769190612884565b60405180910390f35b61018761052c565b6040516101949190612906565b60405180910390f35b6101b760048036038101906101b2919061215a565b6105be565b6040516101c49190612869565b60405180910390f35b6101e760048036038101906101e29190612060565b610643565b005b61020360048036038101906101fe91906120ee565b61075b565b6040516102109190612ae8565b60405180910390f35b610233600480360381019061022e9190611f5a565b61090a565b005b61024f600480360381019061024a9190611f5a565b61096a565b005b61025961098a565b6040516102669190612b0a565b60405180910390f35b6102896004803603810190610284919061215a565b610990565b6040516102969190612869565b60405180910390f35b6102b960048036038101906102b49190611ef5565b610a42565b6040516102c69190612b0a565b60405180910390f35b6102d7610afa565b6040516102e49190612906565b60405180910390f35b6103076004803603810190610302919061215a565b610b8c565b60405161031491906128eb565b60405180910390f35b61033760048036038101906103329190612024565b610c19565b005b610353600480360381019061034e9190611fa9565b610d9a565b005b61035d610dfc565b60405161036a9190612b0a565b60405180910390f35b61038d6004803603810190610388919061215a565b610e02565b60405161039a9190612906565b60405180910390f35b6103bd60048036038101906103b8919061215a565b610ea9565b6040516103cd9493929190612b25565b60405180910390f35b6103de611009565b6040516103eb9190612b0a565b60405180910390f35b61040e60048036038101906104099190611f1e565b61100f565b60405161041b91906128eb565b60405180910390f35b60007f80ac58cd000000000000000000000000000000000000000000000000000000007bffffffffffffffffffffffffffffffffffffffffffffffffffffffff1916827bffffffffffffffffffffffffffffffffffffffffffffffffffffffff191614806104ef57507f5b5e139f000000000000000000000000000000000000000000000000000000007bffffffffffffffffffffffffffffffffffffffffffffffffffffffff1916827bffffffffffffffffffffffffffffffffffffffffffffffffffffffff1916145b806104ff57506104fe826110a3565b5b9050919050565b600960009054906101000a900473ffffffffffffffffffffffffffffffffffffffff1681565b60606000805461053b90612de0565b80601f016020809104026020016040519081016040528092919081815260200182805461056790612de0565b80156105b45780601f10610589576101008083540402835291602001916105b4565b820191906000526020600020905b81548152906001019060200180831161059757829003601f168201915b5050505050905090565b60006105c98261110d565b610608576040517f08c379a00000000000000000000000000000000000000000000000000000000081526004016105ff90612a48565b60405180910390fd5b6004600083815260200190815260200160002060009054906101000a900473ffffffffffffffffffffffffffffffffffffffff169050919050565b600061064e82610990565b90508073ffffffffffffffffffffffffffffffffffffffff168373ffffffffffffffffffffffffffffffffffffffff1614156106bf576040517f08c379a00000000000000000000000000000000000000000000000000000000081526004016106b690612aa8565b60405180910390fd5b8073ffffffffffffffffffffffffffffffffffffffff166106de611179565b73ffffffffffffffffffffffffffffffffffffffff16148061070d575061070c81610707611179565b61100f565b5b61074c576040517f08c379a0000000000000000000000000000000000000000000000000000000008152600401610743906129c8565b60405180910390fd5b6107568383611181565b505050565b610763611c9b565b6006600081548092919061077690612e12565b91905055506007600081548092919061078e90612e12565b91905055506000604051806080016040528060065481526020018581526020013373ffffffffffffffffffffffffffffffffffffffff16815260200184815250905080600a6000600654815260200190815260200160002060008201518160000155602082015181600101908051906020019061080c929190611cd9565b5060408201518160020160006101000a81548173ffffffffffffffffffffffffffffffffffffffff021916908373ffffffffffffffffffffffffffffffffffffffff1602179055506060820151816003019080519060200190610870929190611cd9565b509050507f4265c0fca0618144a5f95ac58797316e876c6d2cc3c31e68bdf2c07ad8a53dd16006548533866040516108ab9493929190612b25565b60405180910390a16108bf3360065461123a565b33600960006101000a81548173ffffffffffffffffffffffffffffffffffffffff021916908373ffffffffffffffffffffffffffffffffffffffff1602179055508091505092915050565b61091b610915611179565b82611258565b61095a576040517f08c379a000000000000000000000000000000000000000000000000000000000815260040161095190612ac8565b60405180910390fd5b610965838383611336565b505050565b61098583838360405180602001604052806000815250610d9a565b505050565b60075481565b6000806002600084815260200190815260200160002060009054906101000a900473ffffffffffffffffffffffffffffffffffffffff169050600073ffffffffffffffffffffffffffffffffffffffff168173ffffffffffffffffffffffffffffffffffffffff161415610a39576040517f08c379a0000000000000000000000000000000000000000000000000000000008152600401610a3090612a08565b60405180910390fd5b80915050919050565b60008073ffffffffffffffffffffffffffffffffffffffff168273ffffffffffffffffffffffffffffffffffffffff161415610ab3576040517f08c379a0000000000000000000000000000000000000000000000000000000008152600401610aaa906129e8565b60405180910390fd5b600360008373ffffffffffffffffffffffffffffffffffffffff1673ffffffffffffffffffffffffffffffffffffffff168152602001908152602001600020549050919050565b606060018054610b0990612de0565b80601f0160208091040260200160405190810160405280929190818152602001828054610b3590612de0565b8015610b825780601f10610b5757610100808354040283529160200191610b82565b820191906000526020600020905b815481529060010190602001808311610b6557829003601f168201915b5050505050905090565b600081610b988161110d565b610ba157600080fd5b610baa83611592565b600a6000848152602001908152602001600020600080820160009055600182016000610bd69190611d5f565b6002820160006101000a81549073ffffffffffffffffffffffffffffffffffffffff0219169055600382016000610c0d9190611d5f565b50506001915050919050565b610c21611179565b73ffffffffffffffffffffffffffffffffffffffff168273ffffffffffffffffffffffffffffffffffffffff161415610c8f576040517f08c379a0000000000000000000000000000000000000000000000000000000008152600401610c8690612988565b60405180910390fd5b8060056000610c9c611179565b73ffffffffffffffffffffffffffffffffffffffff1673ffffffffffffffffffffffffffffffffffffffff16815260200190815260200160002060008473ffffffffffffffffffffffffffffffffffffffff1673ffffffffffffffffffffffffffffffffffffffff16815260200190815260200160002060006101000a81548160ff0219169083151502179055508173ffffffffffffffffffffffffffffffffffffffff16610d49611179565b73ffffffffffffffffffffffffffffffffffffffff167f17307eab39ab6107e8899845ad3d59bd9653f200f220920489ca2b5937696c3183604051610d8e91906128eb565b60405180910390a35050565b610dab610da5611179565b83611258565b610dea576040517f08c379a0000000000000000000000000000000000000000000000000000000008152600401610de190612ac8565b60405180910390fd5b610df6848484846116a3565b50505050565b60065481565b6060610e0d8261110d565b610e4c576040517f08c379a0000000000000000000000000000000000000000000000000000000008152600401610e4390612a88565b60405180910390fd5b6000610e566116ff565b90506000815111610e765760405180602001604052806000815250610ea1565b80610e8084611716565b604051602001610e91929190612845565b6040516020818303038152906040525b915050919050565b600a602052806000526040600020600091509050806000015490806001018054610ed290612de0565b80601f0160208091040260200160405190810160405280929190818152602001828054610efe90612de0565b8015610f4b5780601f10610f2057610100808354040283529160200191610f4b565b820191906000526020600020905b815481529060010190602001808311610f2e57829003601f168201915b5050505050908060020160009054906101000a900473ffffffffffffffffffffffffffffffffffffffff1690806003018054610f8690612de0565b80601f0160208091040260200160405190810160405280929190818152602001828054610fb290612de0565b8015610fff5780601f10610fd457610100808354040283529160200191610fff565b820191906000526020600020905b815481529060010190602001808311610fe257829003601f168201915b5050505050905084565b60085481565b6000600560008473ffffffffffffffffffffffffffffffffffffffff1673ffffffffffffffffffffffffffffffffffffffff16815260200190815260200160002060008373ffffffffffffffffffffffffffffffffffffffff1673ffffffffffffffffffffffffffffffffffffffff16815260200190815260200160002060009054906101000a900460ff16905092915050565b60007f01ffc9a7000000000000000000000000000000000000000000000000000000007bffffffffffffffffffffffffffffffffffffffffffffffffffffffff1916827bffffffffffffffffffffffffffffffffffffffffffffffffffffffff1916149050919050565b60008073ffffffffffffffffffffffffffffffffffffffff166002600084815260200190815260200160002060009054906101000a900473ffffffffffffffffffffffffffffffffffffffff1673ffffffffffffffffffffffffffffffffffffffff1614159050919050565b600033905090565b816004600083815260200190815260200160002060006101000a81548173ffffffffffffffffffffffffffffffffffffffff021916908373ffffffffffffffffffffffffffffffffffffffff160217905550808273ffffffffffffffffffffffffffffffffffffffff166111f483610990565b73ffffffffffffffffffffffffffffffffffffffff167f8c5be1e5ebec7d5bd14f71427d1e84f3dd0314c0f7b2291e5b200ac8c7c3b92560405160405180910390a45050565b6112548282604051806020016040528060008152506118c3565b5050565b60006112638261110d565b6112a2576040517f08c379a0000000000000000000000000000000000000000000000000000000008152600401611299906129a8565b60405180910390fd5b60006112ad83610990565b90508073ffffffffffffffffffffffffffffffffffffffff168473ffffffffffffffffffffffffffffffffffffffff16148061131c57508373ffffffffffffffffffffffffffffffffffffffff16611304846105be565b73ffffffffffffffffffffffffffffffffffffffff16145b8061132d575061132c818561100f565b5b91505092915050565b8273ffffffffffffffffffffffffffffffffffffffff1661135682610990565b73ffffffffffffffffffffffffffffffffffffffff16146113ac576040517f08c379a00000000000000000000000000000000000000000000000000000000081526004016113a390612a68565b60405180910390fd5b600073ffffffffffffffffffffffffffffffffffffffff168273ffffffffffffffffffffffffffffffffffffffff16141561141c576040517f08c379a000000000000000000000000000000000000000000000000000000000815260040161141390612968565b60405180910390fd5b61142783838361191e565b611432600082611181565b6001600360008573ffffffffffffffffffffffffffffffffffffffff1673ffffffffffffffffffffffffffffffffffffffff16815260200190815260200160002060008282546114829190612ce4565b925050819055506001600360008473ffffffffffffffffffffffffffffffffffffffff1673ffffffffffffffffffffffffffffffffffffffff16815260200190815260200160002060008282546114d99190612c5d565b92505081905550816002600083815260200190815260200160002060006101000a81548173ffffffffffffffffffffffffffffffffffffffff021916908373ffffffffffffffffffffffffffffffffffffffff160217905550808273ffffffffffffffffffffffffffffffffffffffff168473ffffffffffffffffffffffffffffffffffffffff167fddf252ad1be2c89b69c2b068fc378daa952ba7f163c4a11628f55a4df523b3ef60405160405180910390a4505050565b600061159d82610990565b90506115ab8160008461191e565b6115b6600083611181565b6001600360008373ffffffffffffffffffffffffffffffffffffffff1673ffffffffffffffffffffffffffffffffffffffff16815260200190815260200160002060008282546116069190612ce4565b925050819055506002600083815260200190815260200160002060006101000a81549073ffffffffffffffffffffffffffffffffffffffff021916905581600073ffffffffffffffffffffffffffffffffffffffff168273ffffffffffffffffffffffffffffffffffffffff167fddf252ad1be2c89b69c2b068fc378daa952ba7f163c4a11628f55a4df523b3ef60405160405180910390a45050565b6116ae848484611336565b6116ba84848484611923565b6116f9576040517f08c379a00000000000000000000000000000000000000000000000000000000081526004016116f090612928565b60405180910390fd5b50505050565b606060405180602001604052806000815250905090565b6060600082141561175e576040518060400160405280600181526020017f300000000000000000000000000000000000000000000000000000000000000081525090506118be565b600082905060005b6000821461179057808061177990612e12565b915050600a826117899190612cb3565b9150611766565b60008167ffffffffffffffff8111156117d2577f4e487b7100000000000000000000000000000000000000000000000000000000600052604160045260246000fd5b6040519080825280601f01601f1916602001820160405280156118045781602001600182028036833780820191505090505b5090505b600085146118b75760018261181d9190612ce4565b9150600a8561182c9190612e5b565b60306118389190612c5d565b60f81b818381518110611874577f4e487b7100000000000000000000000000000000000000000000000000000000600052603260045260246000fd5b60200101907effffffffffffffffffffffffffffffffffffffffffffffffffffffffffffff1916908160001a905350600a856118b09190612cb3565b9450611808565b8093505050505b919050565b6118cd8383611aba565b6118da6000848484611923565b611919576040517f08c379a000000000000000000000000000000000000000000000000000000000815260040161191090612928565b60405180910390fd5b505050565b505050565b60006119448473ffffffffffffffffffffffffffffffffffffffff16611c88565b15611aad578373ffffffffffffffffffffffffffffffffffffffff1663150b7a0261196d611179565b8786866040518563ffffffff1660e01b815260040161198f949392919061289f565b602060405180830381600087803b1580156119a957600080fd5b505af19250505080156119da57506040513d601f19601f820116820180604052508101906119d791906120c5565b60015b611a5d573d8060008114611a0a576040519150601f19603f3d011682016040523d82523d6000602084013e611a0f565b606091505b50600081511415611a55576040517f08c379a0000000000000000000000000000000000000000000000000000000008152600401611a4c90612928565b60405180910390fd5b805181602001fd5b63150b7a0260e01b7bffffffffffffffffffffffffffffffffffffffffffffffffffffffff1916817bffffffffffffffffffffffffffffffffffffffffffffffffffffffff191614915050611ab2565b600190505b949350505050565b600073ffffffffffffffffffffffffffffffffffffffff168273ffffffffffffffffffffffffffffffffffffffff161415611b2a576040517f08c379a0000000000000000000000000000000000000000000000000000000008152600401611b2190612a28565b60405180910390fd5b611b338161110d565b15611b73576040517f08c379a0000000000000000000000000000000000000000000000000000000008152600401611b6a90612948565b60405180910390fd5b611b7f6000838361191e565b6001600360008473ffffffffffffffffffffffffffffffffffffffff1673ffffffffffffffffffffffffffffffffffffffff1681526020019081526020016000206000828254611bcf9190612c5d565b92505081905550816002600083815260200190815260200160002060006101000a81548173ffffffffffffffffffffffffffffffffffffffff021916908373ffffffffffffffffffffffffffffffffffffffff160217905550808273ffffffffffffffffffffffffffffffffffffffff16600073ffffffffffffffffffffffffffffffffffffffff167fddf252ad1be2c89b69c2b068fc378daa952ba7f163c4a11628f55a4df523b3ef60405160405180910390a45050565b600080823b905060008111915050919050565b60405180608001604052806000815260200160608152602001600073ffffffffffffffffffffffffffffffffffffffff168152602001606081525090565b828054611ce590612de0565b90600052602060002090601f016020900481019282611d075760008555611d4e565b82601f10611d2057805160ff1916838001178555611d4e565b82800160010185558215611d4e579182015b82811115611d4d578251825591602001919060010190611d32565b5b509050611d5b9190611d9f565b5090565b508054611d6b90612de0565b6000825580601f10611d7d5750611d9c565b601f016020900490600052602060002090810190611d9b9190611d9f565b5b50565b5b80821115611db8576000816000905550600101611da0565b5090565b6000611dcf611dca84612ba9565b612b78565b905082815260208101848484011115611de757600080fd5b611df2848285612d9e565b509392505050565b6000611e0d611e0884612bd9565b612b78565b905082815260208101848484011115611e2557600080fd5b611e30848285612d9e565b509392505050565b600081359050611e4781612f59565b92915050565b600081359050611e5c81612f70565b92915050565b600081359050611e7181612f87565b92915050565b600081519050611e8681612f87565b92915050565b600082601f830112611e9d57600080fd5b8135611ead848260208601611dbc565b91505092915050565b600082601f830112611ec757600080fd5b8135611ed7848260208601611dfa565b91505092915050565b600081359050611eef81612f9e565b92915050565b600060208284031215611f0757600080fd5b6000611f1584828501611e38565b91505092915050565b60008060408385031215611f3157600080fd5b6000611f3f85828601611e38565b9250506020611f5085828601611e38565b9150509250929050565b600080600060608486031215611f6f57600080fd5b6000611f7d86828701611e38565b9350506020611f8e86828701611e38565b9250506040611f9f86828701611ee0565b9150509250925092565b60008060008060808587031215611fbf57600080fd5b6000611fcd87828801611e38565b9450506020611fde87828801611e38565b9350506040611fef87828801611ee0565b925050606085013567ffffffffffffffff81111561200c57600080fd5b61201887828801611e8c565b91505092959194509250565b6000806040838503121561203757600080fd5b600061204585828601611e38565b925050602061205685828601611e4d565b9150509250929050565b6000806040838503121561207357600080fd5b600061208185828601611e38565b925050602061209285828601611ee0565b9150509250929050565b6000602082840312156120ae57600080fd5b60006120bc84828501611e62565b91505092915050565b6000602082840312156120d757600080fd5b60006120e584828501611e77565b91505092915050565b6000806040838503121561210157600080fd5b600083013567ffffffffffffffff81111561211b57600080fd5b61212785828601611eb6565b925050602083013567ffffffffffffffff81111561214457600080fd5b61215085828601611eb6565b9150509250929050565b60006020828403121561216c57600080fd5b600061217a84828501611ee0565b91505092915050565b61218c81612d2a565b82525050565b61219b81612d18565b82525050565b6121aa81612d18565b82525050565b6121b981612d3c565b82525050565b60006121ca82612c09565b6121d48185612c1f565b93506121e4818560208601612dad565b6121ed81612f48565b840191505092915050565b600061220382612c14565b61220d8185612c30565b935061221d818560208601612dad565b61222681612f48565b840191505092915050565b600061223c82612c14565b6122468185612c41565b9350612256818560208601612dad565b61225f81612f48565b840191505092915050565b600061227582612c14565b61227f8185612c52565b935061228f818560208601612dad565b80840191505092915050565b60006122a8603283612c41565b91507f4552433732313a207472616e7366657220746f206e6f6e20455243373231526560008301527f63656976657220696d706c656d656e74657200000000000000000000000000006020830152604082019050919050565b600061230e601c83612c41565b91507f4552433732313a20746f6b656e20616c7265616479206d696e746564000000006000830152602082019050919050565b600061234e602483612c41565b91507f4552433732313a207472616e7366657220746f20746865207a65726f2061646460008301527f72657373000000000000000000000000000000000000000000000000000000006020830152604082019050919050565b60006123b4601983612c41565b91507f4552433732313a20617070726f766520746f2063616c6c6572000000000000006000830152602082019050919050565b60006123f4602c83612c41565b91507f4552433732313a206f70657261746f7220717565727920666f72206e6f6e657860008301527f697374656e7420746f6b656e00000000000000000000000000000000000000006020830152604082019050919050565b600061245a603883612c41565b91507f4552433732313a20617070726f76652063616c6c6572206973206e6f74206f7760008301527f6e6572206e6f7220617070726f76656420666f7220616c6c00000000000000006020830152604082019050919050565b60006124c0602a83612c41565b91507f4552433732313a2062616c616e636520717565727920666f7220746865207a6560008301527f726f2061646472657373000000000000000000000000000000000000000000006020830152604082019050919050565b6000612526602983612c41565b91507f4552433732313a206f776e657220717565727920666f72206e6f6e657869737460008301527f656e7420746f6b656e00000000000000000000000000000000000000000000006020830152604082019050919050565b600061258c602083612c41565b91507f4552433732313a206d696e7420746f20746865207a65726f20616464726573736000830152602082019050919050565b60006125cc602c83612c41565b91507f4552433732313a20617070726f76656420717565727920666f72206e6f6e657860008301527f697374656e7420746f6b656e00000000000000000000000000000000000000006020830152604082019050919050565b6000612632602983612c41565b91507f4552433732313a207472616e73666572206f6620746f6b656e2074686174206960008301527f73206e6f74206f776e00000000000000000000000000000000000000000000006020830152604082019050919050565b6000612698602f83612c41565b91507f4552433732314d657461646174613a2055524920717565727920666f72206e6f60008301527f6e6578697374656e7420746f6b656e00000000000000000000000000000000006020830152604082019050919050565b60006126fe602183612c41565b91507f4552433732313a20617070726f76616c20746f2063757272656e74206f776e6560008301527f72000000000000000000000000000000000000000000000000000000000000006020830152604082019050919050565b6000612764603183612c41565b91507f4552433732313a207472616e736665722063616c6c6572206973206e6f74206f60008301527f776e6572206e6f7220617070726f7665640000000000000000000000000000006020830152604082019050919050565b60006080830160008301516127d56000860182612827565b50602083015184820360208601526127ed82826121f8565b91505060408301516128026040860182612192565b506060830151848203606086015261281a82826121f8565b9150508091505092915050565b61283081612d94565b82525050565b61283f81612d94565b82525050565b6000612851828561226a565b915061285d828461226a565b91508190509392505050565b600060208201905061287e60008301846121a1565b92915050565b60006020820190506128996000830184612183565b92915050565b60006080820190506128b460008301876121a1565b6128c160208301866121a1565b6128ce6040830185612836565b81810360608301526128e081846121bf565b905095945050505050565b600060208201905061290060008301846121b0565b92915050565b600060208201905081810360008301526129208184612231565b905092915050565b600060208201905081810360008301526129418161229b565b9050919050565b6000602082019050818103600083015261296181612301565b9050919050565b6000602082019050818103600083015261298181612341565b9050919050565b600060208201905081810360008301526129a1816123a7565b9050919050565b600060208201905081810360008301526129c1816123e7565b9050919050565b600060208201905081810360008301526129e18161244d565b9050919050565b60006020820190508181036000830152612a01816124b3565b9050919050565b60006020820190508181036000830152612a2181612519565b9050919050565b60006020820190508181036000830152612a418161257f565b9050919050565b60006020820190508181036000830152612a61816125bf565b9050919050565b60006020820190508181036000830152612a8181612625565b9050919050565b60006020820190508181036000830152612aa18161268b565b9050919050565b60006020820190508181036000830152612ac1816126f1565b9050919050565b60006020820190508181036000830152612ae181612757565b9050919050565b60006020820190508181036000830152612b0281846127bd565b905092915050565b6000602082019050612b1f6000830184612836565b92915050565b6000608082019050612b3a6000830187612836565b8181036020830152612b4c8186612231565b9050612b5b60408301856121a1565b8181036060830152612b6d8184612231565b905095945050505050565b6000604051905081810181811067ffffffffffffffff82111715612b9f57612b9e612f19565b5b8060405250919050565b600067ffffffffffffffff821115612bc457612bc3612f19565b5b601f19601f8301169050602081019050919050565b600067ffffffffffffffff821115612bf457612bf3612f19565b5b601f19601f8301169050602081019050919050565b600081519050919050565b600081519050919050565b600082825260208201905092915050565b600082825260208201905092915050565b600082825260208201905092915050565b600081905092915050565b6000612c6882612d94565b9150612c7383612d94565b9250827fffffffffffffffffffffffffffffffffffffffffffffffffffffffffffffffff03821115612ca857612ca7612e8c565b5b828201905092915050565b6000612cbe82612d94565b9150612cc983612d94565b925082612cd957612cd8612ebb565b5b828204905092915050565b6000612cef82612d94565b9150612cfa83612d94565b925082821015612d0d57612d0c612e8c565b5b828203905092915050565b6000612d2382612d74565b9050919050565b6000612d3582612d74565b9050919050565b60008115159050919050565b60007fffffffff0000000000000000000000000000000000000000000000000000000082169050919050565b600073ffffffffffffffffffffffffffffffffffffffff82169050919050565b6000819050919050565b82818337600083830152505050565b60005b83811015612dcb578082015181840152602081019050612db0565b83811115612dda576000848401525b50505050565b60006002820490506001821680612df857607f821691505b60208210811415612e0c57612e0b612eea565b5b50919050565b6000612e1d82612d94565b91507fffffffffffffffffffffffffffffffffffffffffffffffffffffffffffffffff821415612e5057612e4f612e8c565b5b600182019050919050565b6000612e6682612d94565b9150612e7183612d94565b925082612e8157612e80612ebb565b5b828206905092915050565b7f4e487b7100000000000000000000000000000000000000000000000000000000600052601160045260246000fd5b7f4e487b7100000000000000000000000000000000000000000000000000000000600052601260045260246000fd5b7f4e487b7100000000000000000000000000000000000000000000000000000000600052602260045260246000fd5b7f4e487b7100000000000000000000000000000000000000000000000000000000600052604160045260246000fd5b6000601f19601f8301169050919050565b612f6281612d18565b8114612f6d57600080fd5b50565b612f7981612d3c565b8114612f8457600080fd5b50565b612f9081612d48565b8114612f9b57600080fd5b50565b612fa781612d94565b8114612fb257600080fd5b5056fea2646970667358221220fc29fc013b7055547831d199a08cdf77389a7049bd7dc18c51df147b858ef1da64736f6c63430008000033",
  "immutableReferences": {},
  "source": "pragma solidity ^0.8.0;\r\nimport \"@openzeppelin/contracts/token/ERC721/ERC721.sol\";\r\n// import \"@openzeppelin/contracts/access/Ownable.sol\";\r\n// import \"./Auction.sol\";\r\n\r\n\r\n// function for maxPrice authorized to owner\r\n\r\ncontract ToknCollectible is ERC721{\r\n  uint256 public  _collectibleID;\r\n  uint256 public _collectibleCount;\r\n  uint public maxPrice;\r\n\r\n  // the original creator of NFT (artist)\r\n  address payable public creator;\r\n\r\n  mapping(uint256=> Collectible) public _collectibleList;\r\n\r\n\r\n  // mapping(uint256=> address[]) public collectibleAuctions;\r\n  // mapping(uint256=> bool) public runningAuction;\r\n  // mapping(uint256=> Auction) public currentAuctionForTokn;\r\n  // mapping(address=> uint) public auctionMaxPrice;\r\n\r\n  struct Collectible{\r\n    uint256 _collectibleID;\r\n    string _title;\r\n    address _owner;\r\n    string _collectibleURI;\r\n    \r\n  }\r\n  event CollectibleCreated(\r\n    uint256 _collectibleID,\r\n    string _title,\r\n    address _owner,\r\n    string _collectibleURI\r\n    \r\n  );\r\n\r\n\r\nconstructor(string memory name, string memory symbol ) public ERC721(name, symbol){\r\n    _collectibleID = 0;\r\n    _collectibleCount = 0;\r\n}\r\n\r\n//creates and mints NFT Tokn to user.\r\n//Takes as input _tokenURI: token data off chain, address of the _owner,collectible title\r\n\r\nmodifier toknExists(uint256 toknID) {\r\n  require(_exists(toknID));\r\n  _;\r\n}\r\n\r\nfunction create(string memory _title, string memory _tokenURI) public returns(Collectible memory){\r\n    //increment collectible count\r\n      _collectibleID++;\r\n      _collectibleCount++;\r\n\r\n    //create collectible struct\r\n    Collectible memory newCollectible = Collectible(_collectibleID, _title, msg.sender, _tokenURI);\r\n  _collectibleList[_collectibleID] = newCollectible;\r\n\r\n  //emit Event\r\n  emit CollectibleCreated(_collectibleID, _title, msg.sender, _tokenURI);\r\n\r\n  //call safemint function from openzeppelin\r\n  _safeMint(msg.sender, _collectibleID);\r\n\r\n  // Assiging msg.sender as the original creator \r\n  creator = payable(msg.sender);\r\n  return newCollectible;\r\n\r\n}\r\n\r\n// // Starting auction for a particular collectible\r\n// function startAuction(uint256 toknID, uint _maxPrice) public toknExists(toknID){\r\n//   // require(_exists(toknID));\r\n//   require(_isApprovedOrOwner(msg.sender, toknID));\r\n//   require(runningAuction[toknID] == false);\r\n//   Auction newAuction = new Auction(payable(msg.sender), toknID);\r\n//   // collectibleAuctions[toknID].push(address(newAuction));\r\n//   auctionMaxPrice[address(newAuction)] =_maxPrice*10**18;\r\n//   runningAuction[toknID] = true;\r\n//   currentAuctionForTokn[toknID] = newAuction;\r\n// }\r\n\r\n\r\n// // Placeing Bid\r\n// function bid(uint256 _toknID) public payable toknExists(_toknID) returns(bool){\r\n//   // require(_exists(_toknID));\r\n//   require(runningAuction[_toknID]);\r\n  \r\n//   // Auction currentAuction = currentAuctionForTokn[_toknID];\r\n\r\n//   bool res = currentAuctionForTokn[_toknID].placeBid{value: msg.value}(msg.sender);\r\n\r\n//   // Finalizing the auction if the current bid reaches maximum price defines by the owner \r\n//   if(msg.value >= auctionMaxPrice[address(currentAuctionForTokn[_toknID])]){\r\n//     runningAuction[_toknID] = false;\r\n\r\n//   }\r\n//   return res;\r\n// }\r\n\r\n// // Finalizing Auction and transferring the ownership to the buyer and sending the commision to the original creator\r\n// function endAuction(uint256 _toknID, uint256 commission) public toknExists(_toknID){\r\n//   // require(_exists(_toknID));\r\n//   Auction currentAuction = currentAuctionForTokn[_toknID];\r\n//   require(currentAuction.auctionState() != Auction.State.Ended); \r\n//   require(_isApprovedOrOwner(msg.sender, _toknID) && msg.sender == currentAuction.owner());\r\n  \r\n//   currentAuction.finalizeAuction();\r\n//   _collectibleList[_toknID]._owner = currentAuction.highestBidder();\r\n//   uint lastPrice = currentAuction.highestBid()/uint(10**18);\r\n//   uint creatorCommission = lastPrice*commission/uint(100);\r\n//   creator.transfer(creatorCommission*10**18); \r\n//   safeTransferFrom(msg.sender, currentAuction.highestBidder(), _toknID);\r\n//   runningAuction[_toknID] = false;\r\n//   delete currentAuctionForTokn[_toknID];\r\n// }\r\n\r\n// //cancelling the auction\r\n// function cancelAuction(uint256 toknID) public toknExists(toknID){\r\n//   // require(_exists(toknID));\r\n//   require(msg.sender == _collectibleList[toknID]._owner);\r\n//   require(runningAuction[toknID]);\r\n//   // Auction currentAuction = currentAuctionForTokn[toknID];\r\n//   currentAuctionForTokn[toknID].cancelAuction(msg.sender);\r\n//   runningAuction[toknID] = false;\r\n//   delete currentAuctionForTokn[toknID];\r\n// }\r\n\r\n// // setting terminal price for auction\r\n// function setMaxPrice(uint256 toknID, uint price) public toknExists(toknID) returns(bool){\r\n//   // require(_exists(toknID));\r\n//   require(msg.sender == _collectibleList[toknID]._owner);\r\n//   require(runningAuction[toknID]);\r\n \r\n//   // Auction currentAuction = currentAuctionForTokn[toknID];\r\n//   auctionMaxPrice[address(currentAuctionForTokn[toknID])] = price*10**18;\r\n//   return true;\r\n// }\r\n\r\n//destroy function takes the tokenID of the NFT, then calls on openzeppelin's burn function.\r\nfunction destroy(uint256 toknID) public toknExists(toknID) returns(bool success) {\r\n  // require(_exists(toknID));\r\n  _burn(toknID);\r\n  delete _collectibleList[toknID];\r\n  return true;\r\n}\r\n\r\n}",
  "sourcePath": "C:/Users/lenovo/OneDrive/Desktop/projects/Tokn/contracts/ToknCollectible.sol",
  "compiler": {
    "name": "solc",
    "version": "0.8.0+commit.c7dfd78e.Emscripten.clang"
  },
  "schemaVersion": "3.4.1",
  "updatedAt": "2021-07-21T12:43:40.211Z",
  "devdoc": {
    "kind": "dev",
    "methods": {
      "approve(address,uint256)": {
        "details": "See {IERC721-approve}."
      },
      "balanceOf(address)": {
        "details": "See {IERC721-balanceOf}."
      },
      "getApproved(uint256)": {
        "details": "See {IERC721-getApproved}."
      },
      "isApprovedForAll(address,address)": {
        "details": "See {IERC721-isApprovedForAll}."
      },
      "name()": {
        "details": "See {IERC721Metadata-name}."
      },
      "ownerOf(uint256)": {
        "details": "See {IERC721-ownerOf}."
      },
      "safeTransferFrom(address,address,uint256)": {
        "details": "See {IERC721-safeTransferFrom}."
      },
      "safeTransferFrom(address,address,uint256,bytes)": {
        "details": "See {IERC721-safeTransferFrom}."
      },
      "setApprovalForAll(address,bool)": {
        "details": "See {IERC721-setApprovalForAll}."
      },
      "supportsInterface(bytes4)": {
        "details": "See {IERC165-supportsInterface}."
      },
      "symbol()": {
        "details": "See {IERC721Metadata-symbol}."
      },
      "tokenURI(uint256)": {
        "details": "See {IERC721Metadata-tokenURI}."
      },
      "transferFrom(address,address,uint256)": {
        "details": "See {IERC721-transferFrom}."
      }
    },
    "version": 1
  },
  "userdoc": {
    "kind": "user",
    "methods": {},
    "version": 1
  }
}