{
  "contractName": "ToknCollectible",
  "abi": [
    {
      "inputs": [
        {
          "internalType": "string",
          "name": "name",
          "type": "string"
        },
        {
          "internalType": "string",
          "name": "symbol",
          "type": "string"
        }
      ],
      "stateMutability": "nonpayable",
      "type": "constructor"
    },
    {
      "anonymous": false,
      "inputs": [
        {
          "indexed": true,
          "internalType": "address",
          "name": "owner",
          "type": "address"
        },
        {
          "indexed": true,
          "internalType": "address",
          "name": "approved",
          "type": "address"
        },
        {
          "indexed": true,
          "internalType": "uint256",
          "name": "tokenId",
          "type": "uint256"
        }
      ],
      "name": "Approval",
      "type": "event"
    },
    {
      "anonymous": false,
      "inputs": [
        {
          "indexed": true,
          "internalType": "address",
          "name": "owner",
          "type": "address"
        },
        {
          "indexed": true,
          "internalType": "address",
          "name": "operator",
          "type": "address"
        },
        {
          "indexed": false,
          "internalType": "bool",
          "name": "approved",
          "type": "bool"
        }
      ],
      "name": "ApprovalForAll",
      "type": "event"
    },
    {
      "anonymous": false,
      "inputs": [
        {
          "indexed": false,
          "internalType": "uint256",
          "name": "_collectibleID",
          "type": "uint256"
        },
        {
          "indexed": false,
          "internalType": "string",
          "name": "_title",
          "type": "string"
        },
        {
          "indexed": false,
          "internalType": "address",
          "name": "_owner",
          "type": "address"
        },
        {
          "indexed": false,
          "internalType": "string",
          "name": "_collectibleURI",
          "type": "string"
        }
      ],
      "name": "CollectibleCreated",
      "type": "event"
    },
    {
      "anonymous": false,
      "inputs": [
        {
          "indexed": true,
          "internalType": "address",
          "name": "from",
          "type": "address"
        },
        {
          "indexed": true,
          "internalType": "address",
          "name": "to",
          "type": "address"
        },
        {
          "indexed": true,
          "internalType": "uint256",
          "name": "tokenId",
          "type": "uint256"
        }
      ],
      "name": "Transfer",
      "type": "event"
    },
    {
      "inputs": [],
      "name": "_collectibleCount",
      "outputs": [
        {
          "internalType": "uint256",
          "name": "",
          "type": "uint256"
        }
      ],
      "stateMutability": "view",
      "type": "function"
    },
    {
      "inputs": [],
      "name": "_collectibleID",
      "outputs": [
        {
          "internalType": "uint256",
          "name": "",
          "type": "uint256"
        }
      ],
      "stateMutability": "view",
      "type": "function"
    },
    {
      "inputs": [
        {
          "internalType": "uint256",
          "name": "",
          "type": "uint256"
        }
      ],
      "name": "_collectibleList",
      "outputs": [
        {
          "internalType": "uint256",
          "name": "_collectibleID",
          "type": "uint256"
        },
        {
          "internalType": "string",
          "name": "_title",
          "type": "string"
        },
        {
          "internalType": "address",
          "name": "_owner",
          "type": "address"
        },
        {
          "internalType": "string",
          "name": "_collectibleURI",
          "type": "string"
        }
      ],
      "stateMutability": "view",
      "type": "function"
    },
    {
      "inputs": [
        {
          "internalType": "address",
          "name": "to",
          "type": "address"
        },
        {
          "internalType": "uint256",
          "name": "tokenId",
          "type": "uint256"
        }
      ],
      "name": "approve",
      "outputs": [],
      "stateMutability": "nonpayable",
      "type": "function"
    },
    {
      "inputs": [
        {
          "internalType": "address",
          "name": "owner",
          "type": "address"
        }
      ],
      "name": "balanceOf",
      "outputs": [
        {
          "internalType": "uint256",
          "name": "",
          "type": "uint256"
        }
      ],
      "stateMutability": "view",
      "type": "function"
    },
    {
      "inputs": [],
      "name": "creator",
      "outputs": [
        {
          "internalType": "address payable",
          "name": "",
          "type": "address"
        }
      ],
      "stateMutability": "view",
      "type": "function"
    },
    {
      "inputs": [
        {
          "internalType": "uint256",
          "name": "tokenId",
          "type": "uint256"
        }
      ],
      "name": "getApproved",
      "outputs": [
        {
          "internalType": "address",
          "name": "",
          "type": "address"
        }
      ],
      "stateMutability": "view",
      "type": "function"
    },
    {
      "inputs": [
        {
          "internalType": "address",
          "name": "owner",
          "type": "address"
        },
        {
          "internalType": "address",
          "name": "operator",
          "type": "address"
        }
      ],
      "name": "isApprovedForAll",
      "outputs": [
        {
          "internalType": "bool",
          "name": "",
          "type": "bool"
        }
      ],
      "stateMutability": "view",
      "type": "function"
    },
    {
      "inputs": [],
      "name": "name",
      "outputs": [
        {
          "internalType": "string",
          "name": "",
          "type": "string"
        }
      ],
      "stateMutability": "view",
      "type": "function"
    },
    {
      "inputs": [
        {
          "internalType": "uint256",
          "name": "tokenId",
          "type": "uint256"
        }
      ],
      "name": "ownerOf",
      "outputs": [
        {
          "internalType": "address",
          "name": "",
          "type": "address"
        }
      ],
      "stateMutability": "view",
      "type": "function"
    },
    {
      "inputs": [
        {
          "internalType": "address",
          "name": "from",
          "type": "address"
        },
        {
          "internalType": "address",
          "name": "to",
          "type": "address"
        },
        {
          "internalType": "uint256",
          "name": "tokenId",
          "type": "uint256"
        }
      ],
      "name": "safeTransferFrom",
      "outputs": [],
      "stateMutability": "nonpayable",
      "type": "function"
    },
    {
      "inputs": [
        {
          "internalType": "address",
          "name": "from",
          "type": "address"
        },
        {
          "internalType": "address",
          "name": "to",
          "type": "address"
        },
        {
          "internalType": "uint256",
          "name": "tokenId",
          "type": "uint256"
        },
        {
          "internalType": "bytes",
          "name": "_data",
          "type": "bytes"
        }
      ],
      "name": "safeTransferFrom",
      "outputs": [],
      "stateMutability": "nonpayable",
      "type": "function"
    },
    {
      "inputs": [
        {
          "internalType": "address",
          "name": "operator",
          "type": "address"
        },
        {
          "internalType": "bool",
          "name": "approved",
          "type": "bool"
        }
      ],
      "name": "setApprovalForAll",
      "outputs": [],
      "stateMutability": "nonpayable",
      "type": "function"
    },
    {
      "inputs": [
        {
          "internalType": "bytes4",
          "name": "interfaceId",
          "type": "bytes4"
        }
      ],
      "name": "supportsInterface",
      "outputs": [
        {
          "internalType": "bool",
          "name": "",
          "type": "bool"
        }
      ],
      "stateMutability": "view",
      "type": "function"
    },
    {
      "inputs": [],
      "name": "symbol",
      "outputs": [
        {
          "internalType": "string",
          "name": "",
          "type": "string"
        }
      ],
      "stateMutability": "view",
      "type": "function"
    },
    {
      "inputs": [
        {
          "internalType": "uint256",
          "name": "tokenId",
          "type": "uint256"
        }
      ],
      "name": "tokenURI",
      "outputs": [
        {
          "internalType": "string",
          "name": "",
          "type": "string"
        }
      ],
      "stateMutability": "view",
      "type": "function"
    },
    {
      "inputs": [
        {
          "internalType": "address",
          "name": "from",
          "type": "address"
        },
        {
          "internalType": "address",
          "name": "to",
          "type": "address"
        },
        {
          "internalType": "uint256",
          "name": "tokenId",
          "type": "uint256"
        }
      ],
      "name": "transferFrom",
      "outputs": [],
      "stateMutability": "nonpayable",
      "type": "function"
    },
    {
      "inputs": [
        {
          "internalType": "string",
          "name": "_title",
          "type": "string"
        },
        {
          "internalType": "string",
          "name": "_tokenURI",
          "type": "string"
        }
      ],
      "name": "create",
      "outputs": [
        {
          "components": [
            {
              "internalType": "uint256",
              "name": "_collectibleID",
              "type": "uint256"
            },
            {
              "internalType": "string",
              "name": "_title",
              "type": "string"
            },
            {
              "internalType": "address",
              "name": "_owner",
              "type": "address"
            },
            {
              "internalType": "string",
              "name": "_collectibleURI",
              "type": "string"
            }
          ],
          "internalType": "struct ToknCollectible.Collectible",
          "name": "",
          "type": "tuple"
        }
      ],
      "stateMutability": "nonpayable",
      "type": "function"
    },
    {
      "inputs": [
        {
          "internalType": "uint256",
          "name": "toknID",
          "type": "uint256"
        }
      ],
      "name": "destroy",
      "outputs": [
        {
          "internalType": "bool",
          "name": "success",
          "type": "bool"
        }
      ],
      "stateMutability": "nonpayable",
      "type": "function"
    }
  ],
  "bytecode": "0x60806040523480156200001157600080fd5b5060405162003315380380620033158339818101604052810190620000379190620001a7565b818181600090805190602001906200005192919062000085565b5080600190805190602001906200006a92919062000085565b5050506000600681905550600060078190555050506200034b565b8280546200009390620002b7565b90600052602060002090601f016020900481019282620000b7576000855562000103565b82601f10620000d257805160ff191683800117855562000103565b8280016001018555821562000103579182015b8281111562000102578251825591602001919060010190620000e5565b5b50905062000112919062000116565b5090565b5b808211156200013157600081600090555060010162000117565b5090565b60006200014c62000146846200024e565b6200021a565b9050828152602081018484840111156200016557600080fd5b6200017284828562000281565b509392505050565b600082601f8301126200018c57600080fd5b81516200019e84826020860162000135565b91505092915050565b60008060408385031215620001bb57600080fd5b600083015167ffffffffffffffff811115620001d657600080fd5b620001e4858286016200017a565b925050602083015167ffffffffffffffff8111156200020257600080fd5b62000210858286016200017a565b9150509250929050565b6000604051905081810181811067ffffffffffffffff821117156200024457620002436200031c565b5b8060405250919050565b600067ffffffffffffffff8211156200026c576200026b6200031c565b5b601f19601f8301169050602081019050919050565b60005b83811015620002a157808201518184015260208101905062000284565b83811115620002b1576000848401525b50505050565b60006002820490506001821680620002d057607f821691505b60208210811415620002e757620002e6620002ed565b5b50919050565b7f4e487b7100000000000000000000000000000000000000000000000000000000600052602260045260246000fd5b7f4e487b7100000000000000000000000000000000000000000000000000000000600052604160045260246000fd5b612fba806200035b6000396000f3fe608060405234801561001057600080fd5b50600436106101215760003560e01c80636352211e116100ad578063b88d4fde11610071578063b88d4fde1461032e578063bab22d8d1461034a578063c87b56dd14610368578063ca225b9714610398578063e985e9c5146103cb57610121565b80636352211e1461026457806370a082311461029457806395d89b41146102c45780639d118770146102e2578063a22cb4651461031257610121565b8063095ea7b3116100f4578063095ea7b3146101c2578063198e2b8a146101de57806323b872dd1461020e57806342842e0e1461022a57806354bbdfab1461024657610121565b806301ffc9a71461012657806302d05d3f1461015657806306fdde0314610174578063081812fc14610192575b600080fd5b610140600480360381019061013b919061206b565b6103fb565b60405161014d91906128ba565b60405180910390f35b61015e6104dd565b60405161016b9190612853565b60405180910390f35b61017c610503565b60405161018991906128d5565b60405180910390f35b6101ac60048036038101906101a79190612129565b610595565b6040516101b99190612838565b60405180910390f35b6101dc60048036038101906101d7919061202f565b61061a565b005b6101f860048036038101906101f391906120bd565b610732565b6040516102059190612ab7565b60405180910390f35b61022860048036038101906102239190611f29565b6108e1565b005b610244600480360381019061023f9190611f29565b610941565b005b61024e610961565b60405161025b9190612ad9565b60405180910390f35b61027e60048036038101906102799190612129565b610967565b60405161028b9190612838565b60405180910390f35b6102ae60048036038101906102a99190611ec4565b610a19565b6040516102bb9190612ad9565b60405180910390f35b6102cc610ad1565b6040516102d991906128d5565b60405180910390f35b6102fc60048036038101906102f79190612129565b610b63565b60405161030991906128ba565b60405180910390f35b61032c60048036038101906103279190611ff3565b610bee565b005b61034860048036038101906103439190611f78565b610d6f565b005b610352610dd1565b60405161035f9190612ad9565b60405180910390f35b610382600480360381019061037d9190612129565b610dd7565b60405161038f91906128d5565b60405180910390f35b6103b260048036038101906103ad9190612129565b610e7e565b6040516103c29493929190612af4565b60405180910390f35b6103e560048036038101906103e09190611eed565b610fde565b6040516103f291906128ba565b60405180910390f35b60007f80ac58cd000000000000000000000000000000000000000000000000000000007bffffffffffffffffffffffffffffffffffffffffffffffffffffffff1916827bffffffffffffffffffffffffffffffffffffffffffffffffffffffff191614806104c657507f5b5e139f000000000000000000000000000000000000000000000000000000007bffffffffffffffffffffffffffffffffffffffffffffffffffffffff1916827bffffffffffffffffffffffffffffffffffffffffffffffffffffffff1916145b806104d657506104d582611072565b5b9050919050565b600860009054906101000a900473ffffffffffffffffffffffffffffffffffffffff1681565b60606000805461051290612daf565b80601f016020809104026020016040519081016040528092919081815260200182805461053e90612daf565b801561058b5780601f106105605761010080835404028352916020019161058b565b820191906000526020600020905b81548152906001019060200180831161056e57829003601f168201915b5050505050905090565b60006105a0826110dc565b6105df576040517f08c379a00000000000000000000000000000000000000000000000000000000081526004016105d690612a17565b60405180910390fd5b6004600083815260200190815260200160002060009054906101000a900473ffffffffffffffffffffffffffffffffffffffff169050919050565b600061062582610967565b90508073ffffffffffffffffffffffffffffffffffffffff168373ffffffffffffffffffffffffffffffffffffffff161415610696576040517f08c379a000000000000000000000000000000000000000000000000000000000815260040161068d90612a77565b60405180910390fd5b8073ffffffffffffffffffffffffffffffffffffffff166106b5611148565b73ffffffffffffffffffffffffffffffffffffffff1614806106e457506106e3816106de611148565b610fde565b5b610723576040517f08c379a000000000000000000000000000000000000000000000000000000000815260040161071a90612997565b60405180910390fd5b61072d8383611150565b505050565b61073a611c6a565b6006600081548092919061074d90612de1565b91905055506007600081548092919061076590612de1565b91905055506000604051806080016040528060065481526020018581526020013373ffffffffffffffffffffffffffffffffffffffff168152602001848152509050806009600060065481526020019081526020016000206000820151816000015560208201518160010190805190602001906107e3929190611ca8565b5060408201518160020160006101000a81548173ffffffffffffffffffffffffffffffffffffffff021916908373ffffffffffffffffffffffffffffffffffffffff1602179055506060820151816003019080519060200190610847929190611ca8565b509050507f4265c0fca0618144a5f95ac58797316e876c6d2cc3c31e68bdf2c07ad8a53dd16006548533866040516108829493929190612af4565b60405180910390a161089633600654611209565b33600860006101000a81548173ffffffffffffffffffffffffffffffffffffffff021916908373ffffffffffffffffffffffffffffffffffffffff1602179055508091505092915050565b6108f26108ec611148565b82611227565b610931576040517f08c379a000000000000000000000000000000000000000000000000000000000815260040161092890612a97565b60405180910390fd5b61093c838383611305565b505050565b61095c83838360405180602001604052806000815250610d6f565b505050565b60075481565b6000806002600084815260200190815260200160002060009054906101000a900473ffffffffffffffffffffffffffffffffffffffff169050600073ffffffffffffffffffffffffffffffffffffffff168173ffffffffffffffffffffffffffffffffffffffff161415610a10576040517f08c379a0000000000000000000000000000000000000000000000000000000008152600401610a07906129d7565b60405180910390fd5b80915050919050565b60008073ffffffffffffffffffffffffffffffffffffffff168273ffffffffffffffffffffffffffffffffffffffff161415610a8a576040517f08c379a0000000000000000000000000000000000000000000000000000000008152600401610a81906129b7565b60405180910390fd5b600360008373ffffffffffffffffffffffffffffffffffffffff1673ffffffffffffffffffffffffffffffffffffffff168152602001908152602001600020549050919050565b606060018054610ae090612daf565b80601f0160208091040260200160405190810160405280929190818152602001828054610b0c90612daf565b8015610b595780601f10610b2e57610100808354040283529160200191610b59565b820191906000526020600020905b815481529060010190602001808311610b3c57829003601f168201915b5050505050905090565b6000610b6e826110dc565b610b7757600080fd5b610b8082611561565b60096000838152602001908152602001600020600080820160009055600182016000610bac9190611d2e565b6002820160006101000a81549073ffffffffffffffffffffffffffffffffffffffff0219169055600382016000610be39190611d2e565b505060019050919050565b610bf6611148565b73ffffffffffffffffffffffffffffffffffffffff168273ffffffffffffffffffffffffffffffffffffffff161415610c64576040517f08c379a0000000000000000000000000000000000000000000000000000000008152600401610c5b90612957565b60405180910390fd5b8060056000610c71611148565b73ffffffffffffffffffffffffffffffffffffffff1673ffffffffffffffffffffffffffffffffffffffff16815260200190815260200160002060008473ffffffffffffffffffffffffffffffffffffffff1673ffffffffffffffffffffffffffffffffffffffff16815260200190815260200160002060006101000a81548160ff0219169083151502179055508173ffffffffffffffffffffffffffffffffffffffff16610d1e611148565b73ffffffffffffffffffffffffffffffffffffffff167f17307eab39ab6107e8899845ad3d59bd9653f200f220920489ca2b5937696c3183604051610d6391906128ba565b60405180910390a35050565b610d80610d7a611148565b83611227565b610dbf576040517f08c379a0000000000000000000000000000000000000000000000000000000008152600401610db690612a97565b60405180910390fd5b610dcb84848484611672565b50505050565b60065481565b6060610de2826110dc565b610e21576040517f08c379a0000000000000000000000000000000000000000000000000000000008152600401610e1890612a57565b60405180910390fd5b6000610e2b6116ce565b90506000815111610e4b5760405180602001604052806000815250610e76565b80610e55846116e5565b604051602001610e66929190612814565b6040516020818303038152906040525b915050919050565b6009602052806000526040600020600091509050806000015490806001018054610ea790612daf565b80601f0160208091040260200160405190810160405280929190818152602001828054610ed390612daf565b8015610f205780601f10610ef557610100808354040283529160200191610f20565b820191906000526020600020905b815481529060010190602001808311610f0357829003601f168201915b5050505050908060020160009054906101000a900473ffffffffffffffffffffffffffffffffffffffff1690806003018054610f5b90612daf565b80601f0160208091040260200160405190810160405280929190818152602001828054610f8790612daf565b8015610fd45780601f10610fa957610100808354040283529160200191610fd4565b820191906000526020600020905b815481529060010190602001808311610fb757829003601f168201915b5050505050905084565b6000600560008473ffffffffffffffffffffffffffffffffffffffff1673ffffffffffffffffffffffffffffffffffffffff16815260200190815260200160002060008373ffffffffffffffffffffffffffffffffffffffff1673ffffffffffffffffffffffffffffffffffffffff16815260200190815260200160002060009054906101000a900460ff16905092915050565b60007f01ffc9a7000000000000000000000000000000000000000000000000000000007bffffffffffffffffffffffffffffffffffffffffffffffffffffffff1916827bffffffffffffffffffffffffffffffffffffffffffffffffffffffff1916149050919050565b60008073ffffffffffffffffffffffffffffffffffffffff166002600084815260200190815260200160002060009054906101000a900473ffffffffffffffffffffffffffffffffffffffff1673ffffffffffffffffffffffffffffffffffffffff1614159050919050565b600033905090565b816004600083815260200190815260200160002060006101000a81548173ffffffffffffffffffffffffffffffffffffffff021916908373ffffffffffffffffffffffffffffffffffffffff160217905550808273ffffffffffffffffffffffffffffffffffffffff166111c383610967565b73ffffffffffffffffffffffffffffffffffffffff167f8c5be1e5ebec7d5bd14f71427d1e84f3dd0314c0f7b2291e5b200ac8c7c3b92560405160405180910390a45050565b611223828260405180602001604052806000815250611892565b5050565b6000611232826110dc565b611271576040517f08c379a000000000000000000000000000000000000000000000000000000000815260040161126890612977565b60405180910390fd5b600061127c83610967565b90508073ffffffffffffffffffffffffffffffffffffffff168473ffffffffffffffffffffffffffffffffffffffff1614806112eb57508373ffffffffffffffffffffffffffffffffffffffff166112d384610595565b73ffffffffffffffffffffffffffffffffffffffff16145b806112fc57506112fb8185610fde565b5b91505092915050565b8273ffffffffffffffffffffffffffffffffffffffff1661132582610967565b73ffffffffffffffffffffffffffffffffffffffff161461137b576040517f08c379a000000000000000000000000000000000000000000000000000000000815260040161137290612a37565b60405180910390fd5b600073ffffffffffffffffffffffffffffffffffffffff168273ffffffffffffffffffffffffffffffffffffffff1614156113eb576040517f08c379a00000000000000000000000000000000000000000000000000000000081526004016113e290612937565b60405180910390fd5b6113f68383836118ed565b611401600082611150565b6001600360008573ffffffffffffffffffffffffffffffffffffffff1673ffffffffffffffffffffffffffffffffffffffff16815260200190815260200160002060008282546114519190612cb3565b925050819055506001600360008473ffffffffffffffffffffffffffffffffffffffff1673ffffffffffffffffffffffffffffffffffffffff16815260200190815260200160002060008282546114a89190612c2c565b92505081905550816002600083815260200190815260200160002060006101000a81548173ffffffffffffffffffffffffffffffffffffffff021916908373ffffffffffffffffffffffffffffffffffffffff160217905550808273ffffffffffffffffffffffffffffffffffffffff168473ffffffffffffffffffffffffffffffffffffffff167fddf252ad1be2c89b69c2b068fc378daa952ba7f163c4a11628f55a4df523b3ef60405160405180910390a4505050565b600061156c82610967565b905061157a816000846118ed565b611585600083611150565b6001600360008373ffffffffffffffffffffffffffffffffffffffff1673ffffffffffffffffffffffffffffffffffffffff16815260200190815260200160002060008282546115d59190612cb3565b925050819055506002600083815260200190815260200160002060006101000a81549073ffffffffffffffffffffffffffffffffffffffff021916905581600073ffffffffffffffffffffffffffffffffffffffff168273ffffffffffffffffffffffffffffffffffffffff167fddf252ad1be2c89b69c2b068fc378daa952ba7f163c4a11628f55a4df523b3ef60405160405180910390a45050565b61167d848484611305565b611689848484846118f2565b6116c8576040517f08c379a00000000000000000000000000000000000000000000000000000000081526004016116bf906128f7565b60405180910390fd5b50505050565b606060405180602001604052806000815250905090565b6060600082141561172d576040518060400160405280600181526020017f3000000000000000000000000000000000000000000000000000000000000000815250905061188d565b600082905060005b6000821461175f57808061174890612de1565b915050600a826117589190612c82565b9150611735565b60008167ffffffffffffffff8111156117a1577f4e487b7100000000000000000000000000000000000000000000000000000000600052604160045260246000fd5b6040519080825280601f01601f1916602001820160405280156117d35781602001600182028036833780820191505090505b5090505b60008514611886576001826117ec9190612cb3565b9150600a856117fb9190612e2a565b60306118079190612c2c565b60f81b818381518110611843577f4e487b7100000000000000000000000000000000000000000000000000000000600052603260045260246000fd5b60200101907effffffffffffffffffffffffffffffffffffffffffffffffffffffffffffff1916908160001a905350600a8561187f9190612c82565b94506117d7565b8093505050505b919050565b61189c8383611a89565b6118a960008484846118f2565b6118e8576040517f08c379a00000000000000000000000000000000000000000000000000000000081526004016118df906128f7565b60405180910390fd5b505050565b505050565b60006119138473ffffffffffffffffffffffffffffffffffffffff16611c57565b15611a7c578373ffffffffffffffffffffffffffffffffffffffff1663150b7a0261193c611148565b8786866040518563ffffffff1660e01b815260040161195e949392919061286e565b602060405180830381600087803b15801561197857600080fd5b505af19250505080156119a957506040513d601f19601f820116820180604052508101906119a69190612094565b60015b611a2c573d80600081146119d9576040519150601f19603f3d011682016040523d82523d6000602084013e6119de565b606091505b50600081511415611a24576040517f08c379a0000000000000000000000000000000000000000000000000000000008152600401611a1b906128f7565b60405180910390fd5b805181602001fd5b63150b7a0260e01b7bffffffffffffffffffffffffffffffffffffffffffffffffffffffff1916817bffffffffffffffffffffffffffffffffffffffffffffffffffffffff191614915050611a81565b600190505b949350505050565b600073ffffffffffffffffffffffffffffffffffffffff168273ffffffffffffffffffffffffffffffffffffffff161415611af9576040517f08c379a0000000000000000000000000000000000000000000000000000000008152600401611af0906129f7565b60405180910390fd5b611b02816110dc565b15611b42576040517f08c379a0000000000000000000000000000000000000000000000000000000008152600401611b3990612917565b60405180910390fd5b611b4e600083836118ed565b6001600360008473ffffffffffffffffffffffffffffffffffffffff1673ffffffffffffffffffffffffffffffffffffffff1681526020019081526020016000206000828254611b9e9190612c2c565b92505081905550816002600083815260200190815260200160002060006101000a81548173ffffffffffffffffffffffffffffffffffffffff021916908373ffffffffffffffffffffffffffffffffffffffff160217905550808273ffffffffffffffffffffffffffffffffffffffff16600073ffffffffffffffffffffffffffffffffffffffff167fddf252ad1be2c89b69c2b068fc378daa952ba7f163c4a11628f55a4df523b3ef60405160405180910390a45050565b600080823b905060008111915050919050565b60405180608001604052806000815260200160608152602001600073ffffffffffffffffffffffffffffffffffffffff168152602001606081525090565b828054611cb490612daf565b90600052602060002090601f016020900481019282611cd65760008555611d1d565b82601f10611cef57805160ff1916838001178555611d1d565b82800160010185558215611d1d579182015b82811115611d1c578251825591602001919060010190611d01565b5b509050611d2a9190611d6e565b5090565b508054611d3a90612daf565b6000825580601f10611d4c5750611d6b565b601f016020900490600052602060002090810190611d6a9190611d6e565b5b50565b5b80821115611d87576000816000905550600101611d6f565b5090565b6000611d9e611d9984612b78565b612b47565b905082815260208101848484011115611db657600080fd5b611dc1848285612d6d565b509392505050565b6000611ddc611dd784612ba8565b612b47565b905082815260208101848484011115611df457600080fd5b611dff848285612d6d565b509392505050565b600081359050611e1681612f28565b92915050565b600081359050611e2b81612f3f565b92915050565b600081359050611e4081612f56565b92915050565b600081519050611e5581612f56565b92915050565b600082601f830112611e6c57600080fd5b8135611e7c848260208601611d8b565b91505092915050565b600082601f830112611e9657600080fd5b8135611ea6848260208601611dc9565b91505092915050565b600081359050611ebe81612f6d565b92915050565b600060208284031215611ed657600080fd5b6000611ee484828501611e07565b91505092915050565b60008060408385031215611f0057600080fd5b6000611f0e85828601611e07565b9250506020611f1f85828601611e07565b9150509250929050565b600080600060608486031215611f3e57600080fd5b6000611f4c86828701611e07565b9350506020611f5d86828701611e07565b9250506040611f6e86828701611eaf565b9150509250925092565b60008060008060808587031215611f8e57600080fd5b6000611f9c87828801611e07565b9450506020611fad87828801611e07565b9350506040611fbe87828801611eaf565b925050606085013567ffffffffffffffff811115611fdb57600080fd5b611fe787828801611e5b565b91505092959194509250565b6000806040838503121561200657600080fd5b600061201485828601611e07565b925050602061202585828601611e1c565b9150509250929050565b6000806040838503121561204257600080fd5b600061205085828601611e07565b925050602061206185828601611eaf565b9150509250929050565b60006020828403121561207d57600080fd5b600061208b84828501611e31565b91505092915050565b6000602082840312156120a657600080fd5b60006120b484828501611e46565b91505092915050565b600080604083850312156120d057600080fd5b600083013567ffffffffffffffff8111156120ea57600080fd5b6120f685828601611e85565b925050602083013567ffffffffffffffff81111561211357600080fd5b61211f85828601611e85565b9150509250929050565b60006020828403121561213b57600080fd5b600061214984828501611eaf565b91505092915050565b61215b81612cf9565b82525050565b61216a81612ce7565b82525050565b61217981612ce7565b82525050565b61218881612d0b565b82525050565b600061219982612bd8565b6121a38185612bee565b93506121b3818560208601612d7c565b6121bc81612f17565b840191505092915050565b60006121d282612be3565b6121dc8185612bff565b93506121ec818560208601612d7c565b6121f581612f17565b840191505092915050565b600061220b82612be3565b6122158185612c10565b9350612225818560208601612d7c565b61222e81612f17565b840191505092915050565b600061224482612be3565b61224e8185612c21565b935061225e818560208601612d7c565b80840191505092915050565b6000612277603283612c10565b91507f4552433732313a207472616e7366657220746f206e6f6e20455243373231526560008301527f63656976657220696d706c656d656e74657200000000000000000000000000006020830152604082019050919050565b60006122dd601c83612c10565b91507f4552433732313a20746f6b656e20616c7265616479206d696e746564000000006000830152602082019050919050565b600061231d602483612c10565b91507f4552433732313a207472616e7366657220746f20746865207a65726f2061646460008301527f72657373000000000000000000000000000000000000000000000000000000006020830152604082019050919050565b6000612383601983612c10565b91507f4552433732313a20617070726f766520746f2063616c6c6572000000000000006000830152602082019050919050565b60006123c3602c83612c10565b91507f4552433732313a206f70657261746f7220717565727920666f72206e6f6e657860008301527f697374656e7420746f6b656e00000000000000000000000000000000000000006020830152604082019050919050565b6000612429603883612c10565b91507f4552433732313a20617070726f76652063616c6c6572206973206e6f74206f7760008301527f6e6572206e6f7220617070726f76656420666f7220616c6c00000000000000006020830152604082019050919050565b600061248f602a83612c10565b91507f4552433732313a2062616c616e636520717565727920666f7220746865207a6560008301527f726f2061646472657373000000000000000000000000000000000000000000006020830152604082019050919050565b60006124f5602983612c10565b91507f4552433732313a206f776e657220717565727920666f72206e6f6e657869737460008301527f656e7420746f6b656e00000000000000000000000000000000000000000000006020830152604082019050919050565b600061255b602083612c10565b91507f4552433732313a206d696e7420746f20746865207a65726f20616464726573736000830152602082019050919050565b600061259b602c83612c10565b91507f4552433732313a20617070726f76656420717565727920666f72206e6f6e657860008301527f697374656e7420746f6b656e00000000000000000000000000000000000000006020830152604082019050919050565b6000612601602983612c10565b91507f4552433732313a207472616e73666572206f6620746f6b656e2074686174206960008301527f73206e6f74206f776e00000000000000000000000000000000000000000000006020830152604082019050919050565b6000612667602f83612c10565b91507f4552433732314d657461646174613a2055524920717565727920666f72206e6f60008301527f6e6578697374656e7420746f6b656e00000000000000000000000000000000006020830152604082019050919050565b60006126cd602183612c10565b91507f4552433732313a20617070726f76616c20746f2063757272656e74206f776e6560008301527f72000000000000000000000000000000000000000000000000000000000000006020830152604082019050919050565b6000612733603183612c10565b91507f4552433732313a207472616e736665722063616c6c6572206973206e6f74206f60008301527f776e6572206e6f7220617070726f7665640000000000000000000000000000006020830152604082019050919050565b60006080830160008301516127a460008601826127f6565b50602083015184820360208601526127bc82826121c7565b91505060408301516127d16040860182612161565b50606083015184820360608601526127e982826121c7565b9150508091505092915050565b6127ff81612d63565b82525050565b61280e81612d63565b82525050565b60006128208285612239565b915061282c8284612239565b91508190509392505050565b600060208201905061284d6000830184612170565b92915050565b60006020820190506128686000830184612152565b92915050565b60006080820190506128836000830187612170565b6128906020830186612170565b61289d6040830185612805565b81810360608301526128af818461218e565b905095945050505050565b60006020820190506128cf600083018461217f565b92915050565b600060208201905081810360008301526128ef8184612200565b905092915050565b600060208201905081810360008301526129108161226a565b9050919050565b60006020820190508181036000830152612930816122d0565b9050919050565b6000602082019050818103600083015261295081612310565b9050919050565b6000602082019050818103600083015261297081612376565b9050919050565b60006020820190508181036000830152612990816123b6565b9050919050565b600060208201905081810360008301526129b08161241c565b9050919050565b600060208201905081810360008301526129d081612482565b9050919050565b600060208201905081810360008301526129f0816124e8565b9050919050565b60006020820190508181036000830152612a108161254e565b9050919050565b60006020820190508181036000830152612a308161258e565b9050919050565b60006020820190508181036000830152612a50816125f4565b9050919050565b60006020820190508181036000830152612a708161265a565b9050919050565b60006020820190508181036000830152612a90816126c0565b9050919050565b60006020820190508181036000830152612ab081612726565b9050919050565b60006020820190508181036000830152612ad1818461278c565b905092915050565b6000602082019050612aee6000830184612805565b92915050565b6000608082019050612b096000830187612805565b8181036020830152612b1b8186612200565b9050612b2a6040830185612170565b8181036060830152612b3c8184612200565b905095945050505050565b6000604051905081810181811067ffffffffffffffff82111715612b6e57612b6d612ee8565b5b8060405250919050565b600067ffffffffffffffff821115612b9357612b92612ee8565b5b601f19601f8301169050602081019050919050565b600067ffffffffffffffff821115612bc357612bc2612ee8565b5b601f19601f8301169050602081019050919050565b600081519050919050565b600081519050919050565b600082825260208201905092915050565b600082825260208201905092915050565b600082825260208201905092915050565b600081905092915050565b6000612c3782612d63565b9150612c4283612d63565b9250827fffffffffffffffffffffffffffffffffffffffffffffffffffffffffffffffff03821115612c7757612c76612e5b565b5b828201905092915050565b6000612c8d82612d63565b9150612c9883612d63565b925082612ca857612ca7612e8a565b5b828204905092915050565b6000612cbe82612d63565b9150612cc983612d63565b925082821015612cdc57612cdb612e5b565b5b828203905092915050565b6000612cf282612d43565b9050919050565b6000612d0482612d43565b9050919050565b60008115159050919050565b60007fffffffff0000000000000000000000000000000000000000000000000000000082169050919050565b600073ffffffffffffffffffffffffffffffffffffffff82169050919050565b6000819050919050565b82818337600083830152505050565b60005b83811015612d9a578082015181840152602081019050612d7f565b83811115612da9576000848401525b50505050565b60006002820490506001821680612dc757607f821691505b60208210811415612ddb57612dda612eb9565b5b50919050565b6000612dec82612d63565b91507fffffffffffffffffffffffffffffffffffffffffffffffffffffffffffffffff821415612e1f57612e1e612e5b565b5b600182019050919050565b6000612e3582612d63565b9150612e4083612d63565b925082612e5057612e4f612e8a565b5b828206905092915050565b7f4e487b7100000000000000000000000000000000000000000000000000000000600052601160045260246000fd5b7f4e487b7100000000000000000000000000000000000000000000000000000000600052601260045260246000fd5b7f4e487b7100000000000000000000000000000000000000000000000000000000600052602260045260246000fd5b7f4e487b7100000000000000000000000000000000000000000000000000000000600052604160045260246000fd5b6000601f19601f8301169050919050565b612f3181612ce7565b8114612f3c57600080fd5b50565b612f4881612d0b565b8114612f5357600080fd5b50565b612f5f81612d17565b8114612f6a57600080fd5b50565b612f7681612d63565b8114612f8157600080fd5b5056fea2646970667358221220c9f206a89567045cd8ff2400cc34997ddb9bb6c5e816923186af0fcc3e8bbd0a64736f6c63430008000033",
  "immutableReferences": {},
  "source": "pragma solidity ^0.8.0;\r\nimport \"@openzeppelin/contracts/token/ERC721/ERC721.sol\";\r\n// import \"@openzeppelin/contracts/access/Ownable.sol\";\r\n// import \"./Auction.sol\";\r\n\r\n\r\n// function for maxPrice authorized to owner\r\n\r\ncontract ToknCollectible is ERC721{\r\n  uint256 public  _collectibleID;\r\n  uint256 public _collectibleCount;\r\n  // uint public maxPrice;\r\n\r\n  // the original creator of NFT (artist)\r\n  address payable public creator;\r\n\r\n  mapping(uint256=> Collectible) public _collectibleList;\r\n\r\n\r\n  struct Collectible{\r\n    uint256 _collectibleID;\r\n    string _title;\r\n    address _owner;\r\n    string _collectibleURI;\r\n    \r\n  }\r\n  event CollectibleCreated(\r\n    uint256 _collectibleID,\r\n    string _title,\r\n    address _owner,\r\n    string _collectibleURI\r\n    \r\n  );\r\n\r\n\r\nconstructor(string memory name, string memory symbol ) public ERC721(name, symbol){\r\n    _collectibleID = 0;\r\n    _collectibleCount = 0;\r\n}\r\n\r\n\r\nfunction create(string memory _title, string memory _tokenURI) public returns(Collectible memory){\r\n    //increment collectible count\r\n      _collectibleID++;\r\n      _collectibleCount++;\r\n\r\n    //create collectible struct\r\n    Collectible memory newCollectible = Collectible(_collectibleID, _title, msg.sender, _tokenURI);\r\n  _collectibleList[_collectibleID] = newCollectible;\r\n\r\n  //emit Event\r\n  emit CollectibleCreated(_collectibleID, _title, msg.sender, _tokenURI);\r\n\r\n  //call safemint function from openzeppelin\r\n  _safeMint(msg.sender, _collectibleID);\r\n\r\n  // Assiging msg.sender as the original creator \r\n  creator = payable(msg.sender);\r\n  return newCollectible;\r\n\r\n}\r\n\r\n\r\n//destroy function takes the tokenID of the NFT, then calls on openzeppelin's burn function.\r\nfunction destroy(uint256 toknID) public  returns(bool success) {\r\n  require(_exists(toknID));\r\n  // toknExists(toknID);\r\n  _burn(toknID);\r\n  delete _collectibleList[toknID];\r\n  return true;\r\n}\r\n\r\n}",
  "sourcePath": "C:/Users/lenovo/OneDrive/Desktop/projects/Tokn/contracts/ToknCollectible.sol",
  "compiler": {
    "name": "solc",
    "version": "0.8.0+commit.c7dfd78e.Emscripten.clang"
  },
  "schemaVersion": "3.4.1",
  "updatedAt": "2021-07-28T08:02:23.252Z",
  "devdoc": {
    "kind": "dev",
    "methods": {
      "approve(address,uint256)": {
        "details": "See {IERC721-approve}."
      },
      "balanceOf(address)": {
        "details": "See {IERC721-balanceOf}."
      },
      "getApproved(uint256)": {
        "details": "See {IERC721-getApproved}."
      },
      "isApprovedForAll(address,address)": {
        "details": "See {IERC721-isApprovedForAll}."
      },
      "name()": {
        "details": "See {IERC721Metadata-name}."
      },
      "ownerOf(uint256)": {
        "details": "See {IERC721-ownerOf}."
      },
      "safeTransferFrom(address,address,uint256)": {
        "details": "See {IERC721-safeTransferFrom}."
      },
      "safeTransferFrom(address,address,uint256,bytes)": {
        "details": "See {IERC721-safeTransferFrom}."
      },
      "setApprovalForAll(address,bool)": {
        "details": "See {IERC721-setApprovalForAll}."
      },
      "supportsInterface(bytes4)": {
        "details": "See {IERC165-supportsInterface}."
      },
      "symbol()": {
        "details": "See {IERC721Metadata-symbol}."
      },
      "tokenURI(uint256)": {
        "details": "See {IERC721Metadata-tokenURI}."
      },
      "transferFrom(address,address,uint256)": {
        "details": "See {IERC721-transferFrom}."
      }
    },
    "version": 1
  },
  "userdoc": {
    "kind": "user",
    "methods": {},
    "version": 1
  }
}