{
  "contractName": "ToknBidding",
  "abi": [
    {
      "inputs": [
        {
          "internalType": "string",
          "name": "name",
          "type": "string"
        },
        {
          "internalType": "string",
          "name": "symbol",
          "type": "string"
        }
      ],
      "stateMutability": "nonpayable",
      "type": "constructor"
    },
    {
      "anonymous": false,
      "inputs": [
        {
          "indexed": true,
          "internalType": "address",
          "name": "owner",
          "type": "address"
        },
        {
          "indexed": true,
          "internalType": "address",
          "name": "approved",
          "type": "address"
        },
        {
          "indexed": true,
          "internalType": "uint256",
          "name": "tokenId",
          "type": "uint256"
        }
      ],
      "name": "Approval",
      "type": "event"
    },
    {
      "anonymous": false,
      "inputs": [
        {
          "indexed": true,
          "internalType": "address",
          "name": "owner",
          "type": "address"
        },
        {
          "indexed": true,
          "internalType": "address",
          "name": "operator",
          "type": "address"
        },
        {
          "indexed": false,
          "internalType": "bool",
          "name": "approved",
          "type": "bool"
        }
      ],
      "name": "ApprovalForAll",
      "type": "event"
    },
    {
      "anonymous": false,
      "inputs": [
        {
          "indexed": false,
          "internalType": "uint256",
          "name": "_collectibleID",
          "type": "uint256"
        },
        {
          "indexed": false,
          "internalType": "string",
          "name": "_title",
          "type": "string"
        },
        {
          "indexed": false,
          "internalType": "address",
          "name": "_owner",
          "type": "address"
        },
        {
          "indexed": false,
          "internalType": "string",
          "name": "_collectibleURI",
          "type": "string"
        }
      ],
      "name": "CollectibleCreated",
      "type": "event"
    },
    {
      "anonymous": false,
      "inputs": [
        {
          "indexed": true,
          "internalType": "address",
          "name": "from",
          "type": "address"
        },
        {
          "indexed": true,
          "internalType": "address",
          "name": "to",
          "type": "address"
        },
        {
          "indexed": true,
          "internalType": "uint256",
          "name": "tokenId",
          "type": "uint256"
        }
      ],
      "name": "Transfer",
      "type": "event"
    },
    {
      "inputs": [],
      "name": "_collectibleCount",
      "outputs": [
        {
          "internalType": "uint256",
          "name": "",
          "type": "uint256"
        }
      ],
      "stateMutability": "view",
      "type": "function"
    },
    {
      "inputs": [],
      "name": "_collectibleID",
      "outputs": [
        {
          "internalType": "uint256",
          "name": "",
          "type": "uint256"
        }
      ],
      "stateMutability": "view",
      "type": "function"
    },
    {
      "inputs": [
        {
          "internalType": "uint256",
          "name": "",
          "type": "uint256"
        }
      ],
      "name": "_collectibleList",
      "outputs": [
        {
          "internalType": "uint256",
          "name": "_collectibleID",
          "type": "uint256"
        },
        {
          "internalType": "string",
          "name": "_title",
          "type": "string"
        },
        {
          "internalType": "address",
          "name": "_owner",
          "type": "address"
        },
        {
          "internalType": "string",
          "name": "_collectibleURI",
          "type": "string"
        }
      ],
      "stateMutability": "view",
      "type": "function"
    },
    {
      "inputs": [
        {
          "internalType": "address",
          "name": "to",
          "type": "address"
        },
        {
          "internalType": "uint256",
          "name": "tokenId",
          "type": "uint256"
        }
      ],
      "name": "approve",
      "outputs": [],
      "stateMutability": "nonpayable",
      "type": "function"
    },
    {
      "inputs": [
        {
          "internalType": "address",
          "name": "owner",
          "type": "address"
        }
      ],
      "name": "balanceOf",
      "outputs": [
        {
          "internalType": "uint256",
          "name": "",
          "type": "uint256"
        }
      ],
      "stateMutability": "view",
      "type": "function"
    },
    {
      "inputs": [
        {
          "internalType": "string",
          "name": "_title",
          "type": "string"
        },
        {
          "internalType": "string",
          "name": "_tokenURI",
          "type": "string"
        }
      ],
      "name": "create",
      "outputs": [
        {
          "internalType": "uint256",
          "name": "",
          "type": "uint256"
        }
      ],
      "stateMutability": "nonpayable",
      "type": "function"
    },
    {
      "inputs": [],
      "name": "creator",
      "outputs": [
        {
          "internalType": "address payable",
          "name": "",
          "type": "address"
        }
      ],
      "stateMutability": "view",
      "type": "function"
    },
    {
      "inputs": [
        {
          "internalType": "uint256",
          "name": "",
          "type": "uint256"
        }
      ],
      "name": "currentAuctionForTokn",
      "outputs": [
        {
          "internalType": "address",
          "name": "",
          "type": "address"
        }
      ],
      "stateMutability": "view",
      "type": "function"
    },
    {
      "inputs": [
        {
          "internalType": "uint256",
          "name": "toknID",
          "type": "uint256"
        }
      ],
      "name": "destroy",
      "outputs": [
        {
          "internalType": "bool",
          "name": "success",
          "type": "bool"
        }
      ],
      "stateMutability": "nonpayable",
      "type": "function"
    },
    {
      "inputs": [
        {
          "internalType": "uint256",
          "name": "tokenId",
          "type": "uint256"
        }
      ],
      "name": "getApproved",
      "outputs": [
        {
          "internalType": "address",
          "name": "",
          "type": "address"
        }
      ],
      "stateMutability": "view",
      "type": "function"
    },
    {
      "inputs": [
        {
          "internalType": "address",
          "name": "owner",
          "type": "address"
        },
        {
          "internalType": "address",
          "name": "operator",
          "type": "address"
        }
      ],
      "name": "isApprovedForAll",
      "outputs": [
        {
          "internalType": "bool",
          "name": "",
          "type": "bool"
        }
      ],
      "stateMutability": "view",
      "type": "function"
    },
    {
      "inputs": [],
      "name": "name",
      "outputs": [
        {
          "internalType": "string",
          "name": "",
          "type": "string"
        }
      ],
      "stateMutability": "view",
      "type": "function"
    },
    {
      "inputs": [
        {
          "internalType": "uint256",
          "name": "tokenId",
          "type": "uint256"
        }
      ],
      "name": "ownerOf",
      "outputs": [
        {
          "internalType": "address",
          "name": "",
          "type": "address"
        }
      ],
      "stateMutability": "view",
      "type": "function"
    },
    {
      "inputs": [
        {
          "internalType": "uint256",
          "name": "",
          "type": "uint256"
        }
      ],
      "name": "runningAuction",
      "outputs": [
        {
          "internalType": "bool",
          "name": "",
          "type": "bool"
        }
      ],
      "stateMutability": "view",
      "type": "function"
    },
    {
      "inputs": [
        {
          "internalType": "address",
          "name": "from",
          "type": "address"
        },
        {
          "internalType": "address",
          "name": "to",
          "type": "address"
        },
        {
          "internalType": "uint256",
          "name": "tokenId",
          "type": "uint256"
        }
      ],
      "name": "safeTransferFrom",
      "outputs": [],
      "stateMutability": "nonpayable",
      "type": "function"
    },
    {
      "inputs": [
        {
          "internalType": "address",
          "name": "from",
          "type": "address"
        },
        {
          "internalType": "address",
          "name": "to",
          "type": "address"
        },
        {
          "internalType": "uint256",
          "name": "tokenId",
          "type": "uint256"
        },
        {
          "internalType": "bytes",
          "name": "_data",
          "type": "bytes"
        }
      ],
      "name": "safeTransferFrom",
      "outputs": [],
      "stateMutability": "nonpayable",
      "type": "function"
    },
    {
      "inputs": [
        {
          "internalType": "address",
          "name": "operator",
          "type": "address"
        },
        {
          "internalType": "bool",
          "name": "approved",
          "type": "bool"
        }
      ],
      "name": "setApprovalForAll",
      "outputs": [],
      "stateMutability": "nonpayable",
      "type": "function"
    },
    {
      "inputs": [
        {
          "internalType": "bytes4",
          "name": "interfaceId",
          "type": "bytes4"
        }
      ],
      "name": "supportsInterface",
      "outputs": [
        {
          "internalType": "bool",
          "name": "",
          "type": "bool"
        }
      ],
      "stateMutability": "view",
      "type": "function"
    },
    {
      "inputs": [],
      "name": "symbol",
      "outputs": [
        {
          "internalType": "string",
          "name": "",
          "type": "string"
        }
      ],
      "stateMutability": "view",
      "type": "function"
    },
    {
      "inputs": [
        {
          "internalType": "uint256",
          "name": "tokenId",
          "type": "uint256"
        }
      ],
      "name": "tokenURI",
      "outputs": [
        {
          "internalType": "string",
          "name": "",
          "type": "string"
        }
      ],
      "stateMutability": "view",
      "type": "function"
    },
    {
      "inputs": [
        {
          "internalType": "uint256",
          "name": "",
          "type": "uint256"
        }
      ],
      "name": "toknMaxPrice",
      "outputs": [
        {
          "internalType": "uint256",
          "name": "",
          "type": "uint256"
        }
      ],
      "stateMutability": "view",
      "type": "function"
    },
    {
      "inputs": [
        {
          "internalType": "address",
          "name": "from",
          "type": "address"
        },
        {
          "internalType": "address",
          "name": "to",
          "type": "address"
        },
        {
          "internalType": "uint256",
          "name": "tokenId",
          "type": "uint256"
        }
      ],
      "name": "transferFrom",
      "outputs": [],
      "stateMutability": "nonpayable",
      "type": "function"
    },
    {
      "inputs": [
        {
          "internalType": "uint256",
          "name": "toknID",
          "type": "uint256"
        },
        {
          "internalType": "uint256",
          "name": "_maxPrice",
          "type": "uint256"
        }
      ],
      "name": "startAuction",
      "outputs": [],
      "stateMutability": "nonpayable",
      "type": "function"
    },
    {
      "inputs": [
        {
          "internalType": "uint256",
          "name": "_toknID",
          "type": "uint256"
        }
      ],
      "name": "bid",
      "outputs": [],
      "stateMutability": "payable",
      "type": "function"
    },
    {
      "inputs": [
        {
          "internalType": "uint256",
          "name": "_toknID",
          "type": "uint256"
        },
        {
          "internalType": "uint256",
          "name": "commission",
          "type": "uint256"
        }
      ],
      "name": "endAuction",
      "outputs": [],
      "stateMutability": "nonpayable",
      "type": "function"
    },
    {
      "inputs": [
        {
          "internalType": "uint256",
          "name": "toknID",
          "type": "uint256"
        }
      ],
      "name": "cancelAuction",
      "outputs": [],
      "stateMutability": "nonpayable",
      "type": "function"
    },
    {
      "inputs": [
        {
          "internalType": "uint256",
          "name": "toknID",
          "type": "uint256"
        },
        {
          "internalType": "uint256",
          "name": "price",
          "type": "uint256"
        }
      ],
      "name": "setMaxPrice",
      "outputs": [],
      "stateMutability": "nonpayable",
      "type": "function"
    }
  ],
  "bytecode": "0x60806040523480156200001157600080fd5b506040516200529e3803806200529e8339818101604052810190620000379190620001ab565b8181818181600090805190602001906200005392919062000089565b5080600190805190602001906200006c92919062000089565b50505060006006819055506000600781905550505050506200034f565b8280546200009790620002bb565b90600052602060002090601f016020900481019282620000bb576000855562000107565b82601f10620000d657805160ff191683800117855562000107565b8280016001018555821562000107579182015b8281111562000106578251825591602001919060010190620000e9565b5b5090506200011691906200011a565b5090565b5b80821115620001355760008160009055506001016200011b565b5090565b6000620001506200014a8462000252565b6200021e565b9050828152602081018484840111156200016957600080fd5b6200017684828562000285565b509392505050565b600082601f8301126200019057600080fd5b8151620001a284826020860162000139565b91505092915050565b60008060408385031215620001bf57600080fd5b600083015167ffffffffffffffff811115620001da57600080fd5b620001e8858286016200017e565b925050602083015167ffffffffffffffff8111156200020657600080fd5b62000214858286016200017e565b9150509250929050565b6000604051905081810181811067ffffffffffffffff8211171562000248576200024762000320565b5b8060405250919050565b600067ffffffffffffffff82111562000270576200026f62000320565b5b601f19601f8301169050602081019050919050565b60005b83811015620002a557808201518184015260208101905062000288565b83811115620002b5576000848401525b50505050565b60006002820490506001821680620002d457607f821691505b60208210811415620002eb57620002ea620002f1565b5b50919050565b7f4e487b7100000000000000000000000000000000000000000000000000000000600052602260045260246000fd5b7f4e487b7100000000000000000000000000000000000000000000000000000000600052604160045260246000fd5b614f3f806200035f6000396000f3fe608060405260043610620001c45760003560e01c806354bbdfab1162000103578063a22cb4651162000097578063c87b56dd116200006d578063c87b56dd1462000697578063ca225b9714620006db578063cd73240f1462000722578063e985e9c5146200076657620001c4565b8063a22cb465146200060b578063b88d4fde1462000639578063bab22d8d146200066757620001c4565b806370a0823111620000d957806370a08231146200052557806395d89b41146200056957806396b5a75514620005995780639d11877014620005c757620001c4565b806354bbdfab146200046d5780635da32739146200049d5780636352211e14620004e157620001c4565b8063198e2b8a116200017b57806342842e0e116200015157806342842e0e14620003c3578063454a2ab314620003f157806347afe43714620004115780634fee13fc146200043f57620001c4565b8063198e2b8a146200032357806323b872dd14620003675780634173ce5b146200039557620001c4565b806301ffc9a714620001c957806302d05d3f146200020d57806306fdde03146200023d578063081812fc146200026d578063095ea7b314620002b157806312baa91014620002df575b600080fd5b348015620001d657600080fd5b50620001f56004803603810190620001ef919062002fe7565b620007aa565b60405162000204919062003868565b60405180910390f35b3480156200021a57600080fd5b506200022562000890565b604051620002349190620037f7565b60405180910390f35b3480156200024a57600080fd5b5062000255620008b6565b60405162000264919062003885565b60405180910390f35b3480156200027a57600080fd5b50620002996004803603810190620002939190620030de565b62000950565b604051620002a89190620037da565b60405180910390f35b348015620002be57600080fd5b50620002dd6004803603810190620002d7919062002fa6565b620009da565b005b348015620002ec57600080fd5b506200030b6004803603810190620003059190620030de565b62000b03565b6040516200031a919062003a85565b60405180910390f35b3480156200033057600080fd5b506200034f60048036038101906200034991906200306b565b62000b1b565b6040516200035e919062003a85565b60405180910390f35b3480156200037457600080fd5b506200039360048036038101906200038d919062002e8a565b62000cd4565b005b348015620003a257600080fd5b50620003c16004803603810190620003bb919062003136565b62000d3d565b005b348015620003d057600080fd5b50620003ef6004803603810190620003e9919062002e8a565b62000e12565b005b6200040f6004803603810190620004099190620030de565b62000e34565b005b3480156200041e57600080fd5b506200043d600480360381019062000437919062003136565b62000f58565b005b3480156200044c57600080fd5b506200046b600480360381019062000465919062003136565b6200147d565b005b3480156200047a57600080fd5b5062000485620015b6565b60405162000494919062003a85565b60405180910390f35b348015620004aa57600080fd5b50620004c96004803603810190620004c39190620030de565b620015bc565b604051620004d8919062003868565b60405180910390f35b348015620004ee57600080fd5b506200050d6004803603810190620005079190620030de565b620015dc565b6040516200051c9190620037da565b60405180910390f35b3480156200053257600080fd5b506200055160048036038101906200054b919062002df1565b62001691565b60405162000560919062003a85565b60405180910390f35b3480156200057657600080fd5b50620005816200174c565b60405162000590919062003885565b60405180910390f35b348015620005a657600080fd5b50620005c56004803603810190620005bf9190620030de565b620017e6565b005b348015620005d457600080fd5b50620005f36004803603810190620005ed9190620030de565b6200195b565b60405162000602919062003868565b60405180910390f35b3480156200061857600080fd5b5062000637600480360381019062000631919062002f65565b620019ef565b005b3480156200064657600080fd5b506200066560048036038101906200065f919062002ee0565b62001b7b565b005b3480156200067457600080fd5b506200067f62001be6565b6040516200068e919062003a85565b60405180910390f35b348015620006a457600080fd5b50620006c36004803603810190620006bd9190620030de565b62001bec565b604051620006d2919062003885565b60405180910390f35b348015620006e857600080fd5b50620007076004803603810190620007019190620030de565b62001ca0565b60405162000719949392919062003aa2565b60405180910390f35b3480156200072f57600080fd5b506200074e6004803603810190620007489190620030de565b62001e10565b6040516200075d9190620037da565b60405180910390f35b3480156200077357600080fd5b506200079260048036038101906200078c919062002e49565b62001e43565b604051620007a1919062003868565b60405180910390f35b60007f80ac58cd000000000000000000000000000000000000000000000000000000007bffffffffffffffffffffffffffffffffffffffffffffffffffffffff1916827bffffffffffffffffffffffffffffffffffffffffffffffffffffffff191614806200087657507f5b5e139f000000000000000000000000000000000000000000000000000000007bffffffffffffffffffffffffffffffffffffffffffffffffffffffff1916827bffffffffffffffffffffffffffffffffffffffffffffffffffffffff1916145b80620008895750620008888262001ed7565b5b9050919050565b600860009054906101000a900473ffffffffffffffffffffffffffffffffffffffff1681565b606060008054620008c79062003dda565b80601f0160208091040260200160405190810160405280929190818152602001828054620008f59062003dda565b8015620009465780601f106200091a5761010080835404028352916020019162000946565b820191906000526020600020905b8154815290600101906020018083116200092857829003601f168201915b5050505050905090565b60006200095d8262001f41565b6200099f576040517f08c379a00000000000000000000000000000000000000000000000000000000081526004016200099690620039db565b60405180910390fd5b6004600083815260200190815260200160002060009054906101000a900473ffffffffffffffffffffffffffffffffffffffff169050919050565b6000620009e782620015dc565b90508073ffffffffffffffffffffffffffffffffffffffff168373ffffffffffffffffffffffffffffffffffffffff16141562000a5b576040517f08c379a000000000000000000000000000000000000000000000000000000000815260040162000a529062003a41565b60405180910390fd5b8073ffffffffffffffffffffffffffffffffffffffff1662000a7c62001fad565b73ffffffffffffffffffffffffffffffffffffffff16148062000ab0575062000aaf8162000aa962001fad565b62001e43565b5b62000af2576040517f08c379a000000000000000000000000000000000000000000000000000000000815260040162000ae99062003953565b60405180910390fd5b62000afe838362001fb5565b505050565b600c6020528060005260406000206000915090505481565b60006006600081548092919062000b329062003e10565b91905055506007600081548092919062000b4c9062003e10565b91905055506000604051806080016040528060065481526020018581526020013373ffffffffffffffffffffffffffffffffffffffff1681526020018481525090508060096000600654815260200190815260200160002060008201518160000155602082015181600101908051906020019062000bcc92919062002b51565b5060408201518160020160006101000a81548173ffffffffffffffffffffffffffffffffffffffff021916908373ffffffffffffffffffffffffffffffffffffffff160217905550606082015181600301908051906020019062000c3292919062002b51565b509050507f4265c0fca0618144a5f95ac58797316e876c6d2cc3c31e68bdf2c07ad8a53dd160065485338660405162000c6f949392919062003aa2565b60405180910390a162000c853360065462002070565b33600860006101000a81548173ffffffffffffffffffffffffffffffffffffffff021916908373ffffffffffffffffffffffffffffffffffffffff160217905550806000015191505092915050565b62000ce962000ce262001fad565b8262002090565b62000d2b576040517f08c379a000000000000000000000000000000000000000000000000000000000815260040162000d229062003a63565b60405180910390fd5b62000d388383836200217b565b505050565b62000d4882620023e7565b6009600083815260200190815260200160002060020160009054906101000a900473ffffffffffffffffffffffffffffffffffffffff1673ffffffffffffffffffffffffffffffffffffffff163373ffffffffffffffffffffffffffffffffffffffff1614801562000dd75750600a600083815260200190815260200160002060009054906101000a900460ff165b62000de157600080fd5b670de0b6b3a76400008162000df7919062003c6f565b600c6000848152602001908152602001600020819055505050565b62000e2f8383836040518060200160405280600081525062001b7b565b505050565b62000e3f81620023e7565b600a600082815260200190815260200160002060009054906101000a900460ff1662000e6a57600080fd5b600b600082815260200190815260200160002060009054906101000a900473ffffffffffffffffffffffffffffffffffffffff1673ffffffffffffffffffffffffffffffffffffffff1663e494015734336040518363ffffffff1660e01b815260040162000ed99190620037da565b6000604051808303818588803b15801562000ef357600080fd5b505af115801562000f08573d6000803e3d6000fd5b5050505050600c600082815260200190815260200160002054341062000f55576000600a600083815260200190815260200160002060006101000a81548160ff0219169083151502179055505b50565b62000f6382620023e7565b6000600b600084815260200190815260200160002060009054906101000a900473ffffffffffffffffffffffffffffffffffffffff1690506002600381111562000fd6577f4e487b7100000000000000000000000000000000000000000000000000000000600052602160045260246000fd5b8173ffffffffffffffffffffffffffffffffffffffff16637fb450996040518163ffffffff1660e01b815260040160206040518083038186803b1580156200101d57600080fd5b505afa15801562001032573d6000803e3d6000fd5b505050506040513d601f19601f820116820180604052508101906200105891906200303f565b600381111562001091577f4e487b7100000000000000000000000000000000000000000000000000000000600052602160045260246000fd5b141580156200114c57508073ffffffffffffffffffffffffffffffffffffffff16638da5cb5b6040518163ffffffff1660e01b815260040160206040518083038186803b158015620010e257600080fd5b505afa158015620010f7573d6000803e3d6000fd5b505050506040513d601f19601f820116820180604052508101906200111d919062002e1d565b73ffffffffffffffffffffffffffffffffffffffff163373ffffffffffffffffffffffffffffffffffffffff16145b6200115657600080fd5b8073ffffffffffffffffffffffffffffffffffffffff1663f77282ab6040518163ffffffff1660e01b8152600401600060405180830381600087803b1580156200119f57600080fd5b505af1158015620011b4573d6000803e3d6000fd5b505050508073ffffffffffffffffffffffffffffffffffffffff166391f901576040518163ffffffff1660e01b815260040160206040518083038186803b158015620011ff57600080fd5b505afa15801562001214573d6000803e3d6000fd5b505050506040513d601f19601f820116820180604052508101906200123a919062002e1d565b6009600085815260200190815260200160002060020160006101000a81548173ffffffffffffffffffffffffffffffffffffffff021916908373ffffffffffffffffffffffffffffffffffffffff160217905550600860009054906101000a900473ffffffffffffffffffffffffffffffffffffffff1673ffffffffffffffffffffffffffffffffffffffff166108fc670de0b6b3a7640000606485670de0b6b3a76400008673ffffffffffffffffffffffffffffffffffffffff1663d57bde796040518163ffffffff1660e01b815260040160206040518083038186803b1580156200132657600080fd5b505afa1580156200133b573d6000803e3d6000fd5b505050506040513d601f19601f820116820180604052508101906200136191906200310a565b6200136d919062003c37565b62001379919062003c6f565b62001385919062003c37565b62001391919062003c6f565b9081150290604051600060405180830381858888f19350505050158015620013bd573d6000803e3d6000fd5b506200144c338273ffffffffffffffffffffffffffffffffffffffff166391f901576040518163ffffffff1660e01b815260040160206040518083038186803b1580156200140a57600080fd5b505afa1580156200141f573d6000803e3d6000fd5b505050506040513d601f19601f8201168201806040525081019062001445919062002e1d565b8562000e12565b6000600a600085815260200190815260200160002060006101000a81548160ff021916908315150217905550505050565b6200148882620023e7565b62001494338362002090565b8015620014c5575060001515600a600084815260200190815260200160002060009054906101000a900460ff161515145b620014cf57600080fd5b670de0b6b3a764000081620014e5919062003c6f565b600c6000848152602001908152602001600020819055506001600a600084815260200190815260200160002060006101000a81548160ff02191690831515021790555033604051620015379062002be2565b620015439190620037f7565b604051809103906000f08015801562001560573d6000803e3d6000fd5b50600b600084815260200190815260200160002060006101000a81548173ffffffffffffffffffffffffffffffffffffffff021916908373ffffffffffffffffffffffffffffffffffffffff1602179055505050565b60075481565b600a6020528060005260406000206000915054906101000a900460ff1681565b6000806002600084815260200190815260200160002060009054906101000a900473ffffffffffffffffffffffffffffffffffffffff169050600073ffffffffffffffffffffffffffffffffffffffff168173ffffffffffffffffffffffffffffffffffffffff16141562001688576040517f08c379a00000000000000000000000000000000000000000000000000000000081526004016200167f9062003997565b60405180910390fd5b80915050919050565b60008073ffffffffffffffffffffffffffffffffffffffff168273ffffffffffffffffffffffffffffffffffffffff16141562001705576040517f08c379a0000000000000000000000000000000000000000000000000000000008152600401620016fc9062003975565b60405180910390fd5b600360008373ffffffffffffffffffffffffffffffffffffffff1673ffffffffffffffffffffffffffffffffffffffff168152602001908152602001600020549050919050565b6060600180546200175d9062003dda565b80601f01602080910402602001604051908101604052809291908181526020018280546200178b9062003dda565b8015620017dc5780601f10620017b057610100808354040283529160200191620017dc565b820191906000526020600020905b815481529060010190602001808311620017be57829003601f168201915b5050505050905090565b620017f181620023e7565b6009600082815260200190815260200160002060020160009054906101000a900473ffffffffffffffffffffffffffffffffffffffff1673ffffffffffffffffffffffffffffffffffffffff163373ffffffffffffffffffffffffffffffffffffffff16148015620018805750600a600082815260200190815260200160002060009054906101000a900460ff165b6200188a57600080fd5b600b600082815260200190815260200160002060009054906101000a900473ffffffffffffffffffffffffffffffffffffffff1673ffffffffffffffffffffffffffffffffffffffff1663d22cf3a4336040518263ffffffff1660e01b8152600401620018f89190620037da565b600060405180830381600087803b1580156200191357600080fd5b505af115801562001928573d6000803e3d6000fd5b505050506000600a600083815260200190815260200160002060006101000a81548160ff02191690831515021790555050565b6000620019688262001f41565b6200197257600080fd5b6200197d82620023ff565b60096000838152602001908152602001600020600080820160009055600182016000620019ab919062002bf0565b6002820160006101000a81549073ffffffffffffffffffffffffffffffffffffffff0219169055600382016000620019e4919062002bf0565b505060019050919050565b620019f962001fad565b73ffffffffffffffffffffffffffffffffffffffff168273ffffffffffffffffffffffffffffffffffffffff16141562001a6a576040517f08c379a000000000000000000000000000000000000000000000000000000000815260040162001a61906200390f565b60405180910390fd5b806005600062001a7962001fad565b73ffffffffffffffffffffffffffffffffffffffff1673ffffffffffffffffffffffffffffffffffffffff16815260200190815260200160002060008473ffffffffffffffffffffffffffffffffffffffff1673ffffffffffffffffffffffffffffffffffffffff16815260200190815260200160002060006101000a81548160ff0219169083151502179055508173ffffffffffffffffffffffffffffffffffffffff1662001b2862001fad565b73ffffffffffffffffffffffffffffffffffffffff167f17307eab39ab6107e8899845ad3d59bd9653f200f220920489ca2b5937696c318360405162001b6f919062003868565b60405180910390a35050565b62001b9062001b8962001fad565b8362002090565b62001bd2576040517f08c379a000000000000000000000000000000000000000000000000000000000815260040162001bc99062003a63565b60405180910390fd5b62001be08484848462002518565b50505050565b60065481565b606062001bf98262001f41565b62001c3b576040517f08c379a000000000000000000000000000000000000000000000000000000000815260040162001c329062003a1f565b60405180910390fd5b600062001c476200257b565b9050600081511162001c69576040518060200160405280600081525062001c98565b8062001c758462002592565b60405160200162001c88929190620037b2565b6040516020818303038152906040525b915050919050565b600960205280600052604060002060009150905080600001549080600101805462001ccb9062003dda565b80601f016020809104026020016040519081016040528092919081815260200182805462001cf99062003dda565b801562001d4a5780601f1062001d1e5761010080835404028352916020019162001d4a565b820191906000526020600020905b81548152906001019060200180831162001d2c57829003601f168201915b5050505050908060020160009054906101000a900473ffffffffffffffffffffffffffffffffffffffff169080600301805462001d879062003dda565b80601f016020809104026020016040519081016040528092919081815260200182805462001db59062003dda565b801562001e065780601f1062001dda5761010080835404028352916020019162001e06565b820191906000526020600020905b81548152906001019060200180831162001de857829003601f168201915b5050505050905084565b600b6020528060005260406000206000915054906101000a900473ffffffffffffffffffffffffffffffffffffffff1681565b6000600560008473ffffffffffffffffffffffffffffffffffffffff1673ffffffffffffffffffffffffffffffffffffffff16815260200190815260200160002060008373ffffffffffffffffffffffffffffffffffffffff1673ffffffffffffffffffffffffffffffffffffffff16815260200190815260200160002060009054906101000a900460ff16905092915050565b60007f01ffc9a7000000000000000000000000000000000000000000000000000000007bffffffffffffffffffffffffffffffffffffffffffffffffffffffff1916827bffffffffffffffffffffffffffffffffffffffffffffffffffffffff1916149050919050565b60008073ffffffffffffffffffffffffffffffffffffffff166002600084815260200190815260200160002060009054906101000a900473ffffffffffffffffffffffffffffffffffffffff1673ffffffffffffffffffffffffffffffffffffffff1614159050919050565b600033905090565b816004600083815260200190815260200160002060006101000a81548173ffffffffffffffffffffffffffffffffffffffff021916908373ffffffffffffffffffffffffffffffffffffffff160217905550808273ffffffffffffffffffffffffffffffffffffffff166200202a83620015dc565b73ffffffffffffffffffffffffffffffffffffffff167f8c5be1e5ebec7d5bd14f71427d1e84f3dd0314c0f7b2291e5b200ac8c7c3b92560405160405180910390a45050565b6200208c82826040518060200160405280600081525062002754565b5050565b60006200209d8262001f41565b620020df576040517f08c379a0000000000000000000000000000000000000000000000000000000008152600401620020d69062003931565b60405180910390fd5b6000620020ec83620015dc565b90508073ffffffffffffffffffffffffffffffffffffffff168473ffffffffffffffffffffffffffffffffffffffff1614806200215e57508373ffffffffffffffffffffffffffffffffffffffff16620021468462000950565b73ffffffffffffffffffffffffffffffffffffffff16145b8062002172575062002171818562001e43565b5b91505092915050565b8273ffffffffffffffffffffffffffffffffffffffff166200219d82620015dc565b73ffffffffffffffffffffffffffffffffffffffff1614620021f6576040517f08c379a0000000000000000000000000000000000000000000000000000000008152600401620021ed90620039fd565b60405180910390fd5b600073ffffffffffffffffffffffffffffffffffffffff168273ffffffffffffffffffffffffffffffffffffffff16141562002269576040517f08c379a00000000000000000000000000000000000000000000000000000000081526004016200226090620038ed565b60405180910390fd5b62002276838383620027b6565b6200228360008262001fb5565b6001600360008573ffffffffffffffffffffffffffffffffffffffff1673ffffffffffffffffffffffffffffffffffffffff1681526020019081526020016000206000828254620022d5919062003cd0565b925050819055506001600360008473ffffffffffffffffffffffffffffffffffffffff1673ffffffffffffffffffffffffffffffffffffffff16815260200190815260200160002060008282546200232e919062003bda565b92505081905550816002600083815260200190815260200160002060006101000a81548173ffffffffffffffffffffffffffffffffffffffff021916908373ffffffffffffffffffffffffffffffffffffffff160217905550808273ffffffffffffffffffffffffffffffffffffffff168473ffffffffffffffffffffffffffffffffffffffff167fddf252ad1be2c89b69c2b068fc378daa952ba7f163c4a11628f55a4df523b3ef60405160405180910390a4505050565b620023f28162001f41565b620023fc57600080fd5b50565b60006200240c82620015dc565b90506200241c81600084620027b6565b6200242960008362001fb5565b6001600360008373ffffffffffffffffffffffffffffffffffffffff1673ffffffffffffffffffffffffffffffffffffffff16815260200190815260200160002060008282546200247b919062003cd0565b925050819055506002600083815260200190815260200160002060006101000a81549073ffffffffffffffffffffffffffffffffffffffff021916905581600073ffffffffffffffffffffffffffffffffffffffff168273ffffffffffffffffffffffffffffffffffffffff167fddf252ad1be2c89b69c2b068fc378daa952ba7f163c4a11628f55a4df523b3ef60405160405180910390a45050565b620025258484846200217b565b6200253384848484620027bb565b62002575576040517f08c379a00000000000000000000000000000000000000000000000000000000081526004016200256c90620038a9565b60405180910390fd5b50505050565b606060405180602001604052806000815250905090565b60606000821415620025dc576040518060400160405280600181526020017f300000000000000000000000000000000000000000000000000000000000000081525090506200274f565b600082905060005b6000821462002614578080620025fa9062003e10565b915050600a826200260c919062003c37565b9150620025e4565b60008167ffffffffffffffff81111562002657577f4e487b7100000000000000000000000000000000000000000000000000000000600052604160045260246000fd5b6040519080825280601f01601f1916602001820160405280156200268a5781602001600182028036833780820191505090505b5090505b600085146200274857600182620026a6919062003cd0565b9150600a85620026b7919062003e5e565b6030620026c5919062003bda565b60f81b81838151811062002702577f4e487b7100000000000000000000000000000000000000000000000000000000600052603260045260246000fd5b60200101907effffffffffffffffffffffffffffffffffffffffffffffffffffffffffffff1916908160001a905350600a8562002740919062003c37565b94506200268e565b8093505050505b919050565b62002760838362002964565b6200276f6000848484620027bb565b620027b1576040517f08c379a0000000000000000000000000000000000000000000000000000000008152600401620027a890620038a9565b60405180910390fd5b505050565b505050565b6000620027de8473ffffffffffffffffffffffffffffffffffffffff1662002b3e565b1562002957578373ffffffffffffffffffffffffffffffffffffffff1663150b7a026200280a62001fad565b8786866040518563ffffffff1660e01b81526004016200282e949392919062003814565b602060405180830381600087803b1580156200284957600080fd5b505af19250505080156200287d57506040513d601f19601f820116820180604052508101906200287a919062003013565b60015b62002906573d8060008114620028b0576040519150601f19603f3d011682016040523d82523d6000602084013e620028b5565b606091505b50600081511415620028fe576040517f08c379a0000000000000000000000000000000000000000000000000000000008152600401620028f590620038a9565b60405180910390fd5b805181602001fd5b63150b7a0260e01b7bffffffffffffffffffffffffffffffffffffffffffffffffffffffff1916817bffffffffffffffffffffffffffffffffffffffffffffffffffffffff1916149150506200295c565b600190505b949350505050565b600073ffffffffffffffffffffffffffffffffffffffff168273ffffffffffffffffffffffffffffffffffffffff161415620029d7576040517f08c379a0000000000000000000000000000000000000000000000000000000008152600401620029ce90620039b9565b60405180910390fd5b620029e28162001f41565b1562002a25576040517f08c379a000000000000000000000000000000000000000000000000000000000815260040162002a1c90620038cb565b60405180910390fd5b62002a3360008383620027b6565b6001600360008473ffffffffffffffffffffffffffffffffffffffff1673ffffffffffffffffffffffffffffffffffffffff168152602001908152602001600020600082825462002a85919062003bda565b92505081905550816002600083815260200190815260200160002060006101000a81548173ffffffffffffffffffffffffffffffffffffffff021916908373ffffffffffffffffffffffffffffffffffffffff160217905550808273ffffffffffffffffffffffffffffffffffffffff16600073ffffffffffffffffffffffffffffffffffffffff167fddf252ad1be2c89b69c2b068fc378daa952ba7f163c4a11628f55a4df523b3ef60405160405180910390a45050565b600080823b905060008111915050919050565b82805462002b5f9062003dda565b90600052602060002090601f01602090048101928262002b83576000855562002bcf565b82601f1062002b9e57805160ff191683800117855562002bcf565b8280016001018555821562002bcf579182015b8281111562002bce57825182559160200191906001019062002bb1565b5b50905062002bde919062002c36565b5090565b610f138062003ff783390190565b50805462002bfe9062003dda565b6000825580601f1062002c12575062002c33565b601f01602090049060005260206000209081019062002c32919062002c36565b5b50565b5b8082111562002c5157600081600090555060010162002c37565b5090565b600062002c6c62002c668462003b31565b62003afd565b90508281526020810184848401111562002c8557600080fd5b62002c9284828562003d95565b509392505050565b600062002cb162002cab8462003b64565b62003afd565b90508281526020810184848401111562002cca57600080fd5b62002cd784828562003d95565b509392505050565b60008135905062002cf08162003f63565b92915050565b60008151905062002d078162003f7d565b92915050565b60008135905062002d1e8162003f97565b92915050565b60008135905062002d358162003fb1565b92915050565b60008151905062002d4c8162003fb1565b92915050565b600082601f83011262002d6457600080fd5b813562002d7684826020860162002c55565b91505092915050565b60008151905062002d908162003fcb565b92915050565b600082601f83011262002da857600080fd5b813562002dba84826020860162002c9a565b91505092915050565b60008135905062002dd48162003fdc565b92915050565b60008151905062002deb8162003fdc565b92915050565b60006020828403121562002e0457600080fd5b600062002e148482850162002cdf565b91505092915050565b60006020828403121562002e3057600080fd5b600062002e408482850162002cf6565b91505092915050565b6000806040838503121562002e5d57600080fd5b600062002e6d8582860162002cdf565b925050602062002e808582860162002cdf565b9150509250929050565b60008060006060848603121562002ea057600080fd5b600062002eb08682870162002cdf565b935050602062002ec38682870162002cdf565b925050604062002ed68682870162002dc3565b9150509250925092565b6000806000806080858703121562002ef757600080fd5b600062002f078782880162002cdf565b945050602062002f1a8782880162002cdf565b935050604062002f2d8782880162002dc3565b925050606085013567ffffffffffffffff81111562002f4b57600080fd5b62002f598782880162002d52565b91505092959194509250565b6000806040838503121562002f7957600080fd5b600062002f898582860162002cdf565b925050602062002f9c8582860162002d0d565b9150509250929050565b6000806040838503121562002fba57600080fd5b600062002fca8582860162002cdf565b925050602062002fdd8582860162002dc3565b9150509250929050565b60006020828403121562002ffa57600080fd5b60006200300a8482850162002d24565b91505092915050565b6000602082840312156200302657600080fd5b6000620030368482850162002d3b565b91505092915050565b6000602082840312156200305257600080fd5b6000620030628482850162002d7f565b91505092915050565b600080604083850312156200307f57600080fd5b600083013567ffffffffffffffff8111156200309a57600080fd5b620030a88582860162002d96565b925050602083013567ffffffffffffffff811115620030c657600080fd5b620030d48582860162002d96565b9150509250929050565b600060208284031215620030f157600080fd5b6000620031018482850162002dc3565b91505092915050565b6000602082840312156200311d57600080fd5b60006200312d8482850162002dda565b91505092915050565b600080604083850312156200314a57600080fd5b60006200315a8582860162002dc3565b92505060206200316d8582860162002dc3565b9150509250929050565b620031828162003d1f565b82525050565b620031938162003d0b565b82525050565b620031a48162003d33565b82525050565b6000620031b78262003b97565b620031c3818562003bad565b9350620031d581856020860162003da4565b620031e08162003f52565b840191505092915050565b6000620031f88262003ba2565b62003204818562003bbe565b93506200321681856020860162003da4565b620032218162003f52565b840191505092915050565b6000620032398262003ba2565b62003245818562003bcf565b93506200325781856020860162003da4565b80840191505092915050565b60006200327260328362003bbe565b91507f4552433732313a207472616e7366657220746f206e6f6e20455243373231526560008301527f63656976657220696d706c656d656e74657200000000000000000000000000006020830152604082019050919050565b6000620032da601c8362003bbe565b91507f4552433732313a20746f6b656e20616c7265616479206d696e746564000000006000830152602082019050919050565b60006200331c60248362003bbe565b91507f4552433732313a207472616e7366657220746f20746865207a65726f2061646460008301527f72657373000000000000000000000000000000000000000000000000000000006020830152604082019050919050565b60006200338460198362003bbe565b91507f4552433732313a20617070726f766520746f2063616c6c6572000000000000006000830152602082019050919050565b6000620033c6602c8362003bbe565b91507f4552433732313a206f70657261746f7220717565727920666f72206e6f6e657860008301527f697374656e7420746f6b656e00000000000000000000000000000000000000006020830152604082019050919050565b60006200342e60388362003bbe565b91507f4552433732313a20617070726f76652063616c6c6572206973206e6f74206f7760008301527f6e6572206e6f7220617070726f76656420666f7220616c6c00000000000000006020830152604082019050919050565b600062003496602a8362003bbe565b91507f4552433732313a2062616c616e636520717565727920666f7220746865207a6560008301527f726f2061646472657373000000000000000000000000000000000000000000006020830152604082019050919050565b6000620034fe60298362003bbe565b91507f4552433732313a206f776e657220717565727920666f72206e6f6e657869737460008301527f656e7420746f6b656e00000000000000000000000000000000000000000000006020830152604082019050919050565b60006200356660208362003bbe565b91507f4552433732313a206d696e7420746f20746865207a65726f20616464726573736000830152602082019050919050565b6000620035a8602c8362003bbe565b91507f4552433732313a20617070726f76656420717565727920666f72206e6f6e657860008301527f697374656e7420746f6b656e00000000000000000000000000000000000000006020830152604082019050919050565b60006200361060298362003bbe565b91507f4552433732313a207472616e73666572206f6620746f6b656e2074686174206960008301527f73206e6f74206f776e00000000000000000000000000000000000000000000006020830152604082019050919050565b600062003678602f8362003bbe565b91507f4552433732314d657461646174613a2055524920717565727920666f72206e6f60008301527f6e6578697374656e7420746f6b656e00000000000000000000000000000000006020830152604082019050919050565b6000620036e060218362003bbe565b91507f4552433732313a20617070726f76616c20746f2063757272656e74206f776e6560008301527f72000000000000000000000000000000000000000000000000000000000000006020830152604082019050919050565b60006200374860318362003bbe565b91507f4552433732313a207472616e736665722063616c6c6572206973206e6f74206f60008301527f776e6572206e6f7220617070726f7665640000000000000000000000000000006020830152604082019050919050565b620037ac8162003d8b565b82525050565b6000620037c082856200322c565b9150620037ce82846200322c565b91508190509392505050565b6000602082019050620037f1600083018462003188565b92915050565b60006020820190506200380e600083018462003177565b92915050565b60006080820190506200382b600083018762003188565b6200383a602083018662003188565b620038496040830185620037a1565b81810360608301526200385d8184620031aa565b905095945050505050565b60006020820190506200387f600083018462003199565b92915050565b60006020820190508181036000830152620038a18184620031eb565b905092915050565b60006020820190508181036000830152620038c48162003263565b9050919050565b60006020820190508181036000830152620038e681620032cb565b9050919050565b6000602082019050818103600083015262003908816200330d565b9050919050565b600060208201905081810360008301526200392a8162003375565b9050919050565b600060208201905081810360008301526200394c81620033b7565b9050919050565b600060208201905081810360008301526200396e816200341f565b9050919050565b60006020820190508181036000830152620039908162003487565b9050919050565b60006020820190508181036000830152620039b281620034ef565b9050919050565b60006020820190508181036000830152620039d48162003557565b9050919050565b60006020820190508181036000830152620039f68162003599565b9050919050565b6000602082019050818103600083015262003a188162003601565b9050919050565b6000602082019050818103600083015262003a3a8162003669565b9050919050565b6000602082019050818103600083015262003a5c81620036d1565b9050919050565b6000602082019050818103600083015262003a7e8162003739565b9050919050565b600060208201905062003a9c6000830184620037a1565b92915050565b600060808201905062003ab96000830187620037a1565b818103602083015262003acd8186620031eb565b905062003ade604083018562003188565b818103606083015262003af28184620031eb565b905095945050505050565b6000604051905081810181811067ffffffffffffffff8211171562003b275762003b2662003f23565b5b8060405250919050565b600067ffffffffffffffff82111562003b4f5762003b4e62003f23565b5b601f19601f8301169050602081019050919050565b600067ffffffffffffffff82111562003b825762003b8162003f23565b5b601f19601f8301169050602081019050919050565b600081519050919050565b600081519050919050565b600082825260208201905092915050565b600082825260208201905092915050565b600081905092915050565b600062003be78262003d8b565b915062003bf48362003d8b565b9250827fffffffffffffffffffffffffffffffffffffffffffffffffffffffffffffffff0382111562003c2c5762003c2b62003e96565b5b828201905092915050565b600062003c448262003d8b565b915062003c518362003d8b565b92508262003c645762003c6362003ec5565b5b828204905092915050565b600062003c7c8262003d8b565b915062003c898362003d8b565b9250817fffffffffffffffffffffffffffffffffffffffffffffffffffffffffffffffff048311821515161562003cc55762003cc462003e96565b5b828202905092915050565b600062003cdd8262003d8b565b915062003cea8362003d8b565b92508282101562003d005762003cff62003e96565b5b828203905092915050565b600062003d188262003d6b565b9050919050565b600062003d2c8262003d6b565b9050919050565b60008115159050919050565b60007fffffffff0000000000000000000000000000000000000000000000000000000082169050919050565b600073ffffffffffffffffffffffffffffffffffffffff82169050919050565b6000819050919050565b82818337600083830152505050565b60005b8381101562003dc457808201518184015260208101905062003da7565b8381111562003dd4576000848401525b50505050565b6000600282049050600182168062003df357607f821691505b6020821081141562003e0a5762003e0962003ef4565b5b50919050565b600062003e1d8262003d8b565b91507fffffffffffffffffffffffffffffffffffffffffffffffffffffffffffffffff82141562003e535762003e5262003e96565b5b600182019050919050565b600062003e6b8262003d8b565b915062003e788362003d8b565b92508262003e8b5762003e8a62003ec5565b5b828206905092915050565b7f4e487b7100000000000000000000000000000000000000000000000000000000600052601160045260246000fd5b7f4e487b7100000000000000000000000000000000000000000000000000000000600052601260045260246000fd5b7f4e487b7100000000000000000000000000000000000000000000000000000000600052602260045260246000fd5b7f4e487b7100000000000000000000000000000000000000000000000000000000600052604160045260246000fd5b6000601f19601f8301169050919050565b62003f6e8162003d0b565b811462003f7a57600080fd5b50565b62003f888162003d1f565b811462003f9457600080fd5b50565b62003fa28162003d33565b811462003fae57600080fd5b50565b62003fbc8162003d3f565b811462003fc857600080fd5b50565b6004811062003fd957600080fd5b50565b62003fe78162003d8b565b811462003ff357600080fd5b5056fe608060405234801561001057600080fd5b50604051610f13380380610f13833981810160405281019061003291906100de565b806000806101000a81548173ffffffffffffffffffffffffffffffffffffffff021916908373ffffffffffffffffffffffffffffffffffffffff1602179055506001600260006101000a81548160ff021916908360038111156100be577f4e487b7100000000000000000000000000000000000000000000000000000000600052602160045260246000fd5b021790555050610150565b6000815190506100d881610139565b92915050565b6000602082840312156100f057600080fd5b60006100fe848285016100c9565b91505092915050565b600061011282610119565b9050919050565b600073ffffffffffffffffffffffffffffffffffffffff82169050919050565b61014281610107565b811461014d57600080fd5b50565b610db48061015f6000396000f3fe6080604052600436106100865760003560e01c8063cff29dfd11610059578063cff29dfd14610149578063d22cf3a414610186578063d57bde79146101af578063e4940157146101da578063f77282ab146101f657610086565b806362ea82db1461008b5780637fb45099146100c85780638da5cb5b146100f357806391f901571461011e575b600080fd5b34801561009757600080fd5b506100b260048036038101906100ad9190610afc565b61020d565b6040516100bf9190610bb1565b60405180910390f35b3480156100d457600080fd5b506100dd610225565b6040516100ea9190610b96565b60405180910390f35b3480156100ff57600080fd5b50610108610238565b6040516101159190610b7b565b60405180910390f35b34801561012a57600080fd5b5061013361025c565b6040516101409190610b7b565b60405180910390f35b34801561015557600080fd5b50610170600480360381019061016b9190610b25565b610282565b60405161017d9190610b7b565b60405180910390f35b34801561019257600080fd5b506101ad60048036038101906101a89190610afc565b6102c1565b005b3480156101bb57600080fd5b506101c46104dd565b6040516101d19190610bb1565b60405180910390f35b6101f460048036038101906101ef9190610afc565b6104e3565b005b34801561020257600080fd5b5061020b610761565b005b60056020528060005260406000206000915090505481565b600260009054906101000a900460ff1681565b60008054906101000a900473ffffffffffffffffffffffffffffffffffffffff1681565b600460009054906101000a900473ffffffffffffffffffffffffffffffffffffffff1681565b6001818154811061029257600080fd5b906000526020600020016000915054906101000a900473ffffffffffffffffffffffffffffffffffffffff1681565b60008054906101000a900473ffffffffffffffffffffffffffffffffffffffff1673ffffffffffffffffffffffffffffffffffffffff168173ffffffffffffffffffffffffffffffffffffffff161461031957600080fd5b6003600260006101000a81548160ff02191690836003811115610365577f4e487b7100000000000000000000000000000000000000000000000000000000600052602160045260246000fd5b021790555060005b6001805490508110156104d957600181815481106103b4577f4e487b7100000000000000000000000000000000000000000000000000000000600052603260045260246000fd5b9060005260206000200160009054906101000a900473ffffffffffffffffffffffffffffffffffffffff1673ffffffffffffffffffffffffffffffffffffffff166108fc6005600060018581548110610436577f4e487b7100000000000000000000000000000000000000000000000000000000600052603260045260246000fd5b9060005260206000200160009054906101000a900473ffffffffffffffffffffffffffffffffffffffff1673ffffffffffffffffffffffffffffffffffffffff1673ffffffffffffffffffffffffffffffffffffffff168152602001908152602001600020549081150290604051600060405180830381858888f193505050501580156104c7573d6000803e3d6000fd5b50806104d290610c95565b905061036d565b5050565b60035481565b60008054906101000a900473ffffffffffffffffffffffffffffffffffffffff1673ffffffffffffffffffffffffffffffffffffffff168173ffffffffffffffffffffffffffffffffffffffff16141561053c57600080fd5b60016003811115610576577f4e487b7100000000000000000000000000000000000000000000000000000000600052602160045260246000fd5b600260009054906101000a900460ff1660038111156105be577f4e487b7100000000000000000000000000000000000000000000000000000000600052602160045260246000fd5b146105c857600080fd5b6000600560008373ffffffffffffffffffffffffffffffffffffffff1673ffffffffffffffffffffffffffffffffffffffff168152602001908152602001600020541415610674576001819080600181540180825580915050600190039060005260206000200160009091909190916101000a81548173ffffffffffffffffffffffffffffffffffffffff021916908373ffffffffffffffffffffffffffffffffffffffff1602179055505b600034600560008473ffffffffffffffffffffffffffffffffffffffff1673ffffffffffffffffffffffffffffffffffffffff168152602001908152602001600020546106c19190610bcc565b905060035481116106d157600080fd5b80600560008473ffffffffffffffffffffffffffffffffffffffff1673ffffffffffffffffffffffffffffffffffffffff168152602001908152602001600020819055508060038190555081600460006101000a81548173ffffffffffffffffffffffffffffffffffffffff021916908373ffffffffffffffffffffffffffffffffffffffff1602179055505050565b60038081111561079a577f4e487b7100000000000000000000000000000000000000000000000000000000600052602160045260246000fd5b600260009054906101000a900460ff1660038111156107e2577f4e487b7100000000000000000000000000000000000000000000000000000000600052602160045260246000fd5b14156107ed57600080fd5b60008054906101000a900473ffffffffffffffffffffffffffffffffffffffff1673ffffffffffffffffffffffffffffffffffffffff166108fc6003549081150290604051600060405180830381858888f19350505050158015610855573d6000803e3d6000fd5b5060005b600180549050811015610a7f57600460009054906101000a900473ffffffffffffffffffffffffffffffffffffffff1673ffffffffffffffffffffffffffffffffffffffff16600182815481106108d9577f4e487b7100000000000000000000000000000000000000000000000000000000600052603260045260246000fd5b9060005260206000200160009054906101000a900473ffffffffffffffffffffffffffffffffffffffff1673ffffffffffffffffffffffffffffffffffffffff1614610a6e5760018181548110610959577f4e487b7100000000000000000000000000000000000000000000000000000000600052603260045260246000fd5b9060005260206000200160009054906101000a900473ffffffffffffffffffffffffffffffffffffffff1673ffffffffffffffffffffffffffffffffffffffff166108fc60056000600185815481106109db577f4e487b7100000000000000000000000000000000000000000000000000000000600052603260045260246000fd5b9060005260206000200160009054906101000a900473ffffffffffffffffffffffffffffffffffffffff1673ffffffffffffffffffffffffffffffffffffffff1673ffffffffffffffffffffffffffffffffffffffff168152602001908152602001600020549081150290604051600060405180830381858888f19350505050158015610a6c573d6000803e3d6000fd5b505b80610a7890610c95565b9050610859565b5060028060006101000a81548160ff02191690836003811115610acb577f4e487b7100000000000000000000000000000000000000000000000000000000600052602160045260246000fd5b0217905550565b600081359050610ae181610d50565b92915050565b600081359050610af681610d67565b92915050565b600060208284031215610b0e57600080fd5b6000610b1c84828501610ad2565b91505092915050565b600060208284031215610b3757600080fd5b6000610b4584828501610ae7565b91505092915050565b610b5781610c34565b82525050565b610b6681610c83565b82525050565b610b7581610c79565b82525050565b6000602082019050610b906000830184610b4e565b92915050565b6000602082019050610bab6000830184610b5d565b92915050565b6000602082019050610bc66000830184610b6c565b92915050565b6000610bd782610c79565b9150610be283610c79565b9250827fffffffffffffffffffffffffffffffffffffffffffffffffffffffffffffffff03821115610c1757610c16610cde565b5b828201905092915050565b6000610c2d82610c59565b9050919050565b6000610c3f82610c59565b9050919050565b6000819050610c5482610d3c565b919050565b600073ffffffffffffffffffffffffffffffffffffffff82169050919050565b6000819050919050565b6000610c8e82610c46565b9050919050565b6000610ca082610c79565b91507fffffffffffffffffffffffffffffffffffffffffffffffffffffffffffffffff821415610cd357610cd2610cde565b5b600182019050919050565b7f4e487b7100000000000000000000000000000000000000000000000000000000600052601160045260246000fd5b7f4e487b7100000000000000000000000000000000000000000000000000000000600052602160045260246000fd5b60048110610d4d57610d4c610d0d565b5b50565b610d5981610c22565b8114610d6457600080fd5b50565b610d7081610c79565b8114610d7b57600080fd5b5056fea264697066735822122061703e9eb9daefc24c004e903d86a7c30e0a8cc8404c9137ece482364107cd2e64736f6c63430008000033a26469706673582212207beb210ffb10a2ef9e968815768b65bd6033bb642add1572e7ef37fbe38ef67764736f6c63430008000033",
  "immutableReferences": {},
  "source": "pragma solidity ^0.8.0;\r\n\r\nimport \"./ToknCollectible.sol\";\r\nimport \"./Auction.sol\";\r\n\r\ncontract ToknBidding is ToknCollectible{\r\n\r\n  // uint256 collectibleID;\r\n  // address payable creator;\r\n  // address payable owner;\r\n    mapping(uint256=> bool) public runningAuction;\r\n  mapping(uint256=> address) public currentAuctionForTokn;\r\n  // mapping(uint256=> mapping(address=>bool)) public currentRunningAuction;\r\n  mapping(uint=> uint) public toknMaxPrice;\r\n  \r\n  constructor(string memory name, string memory symbol) ToknCollectible(name, symbol){\r\n    // collectibleID = _toknID;\r\n    // creator = payable(_creator);\r\n    // owner = payable(msg.sender);\r\n  }\r\nfunction toknExists(uint256 toknID) private view{\r\n  require(_exists(toknID));\r\n}\r\n\r\n // Starting auction for a particular collectible\r\nfunction startAuction(uint256 toknID, uint _maxPrice) public {\r\n  toknExists(toknID);\r\n  // require(_exists(toknID));\r\n  require(_isApprovedOrOwner(msg.sender, toknID) && runningAuction[toknID] == false);\r\n  // require(runningAuction[toknID] == false);\r\n\r\n  // address newAuction = address(new Auction(payable(msg.sender)));\r\n  // collectibleAuctions[toknID].push(address(newAuction));\r\n  toknMaxPrice[toknID] =_maxPrice*10**18;\r\n  runningAuction[toknID] = true;\r\n  currentAuctionForTokn[toknID] = address(new Auction(payable(msg.sender)));\r\n}\r\n\r\n\r\n// Placeing Bid\r\nfunction bid(uint256 _toknID) public payable{\r\n  toknExists(_toknID);\r\n  // require(_exists(_toknID));\r\n  require(runningAuction[_toknID]);\r\n  \r\n  // Auction currentAuction = currentAuctionForTokn[_toknID];\r\n\r\n  Auction(currentAuctionForTokn[_toknID]).placeBid{value: msg.value}(msg.sender);\r\n\r\n  // Finalizing the auction if the current bid reaches maximum price defines by the owner \r\n  if(msg.value >= toknMaxPrice[_toknID]){\r\n    runningAuction[_toknID] = false;\r\n\r\n  }\r\n  \r\n}\r\n\r\n// Finalizing Auction and transferring the ownership to the buyer and sending the commision to the original creator\r\nfunction endAuction(uint256 _toknID, uint256 commission) public {\r\n  toknExists(_toknID);\r\n  // require(_exists(_toknID));\r\n  Auction currentAuction = Auction(currentAuctionForTokn[_toknID]);\r\n  require(currentAuction.auctionState() != Auction.State.Ended && msg.sender == currentAuction.owner()); \r\n  // require(msg.sender == currentAuction.owner());\r\n  \r\n  currentAuction.finalizeAuction();\r\n  _collectibleList[_toknID]._owner = currentAuction.highestBidder();\r\n  // uint lastPrice = currentAuction.highestBid()/uint(10**18);\r\n  // uint creatorCommission = ((currentAuction.highestBid()/uint(10**18))*commission/uint(100));\r\n  creator.transfer(((currentAuction.highestBid()/uint(10**18))*commission/uint(100))*10**18); \r\n  safeTransferFrom(msg.sender, currentAuction.highestBidder(), _toknID);\r\n  runningAuction[_toknID] = false;\r\n  // delete currentAuctionForTokn[_toknID];\r\n}\r\n\r\n//cancelling the auction\r\nfunction cancelAuction(uint256 toknID) public {\r\n  toknExists(toknID);\r\n  // require(_exists(toknID));\r\n  require(msg.sender == _collectibleList[toknID]._owner && runningAuction[toknID]);\r\n  // require(runningAuction[toknID]);\r\n  // Auction currentAuction = currentAuctionForTokn[toknID];\r\n  Auction(currentAuctionForTokn[toknID]).cancelAuction(msg.sender);\r\n  runningAuction[toknID] = false;\r\n  // delete currentAuctionForTokn[toknID];\r\n}\r\n\r\n// setting terminal price for auction\r\nfunction setMaxPrice(uint256 toknID, uint price) public {\r\n  toknExists(toknID);\r\n  // require(_exists(toknID));\r\n  require(msg.sender == _collectibleList[toknID]._owner && runningAuction[toknID]);\r\n  // require(runningAuction[toknID]);\r\n \r\n  // Auction currentAuction = currentAuctionForTokn[toknID];\r\n  toknMaxPrice[toknID] = price*10**18;\r\n}\r\n\r\n}",
  "sourcePath": "C:/Users/lenovo/OneDrive/Desktop/projects/Tokn/contracts/ToknBidding.sol",
  "compiler": {
    "name": "solc",
    "version": "0.8.0+commit.c7dfd78e.Emscripten.clang"
  },
  "schemaVersion": "3.4.1",
  "updatedAt": "2021-07-29T13:59:37.690Z",
  "networkType": "ethereum",
  "devdoc": {
    "kind": "dev",
    "methods": {
      "approve(address,uint256)": {
        "details": "See {IERC721-approve}."
      },
      "balanceOf(address)": {
        "details": "See {IERC721-balanceOf}."
      },
      "getApproved(uint256)": {
        "details": "See {IERC721-getApproved}."
      },
      "isApprovedForAll(address,address)": {
        "details": "See {IERC721-isApprovedForAll}."
      },
      "name()": {
        "details": "See {IERC721Metadata-name}."
      },
      "ownerOf(uint256)": {
        "details": "See {IERC721-ownerOf}."
      },
      "safeTransferFrom(address,address,uint256)": {
        "details": "See {IERC721-safeTransferFrom}."
      },
      "safeTransferFrom(address,address,uint256,bytes)": {
        "details": "See {IERC721-safeTransferFrom}."
      },
      "setApprovalForAll(address,bool)": {
        "details": "See {IERC721-setApprovalForAll}."
      },
      "supportsInterface(bytes4)": {
        "details": "See {IERC165-supportsInterface}."
      },
      "symbol()": {
        "details": "See {IERC721Metadata-symbol}."
      },
      "tokenURI(uint256)": {
        "details": "See {IERC721Metadata-tokenURI}."
      },
      "transferFrom(address,address,uint256)": {
        "details": "See {IERC721-transferFrom}."
      }
    },
    "version": 1
  },
  "userdoc": {
    "kind": "user",
    "methods": {},
    "version": 1
  }
}